{
  "contractName": "ACGroups",
  "abi": [
    {
      "constant": false,
      "inputs": [
        {
          "name": "_new_owner",
          "type": "address"
        }
      ],
      "name": "change_owner",
      "outputs": [
        {
          "name": "_success",
          "type": "bool"
        }
      ],
      "payable": false,
      "stateMutability": "nonpayable",
      "type": "function"
    },
    {
      "constant": true,
      "inputs": [],
      "name": "new_owner",
      "outputs": [
        {
          "name": "",
          "type": "address"
        }
      ],
      "payable": false,
      "stateMutability": "view",
      "type": "function"
    },
    {
      "constant": true,
      "inputs": [],
      "name": "owner",
      "outputs": [
        {
          "name": "",
          "type": "address"
        }
      ],
      "payable": false,
      "stateMutability": "view",
      "type": "function"
    },
    {
      "constant": false,
      "inputs": [
        {
          "name": "_newadmin",
          "type": "address"
        }
      ],
      "name": "register_admin",
      "outputs": [
        {
          "name": "_success",
          "type": "bool"
        }
      ],
      "payable": false,
      "stateMutability": "nonpayable",
      "type": "function"
    },
    {
      "constant": false,
      "inputs": [
        {
          "name": "_oldadmin",
          "type": "address"
        }
      ],
      "name": "unregister_admin",
      "outputs": [
        {
          "name": "_success",
          "type": "bool"
        }
      ],
      "payable": false,
      "stateMutability": "nonpayable",
      "type": "function"
    },
    {
      "constant": false,
      "inputs": [
        {
          "name": "_group",
          "type": "bytes32"
        },
        {
          "name": "_user",
          "type": "address"
        }
      ],
      "name": "add_user_to_group",
      "outputs": [
        {
          "name": "_success",
          "type": "bool"
        }
      ],
      "payable": false,
      "stateMutability": "nonpayable",
      "type": "function"
    },
    {
      "constant": false,
      "inputs": [
        {
          "name": "_group",
          "type": "bytes32"
        },
        {
          "name": "_user",
          "type": "address"
        }
      ],
      "name": "delete_user_from_group",
      "outputs": [
        {
          "name": "_success",
          "type": "bool"
        }
      ],
      "payable": false,
      "stateMutability": "nonpayable",
      "type": "function"
    },
    {
      "constant": true,
      "inputs": [
        {
          "name": "_group",
          "type": "bytes32"
        },
        {
          "name": "_user",
          "type": "address"
        }
      ],
      "name": "is_group_member_of",
      "outputs": [
        {
          "name": "_ismember",
          "type": "bool"
        }
      ],
      "payable": false,
      "stateMutability": "view",
      "type": "function"
    },
    {
      "constant": false,
      "inputs": [],
      "name": "claim_ownership",
      "outputs": [
        {
          "name": "_success",
          "type": "bool"
        }
      ],
      "payable": false,
      "stateMutability": "nonpayable",
      "type": "function"
    }
  ],
  "bytecode": "0x60806040526000600160156101000a81548160ff02191690831515021790555034801561002b57600080fd5b50610b8d8061003b6000396000f300608060405260043610610099576000357c0100000000000000000000000000000000000000000000000000000000900463ffffffff1680630207e20e1461009e578063253c8bd4146100f95780634552b04f14610154578063682d038a146101ab57806379f0a895146102145780638da5cb5b1461026f578063b692ee23146102c6578063e6fc01a91461032f578063f7a79a0214610398575b600080fd5b3480156100aa57600080fd5b506100df600480360381019080803573ffffffffffffffffffffffffffffffffffffffff1690602001909291905050506103c7565b604051808215151515815260200191505060405180910390f35b34801561010557600080fd5b5061013a600480360381019080803573ffffffffffffffffffffffffffffffffffffffff169060200190929190505050610475565b604051808215151515815260200191505060405180910390f35b34801561016057600080fd5b506101696104d4565b604051808273ffffffffffffffffffffffffffffffffffffffff1673ffffffffffffffffffffffffffffffffffffffff16815260200191505060405180910390f35b3480156101b757600080fd5b506101fa6004803603810190808035600019169060200190929190803573ffffffffffffffffffffffffffffffffffffffff1690602001909291905050506104fa565b604051808215151515815260200191505060405180910390f35b34801561022057600080fd5b50610255600480360381019080803573ffffffffffffffffffffffffffffffffffffffff169060200190929190505050610643565b604051808215151515815260200191505060405180910390f35b34801561027b57600080fd5b506102846106f1565b604051808273ffffffffffffffffffffffffffffffffffffffff1673ffffffffffffffffffffffffffffffffffffffff16815260200191505060405180910390f35b3480156102d257600080fd5b506103156004803603810190808035600019169060200190929190803573ffffffffffffffffffffffffffffffffffffffff169060200190929190505050610716565b604051808215151515815260200191505060405180910390f35b34801561033b57600080fd5b5061037e6004803603810190808035600019169060200190929190803573ffffffffffffffffffffffffffffffffffffffff16906020019092919050505061085f565b604051808215151515815260200191505060405180910390f35b3480156103a457600080fd5b506103ad6108d2565b604051808215151515815260200191505060405180910390f35b60006103d1610a43565b15156103dc57600080fd5b6000600260007f61646d696e73000000000000000000000000000000000000000000000000000060001916815260200190815260200160002060000160008473ffffffffffffffffffffffffffffffffffffffff1673ffffffffffffffffffffffffffffffffffffffff16815260200190815260200160002060006101000a81548160ff02191690831515021790555060019050919050565b600061047f610a43565b151561048a57600080fd5b81600160006101000a81548173ffffffffffffffffffffffffffffffffffffffff021916908373ffffffffffffffffffffffffffffffffffffffff16021790555060019050919050565b600160009054906101000a900473ffffffffffffffffffffffffffffffffffffffff1681565b60007f61646d696e73000000000000000000000000000000000000000000000000000060026000826000191660001916815260200190815260200160002060000160003373ffffffffffffffffffffffffffffffffffffffff1673ffffffffffffffffffffffffffffffffffffffff16815260200190815260200160002060009054906101000a900460ff16151561059157600080fd5b7f61646d696e7300000000000000000000000000000000000000000000000000008460001916141515156105c457600080fd5b600160026000866000191660001916815260200190815260200160002060000160008573ffffffffffffffffffffffffffffffffffffffff1673ffffffffffffffffffffffffffffffffffffffff16815260200190815260200160002060006101000a81548160ff021916908315150217905550600191505092915050565b600061064d610a43565b151561065857600080fd5b6001600260007f61646d696e73000000000000000000000000000000000000000000000000000060001916815260200190815260200160002060000160008473ffffffffffffffffffffffffffffffffffffffff1673ffffffffffffffffffffffffffffffffffffffff16815260200190815260200160002060006101000a81548160ff02191690831515021790555060019050919050565b6000809054906101000a900473ffffffffffffffffffffffffffffffffffffffff1681565b60007f61646d696e73000000000000000000000000000000000000000000000000000060026000826000191660001916815260200190815260200160002060000160003373ffffffffffffffffffffffffffffffffffffffff1673ffffffffffffffffffffffffffffffffffffffff16815260200190815260200160002060009054906101000a900460ff1615156107ad57600080fd5b7f61646d696e7300000000000000000000000000000000000000000000000000008460001916141515156107e057600080fd5b600060026000866000191660001916815260200190815260200160002060000160008573ffffffffffffffffffffffffffffffffffffffff1673ffffffffffffffffffffffffffffffffffffffff16815260200190815260200160002060006101000a81548160ff021916908315150217905550600191505092915050565b600060026000846000191660001916815260200190815260200160002060000160008373ffffffffffffffffffffffffffffffffffffffff1673ffffffffffffffffffffffffffffffffffffffff16815260200190815260200160002060009054906101000a900460ff16905092915050565b600080600260007f61646d696e73000000000000000000000000000000000000000000000000000060001916815260200190815260200160002060000160008060009054906101000a900473ffffffffffffffffffffffffffffffffffffffff1673ffffffffffffffffffffffffffffffffffffffff1673ffffffffffffffffffffffffffffffffffffffff16815260200190815260200160002060006101000a81548160ff0219169083151502179055506001600260007f61646d696e7300000000000000000000000000000000000000000000000000006000191681526020019081526020016000206000016000600160009054906101000a900473ffffffffffffffffffffffffffffffffffffffff1673ffffffffffffffffffffffffffffffffffffffff1673ffffffffffffffffffffffffffffffffffffffff16815260200190815260200160002060006101000a81548160ff021916908315150217905550610a3e610a9a565b905090565b60008060009054906101000a900473ffffffffffffffffffffffffffffffffffffffff1673ffffffffffffffffffffffffffffffffffffffff163373ffffffffffffffffffffffffffffffffffffffff1614905090565b6000600160009054906101000a900473ffffffffffffffffffffffffffffffffffffffff1673ffffffffffffffffffffffffffffffffffffffff163373ffffffffffffffffffffffffffffffffffffffff16141515610af857600080fd5b600160009054906101000a900473ffffffffffffffffffffffffffffffffffffffff166000806101000a81548173ffffffffffffffffffffffffffffffffffffffff021916908373ffffffffffffffffffffffffffffffffffffffff16021790555060019050905600a165627a7a723058202ec897db3f0d27bf67a29654fb368a223d8a4b5c7b0edb1b98599aa5aa8d61d50029",
  "source": "pragma solidity ^0.4.19;\n\nimport \"./ACOwned.sol\";\n\n/// @title Owner based access control\n/// @author DigixGlobal\n\ncontract ACGroups is ACOwned {\n\n  bool is_ac_groups_init = false;\n\n  struct Group {\n    mapping(address => bool) members;\n  }\n\n  mapping (bytes32 => Group) groups;\n\n  modifier if_group(bytes32 _group_name) {\n    require(groups[_group_name].members[msg.sender]);\n    _;\n  }\n\n  function init_ac_groups()\n           internal\n           returns (bool _success)\n  {\n    if(is_ac_owned_init == false) {\n      init_ac_owned();\n    }\n    if(is_ac_groups_init == false) {\n      groups[\"admins\"].members[msg.sender] = true;\n      is_ac_groups_init = true;\n    }\n    _success = true;\n  }\n\n  function register_admin(address _newadmin)\n           if_owner\n           public\n           returns (bool _success)\n  {\n    groups[\"admins\"].members[_newadmin] = true;\n    _success = true;\n  }\n\n  function unregister_admin(address _oldadmin)\n           if_owner\n           public\n           returns (bool _success)\n  {\n    groups[\"admins\"].members[_oldadmin] = false;\n    _success = true;\n  }\n\n  function add_user_to_group(bytes32 _group, address _user)\n           if_group(\"admins\")\n           public\n           returns (bool _success)\n  {\n    require(_group != \"admins\");\n    groups[_group].members[_user] = true;\n    _success = true;\n  }\n\n  function delete_user_from_group(bytes32 _group, address _user)\n           if_group(\"admins\")\n           public\n           returns (bool _success)\n  {\n    require(_group != \"admins\");\n    groups[_group].members[_user] = false;\n    _success = true;\n  }\n\n  function is_group_member_of(bytes32 _group, address _user)\n           public\n           constant\n           returns (bool _ismember)\n  {\n    _ismember = groups[_group].members[_user];\n  }\n\n  function claim_ownership()\n           public\n           returns (bool _success)\n  {\n    // revoke admins role of old owner, add new owner to admins\n    groups[\"admins\"].members[owner] = false;\n    groups[\"admins\"].members[new_owner] = true;\n    _success = super.claim_ownership();\n  }\n}\n",
  "sourcePath": "@digix/cacp-contracts-dao/contracts/ACGroups.sol",
  "compiler": {
    "name": "solc",
    "version": "0.4.24+commit.e67f0147.Emscripten.clang"
  },
  "schemaVersion": "2.0.1",
  "updatedAt": "2018-10-08T06:32:23.432Z"
}