{
  "contractName": "ACOwned",
  "abi": [
    {
      "constant": true,
      "inputs": [],
      "name": "new_owner",
      "outputs": [
        {
          "name": "",
          "type": "address"
        }
      ],
      "payable": false,
      "stateMutability": "view",
      "type": "function"
    },
    {
      "constant": true,
      "inputs": [],
      "name": "owner",
      "outputs": [
        {
          "name": "",
          "type": "address"
        }
      ],
      "payable": false,
      "stateMutability": "view",
      "type": "function"
    },
    {
      "constant": false,
      "inputs": [
        {
          "name": "_new_owner",
          "type": "address"
        }
      ],
      "name": "change_owner",
      "outputs": [
        {
          "name": "_success",
          "type": "bool"
        }
      ],
      "payable": false,
      "stateMutability": "nonpayable",
      "type": "function"
    },
    {
      "constant": false,
      "inputs": [],
      "name": "claim_ownership",
      "outputs": [
        {
          "name": "_success",
          "type": "bool"
        }
      ],
      "payable": false,
      "stateMutability": "nonpayable",
      "type": "function"
    }
  ],
  "bytecode": "0x608060405234801561001057600080fd5b50610393806100206000396000f300608060405260043610610062576000357c0100000000000000000000000000000000000000000000000000000000900463ffffffff168063253c8bd4146100675780634552b04f146100c25780638da5cb5b14610119578063f7a79a0214610170575b600080fd5b34801561007357600080fd5b506100a8600480360381019080803573ffffffffffffffffffffffffffffffffffffffff16906020019092919050505061019f565b604051808215151515815260200191505060405180910390f35b3480156100ce57600080fd5b506100d76101fe565b604051808273ffffffffffffffffffffffffffffffffffffffff1673ffffffffffffffffffffffffffffffffffffffff16815260200191505060405180910390f35b34801561012557600080fd5b5061012e610224565b604051808273ffffffffffffffffffffffffffffffffffffffff1673ffffffffffffffffffffffffffffffffffffffff16815260200191505060405180910390f35b34801561017c57600080fd5b50610185610249565b604051808215151515815260200191505060405180910390f35b60006101a9610310565b15156101b457600080fd5b81600160006101000a81548173ffffffffffffffffffffffffffffffffffffffff021916908373ffffffffffffffffffffffffffffffffffffffff16021790555060019050919050565b600160009054906101000a900473ffffffffffffffffffffffffffffffffffffffff1681565b6000809054906101000a900473ffffffffffffffffffffffffffffffffffffffff1681565b6000600160009054906101000a900473ffffffffffffffffffffffffffffffffffffffff1673ffffffffffffffffffffffffffffffffffffffff163373ffffffffffffffffffffffffffffffffffffffff161415156102a757600080fd5b600160009054906101000a900473ffffffffffffffffffffffffffffffffffffffff166000806101000a81548173ffffffffffffffffffffffffffffffffffffffff021916908373ffffffffffffffffffffffffffffffffffffffff1602179055506001905090565b60008060009054906101000a900473ffffffffffffffffffffffffffffffffffffffff1673ffffffffffffffffffffffffffffffffffffffff163373ffffffffffffffffffffffffffffffffffffffff16149050905600a165627a7a723058202f6f30529d6b36dd3d72667e9006c854ea91b4a0b712f9532cfa6c95118856340029",
  "source": "pragma solidity ^0.4.19;\n\n/// @title Owner based access control\n/// @author DigixGlobal\n\ncontract ACOwned {\n\n  address public owner;\n  address public new_owner;\n  bool is_ac_owned_init;\n\n  /// @dev Modifier to check if msg.sender is the contract owner\n  modifier if_owner() {\n    require(is_owner());\n    _;\n  }\n\n  function init_ac_owned()\n           internal\n           returns (bool _success)\n  {\n    if (is_ac_owned_init == false) {\n      owner = msg.sender;\n      is_ac_owned_init = true;\n    }\n    _success = true;\n  }\n\n  function is_owner()\n           private\n           constant\n           returns (bool _is_owner)\n  {\n    _is_owner = (msg.sender == owner);\n  }\n\n  function change_owner(address _new_owner)\n           if_owner()\n           public\n           returns (bool _success)\n  {\n    new_owner = _new_owner;\n    _success = true;\n  }\n\n  function claim_ownership()\n           public\n           returns (bool _success)\n  {\n    require(msg.sender == new_owner);\n    owner = new_owner;\n    _success = true;\n  }\n\n}\n",
  "sourcePath": "@digix/cacp-contracts-dao/contracts/ACOwned.sol",
  "compiler": {
    "name": "solc",
    "version": "0.4.24+commit.e67f0147.Emscripten.clang"
  },
  "schemaVersion": "2.0.1",
  "updatedAt": "2018-10-08T06:32:23.433Z"
}