{
  "contractName": "Dao",
  "abi": [
    {
      "constant": true,
      "inputs": [],
      "name": "resolver",
      "outputs": [
        {
          "name": "",
          "type": "address"
        }
      ],
      "payable": false,
      "stateMutability": "view",
      "type": "function"
    },
    {
      "constant": true,
      "inputs": [],
      "name": "currentQuarterIndex",
      "outputs": [
        {
          "name": "_quarterIndex",
          "type": "uint256"
        }
      ],
      "payable": false,
      "stateMutability": "view",
      "type": "function"
    },
    {
      "constant": true,
      "inputs": [
        {
          "name": "_configKey",
          "type": "bytes32"
        }
      ],
      "name": "getAddressConfig",
      "outputs": [
        {
          "name": "_configValue",
          "type": "address"
        }
      ],
      "payable": false,
      "stateMutability": "view",
      "type": "function"
    },
    {
      "constant": true,
      "inputs": [],
      "name": "key",
      "outputs": [
        {
          "name": "",
          "type": "bytes32"
        }
      ],
      "payable": false,
      "stateMutability": "view",
      "type": "function"
    },
    {
      "constant": true,
      "inputs": [
        {
          "name": "_key",
          "type": "bytes32"
        }
      ],
      "name": "get_contract",
      "outputs": [
        {
          "name": "_contract",
          "type": "address"
        }
      ],
      "payable": false,
      "stateMutability": "view",
      "type": "function"
    },
    {
      "constant": true,
      "inputs": [],
      "name": "currentTimeInQuarter",
      "outputs": [
        {
          "name": "_currentT",
          "type": "uint256"
        }
      ],
      "payable": false,
      "stateMutability": "view",
      "type": "function"
    },
    {
      "constant": true,
      "inputs": [],
      "name": "isMainPhase",
      "outputs": [
        {
          "name": "_isMainPhase",
          "type": "bool"
        }
      ],
      "payable": false,
      "stateMutability": "view",
      "type": "function"
    },
    {
      "constant": true,
      "inputs": [],
      "name": "isLockingPhase",
      "outputs": [
        {
          "name": "_isLockingPhase",
          "type": "bool"
        }
      ],
      "payable": false,
      "stateMutability": "view",
      "type": "function"
    },
    {
      "constant": true,
      "inputs": [
        {
          "name": "_user",
          "type": "address"
        }
      ],
      "name": "isParticipant",
      "outputs": [
        {
          "name": "_is",
          "type": "bool"
        }
      ],
      "payable": false,
      "stateMutability": "view",
      "type": "function"
    },
    {
      "constant": true,
      "inputs": [
        {
          "name": "_configKey",
          "type": "bytes32"
        }
      ],
      "name": "getBytesConfig",
      "outputs": [
        {
          "name": "_configValue",
          "type": "bytes32"
        }
      ],
      "payable": false,
      "stateMutability": "view",
      "type": "function"
    },
    {
      "constant": true,
      "inputs": [
        {
          "name": "_configKey",
          "type": "bytes32"
        }
      ],
      "name": "getUintConfig",
      "outputs": [
        {
          "name": "_configValue",
          "type": "uint256"
        }
      ],
      "payable": false,
      "stateMutability": "view",
      "type": "function"
    },
    {
      "constant": true,
      "inputs": [],
      "name": "isDaoNotReplaced",
      "outputs": [
        {
          "name": "_isNotReplaced",
          "type": "bool"
        }
      ],
      "payable": false,
      "stateMutability": "view",
      "type": "function"
    },
    {
      "constant": true,
      "inputs": [],
      "name": "CONTRACT_ADDRESS",
      "outputs": [
        {
          "name": "",
          "type": "address"
        }
      ],
      "payable": false,
      "stateMutability": "view",
      "type": "function"
    },
    {
      "constant": true,
      "inputs": [
        {
          "name": "_proposalId",
          "type": "bytes32"
        }
      ],
      "name": "isProposalPaused",
      "outputs": [
        {
          "name": "_isPausedOrStopped",
          "type": "bool"
        }
      ],
      "payable": false,
      "stateMutability": "view",
      "type": "function"
    },
    {
      "constant": true,
      "inputs": [
        {
          "name": "_user",
          "type": "address"
        }
      ],
      "name": "isModerator",
      "outputs": [
        {
          "name": "_is",
          "type": "bool"
        }
      ],
      "payable": false,
      "stateMutability": "view",
      "type": "function"
    },
    {
      "inputs": [
        {
          "name": "_resolver",
          "type": "address"
        }
      ],
      "payable": false,
      "stateMutability": "nonpayable",
      "type": "constructor"
    },
    {
      "anonymous": false,
      "inputs": [
        {
          "indexed": false,
          "name": "_proposalId",
          "type": "bytes32"
        },
        {
          "indexed": false,
          "name": "_proposer",
          "type": "address"
        }
      ],
      "name": "NewProposal",
      "type": "event"
    },
    {
      "anonymous": false,
      "inputs": [
        {
          "indexed": false,
          "name": "_proposalId",
          "type": "bytes32"
        },
        {
          "indexed": false,
          "name": "_newDoc",
          "type": "bytes32"
        }
      ],
      "name": "ModifyProposal",
      "type": "event"
    },
    {
      "anonymous": false,
      "inputs": [
        {
          "indexed": false,
          "name": "_proposalId",
          "type": "bytes32"
        }
      ],
      "name": "ChangeProposalFunding",
      "type": "event"
    },
    {
      "anonymous": false,
      "inputs": [
        {
          "indexed": false,
          "name": "_proposalId",
          "type": "bytes32"
        }
      ],
      "name": "FinalizeProposal",
      "type": "event"
    },
    {
      "anonymous": false,
      "inputs": [
        {
          "indexed": false,
          "name": "_proposalId",
          "type": "bytes32"
        },
        {
          "indexed": false,
          "name": "_milestoneIndex",
          "type": "uint256"
        }
      ],
      "name": "FinishMilestone",
      "type": "event"
    },
    {
      "anonymous": false,
      "inputs": [
        {
          "indexed": false,
          "name": "_proposalId",
          "type": "bytes32"
        },
        {
          "indexed": false,
          "name": "_newDoc",
          "type": "bytes32"
        }
      ],
      "name": "AddProposalDoc",
      "type": "event"
    },
    {
      "anonymous": false,
      "inputs": [
        {
          "indexed": false,
          "name": "_proposalId",
          "type": "bytes32"
        },
        {
          "indexed": false,
          "name": "_actionId",
          "type": "uint256"
        },
        {
          "indexed": false,
          "name": "_doc",
          "type": "bytes32"
        }
      ],
      "name": "PRLAction",
      "type": "event"
    },
    {
      "constant": false,
      "inputs": [
        {
          "name": "_newDaoContract",
          "type": "address"
        },
        {
          "name": "_newDaoFundingManager",
          "type": "address"
        },
        {
          "name": "_newDaoRewardsManager",
          "type": "address"
        }
      ],
      "name": "setNewDaoContracts",
      "outputs": [],
      "payable": false,
      "stateMutability": "nonpayable",
      "type": "function"
    },
    {
      "constant": false,
      "inputs": [
        {
          "name": "_newDaoContract",
          "type": "address"
        },
        {
          "name": "_newDaoFundingManager",
          "type": "address"
        },
        {
          "name": "_newDaoRewardsManager",
          "type": "address"
        }
      ],
      "name": "migrateToNewDao",
      "outputs": [],
      "payable": false,
      "stateMutability": "nonpayable",
      "type": "function"
    },
    {
      "constant": false,
      "inputs": [
        {
          "name": "_start",
          "type": "uint256"
        }
      ],
      "name": "setStartOfFirstQuarter",
      "outputs": [],
      "payable": false,
      "stateMutability": "nonpayable",
      "type": "function"
    },
    {
      "constant": false,
      "inputs": [
        {
          "name": "_docIpfsHash",
          "type": "bytes32"
        },
        {
          "name": "_milestonesFundings",
          "type": "uint256[]"
        },
        {
          "name": "_finalReward",
          "type": "uint256"
        }
      ],
      "name": "submitPreproposal",
      "outputs": [],
      "payable": true,
      "stateMutability": "payable",
      "type": "function"
    },
    {
      "constant": false,
      "inputs": [
        {
          "name": "_proposalId",
          "type": "bytes32"
        },
        {
          "name": "_docIpfsHash",
          "type": "bytes32"
        },
        {
          "name": "_milestonesFundings",
          "type": "uint256[]"
        },
        {
          "name": "_finalReward",
          "type": "uint256"
        }
      ],
      "name": "modifyProposal",
      "outputs": [],
      "payable": false,
      "stateMutability": "nonpayable",
      "type": "function"
    },
    {
      "constant": false,
      "inputs": [
        {
          "name": "_proposalId",
          "type": "bytes32"
        },
        {
          "name": "_milestonesFundings",
          "type": "uint256[]"
        },
        {
          "name": "_finalReward",
          "type": "uint256"
        },
        {
          "name": "_currentMilestone",
          "type": "uint256"
        }
      ],
      "name": "changeFundings",
      "outputs": [],
      "payable": false,
      "stateMutability": "nonpayable",
      "type": "function"
    },
    {
      "constant": false,
      "inputs": [
        {
          "name": "_proposalId",
          "type": "bytes32"
        }
      ],
      "name": "finalizeProposal",
      "outputs": [],
      "payable": false,
      "stateMutability": "nonpayable",
      "type": "function"
    },
    {
      "constant": false,
      "inputs": [
        {
          "name": "_proposalId",
          "type": "bytes32"
        },
        {
          "name": "_milestoneIndex",
          "type": "uint256"
        }
      ],
      "name": "finishMilestone",
      "outputs": [],
      "payable": false,
      "stateMutability": "nonpayable",
      "type": "function"
    },
    {
      "constant": false,
      "inputs": [
        {
          "name": "_proposalId",
          "type": "bytes32"
        },
        {
          "name": "_newDoc",
          "type": "bytes32"
        }
      ],
      "name": "addProposalDoc",
      "outputs": [],
      "payable": false,
      "stateMutability": "nonpayable",
      "type": "function"
    },
    {
      "constant": false,
      "inputs": [
        {
          "name": "_proposalId",
          "type": "bytes32"
        }
      ],
      "name": "endorseProposal",
      "outputs": [],
      "payable": false,
      "stateMutability": "nonpayable",
      "type": "function"
    },
    {
      "constant": false,
      "inputs": [
        {
          "name": "_proposalId",
          "type": "bytes32"
        },
        {
          "name": "_action",
          "type": "uint256"
        },
        {
          "name": "_doc",
          "type": "bytes32"
        }
      ],
      "name": "updatePRL",
      "outputs": [],
      "payable": false,
      "stateMutability": "nonpayable",
      "type": "function"
    },
    {
      "constant": false,
      "inputs": [
        {
          "name": "_proposalId",
          "type": "bytes32"
        }
      ],
      "name": "closeProposal",
      "outputs": [],
      "payable": false,
      "stateMutability": "nonpayable",
      "type": "function"
    },
    {
      "constant": false,
      "inputs": [
        {
          "name": "_proposalIds",
          "type": "bytes32[]"
        }
      ],
      "name": "founderCloseProposals",
      "outputs": [],
      "payable": false,
      "stateMutability": "nonpayable",
      "type": "function"
    }
  ],
  "bytecode": "0x608060405260006001026003906000191690556000600460006101000a81548173ffffffffffffffffffffffffffffffffffffffff021916908373ffffffffffffffffffffffffffffffffffffffff1602179055507f70726f706f73616c5f73746174655f70726570726f706f73616c0000000000006005906000191690557f70726f706f73616c5f73746174655f64726166740000000000000000000000006006906000191690557f70726f706f73616c5f73746174655f6d6f6465726174656400000000000000006007906000191690557f70726f706f73616c5f73746174655f6f6e676f696e67000000000000000000006008906000191690557f70726f706f73616c5f73746174655f636c6f73656400000000000000000000006009906000191690556001600a556002600b556003600c556001600d556002600e556003600f557f696e7465725f6467645f696400000000000000000000000000000000000000006010906000191690557f696e7465725f6d6f645f6467645f6964000000000000000000000000000000006011906000191690557f696e7465725f626f6e75735f63616c63756c6174696f6e5f69640000000000006012906000191690557f64616f00000000000000000000000000000000000000000000000000000000006013906000191690557f64616f3a7370656369616c3a70726f706f73616c0000000000000000000000006014906000191690557f64616f3a7374616b652d6c6f636b696e670000000000000000000000000000006015906000191690557f64616f3a766f74696e67000000000000000000000000000000000000000000006016906000191690557f64616f3a766f74696e673a636c61696d730000000000000000000000000000006017906000191690557f64616f3a73766f74696e673a636c61696d7300000000000000000000000000006018906000191690557f64616f3a6964656e7469747900000000000000000000000000000000000000006019906000191690557f64616f3a726577617264732d6d616e6167657200000000000000000000000000601a906000191690557f64616f3a726577617264732d6578747261730000000000000000000000000000601b906000191690557f64616f3a726f6c65730000000000000000000000000000000000000000000000601c906000191690557f64616f3a66756e64696e672d6d616e6167657200000000000000000000000000601d906000191690557f64616f3a77686974656c697374696e6700000000000000000000000000000000601e906000191690557f736572766963653a726f6c650000000000000000000000000000000000000000601f906000191690557f736572766963653a64616f3a696e666f000000000000000000000000000000006020906000191690557f736572766963653a64616f3a6c697374696e67000000000000000000000000006021906000191690557f736572766963653a64616f3a63616c63756c61746f72000000000000000000006022906000191690557f73746f726167653a64616f0000000000000000000000000000000000000000006023906000191690557f73746f726167653a64616f3a75706772616465000000000000000000000000006024906000191690557f73746f726167653a64616f3a6964656e746974790000000000000000000000006025906000191690557f73746f726167653a64616f3a706f696e747300000000000000000000000000006026906000191690557f73746f726167653a64616f3a7370656369616c000000000000000000000000006027906000191690557f73746f726167653a64616f3a636f6e66696700000000000000000000000000006028906000191690557f73746f726167653a64616f3a7374616b650000000000000000000000000000006029906000191690557f73746f726167653a64616f3a66756e64696e6700000000000000000000000000602a906000191690557f73746f726167653a64616f3a7265776172647300000000000000000000000000602b906000191690557f73746f726167653a64616f3a77686974656c697374696e670000000000000000602c906000191690557f73746f726167653a696e7465726d6564696174653a726573756c747300000000602d906000191690557f73746f726167653a64616f3a636f6c6c61746572616c00000000000000000000602e906000191690557f743a646764000000000000000000000000000000000000000000000000000000602f906000191690557f743a6467780000000000000000000000000000000000000000000000000000006030906000191690557f743a6261646765000000000000000000000000000000000000000000000000006031906000191690556001603260006101000a81548160ff021916908360ff1602179055506002603260016101000a81548160ff021916908360ff1602179055506003603260026101000a81548160ff021916908360ff1602179055506004603260036101000a81548160ff021916908360ff1602179055506276a7006033557f6d696e5f6467645f7061727469636970616e74000000000000000000000000006034906000191690557f6d696e5f6467645f6d6f64657261746f720000000000000000000000000000006035906000191690557f6d696e5f72657075746174696f6e5f6d6f64657261746f7200000000000000006036906000191690557f6c6f636b696e675f70686173655f6475726174696f6e000000000000000000006037906000191690557f717561727465725f6475726174696f6e000000000000000000000000000000006038906000191690557f766f74696e675f636f6d6d69745f7068617365000000000000000000000000006039906000191690557f766f74696e675f70686173655f746f74616c0000000000000000000000000000603a906000191690557f696e746572696d5f766f74696e675f636f6d6d69745f70686173650000000000603b906000191690557f696e746572696d5f766f74696e675f70686173655f746f74616c000000000000603c906000191690557f64726166745f71756f72756d5f66697865645f6e756d657261746f7200000000603d906000191690557f64726166745f71756f72756d5f66697865645f64656e6f6d696e61746f720000603e906000191690557f64726166745f71756f72756d5f73666163746f725f6e756d657261746f720000603f906000191690557f64726166745f71756f72756d5f73666163746f725f64656e6f6d696e61746f726040906000191690557f766f74655f71756f72756d5f66697865645f6e756d657261746f7200000000006041906000191690557f766f74655f71756f72756d5f66697865645f64656e6f6d696e61746f720000006042906000191690557f766f74655f71756f72756d5f73666163746f725f6e756d657261746f720000006043906000191690557f766f74655f71756f72756d5f73666163746f725f64656e6f6d696e61746f72006044906000191690557f66696e616c5f7265776172645f73666163746f725f6e756d657261746f7200006045906000191690557f66696e616c5f7265776172645f73666163746f725f64656e6f6d696e61746f726046906000191690557f64726166745f71756f74615f6e756d657261746f7200000000000000000000006047906000191690557f64726166745f71756f74615f64656e6f6d696e61746f720000000000000000006048906000191690557f766f74696e675f71756f74615f6e756d657261746f72000000000000000000006049906000191690557f766f74696e675f71756f74615f64656e6f6d696e61746f720000000000000000604a906000191690557f6d696e696d616c5f717000000000000000000000000000000000000000000000604b906000191690557f717561727465725f706f696e745f7363616c696e675f666163746f7200000000604c906000191690557f7265705f706f696e745f7363616c696e675f666163746f720000000000000000604d906000191690557f6d696e696d616c5f6d6f645f7170000000000000000000000000000000000000604e906000191690557f6d6f645f71705f7363616c696e675f666163746f720000000000000000000000604f906000191690557f6d6f645f7265705f706f696e745f7363616c696e675f666163746f72000000006050906000191690557f717561727465725f706f696e745f64726166745f766f746500000000000000006051906000191690557f717561727465725f706f696e745f766f746500000000000000000000000000006052906000191690557f717561727465725f706f696e745f696e746572696d5f766f74650000000000006053906000191690557f717561727465725f706f696e745f636c61696d5f726573756c740000000000006054906000191690557f715f705f6d696c6573746f6e655f636f6d706c6574696f6e00000000000000006055906000191690557f626f6e75735f72657075746174696f6e5f6e756d657261746f720000000000006056906000191690557f626f6e75735f72657075746174696f6e5f64656e6f6d696e61746f72000000006057906000191690557f7370656369616c5f70726f706f73616c5f636f6d6d69745f70686173650000006058906000191690557f7370656369616c5f70726f706f73616c5f70686173655f746f74616c000000006059906000191690557f636f6e6669675f7370656369616c5f71756f74615f6e756d657261746f720000605a906000191690557f636f6e6669675f7370656369616c5f71756f74615f64656e6f6d696e61746f72605b906000191690557f7370656369616c5f71756f72756d5f6e756d657261746f720000000000000000605c906000191690557f7370656369616c5f71756f72756d5f64656e6f6d696e61746f72000000000000605d906000191690557f636f6e6669675f6d61785f72657075746174696f6e5f646564756374696f6e00605e906000191690557f636f6e6669675f70756e6973686d656e745f6e6f745f6c6f636b696e67000000605f906000191690557f636f6e6669675f7265705f7065725f65787472615f71705f6e756d00000000006060906000191690557f636f6e6669675f7265705f7065725f65787472615f71705f64656e00000000006061906000191690557f636f6e6669675f6d61785f6d5f72705f646564756374696f6e000000000000006062906000191690557f636f6e6669675f7265705f7065725f65787472615f6d5f71705f6e756d0000006063906000191690557f636f6e6669675f7265705f7065725f65787472615f6d5f71705f64656e0000006064906000191690557f636f6e6669675f6d6f645f706f7274696f6e5f6e756d000000000000000000006065906000191690557f636f6e6669675f6d6f645f706f7274696f6e5f64656e000000000000000000006066906000191690557f636f6e6669675f64726166745f766f74696e675f7068617365000000000000006067906000191690557f636f6e6669675f72705f626f6f73745f7065725f6261646765000000000000006068906000191690557f636f6e6669675f636c61696d696e675f646561646c696e6500000000000000006069906000191690557f636f6e6669675f70726570726f706f73616c5f6465706f736974000000000000606a906000191690557f636f6e6669675f6d61785f66756e64696e675f6e6f6e44696769780000000000606b906000191690557f636f6e6669675f6d61785f6d696c6573746f6e65735f6e6f6e44696769780000606c906000191690557f636f6e6669675f6e6f6e44696769785f70726f706f73616c5f63617000000000606d906000191690557f636f6e6669675f646561645f6475726174696f6e000000000000000000000000606e906000191690557f636f6e6669675f63765f72657075746174696f6e000000000000000000000000606f906000191690553480156200113457600080fd5b50604051602080620061cf83398101806040528101908080519060200190929190505050620011756013548262001188640100000000026401000000009004565b15156200118157600080fd5b5062001419565b6000808273ffffffffffffffffffffffffffffffffffffffff1663cf3090126040518163ffffffff167c0100000000000000000000000000000000000000000000000000000000028152600401602060405180830381600087803b158015620011f057600080fd5b505af115801562001205573d6000803e3d6000fd5b505050506040513d60208110156200121c57600080fd5b810190808051906020019092919050505090506000151581151514156200140d5730600260006101000a81548173ffffffffffffffffffffffffffffffffffffffff021916908373ffffffffffffffffffffffffffffffffffffffff160217905550826000806101000a81548173ffffffffffffffffffffffffffffffffffffffff021916908373ffffffffffffffffffffffffffffffffffffffff16021790555083600181600019169055506000809054906101000a900473ffffffffffffffffffffffffffffffffffffffff1673ffffffffffffffffffffffffffffffffffffffff1663c0f6ef4a600154600260009054906101000a900473ffffffffffffffffffffffffffffffffffffffff166040518363ffffffff167c01000000000000000000000000000000000000000000000000000000000281526004018083600019166000191681526020018273ffffffffffffffffffffffffffffffffffffffff1673ffffffffffffffffffffffffffffffffffffffff16815260200192505050602060405180830381600087803b158015620013ba57600080fd5b505af1158015620013cf573d6000803e3d6000fd5b505050506040513d6020811015620013e657600080fd5b810190808051906020019092919050505015156200140357600080fd5b6001915062001412565b600091505b5092915050565b614da680620014296000396000f30060806040526004361061016a576000357c0100000000000000000000000000000000000000000000000000000000900463ffffffff1680630247afe81461016f57806304f3bcec146101d5578063078f872c1461022c5780630d7cc5611461025d5780631d8ccd04146102885780632b847105146102f95780633943380c1461036a5780633b00763d1461039d5780633f83acff1461042057806347d0da141461049157806355cc3136146104c2578063560a25ea146104fd5780635b30f1cc146105285780636853306014610555578063711f2614146105845780637d6fed801461060c5780637ef373541461063b578063926851af14610684578063929066f5146106b557806393ddad0814610710578063b1e2b9dd1461075d578063b202cc96146107a2578063d0bd65b114610825578063d70d9358146108b1578063db4ecbc1146108e0578063eef7b8f514610937578063f94f0f3314610976578063fa6f3936146109bf575b600080fd5b34801561017b57600080fd5b506101d360048036038101908080359060200190820180359060200190808060200260200160405190810160405280939291908181526020018383602002808284378201915050505050509192919290505050610a1a565b005b3480156101e157600080fd5b506101ea610ca9565b604051808273ffffffffffffffffffffffffffffffffffffffff1673ffffffffffffffffffffffffffffffffffffffff16815260200191505060405180910390f35b34801561023857600080fd5b5061025b6004803603810190808035600019169060200190929190505050610cce565b005b34801561026957600080fd5b50610272611163565b6040518082815260200191505060405180910390f35b34801561029457600080fd5b506102b76004803603810190808035600019169060200190929190505050611173565b604051808273ffffffffffffffffffffffffffffffffffffffff1673ffffffffffffffffffffffffffffffffffffffff16815260200191505060405180910390f35b61036860048036038101908080356000191690602001909291908035906020019082018035906020019080806020026020016040519081016040528093929190818152602001838360200280828437820191505050505050919291929080359060200190929190505050611235565b005b34801561037657600080fd5b5061037f611659565b60405180826000191660001916815260200191505060405180910390f35b3480156103a957600080fd5b5061041e600480360381019080803573ffffffffffffffffffffffffffffffffffffffff169060200190929190803573ffffffffffffffffffffffffffffffffffffffff169060200190929190803573ffffffffffffffffffffffffffffffffffffffff16906020019092919050505061165f565b005b34801561042c57600080fd5b5061044f6004803603810190808035600019169060200190929190505050611d8b565b604051808273ffffffffffffffffffffffffffffffffffffffff1673ffffffffffffffffffffffffffffffffffffffff16815260200191505060405180910390f35b34801561049d57600080fd5b506104c06004803603810190808035600019169060200190929190505050611e67565b005b3480156104ce57600080fd5b506104fb6004803603810190808035600019169060200190929190803590602001909291905050506121fa565b005b34801561050957600080fd5b50610512612568565b6040518082815260200191505060405180910390f35b34801561053457600080fd5b5061055360048036038101908080359060200190929190505050612578565b005b34801561056157600080fd5b5061056a6126d0565b604051808215151515815260200191505060405180910390f35b34801561059057600080fd5b5061060a60048036038101908080356000191690602001909291908035906020019082018035906020019080806020026020016040519081016040528093929190818152602001838360200280828437820191505050505050919291929080359060200190929190803590602001909291905050506126fc565b005b34801561061857600080fd5b50610621612ad9565b604051808215151515815260200191505060405180910390f35b34801561064757600080fd5b506106826004803603810190808035600019169060200190929190803590602001909291908035600019169060200190929190505050612af4565b005b34801561069057600080fd5b506106b36004803603810190808035600019169060200190929190505050612d2a565b005b3480156106c157600080fd5b506106f6600480360381019080803573ffffffffffffffffffffffffffffffffffffffff169060200190929190505050612f86565b604051808215151515815260200191505060405180910390f35b34801561071c57600080fd5b5061073f6004803603810190808035600019169060200190929190505050613167565b60405180826000191660001916815260200191505060405180910390f35b34801561076957600080fd5b5061078c6004803603810190808035600019169060200190929190505050613229565b6040518082815260200191505060405180910390f35b3480156107ae57600080fd5b50610823600480360381019080803573ffffffffffffffffffffffffffffffffffffffff169060200190929190803573ffffffffffffffffffffffffffffffffffffffff169060200190929190803573ffffffffffffffffffffffffffffffffffffffff1690602001909291905050506132eb565b005b34801561083157600080fd5b506108af6004803603810190808035600019169060200190929190803560001916906020019092919080359060200190820180359060200190808060200260200160405190810160405280939291908181526020018383602002808284378201915050505050509192919290803590602001909291905050506135c6565b005b3480156108bd57600080fd5b506108c66138c4565b604051808215151515815260200191505060405180910390f35b3480156108ec57600080fd5b506108f5613972565b604051808273ffffffffffffffffffffffffffffffffffffffff1673ffffffffffffffffffffffffffffffffffffffff16815260200191505060405180910390f35b34801561094357600080fd5b5061097460048036038101908080356000191690602001909291908035600019169060200190929190505050613998565b005b34801561098257600080fd5b506109a56004803603810190808035600019169060200190929190505050613c16565b604051808215151515815260200191505060405180910390f35b3480156109cb57600080fd5b50610a00600480360381019080803573ffffffffffffffffffffffffffffffffffffffff169060200190929190505050613d6b565b604051808215151515815260200191505060405180910390f35b600080600080610a2861403e565b1515610a3357600080fd5b84519350600090505b83811015610ca257610a4c614136565b73ffffffffffffffffffffffffffffffffffffffff1663d8d501798683815181101515610a7557fe5b906020019060200201516040518263ffffffff167c010000000000000000000000000000000000000000000000000000000002815260040180826000191660001916815260200191505061014060405180830381600087803b158015610ada57600080fd5b505af1158015610aee573d6000803e3d6000fd5b505050506040513d610140811015610b0557600080fd5b8101908080519060200190929190805190602001909291908051906020019092919080519060200190929190805190602001909291908051906020019092919080519060200190929190805190602001909291908051906020019092919080519060200190929190505050909192939495969798509091929394959697509091929394959650909192939495509091929350909192509050508093508194505050600354600019168260001916141515610bbe57600080fd5b610bdb610bcc606e54613229565b8461414890919063ffffffff16565b42111515610be857600080fd5b610bf0614136565b73ffffffffffffffffffffffffffffffffffffffff1663078f872c8683815181101515610c1957fe5b906020019060200201516040518263ffffffff167c0100000000000000000000000000000000000000000000000000000000028152600401808260001916600019168152602001915050600060405180830381600087803b158015610c7d57600080fd5b505af1158015610c91573d6000803e3d6000fd5b505050508080600101915050610a3c565b5050505050565b6000809054906101000a900473ffffffffffffffffffffffffffffffffffffffff1681565b600080610cd9614164565b610ce283614275565b1515610ced57600080fd5b610cf5614136565b73ffffffffffffffffffffffffffffffffffffffff1663d8d50179846040518263ffffffff167c010000000000000000000000000000000000000000000000000000000002815260040180826000191660001916815260200191505061014060405180830381600087803b158015610d6c57600080fd5b505af1158015610d80573d6000803e3d6000fd5b505050506040513d610140811015610d9757600080fd5b81019080805190602001909291908051906020019092919080519060200190929190805190602001909291908051906020019092919080519060200190929190805190602001909291908051906020019092919080519060200190929190805190602001909291905050509091929394959697985090919293949596975090919293949596509091929394509091929350909192509050508093508192505050600354600019168260001916141515610e4f57600080fd5b60095460001916816000191614151515610e6857600080fd5b600d54610e73614136565b73ffffffffffffffffffffffffffffffffffffffff16633be88369856040518263ffffffff167c0100000000000000000000000000000000000000000000000000000000028152600401808260001916600019168152602001915050602060405180830381600087803b158015610ee957600080fd5b505af1158015610efd573d6000803e3d6000fd5b505050506040513d6020811015610f1357600080fd5b8101908080519060200190929190505050141515610f3057600080fd5b610f38614136565b73ffffffffffffffffffffffffffffffffffffffff1663078f872c846040518263ffffffff167c0100000000000000000000000000000000000000000000000000000000028152600401808260001916600019168152602001915050600060405180830381600087803b158015610fae57600080fd5b505af1158015610fc2573d6000803e3d6000fd5b50505050610fce614136565b73ffffffffffffffffffffffffffffffffffffffff1663c362c79084600f546040518363ffffffff167c010000000000000000000000000000000000000000000000000000000002815260040180836000191660001916815260200182815260200192505050600060405180830381600087803b15801561104e57600080fd5b505af1158015611062573d6000803e3d6000fd5b5050505061106e614365565b73ffffffffffffffffffffffffffffffffffffffff16637e71332b33856040518363ffffffff167c0100000000000000000000000000000000000000000000000000000000028152600401808373ffffffffffffffffffffffffffffffffffffffff1673ffffffffffffffffffffffffffffffffffffffff168152602001826000191660001916815260200192505050602060405180830381600087803b15801561111857600080fd5b505af115801561112c573d6000803e3d6000fd5b505050506040513d602081101561114257600080fd5b8101908080519060200190929190505050151561115e57600080fd5b505050565b600061116e42614377565b905090565b600061117d61447a565b73ffffffffffffffffffffffffffffffffffffffff1663e6b39eab836040518263ffffffff167c0100000000000000000000000000000000000000000000000000000000028152600401808260001916600019168152602001915050602060405180830381600087803b1580156111f357600080fd5b505af1158015611207573d6000803e3d6000fd5b505050506040513d602081101561121d57600080fd5b81019080805190602001909291905050509050919050565b6000828261124161448c565b73ffffffffffffffffffffffffffffffffffffffff1663df4cb5b56040518163ffffffff167c0100000000000000000000000000000000000000000000000000000000028152600401602060405180830381600087803b1580156112a457600080fd5b505af11580156112b8573d6000803e3d6000fd5b505050506040513d60208110156112ce57600080fd5b81019080805190602001909291905050506112fa826112ec8561449e565b61414890919063ffffffff16565b1115151561130757600080fd5b61130f614164565b61131761403e565b9250611324606a54613229565b3414151561133157600080fd5b611339614365565b73ffffffffffffffffffffffffffffffffffffffff163460405160006040518083038185875af192505050151561136f57600080fd5b61137985856144ee565b611381614136565b73ffffffffffffffffffffffffffffffffffffffff1663a1d444a487338888886040518663ffffffff167c01000000000000000000000000000000000000000000000000000000000281526004018086600019166000191681526020018573ffffffffffffffffffffffffffffffffffffffff1673ffffffffffffffffffffffffffffffffffffffff1681526020018060200184815260200183151515158152602001828103825285818151815260200191508051906020019060200280838360005b8381101561145f578082015181840152602081019050611444565b505050509050019650505050505050600060405180830381600087803b15801561148857600080fd5b505af115801561149c573d6000803e3d6000fd5b505050506114a8614136565b73ffffffffffffffffffffffffffffffffffffffff1663c362c79087600d546040518363ffffffff167c010000000000000000000000000000000000000000000000000000000002815260040180836000191660001916815260200182815260200192505050600060405180830381600087803b15801561152857600080fd5b505af115801561153c573d6000803e3d6000fd5b50505050611548614136565b73ffffffffffffffffffffffffffffffffffffffff16638a2d659787346040518363ffffffff167c010000000000000000000000000000000000000000000000000000000002815260040180836000191660001916815260200182815260200192505050600060405180830381600087803b1580156115c657600080fd5b505af11580156115da573d6000803e3d6000fd5b505050507fab48f5995a7b376b9650077476d511b1f1ed03b0c7e403e7cee95a2769060d6886336040518083600019166000191681526020018273ffffffffffffffffffffffffffffffffffffffff1673ffffffffffffffffffffffffffffffffffffffff1681526020019250505060405180910390a1505050505050565b60015481565b603260009054906101000a900460ff1660ff1661167a61454e565b73ffffffffffffffffffffffffffffffffffffffff1663c31d02b2336040518263ffffffff167c0100000000000000000000000000000000000000000000000000000000028152600401808273ffffffffffffffffffffffffffffffffffffffff1673ffffffffffffffffffffffffffffffffffffffff168152602001915050602060405180830381600087803b15801561171457600080fd5b505af1158015611728573d6000803e3d6000fd5b505050506040513d602081101561173e57600080fd5b810190808051906020019092919050505014151561175b57600080fd5b611763611163565b600181111561182c576000611776614560565b73ffffffffffffffffffffffffffffffffffffffff1663a78e00d6836040518263ffffffff167c010000000000000000000000000000000000000000000000000000000002815260040180828152602001915050602060405180830381600087803b1580156117e457600080fd5b505af11580156117f8573d6000803e3d6000fd5b505050506040513d602081101561180e57600080fd5b810190808051906020019092919050505011151561182b57600080fd5b5b611834612ad9565b151561183f57600080fd5b6000151561184b614572565b73ffffffffffffffffffffffffffffffffffffffff16638bc865fd6040518163ffffffff167c0100000000000000000000000000000000000000000000000000000000028152600401602060405180830381600087803b1580156118ae57600080fd5b505af11580156118c2573d6000803e3d6000fd5b505050506040513d60208110156118d857600080fd5b810190808051906020019092919050505015151415156118f757600080fd5b8373ffffffffffffffffffffffffffffffffffffffff16611916614572565b73ffffffffffffffffffffffffffffffffffffffff16633c952b166040518163ffffffff167c0100000000000000000000000000000000000000000000000000000000028152600401602060405180830381600087803b15801561197957600080fd5b505af115801561198d573d6000803e3d6000fd5b505050506040513d60208110156119a357600080fd5b810190808051906020019092919050505073ffffffffffffffffffffffffffffffffffffffff16148015611aa757508273ffffffffffffffffffffffffffffffffffffffff166119f1614572565b73ffffffffffffffffffffffffffffffffffffffff16639c767e376040518163ffffffff167c0100000000000000000000000000000000000000000000000000000000028152600401602060405180830381600087803b158015611a5457600080fd5b505af1158015611a68573d6000803e3d6000fd5b505050506040513d6020811015611a7e57600080fd5b810190808051906020019092919050505073ffffffffffffffffffffffffffffffffffffffff16145b8015611b8357508173ffffffffffffffffffffffffffffffffffffffff16611acd614572565b73ffffffffffffffffffffffffffffffffffffffff16638c0c28266040518163ffffffff167c0100000000000000000000000000000000000000000000000000000000028152600401602060405180830381600087803b158015611b3057600080fd5b505af1158015611b44573d6000803e3d6000fd5b505050506040513d6020811015611b5a57600080fd5b810190808051906020019092919050505073ffffffffffffffffffffffffffffffffffffffff16145b1515611b8e57600080fd5b611b96614572565b73ffffffffffffffffffffffffffffffffffffffff1663efa6b9df6040518163ffffffff167c0100000000000000000000000000000000000000000000000000000000028152600401600060405180830381600087803b158015611bf957600080fd5b505af1158015611c0d573d6000803e3d6000fd5b50505050611c19614365565b73ffffffffffffffffffffffffffffffffffffffff1663c72deb9a846040518263ffffffff167c0100000000000000000000000000000000000000000000000000000000028152600401808273ffffffffffffffffffffffffffffffffffffffff1673ffffffffffffffffffffffffffffffffffffffff168152602001915050600060405180830381600087803b158015611cb357600080fd5b505af1158015611cc7573d6000803e3d6000fd5b50505050611cd3614584565b73ffffffffffffffffffffffffffffffffffffffff16633f5a7583836040518263ffffffff167c0100000000000000000000000000000000000000000000000000000000028152600401808273ffffffffffffffffffffffffffffffffffffffff1673ffffffffffffffffffffffffffffffffffffffff168152602001915050600060405180830381600087803b158015611d6d57600080fd5b505af1158015611d81573d6000803e3d6000fd5b5050505050505050565b60008060009054906101000a900473ffffffffffffffffffffffffffffffffffffffff1673ffffffffffffffffffffffffffffffffffffffff16633f83acff836040518263ffffffff167c0100000000000000000000000000000000000000000000000000000000028152600401808260001916600019168152602001915050602060405180830381600087803b158015611e2557600080fd5b505af1158015611e39573d6000803e3d6000fd5b505050506040513d6020811015611e4f57600080fd5b81019080805190602001909291905050509050919050565b6000611e71614164565b611e7a82614275565b1515611e8557600080fd5b611e8e82614596565b1515611e9957600080fd5b611ea2826146fb565b611ec9611eb0606954613229565b611ebb606754613229565b61414890919063ffffffff16565b611ed242614712565b111515611ede57600080fd5b611ee6614136565b73ffffffffffffffffffffffffffffffffffffffff1663d8d50179836040518263ffffffff167c010000000000000000000000000000000000000000000000000000000002815260040180826000191660001916815260200191505061014060405180830381600087803b158015611f5d57600080fd5b505af1158015611f71573d6000803e3d6000fd5b505050506040513d610140811015611f8857600080fd5b8101908080519060200190929190805190602001909291908051906020019092919080519060200190929190805190602001909291908051906020019092919080519060200190929190805190602001909291908051906020019092919080519060200190929190505050909192939495969798509091929394959697509091929394955090919293945090919293509091925090915090505080915050600460009054906101000a900473ffffffffffffffffffffffffffffffffffffffff1673ffffffffffffffffffffffffffffffffffffffff168173ffffffffffffffffffffffffffffffffffffffff161415151561208357600080fd5b61208b614136565b73ffffffffffffffffffffffffffffffffffffffff166347d0da14836040518263ffffffff167c0100000000000000000000000000000000000000000000000000000000028152600401808260001916600019168152602001915050600060405180830381600087803b15801561210157600080fd5b505af1158015612115573d6000803e3d6000fd5b50505050612121614136565b73ffffffffffffffffffffffffffffffffffffffff1663e3f3f7a283426040518363ffffffff167c010000000000000000000000000000000000000000000000000000000002815260040180836000191660001916815260200182815260200192505050600060405180830381600087803b15801561219f57600080fd5b505af11580156121b3573d6000803e3d6000fd5b505050507f7987ab68d3e4d0dbf07a8b7eb54fa0557da00515d48a4cefbb95dd10ba8b07b48260405180826000191660001916815260200191505060405180910390a15050565b60606000612206614164565b61220f84614275565b151561221a57600080fd5b612222614136565b73ffffffffffffffffffffffffffffffffffffffff16637246d5a7856040518263ffffffff167c0100000000000000000000000000000000000000000000000000000000028152600401808260001916600019168152602001915050600060405180830381600087803b15801561229857600080fd5b505af11580156122ac573d6000803e3d6000fd5b505050506040513d6000823e3d601f19601f8201168201806040525060408110156122d657600080fd5b8101908080516401000000008111156122ee57600080fd5b8281019050602081018481111561230457600080fd5b815185602082028301116401000000008211171561232157600080fd5b505092919060200180519060200190929190505050508092505081518310151561234a57600080fd5b6123548484614740565b9050804211151561236457600080fd5b600061236e614136565b73ffffffffffffffffffffffffffffffffffffffff1663baf426608661239e60018861414890919063ffffffff16565b6040518363ffffffff167c010000000000000000000000000000000000000000000000000000000002815260040180836000191660001916815260200182815260200192505050602060405180830381600087803b1580156123ff57600080fd5b505af1158015612413573d6000803e3d6000fd5b505050506040513d602081101561242957600080fd5b810190808051906020019092919050505014151561244657600080fd5b61244e614136565b73ffffffffffffffffffffffffffffffffffffffff1663344e436e8561247e60018761414890919063ffffffff16565b61249b61249560018961414890919063ffffffff16565b42614869565b6040518463ffffffff167c01000000000000000000000000000000000000000000000000000000000281526004018084600019166000191681526020018381526020018281526020019350505050600060405180830381600087803b15801561250357600080fd5b505af1158015612517573d6000803e3d6000fd5b505050507f7f575746acfeec290223241184f2c5353c4a43f01daf9b4d5c4dd028c5b3c49f84846040518083600019166000191681526020018281526020019250505060405180910390a150505050565b600061257342614964565b905090565b61258061403e565b151561258b57600080fd5b6000612595614572565b73ffffffffffffffffffffffffffffffffffffffff1663d9c6bb206040518163ffffffff167c0100000000000000000000000000000000000000000000000000000000028152600401602060405180830381600087803b1580156125f857600080fd5b505af115801561260c573d6000803e3d6000fd5b505050506040513d602081101561262257600080fd5b810190808051906020019092919050505014151561263f57600080fd5b612647614572565b73ffffffffffffffffffffffffffffffffffffffff16635b30f1cc826040518263ffffffff167c010000000000000000000000000000000000000000000000000000000002815260040180828152602001915050600060405180830381600087803b1580156126b557600080fd5b505af11580156126c9573d6000803e3d6000fd5b5050505050565b60006126da6138c4565b80156126f757506126ec603754613229565b6126f4612568565b10155b905090565b6060600080612709614164565b61271287614275565b151561271d57600080fd5b61272786866144ee565b61272f614136565b73ffffffffffffffffffffffffffffffffffffffff16637246d5a7886040518263ffffffff167c0100000000000000000000000000000000000000000000000000000000028152600401808260001916600019168152602001915050600060405180830381600087803b1580156127a557600080fd5b505af11580156127b9573d6000803e3d6000fd5b505050506040513d6000823e3d601f19601f8201168201806040525060408110156127e357600080fd5b8101908080516401000000008111156127fb57600080fd5b8281019050602081018481111561281157600080fd5b815185602082028301116401000000008211171561282e57600080fd5b505092919060200180519060200190929190505050508093505082518410151561285757600080fd5b6128618785614740565b9150814211151561287157600080fd5b600061287b614136565b73ffffffffffffffffffffffffffffffffffffffff1663baf42660896128ab60018961414890919063ffffffff16565b6040518363ffffffff167c010000000000000000000000000000000000000000000000000000000002815260040180836000191660001916815260200182815260200192505050602060405180830381600087803b15801561290c57600080fd5b505af1158015612920573d6000803e3d6000fd5b505050506040513d602081101561293657600080fd5b810190808051906020019092919050505014151561295357600080fd5b600090505b83811115156129aa57828181518110151561296f57fe5b90602001906020020151868281518110151561298757fe5b9060200190602002015114151561299d57600080fd5b8080600101915050612958565b6129b2614136565b73ffffffffffffffffffffffffffffffffffffffff1663c3093bb18888886040518463ffffffff167c010000000000000000000000000000000000000000000000000000000002815260040180846000191660001916815260200180602001838152602001828103825284818151815260200191508051906020019060200280838360005b83811015612a52578082015181840152602081019050612a37565b50505050905001945050505050600060405180830381600087803b158015612a7957600080fd5b505af1158015612a8d573d6000803e3d6000fd5b505050507fc9e43761e55a78291d13bde4c14de36c2c6c64de90ce8554eff0e68b55c637678760405180826000191660001916815260200191505060405180910390a150505050505050565b6000612ae6603754613229565b612aee612568565b10905090565b603260029054906101000a900460ff1660ff16612b0f61454e565b73ffffffffffffffffffffffffffffffffffffffff1663c31d02b2336040518263ffffffff167c0100000000000000000000000000000000000000000000000000000000028152600401808273ffffffffffffffffffffffffffffffffffffffff1673ffffffffffffffffffffffffffffffffffffffff168152602001915050602060405180830381600087803b158015612ba957600080fd5b505af1158015612bbd573d6000803e3d6000fd5b505050506040513d6020811015612bd357600080fd5b8101908080519060200190929190505050141515612bf057600080fd5b600a54821480612c015750600b5482145b80612c0d5750600c5482145b1515612c1857600080fd5b612c20614136565b73ffffffffffffffffffffffffffffffffffffffff1663c004b7de848484426040518563ffffffff167c01000000000000000000000000000000000000000000000000000000000281526004018085600019166000191681526020018481526020018360001916600019168152602001828152602001945050505050600060405180830381600087803b158015612cb657600080fd5b505af1158015612cca573d6000803e3d6000fd5b505050507f75c2f2b4fd3652214a4a5faf855222828fa36d654b3de647815c8be81675b8148383836040518084600019166000191681526020018381526020018260001916600019168152602001935050505060405180910390a1505050565b806005546000612d38614136565b73ffffffffffffffffffffffffffffffffffffffff1663d8d50179846040518263ffffffff167c010000000000000000000000000000000000000000000000000000000002815260040180826000191660001916815260200191505061014060405180830381600087803b158015612daf57600080fd5b505af1158015612dc3573d6000803e3d6000fd5b505050506040513d610140811015612dda57600080fd5b81019080805190602001909291908051906020019092919080519060200190929190805190602001909291908051906020019092919080519060200190929190805190602001909291908051906020019092919080519060200190929190805190602001909291905050509091929394959697985090919293949596975090919293949596509091929394509091929350909192509091509050508091505081600019168160001916141515612e8f57600080fd5b612e976126d0565b1515612ea257600080fd5b612eab33613d6b565b1515612eb657600080fd5b612ebe614136565b73ffffffffffffffffffffffffffffffffffffffff1663ac443d9f85336040518363ffffffff167c01000000000000000000000000000000000000000000000000000000000281526004018083600019166000191681526020018273ffffffffffffffffffffffffffffffffffffffff1673ffffffffffffffffffffffffffffffffffffffff16815260200192505050600060405180830381600087803b158015612f6857600080fd5b505af1158015612f7c573d6000803e3d6000fd5b5050505050505050565b6000612f90611163565b612f98614560565b73ffffffffffffffffffffffffffffffffffffffff1663cefc2bff846040518263ffffffff167c0100000000000000000000000000000000000000000000000000000000028152600401808273ffffffffffffffffffffffffffffffffffffffff1673ffffffffffffffffffffffffffffffffffffffff168152602001915050602060405180830381600087803b15801561303257600080fd5b505af1158015613046573d6000803e3d6000fd5b505050506040513d602081101561305c57600080fd5b81019080805190602001909291905050501480156131605750613080603454613229565b613088614a4d565b73ffffffffffffffffffffffffffffffffffffffff1663cd094a27846040518263ffffffff167c0100000000000000000000000000000000000000000000000000000000028152600401808273ffffffffffffffffffffffffffffffffffffffff1673ffffffffffffffffffffffffffffffffffffffff168152602001915050602060405180830381600087803b15801561312257600080fd5b505af1158015613136573d6000803e3d6000fd5b505050506040513d602081101561314c57600080fd5b810190808051906020019092919050505010155b9050919050565b600061317161447a565b73ffffffffffffffffffffffffffffffffffffffff1663c0a8405d836040518263ffffffff167c0100000000000000000000000000000000000000000000000000000000028152600401808260001916600019168152602001915050602060405180830381600087803b1580156131e757600080fd5b505af11580156131fb573d6000803e3d6000fd5b505050506040513d602081101561321157600080fd5b81019080805190602001909291905050509050919050565b600061323361447a565b73ffffffffffffffffffffffffffffffffffffffff1663734c1168836040518263ffffffff167c0100000000000000000000000000000000000000000000000000000000028152600401808260001916600019168152602001915050602060405180830381600087803b1580156132a957600080fd5b505af11580156132bd573d6000803e3d6000fd5b505050506040513d60208110156132d357600080fd5b81019080805190602001909291905050509050919050565b603260009054906101000a900460ff1660ff1661330661454e565b73ffffffffffffffffffffffffffffffffffffffff1663c31d02b2336040518263ffffffff167c0100000000000000000000000000000000000000000000000000000000028152600401808273ffffffffffffffffffffffffffffffffffffffff1673ffffffffffffffffffffffffffffffffffffffff168152602001915050602060405180830381600087803b1580156133a057600080fd5b505af11580156133b4573d6000803e3d6000fd5b505050506040513d60208110156133ca57600080fd5b81019080805190602001909291905050501415156133e757600080fd5b600015156133f3614572565b73ffffffffffffffffffffffffffffffffffffffff16638bc865fd6040518163ffffffff167c0100000000000000000000000000000000000000000000000000000000028152600401602060405180830381600087803b15801561345657600080fd5b505af115801561346a573d6000803e3d6000fd5b505050506040513d602081101561348057600080fd5b8101908080519060200190929190505050151514151561349f57600080fd5b6134a7614572565b73ffffffffffffffffffffffffffffffffffffffff1663ef7ad2dc8484846040518463ffffffff167c0100000000000000000000000000000000000000000000000000000000028152600401808473ffffffffffffffffffffffffffffffffffffffff1673ffffffffffffffffffffffffffffffffffffffff1681526020018373ffffffffffffffffffffffffffffffffffffffff1673ffffffffffffffffffffffffffffffffffffffff1681526020018273ffffffffffffffffffffffffffffffffffffffff1673ffffffffffffffffffffffffffffffffffffffff1681526020019350505050600060405180830381600087803b1580156135a957600080fd5b505af11580156135bd573d6000803e3d6000fd5b50505050505050565b60006135d0614164565b6135d985614275565b15156135e457600080fd5b6135ed85614596565b15156135f857600080fd5b613600614136565b73ffffffffffffffffffffffffffffffffffffffff1663d8d50179866040518263ffffffff167c010000000000000000000000000000000000000000000000000000000002815260040180826000191660001916815260200191505061014060405180830381600087803b15801561367757600080fd5b505af115801561368b573d6000803e3d6000fd5b505050506040513d6101408110156136a257600080fd5b81019080805190602001909291908051906020019092919080519060200190929190805190602001909291908051906020019092919080519060200190929190805190602001909291908051906020019092919080519060200190929190805190602001909291905050509091929394959697985090919293949596975090919293949596509091929394509091929350909192509091509050508091505060055460001916816000191614806137625750600654600019168160001916145b151561376d57600080fd5b61377783836144ee565b61377f614136565b73ffffffffffffffffffffffffffffffffffffffff1663ffec1b21868686866040518563ffffffff167c0100000000000000000000000000000000000000000000000000000000028152600401808560001916600019168152602001846000191660001916815260200180602001838152602001828103825284818151815260200191508051906020019060200280838360005b8381101561382e578082015181840152602081019050613813565b5050505090500195505050505050600060405180830381600087803b15801561385657600080fd5b505af115801561386a573d6000803e3d6000fd5b505050507f8ed872b51729877383ff1e72393d0cf6d112bf28d9f745cd894b8fc4ad28e204858560405180836000191660001916815260200182600019166000191681526020019250505060405180910390a15050505050565b60006138ce614572565b73ffffffffffffffffffffffffffffffffffffffff16638bc865fd6040518163ffffffff167c0100000000000000000000000000000000000000000000000000000000028152600401602060405180830381600087803b15801561393157600080fd5b505af1158015613945573d6000803e3d6000fd5b505050506040513d602081101561395b57600080fd5b810190808051906020019092919050505015905090565b600260009054906101000a900473ffffffffffffffffffffffffffffffffffffffff1681565b60006139a2614164565b6139ab83614275565b15156139b657600080fd5b6139be614136565b73ffffffffffffffffffffffffffffffffffffffff1663d8d50179846040518263ffffffff167c010000000000000000000000000000000000000000000000000000000002815260040180826000191660001916815260200191505061014060405180830381600087803b158015613a3557600080fd5b505af1158015613a49573d6000803e3d6000fd5b505050506040513d610140811015613a6057600080fd5b8101908080519060200190929190805190602001909291908051906020019092919080519060200190929190805190602001909291908051906020019092919080519060200190929190805190602001909291908051906020019092919080519060200190929190505050909192939495969798509091929394959697509091929394959650909192939495509091929394509091929350909192509050508091505060035460001916816000191614151515613b1c57600080fd5b613b24614136565b73ffffffffffffffffffffffffffffffffffffffff1663eef7b8f584846040518363ffffffff167c0100000000000000000000000000000000000000000000000000000000028152600401808360001916600019168152602001826000191660001916815260200192505050600060405180830381600087803b158015613baa57600080fd5b505af1158015613bbe573d6000803e3d6000fd5b505050507f7e60a4e6d1d436a90d163c435b88121fc839d6e0b5004ff3e213003c0bc30cec838360405180836000191660001916815260200182600019166000191681526020019250505060405180910390a1505050565b6000613c20614136565b73ffffffffffffffffffffffffffffffffffffffff1663d8d50179836040518263ffffffff167c010000000000000000000000000000000000000000000000000000000002815260040180826000191660001916815260200191505061014060405180830381600087803b158015613c9757600080fd5b505af1158015613cab573d6000803e3d6000fd5b505050506040513d610140811015613cc257600080fd5b8101908080519060200190929190805190602001909291908051906020019092919080519060200190929190805190602001909291908051906020019092919080519060200190929190805190602001909291908051906020019092919080519060200190929190505050909192939495969798509091929394959697509091929394959650909192939495509091929394509091929350909192509091505080915050919050565b6000613d75611163565b613d7d614560565b73ffffffffffffffffffffffffffffffffffffffff1663cefc2bff846040518263ffffffff167c0100000000000000000000000000000000000000000000000000000000028152600401808273ffffffffffffffffffffffffffffffffffffffff1673ffffffffffffffffffffffffffffffffffffffff168152602001915050602060405180830381600087803b158015613e1757600080fd5b505af1158015613e2b573d6000803e3d6000fd5b505050506040513d6020811015613e4157600080fd5b8101908080519060200190929190505050148015613f455750613e65603554613229565b613e6d614a4d565b73ffffffffffffffffffffffffffffffffffffffff1663cd094a27846040518263ffffffff167c0100000000000000000000000000000000000000000000000000000000028152600401808273ffffffffffffffffffffffffffffffffffffffff1673ffffffffffffffffffffffffffffffffffffffff168152602001915050602060405180830381600087803b158015613f0757600080fd5b505af1158015613f1b573d6000803e3d6000fd5b505050506040513d6020811015613f3157600080fd5b810190808051906020019092919050505010155b80156140375750613f57603654613229565b613f5f614a5f565b73ffffffffffffffffffffffffffffffffffffffff16639c89a0e2846040518263ffffffff167c0100000000000000000000000000000000000000000000000000000000028152600401808273ffffffffffffffffffffffffffffffffffffffff1673ffffffffffffffffffffffffffffffffffffffff168152602001915050602060405180830381600087803b158015613ff957600080fd5b505af115801561400d573d6000803e3d6000fd5b505050506040513d602081101561402357600080fd5b810190808051906020019092919050505010155b9050919050565b6000603260019054906101000a900460ff1660ff1661405b61454e565b73ffffffffffffffffffffffffffffffffffffffff1663c31d02b2336040518263ffffffff167c0100000000000000000000000000000000000000000000000000000000028152600401808273ffffffffffffffffffffffffffffffffffffffff1673ffffffffffffffffffffffffffffffffffffffff168152602001915050602060405180830381600087803b1580156140f557600080fd5b505af1158015614109573d6000803e3d6000fd5b505050506040513d602081101561411f57600080fd5b810190808051906020019092919050505014905090565b6000614143602354611d8b565b905090565b6000818301905082811015151561415b57fe5b80905092915050565b61416c6126d0565b151561417757600080fd5b61418033612f86565b151561418b57600080fd5b61419361454e565b73ffffffffffffffffffffffffffffffffffffffff16634a9aedc4336040518263ffffffff167c0100000000000000000000000000000000000000000000000000000000028152600401808273ffffffffffffffffffffffffffffffffffffffff1673ffffffffffffffffffffffffffffffffffffffff168152602001915050602060405180830381600087803b15801561422d57600080fd5b505af1158015614241573d6000803e3d6000fd5b505050506040513d602081101561425757600080fd5b8101908080519060200190929190505050151561427357600080fd5b565b600061427f614136565b73ffffffffffffffffffffffffffffffffffffffff16635b712eb6836040518263ffffffff167c0100000000000000000000000000000000000000000000000000000000028152600401808260001916600019168152602001915050602060405180830381600087803b1580156142f557600080fd5b505af1158015614309573d6000803e3d6000fd5b505050506040513d602081101561431f57600080fd5b810190808051906020019092919050505073ffffffffffffffffffffffffffffffffffffffff163373ffffffffffffffffffffffffffffffffffffffff16149050919050565b6000614372601d54611d8b565b905090565b6000614381614a71565b151561438c57600080fd5b614473600161446561439f603854613229565b6144576143aa614572565b73ffffffffffffffffffffffffffffffffffffffff1663d9c6bb206040518163ffffffff167c0100000000000000000000000000000000000000000000000000000000028152600401602060405180830381600087803b15801561440d57600080fd5b505af1158015614421573d6000803e3d6000fd5b505050506040513d602081101561443757600080fd5b810190808051906020019092919050505087614b2190919063ffffffff16565b614b3a90919063ffffffff16565b61414890919063ffffffff16565b9050919050565b6000614487602854611d8b565b905090565b6000614499602a54611d8b565b905090565b600080600090505b82518110156144e8576144d983828151811015156144c057fe5b906020019060200201518361414890919063ffffffff16565b915080806001019150506144a6565b50919050565b6144f661403e565b151561454a57614507606b54613229565b614522826145148561449e565b61414890919063ffffffff16565b1115151561452f57600080fd5b61453a606c54613229565b82511115151561454957600080fd5b5b5050565b600061455b602554611d8b565b905090565b600061456d602b54611d8b565b905090565b600061457f602454611d8b565b905090565b6000614591601a54611d8b565b905090565b6000806145a1614136565b73ffffffffffffffffffffffffffffffffffffffff1663d8d50179846040518263ffffffff167c010000000000000000000000000000000000000000000000000000000002815260040180826000191660001916815260200191505061014060405180830381600087803b15801561461857600080fd5b505af115801561462c573d6000803e3d6000fd5b505050506040513d61014081101561464357600080fd5b8101908080519060200190929190805190602001909291908051906020019092919080519060200190929190805190602001909291908051906020019092919080519060200190929190805190602001909291908051906020019092919080519060200190929190505050909192939495969798509091929394959697509091929394959650909192939495509091929394509091929350909192509050508091505060035460001916816000191614915050919050565b61470481614b50565b151561470f57600080fd5b50565b600061473961472083614964565b61472b603854613229565b614b2190919063ffffffff16565b9050919050565b60008061474b614136565b73ffffffffffffffffffffffffffffffffffffffff1663baf4266085856040518363ffffffff167c010000000000000000000000000000000000000000000000000000000002815260040180836000191660001916815260200182815260200192505050602060405180830381600087803b1580156147c957600080fd5b505af11580156147dd573d6000803e3d6000fd5b505050506040513d60208110156147f357600080fd5b8101908080519060200190929190505050905060008111151561481557600080fd5b60008314156148425761483b61482c603a54613229565b8261414890919063ffffffff16565b9150614862565b61485f614850603c54613229565b8261414890919063ffffffff16565b91505b5092915050565b600080600061487784614712565b91506148956000861461488c57603c54614890565b603a545b613229565b90508392506148a5603754613229565b6148ae85614964565b10156148f2576148eb6148dc6148c386614964565b6148ce603754613229565b614b2190919063ffffffff16565b8561414890919063ffffffff16565b925061495c565b61490f614900606954613229565b8261414890919063ffffffff16565b82101561495b57614958614949600161493b61492c603754613229565b8661414890919063ffffffff16565b61414890919063ffffffff16565b8561414890919063ffffffff16565b92505b5b505092915050565b600061496e614a71565b151561497957600080fd5b614984603854613229565b614a3c61498f614572565b73ffffffffffffffffffffffffffffffffffffffff1663d9c6bb206040518163ffffffff167c0100000000000000000000000000000000000000000000000000000000028152600401602060405180830381600087803b1580156149f257600080fd5b505af1158015614a06573d6000803e3d6000fd5b505050506040513d6020811015614a1c57600080fd5b810190808051906020019092919050505084614b2190919063ffffffff16565b811515614a4557fe5b069050919050565b6000614a5a602954611d8b565b905090565b6000614a6c602654611d8b565b905090565b600080614a7c614572565b73ffffffffffffffffffffffffffffffffffffffff1663d9c6bb206040518163ffffffff167c0100000000000000000000000000000000000000000000000000000000028152600401602060405180830381600087803b158015614adf57600080fd5b505af1158015614af3573d6000803e3d6000fd5b505050506040513d6020811015614b0957600080fd5b81019080805190602001909291905050501415905090565b6000828211151515614b2f57fe5b818303905092915050565b60008183811515614b4757fe5b04905092915050565b600080614b5b614136565b73ffffffffffffffffffffffffffffffffffffffff1663d8d50179846040518263ffffffff167c010000000000000000000000000000000000000000000000000000000002815260040180826000191660001916815260200191505061014060405180830381600087803b158015614bd257600080fd5b505af1158015614be6573d6000803e3d6000fd5b505050506040513d610140811015614bfd57600080fd5b81019080805190602001909291908051906020019092919080519060200190929190805190602001909291908051906020019092919080519060200190929190805190602001909291908051906020019092919080519060200190929190805190602001909291905050509091929394959697985090919293949596975090919293949596509091929394955090919293945090919293509091925090915090508091505060019150801515614d7457614cb8606d54613229565b614cc0614136565b73ffffffffffffffffffffffffffffffffffffffff1663198c6e24614ce3611163565b6040518263ffffffff167c010000000000000000000000000000000000000000000000000000000002815260040180828152602001915050602060405180830381600087803b158015614d3557600080fd5b505af1158015614d49573d6000803e3d6000fd5b505050506040513d6020811015614d5f57600080fd5b81019080805190602001909291905050501091505b509190505600a165627a7a7230582016935dc2acb6e6c9a330d77f2c609e8181ef2ff6862bd81a38ba3de24ff3d9ab0029",
  "source": "pragma solidity ^0.4.24;\n\nimport \"../common/DaoCommon.sol\";\nimport \"./DaoFundingManager.sol\";\nimport \"./DaoRewardsManager.sol\";\nimport \"./DaoVotingClaims.sol\";\n\n/**\n@title Interactive DAO contract for creating/modifying/endorsing proposals\n@author Digix Holdings\n*/\ncontract Dao is DaoCommon {\n\n    event NewProposal(bytes32 _proposalId, address _proposer);\n    event ModifyProposal(bytes32 _proposalId, bytes32 _newDoc);\n    event ChangeProposalFunding(bytes32 _proposalId);\n    event FinalizeProposal(bytes32 _proposalId);\n    event FinishMilestone(bytes32 _proposalId, uint256 _milestoneIndex);\n    event AddProposalDoc(bytes32 _proposalId, bytes32 _newDoc);\n    event PRLAction(bytes32 _proposalId, uint256 _actionId, bytes32 _doc);\n\n    constructor(address _resolver) public {\n        require(init(CONTRACT_DAO, _resolver));\n    }\n\n    function daoFundingManager()\n        internal\n        constant\n        returns (DaoFundingManager _contract)\n    {\n        _contract = DaoFundingManager(get_contract(CONTRACT_DAO_FUNDING_MANAGER));\n    }\n\n    function daoRewardsManager()\n        internal\n        constant\n        returns (DaoRewardsManager _contract)\n    {\n        _contract = DaoRewardsManager(get_contract(CONTRACT_DAO_REWARDS_MANAGER));\n    }\n\n    function daoVotingClaims()\n        internal\n        constant\n        returns (DaoVotingClaims _contract)\n    {\n        _contract = DaoVotingClaims(get_contract(CONTRACT_DAO_VOTING_CLAIMS));\n    }\n\n    /**\n    @notice Set addresses for the new Dao and DaoFundingManager contracts\n    @dev This is the first step of the 2-step migration\n    @param _newDaoContract Address of the new Dao contract\n    @param _newDaoFundingManager Address of the new DaoFundingManager contract\n    @param _newDaoRewardsManager Address of the new daoRewardsManager contract\n    */\n    function setNewDaoContracts(\n        address _newDaoContract,\n        address _newDaoFundingManager,\n        address _newDaoRewardsManager\n    )\n        public\n        if_root()\n    {\n        require(daoUpgradeStorage().isReplacedByNewDao() == false);\n        daoUpgradeStorage().setNewContractAddresses(\n            _newDaoContract,\n            _newDaoFundingManager,\n            _newDaoRewardsManager\n        );\n    }\n\n    /**\n    @notice Migrate this DAO to a new DAO contract\n    @dev This is the second step of the 2-step migration\n         Migration can only be done during the locking phase, after the global rewards for current quarter are set.\n         This is to make sure that there is no rewards calculation pending before the DAO is migrated to new contracts\n         The addresses of the new Dao contracts have to be provided again, and be double checked against the addresses that were set in setNewDaoContracts()\n    @param _newDaoContract Address of the new DAO contract\n    @param _newDaoFundingManager Address of the new DaoFundingManager contract, which would receive the remaining ETHs in this DaoFundingManager\n    @param _newDaoRewardsManager Address of the new daoRewardsManager contract, which would receive the claimableDGXs from this daoRewardsManager\n    */\n    function migrateToNewDao(\n        address _newDaoContract,\n        address _newDaoFundingManager,\n        address _newDaoRewardsManager\n    )\n        public\n        if_root()\n        ifGlobalRewardsSet(currentQuarterIndex())\n    {\n        require(isLockingPhase());\n        require(daoUpgradeStorage().isReplacedByNewDao() == false);\n        require(\n          (daoUpgradeStorage().newDaoContract() == _newDaoContract) &&\n          (daoUpgradeStorage().newDaoFundingManager() == _newDaoFundingManager) &&\n          (daoUpgradeStorage().newDaoRewardsManager() == _newDaoRewardsManager)\n        );\n        daoUpgradeStorage().updateForDaoMigration();\n        daoFundingManager().moveFundsToNewDao(_newDaoFundingManager);\n        daoRewardsManager().moveDGXsToNewDao(_newDaoRewardsManager);\n    }\n\n    /**\n    @notice Call this function to mark the start of the DAO's first quarter. This can only be done once, by a founder\n    @param _start Start time of the first quarter in the DAO\n    */\n    function setStartOfFirstQuarter(uint256 _start) public if_founder() {\n        require(daoUpgradeStorage().startOfFirstQuarter() == 0);\n        daoUpgradeStorage().setStartOfFirstQuarter(_start);\n    }\n\n    /**\n    @notice Submit a new preliminary idea / Pre-proposal\n    @dev The proposer has to send in a collateral == getUintConfig(CONFIG_PREPROPOSAL_DEPOSIT)\n         which he could claim back in these scenarios:\n          - Before the proposal is finalized, by calling closeProposal()\n          - After all milestones are done and the final voting round is passed\n\n    @param _docIpfsHash Hash of the IPFS doc containing details of proposal\n    @param _milestonesFundings Array of fundings of the proposal milestones (in wei)\n    @param _finalReward Final reward asked by proposer at successful completion of all milestones of proposal\n    */\n    function submitPreproposal(\n        bytes32 _docIpfsHash,\n        uint256[] _milestonesFundings,\n        uint256 _finalReward\n    )\n        public\n        payable\n        ifFundingPossible(_milestonesFundings, _finalReward)\n    {\n        senderCanDoProposerOperations();\n        bool _isFounder = is_founder();\n\n        require(msg.value == getUintConfig(CONFIG_PREPROPOSAL_DEPOSIT));\n        require(address(daoFundingManager()).call.value(msg.value)());\n\n        checkNonDigixFundings(_milestonesFundings, _finalReward);\n\n        daoStorage().addProposal(_docIpfsHash, msg.sender, _milestonesFundings, _finalReward, _isFounder);\n        daoStorage().setProposalCollateralStatus(_docIpfsHash, COLLATERAL_STATUS_UNLOCKED);\n        daoStorage().setProposalCollateralAmount(_docIpfsHash, msg.value);\n\n        emit NewProposal(_docIpfsHash, msg.sender);\n    }\n\n    /**\n    @notice Modify a proposal (this can be done only before setting the final version)\n    @param _proposalId Proposal ID (hash of IPFS doc of the first version of the proposal)\n    @param _docIpfsHash Hash of IPFS doc of the modified version of the proposal\n    @param _milestonesFundings Array of fundings of the modified version of the proposal (in wei)\n    @param _finalReward Final reward on successful completion of all milestones of the modified version of proposal (in wei)\n    */\n    function modifyProposal(\n        bytes32 _proposalId,\n        bytes32 _docIpfsHash,\n        uint256[] _milestonesFundings,\n        uint256 _finalReward\n    )\n        public\n    {\n        senderCanDoProposerOperations();\n        require(isFromProposer(_proposalId));\n\n        require(isEditable(_proposalId));\n        bytes32 _currentState;\n        (,,,_currentState,,,,,,) = daoStorage().readProposal(_proposalId);\n        require(_currentState == PROPOSAL_STATE_PREPROPOSAL ||\n          _currentState == PROPOSAL_STATE_DRAFT);\n\n        checkNonDigixFundings(_milestonesFundings, _finalReward);\n\n        daoStorage().editProposal(_proposalId, _docIpfsHash, _milestonesFundings, _finalReward);\n\n        emit ModifyProposal(_proposalId, _docIpfsHash);\n    }\n\n    /**\n    @notice Function to change the funding structure for a proposal\n    @dev Proposers can only change fundings for the subsequent milestones,\n    during the duration of an on-going milestone (so, cannot be before proposal finalization or during any voting phase)\n    @param _proposalId ID of the proposal\n    @param _milestonesFundings Array of fundings for milestones\n    @param _finalReward Final reward needed for completion of proposal\n    @param _currentMilestone the milestone number the proposal is currently in\n    */\n    function changeFundings(\n        bytes32 _proposalId,\n        uint256[] _milestonesFundings,\n        uint256 _finalReward,\n        uint256 _currentMilestone\n    )\n        public\n    {\n        senderCanDoProposerOperations();\n        require(isFromProposer(_proposalId));\n\n        checkNonDigixFundings(_milestonesFundings, _finalReward);\n\n        uint256[] memory _currentFundings;\n        (_currentFundings,) = daoStorage().readProposalFunding(_proposalId);\n\n        // If there are N milestones, the milestone index must be < N. Otherwise, putting a milestone index of N will actually return a valid timestamp that is\n        // right after the final voting round (voting round index N is the final voting round)\n        // Which could be abused ( to add more milestones even after the final voting round)\n        require(_currentMilestone < _currentFundings.length);\n\n        uint256 _startOfCurrentMilestone = startOfMilestone(_proposalId, _currentMilestone);\n\n        // must be after the start of the milestone, and the milestone has not been finished yet (next voting hasnt started)\n        require(now > _startOfCurrentMilestone);\n        require(daoStorage().readProposalVotingTime(_proposalId, _currentMilestone.add(1)) == 0);\n\n        // can only modify the fundings after _currentMilestone\n        // so, all the fundings from 0 to _currentMilestone must be the same\n        for (uint256 i=0;i<=_currentMilestone;i++) {\n            require(_milestonesFundings[i] == _currentFundings[i]);\n        }\n\n        daoStorage().changeFundings(_proposalId, _milestonesFundings, _finalReward);\n\n        emit ChangeProposalFunding(_proposalId);\n    }\n\n    /**\n    @notice Finalize a proposal\n    @dev After finalizing a proposal, no more proposal version can be added. Proposer will only be able to change fundings and add more docs\n         Right after finalizing a proposal, the draft voting round starts. The proposer would also not be able to closeProposal() anymore\n         (hence, cannot claim back the collateral anymore, until the final voting round passes)\n    @param _proposalId ID of the proposal\n    */\n    function finalizeProposal(bytes32 _proposalId)\n        public\n    {\n        senderCanDoProposerOperations();\n        require(isFromProposer(_proposalId));\n        require(isEditable(_proposalId));\n        checkNonDigixProposalLimit(_proposalId);\n\n        // make sure we have reasonably enough time left in the quarter to conduct the Draft Voting.\n        // Otherwise, the proposer must wait until the next quarter to finalize the proposal\n        require(getTimeLeftInQuarter(now) > getUintConfig(CONFIG_DRAFT_VOTING_PHASE).add(getUintConfig(CONFIG_VOTE_CLAIMING_DEADLINE)));\n        address _endorser;\n        (,,_endorser,,,,,,,) = daoStorage().readProposal(_proposalId);\n        require(_endorser != EMPTY_ADDRESS);\n        daoStorage().finalizeProposal(_proposalId);\n        daoStorage().setProposalDraftVotingTime(_proposalId, now);\n\n        emit FinalizeProposal(_proposalId);\n    }\n\n    /**\n    @notice Function to set milestone to be completed\n    @dev This can only be called in the Main Phase of DigixDAO by the proposer. It sets the\n         voting time for the next milestone, which is immediately, for most of the times. If there is not enough time left in the current\n         quarter, then the next voting is postponed to the start of next quarter\n    @param _proposalId ID of the proposal\n    @param _milestoneIndex Index of the milestone. Index starts from 0 (for the first milestone)\n    */\n    function finishMilestone(bytes32 _proposalId, uint256 _milestoneIndex)\n        public\n    {\n        senderCanDoProposerOperations();\n        require(isFromProposer(_proposalId));\n\n        uint256[] memory _currentFundings;\n        (_currentFundings,) = daoStorage().readProposalFunding(_proposalId);\n\n        // If there are N milestones, the milestone index must be < N. Otherwise, putting a milestone index of N will actually return a valid timestamp that is\n        // right after the final voting round (voting round index N is the final voting round)\n        // Which could be abused ( to \"finish\" a milestone even after the final voting round)\n        require(_milestoneIndex < _currentFundings.length);\n\n        // must be after the start of this milestone, and the milestone has not been finished yet (voting hasnt started)\n        uint256 _startOfCurrentMilestone = startOfMilestone(_proposalId, _milestoneIndex);\n        require(now > _startOfCurrentMilestone);\n        require(daoStorage().readProposalVotingTime(_proposalId, _milestoneIndex.add(1)) == 0);\n\n        daoStorage().setProposalVotingTime(\n            _proposalId,\n            _milestoneIndex.add(1),\n            getTimelineForNextVote(_milestoneIndex.add(1), now)\n        ); // set the voting time of next voting\n\n        emit FinishMilestone(_proposalId, _milestoneIndex);\n    }\n\n    /**\n    @notice Add IPFS docs to a proposal\n    @dev This is allowed only after a proposal is finalized. Before finalizing\n         a proposal, proposer can modifyProposal and basically create a different ProposalVersion. After the proposal is finalized,\n         they can only allProposalDoc to the final version of that proposal\n    @param _proposalId ID of the proposal\n    @param _newDoc hash of the new IPFS doc\n    */\n    function addProposalDoc(bytes32 _proposalId, bytes32 _newDoc)\n        public\n    {\n        senderCanDoProposerOperations();\n        require(isFromProposer(_proposalId));\n        bytes32 _finalVersion;\n        (,,,,,,,_finalVersion,,) = daoStorage().readProposal(_proposalId);\n        require(_finalVersion != EMPTY_BYTES);\n        daoStorage().addProposalDoc(_proposalId, _newDoc);\n\n        emit AddProposalDoc(_proposalId, _newDoc);\n    }\n\n    /**\n    @notice Function to endorse a pre-proposal (can be called only by DAO Moderator)\n    @param _proposalId ID of the proposal (hash of IPFS doc of the first version of the proposal)\n    */\n    function endorseProposal(bytes32 _proposalId)\n        public\n        isProposalState(_proposalId, PROPOSAL_STATE_PREPROPOSAL)\n    {\n        require(isMainPhase());\n        require(isModerator(msg.sender));\n        daoStorage().updateProposalEndorse(_proposalId, msg.sender);\n    }\n\n    /**\n    @notice Function to update the PRL (regulatory status) status of a proposal\n    @dev if a proposal is paused or stopped, the proposer wont be able to withdraw the funding\n    @param _proposalId ID of the proposal\n    @param _doc hash of IPFS uploaded document, containing details of PRL Action\n    */\n    function updatePRL(\n        bytes32 _proposalId,\n        uint256 _action,\n        bytes32 _doc\n    )\n        public\n        if_prl()\n    {\n        require(_action == PRL_ACTION_STOP || _action == PRL_ACTION_PAUSE || _action == PRL_ACTION_UNPAUSE);\n        daoStorage().updateProposalPRL(_proposalId, _action, _doc, now);\n\n        emit PRLAction(_proposalId, _action, _doc);\n    }\n\n    /**\n    @notice Function to close proposal (also get back collateral)\n    @dev Can only be closed if the proposal has not been finalized yet\n    @param _proposalId ID of the proposal\n    */\n    function closeProposal(bytes32 _proposalId)\n        public\n    {\n        senderCanDoProposerOperations();\n        require(isFromProposer(_proposalId));\n        bytes32 _finalVersion;\n        bytes32 _status;\n        (,,,_status,,,,_finalVersion,,) = daoStorage().readProposal(_proposalId);\n        require(_finalVersion == EMPTY_BYTES);\n        require(_status != PROPOSAL_STATE_CLOSED);\n        require(daoStorage().readProposalCollateralStatus(_proposalId) == COLLATERAL_STATUS_UNLOCKED);\n\n        daoStorage().closeProposal(_proposalId);\n        daoStorage().setProposalCollateralStatus(_proposalId, COLLATERAL_STATUS_CLAIMED);\n        require(daoFundingManager().refundCollateral(msg.sender, _proposalId));\n    }\n\n    /**\n    @notice Function for founders to close all the dead proposals\n    @dev Dead proposals = all proposals who are not yet finalized, and been there for more than the threshold time\n         The proposers of dead proposals will not get the collateral back\n    @param _proposalIds Array of proposal IDs\n    */\n    function founderCloseProposals(bytes32[] _proposalIds)\n        public\n        if_founder()\n    {\n        uint256 _length = _proposalIds.length;\n        uint256 _timeCreated;\n        bytes32 _finalVersion;\n        for (uint256 _i = 0; _i < _length; _i++) {\n            (,,,,_timeCreated,,,_finalVersion,,) = daoStorage().readProposal(_proposalIds[_i]);\n            require(_finalVersion == EMPTY_BYTES);\n            require(now > _timeCreated.add(getUintConfig(CONFIG_PROPOSAL_DEAD_DURATION)));\n            daoStorage().closeProposal(_proposalIds[_i]);\n        }\n    }\n}\n",
  "sourcePath": "/home/rohit/Develop/dao-contracts/contracts/interactive/Dao.sol",
  "compiler": {
    "name": "solc",
    "version": "0.4.24+commit.e67f0147.Emscripten.clang"
  },
  "schemaVersion": "2.0.1",
  "updatedAt": "2018-10-08T06:56:14.194Z"
}