{
  "contractName": "DaoConfigsStorage",
  "abi": [
    {
      "constant": true,
      "inputs": [],
      "name": "resolver",
      "outputs": [
        {
          "name": "",
          "type": "address"
        }
      ],
      "payable": false,
      "stateMutability": "view",
      "type": "function"
    },
    {
      "constant": true,
      "inputs": [],
      "name": "key",
      "outputs": [
        {
          "name": "",
          "type": "bytes32"
        }
      ],
      "payable": false,
      "stateMutability": "view",
      "type": "function"
    },
    {
      "constant": true,
      "inputs": [
        {
          "name": "_key",
          "type": "bytes32"
        }
      ],
      "name": "get_contract",
      "outputs": [
        {
          "name": "_contract",
          "type": "address"
        }
      ],
      "payable": false,
      "stateMutability": "view",
      "type": "function"
    },
    {
      "constant": true,
      "inputs": [
        {
          "name": "",
          "type": "bytes32"
        }
      ],
      "name": "uintConfigs",
      "outputs": [
        {
          "name": "",
          "type": "uint256"
        }
      ],
      "payable": false,
      "stateMutability": "view",
      "type": "function"
    },
    {
      "constant": true,
      "inputs": [
        {
          "name": "",
          "type": "bytes32"
        }
      ],
      "name": "bytesConfigs",
      "outputs": [
        {
          "name": "",
          "type": "bytes32"
        }
      ],
      "payable": false,
      "stateMutability": "view",
      "type": "function"
    },
    {
      "constant": true,
      "inputs": [],
      "name": "CONTRACT_ADDRESS",
      "outputs": [
        {
          "name": "",
          "type": "address"
        }
      ],
      "payable": false,
      "stateMutability": "view",
      "type": "function"
    },
    {
      "constant": true,
      "inputs": [
        {
          "name": "",
          "type": "bytes32"
        }
      ],
      "name": "addressConfigs",
      "outputs": [
        {
          "name": "",
          "type": "address"
        }
      ],
      "payable": false,
      "stateMutability": "view",
      "type": "function"
    },
    {
      "inputs": [
        {
          "name": "_resolver",
          "type": "address"
        }
      ],
      "payable": false,
      "stateMutability": "nonpayable",
      "type": "constructor"
    },
    {
      "constant": false,
      "inputs": [
        {
          "name": "_uintConfigs",
          "type": "uint256[]"
        }
      ],
      "name": "updateUintConfigs",
      "outputs": [],
      "payable": false,
      "stateMutability": "nonpayable",
      "type": "function"
    },
    {
      "constant": true,
      "inputs": [],
      "name": "readUintConfigs",
      "outputs": [
        {
          "name": "",
          "type": "uint256[]"
        }
      ],
      "payable": false,
      "stateMutability": "view",
      "type": "function"
    }
  ],
  "bytecode": "0x608060405260006001026003906000191690556000600460006101000a81548173ffffffffffffffffffffffffffffffffffffffff021916908373ffffffffffffffffffffffffffffffffffffffff1602179055507f70726f706f73616c5f73746174655f70726570726f706f73616c0000000000006005906000191690557f70726f706f73616c5f73746174655f64726166740000000000000000000000006006906000191690557f70726f706f73616c5f73746174655f6d6f6465726174656400000000000000006007906000191690557f70726f706f73616c5f73746174655f6f6e676f696e67000000000000000000006008906000191690557f70726f706f73616c5f73746174655f636c6f73656400000000000000000000006009906000191690556001600a556002600b556003600c556001600d556002600e556003600f557f696e7465725f6467645f696400000000000000000000000000000000000000006010906000191690557f696e7465725f6d6f645f6467645f6964000000000000000000000000000000006011906000191690557f696e7465725f626f6e75735f63616c63756c6174696f6e5f69640000000000006012906000191690557f64616f00000000000000000000000000000000000000000000000000000000006013906000191690557f64616f3a7370656369616c3a70726f706f73616c0000000000000000000000006014906000191690557f64616f3a7374616b652d6c6f636b696e670000000000000000000000000000006015906000191690557f64616f3a766f74696e67000000000000000000000000000000000000000000006016906000191690557f64616f3a766f74696e673a636c61696d730000000000000000000000000000006017906000191690557f64616f3a73766f74696e673a636c61696d7300000000000000000000000000006018906000191690557f64616f3a6964656e7469747900000000000000000000000000000000000000006019906000191690557f64616f3a726577617264732d6d616e6167657200000000000000000000000000601a906000191690557f64616f3a726577617264732d6578747261730000000000000000000000000000601b906000191690557f64616f3a726f6c65730000000000000000000000000000000000000000000000601c906000191690557f64616f3a66756e64696e672d6d616e6167657200000000000000000000000000601d906000191690557f64616f3a77686974656c697374696e6700000000000000000000000000000000601e906000191690557f736572766963653a726f6c650000000000000000000000000000000000000000601f906000191690557f736572766963653a64616f3a696e666f000000000000000000000000000000006020906000191690557f736572766963653a64616f3a6c697374696e67000000000000000000000000006021906000191690557f736572766963653a64616f3a63616c63756c61746f72000000000000000000006022906000191690557f73746f726167653a64616f0000000000000000000000000000000000000000006023906000191690557f73746f726167653a64616f3a75706772616465000000000000000000000000006024906000191690557f73746f726167653a64616f3a6964656e746974790000000000000000000000006025906000191690557f73746f726167653a64616f3a706f696e747300000000000000000000000000006026906000191690557f73746f726167653a64616f3a7370656369616c000000000000000000000000006027906000191690557f73746f726167653a64616f3a636f6e66696700000000000000000000000000006028906000191690557f73746f726167653a64616f3a7374616b650000000000000000000000000000006029906000191690557f73746f726167653a64616f3a66756e64696e6700000000000000000000000000602a906000191690557f73746f726167653a64616f3a7265776172647300000000000000000000000000602b906000191690557f73746f726167653a64616f3a77686974656c697374696e670000000000000000602c906000191690557f73746f726167653a696e7465726d6564696174653a726573756c747300000000602d906000191690557f73746f726167653a64616f3a636f6c6c61746572616c00000000000000000000602e906000191690557f743a646764000000000000000000000000000000000000000000000000000000602f906000191690557f743a6467780000000000000000000000000000000000000000000000000000006030906000191690557f743a6261646765000000000000000000000000000000000000000000000000006031906000191690556001603260006101000a81548160ff021916908360ff1602179055506002603260016101000a81548160ff021916908360ff1602179055506003603260026101000a81548160ff021916908360ff1602179055506004603260036101000a81548160ff021916908360ff1602179055506276a7006033557f6d696e5f6467645f7061727469636970616e74000000000000000000000000006034906000191690557f6d696e5f6467645f6d6f64657261746f720000000000000000000000000000006035906000191690557f6d696e5f72657075746174696f6e5f6d6f64657261746f7200000000000000006036906000191690557f6c6f636b696e675f70686173655f6475726174696f6e000000000000000000006037906000191690557f717561727465725f6475726174696f6e000000000000000000000000000000006038906000191690557f766f74696e675f636f6d6d69745f7068617365000000000000000000000000006039906000191690557f766f74696e675f70686173655f746f74616c0000000000000000000000000000603a906000191690557f696e746572696d5f766f74696e675f636f6d6d69745f70686173650000000000603b906000191690557f696e746572696d5f766f74696e675f70686173655f746f74616c000000000000603c906000191690557f64726166745f71756f72756d5f66697865645f6e756d657261746f7200000000603d906000191690557f64726166745f71756f72756d5f66697865645f64656e6f6d696e61746f720000603e906000191690557f64726166745f71756f72756d5f73666163746f725f6e756d657261746f720000603f906000191690557f64726166745f71756f72756d5f73666163746f725f64656e6f6d696e61746f726040906000191690557f766f74655f71756f72756d5f66697865645f6e756d657261746f7200000000006041906000191690557f766f74655f71756f72756d5f66697865645f64656e6f6d696e61746f720000006042906000191690557f766f74655f71756f72756d5f73666163746f725f6e756d657261746f720000006043906000191690557f766f74655f71756f72756d5f73666163746f725f64656e6f6d696e61746f72006044906000191690557f66696e616c5f7265776172645f73666163746f725f6e756d657261746f7200006045906000191690557f66696e616c5f7265776172645f73666163746f725f64656e6f6d696e61746f726046906000191690557f64726166745f71756f74615f6e756d657261746f7200000000000000000000006047906000191690557f64726166745f71756f74615f64656e6f6d696e61746f720000000000000000006048906000191690557f766f74696e675f71756f74615f6e756d657261746f72000000000000000000006049906000191690557f766f74696e675f71756f74615f64656e6f6d696e61746f720000000000000000604a906000191690557f6d696e696d616c5f717000000000000000000000000000000000000000000000604b906000191690557f717561727465725f706f696e745f7363616c696e675f666163746f7200000000604c906000191690557f7265705f706f696e745f7363616c696e675f666163746f720000000000000000604d906000191690557f6d696e696d616c5f6d6f645f7170000000000000000000000000000000000000604e906000191690557f6d6f645f71705f7363616c696e675f666163746f720000000000000000000000604f906000191690557f6d6f645f7265705f706f696e745f7363616c696e675f666163746f72000000006050906000191690557f717561727465725f706f696e745f64726166745f766f746500000000000000006051906000191690557f717561727465725f706f696e745f766f746500000000000000000000000000006052906000191690557f717561727465725f706f696e745f696e746572696d5f766f74650000000000006053906000191690557f717561727465725f706f696e745f636c61696d5f726573756c740000000000006054906000191690557f715f705f6d696c6573746f6e655f636f6d706c6574696f6e00000000000000006055906000191690557f626f6e75735f72657075746174696f6e5f6e756d657261746f720000000000006056906000191690557f626f6e75735f72657075746174696f6e5f64656e6f6d696e61746f72000000006057906000191690557f7370656369616c5f70726f706f73616c5f636f6d6d69745f70686173650000006058906000191690557f7370656369616c5f70726f706f73616c5f70686173655f746f74616c000000006059906000191690557f636f6e6669675f7370656369616c5f71756f74615f6e756d657261746f720000605a906000191690557f636f6e6669675f7370656369616c5f71756f74615f64656e6f6d696e61746f72605b906000191690557f7370656369616c5f71756f72756d5f6e756d657261746f720000000000000000605c906000191690557f7370656369616c5f71756f72756d5f64656e6f6d696e61746f72000000000000605d906000191690557f636f6e6669675f6d61785f72657075746174696f6e5f646564756374696f6e00605e906000191690557f636f6e6669675f70756e6973686d656e745f6e6f745f6c6f636b696e67000000605f906000191690557f636f6e6669675f7265705f7065725f65787472615f71705f6e756d00000000006060906000191690557f636f6e6669675f7265705f7065725f65787472615f71705f64656e00000000006061906000191690557f636f6e6669675f6d61785f6d5f72705f646564756374696f6e000000000000006062906000191690557f636f6e6669675f7265705f7065725f65787472615f6d5f71705f6e756d0000006063906000191690557f636f6e6669675f7265705f7065725f65787472615f6d5f71705f64656e0000006064906000191690557f636f6e6669675f6d6f645f706f7274696f6e5f6e756d000000000000000000006065906000191690557f636f6e6669675f6d6f645f706f7274696f6e5f64656e000000000000000000006066906000191690557f636f6e6669675f64726166745f766f74696e675f7068617365000000000000006067906000191690557f636f6e6669675f72705f626f6f73745f7065725f6261646765000000000000006068906000191690557f636f6e6669675f636c61696d696e675f646561646c696e6500000000000000006069906000191690557f636f6e6669675f70726570726f706f73616c5f6465706f736974000000000000606a906000191690557f636f6e6669675f6d61785f66756e64696e675f6e6f6e44696769780000000000606b906000191690557f636f6e6669675f6d61785f6d696c6573746f6e65735f6e6f6e44696769780000606c906000191690557f636f6e6669675f6e6f6e44696769785f70726f706f73616c5f63617000000000606d906000191690557f636f6e6669675f646561645f6475726174696f6e000000000000000000000000606e906000191690557f636f6e6669675f63765f72657075746174696f6e000000000000000000000000606f906000191690553480156200113457600080fd5b5060405160208062003e9c833981018060405281019080805190602001909291905050506200117560285482620019e8640100000000026401000000009004565b15156200118157600080fd5b620d2f00607060006037546000191660001916815260200190815260200160002081905550603354607060006038546000191660001916815260200190815260200160002081905550621baf806070600060395460001916600019168152602001908152602001600020819055506224ea0060706000603a54600019166000191681526020019081526020016000208190555062093a8060706000603b546000191660001916815260200190815260200160002081905550620d2f0060706000603c546000191660001916815260200190815260200160002081905550601460706000603d546000191660001916815260200190815260200160002081905550606460706000603e546000191660001916815260200190815260200160002081905550603c60706000603f546000191660001916815260200190815260200160002081905550606460706000604054600019166000191681526020019081526020016000208190555060146070600060415460001916600019168152602001908152602001600020819055506064607060006042546000191660001916815260200190815260200160002081905550603c6070600060435460001916600019168152602001908152602001600020819055506064607060006044546000191660001916815260200190815260200160002081905550601e6070600060475460001916600019168152602001908152602001600020819055506064607060006048546000191660001916815260200190815260200160002081905550601e607060006049546000191660001916815260200190815260200160002081905550606460706000604a5460001916600019168152602001908152602001600020819055506001607060006051546000191660001916815260200190815260200160002081905550600160706000605254600019166000191681526020019081526020016000208190555060016070600060535460001916600019168152602001908152602001600020819055506001607060006054546000191660001916815260200190815260200160002081905550600360706000605554600019166000191681526020019081526020016000208190555060c86070600060565460001916600019168152602001908152602001600020819055506064607060006057546000191660001916815260200190815260200160002081905550621baf806070600060585460001916600019168152602001908152602001600020819055506224ea00607060006059546000191660001916815260200190815260200160002081905550603360706000605a546000191660001916815260200190815260200160002081905550606460706000605b546000191660001916815260200190815260200160002081905550604660706000605c546000191660001916815260200190815260200160002081905550606460706000605d546000191660001916815260200190815260200160002081905550601460706000605e546000191660001916815260200190815260200160002081905550600560706000605f54600019166000191681526020019081526020016000208190555060016070600060605460001916600019168152602001908152602001600020819055506001607060006061546000191660001916815260200190815260200160002081905550600360706000604b546000191660001916815260200190815260200160002081905550600a60706000604c546000191660001916815260200190815260200160002081905550600a60706000604d546000191660001916815260200190815260200160002081905550600360706000604e546000191660001916815260200190815260200160002081905550600a60706000604f546000191660001916815260200190815260200160002081905550600a60706000605054600019166000191681526020019081526020016000208190555060056070600060655460001916600019168152602001908152602001600020819055506064607060006066546000191660001916815260200190815260200160002081905550621275006070600060675460001916600019168152602001908152602001600020819055506103e8607060006068546000191660001916815260200190815260200160002081905550601e607060006045546000191660001916815260200190815260200160002081905550606460706000604654600019166000191681526020019081526020016000208190555060146070600060625460001916600019168152602001908152602001600020819055506001607060006063546000191660001916815260200190815260200160002081905550600160706000606454600019166000191681526020019081526020016000208190555062069780607060006069546000191660001916815260200190815260200160002081905550633b9aca0060706000603454600019166000191681526020019081526020016000208190555064174876e8006070600060355460001916600019168152602001908152602001600020819055506064607060006036546000191660001916815260200190815260200160002081905550671bc16d674ec8000060706000606a5460001916600019168152602001908152602001600020819055506801158e460913d0000060706000606b546000191660001916815260200190815260200160002081905550600260706000606c546000191660001916815260200190815260200160002081905550600a60706000606d54600019166000191681526020019081526020016000208190555062ed4e0060706000606e546000191660001916815260200190815260200160002081905550602360706000606f5460001916600019168152602001908152602001600020819055505062001c79565b6000808273ffffffffffffffffffffffffffffffffffffffff1663cf3090126040518163ffffffff167c0100000000000000000000000000000000000000000000000000000000028152600401602060405180830381600087803b15801562001a5057600080fd5b505af115801562001a65573d6000803e3d6000fd5b505050506040513d602081101562001a7c57600080fd5b8101908080519060200190929190505050905060001515811515141562001c6d5730600260006101000a81548173ffffffffffffffffffffffffffffffffffffffff021916908373ffffffffffffffffffffffffffffffffffffffff160217905550826000806101000a81548173ffffffffffffffffffffffffffffffffffffffff021916908373ffffffffffffffffffffffffffffffffffffffff16021790555083600181600019169055506000809054906101000a900473ffffffffffffffffffffffffffffffffffffffff1673ffffffffffffffffffffffffffffffffffffffff1663c0f6ef4a600154600260009054906101000a900473ffffffffffffffffffffffffffffffffffffffff166040518363ffffffff167c01000000000000000000000000000000000000000000000000000000000281526004018083600019166000191681526020018273ffffffffffffffffffffffffffffffffffffffff1673ffffffffffffffffffffffffffffffffffffffff16815260200192505050602060405180830381600087803b15801562001c1a57600080fd5b505af115801562001c2f573d6000803e3d6000fd5b505050506040513d602081101562001c4657600080fd5b8101908080519060200190929190505050151562001c6357600080fd5b6001915062001c72565b600091505b5092915050565b6122138062001c896000396000f300608060405260043610610099576000357c0100000000000000000000000000000000000000000000000000000000900463ffffffff16806304f3bcec1461009e5780633943380c146100f55780633977815b146101285780633f83acff14610194578063734c116814610205578063aecbca671461024a578063c0a8405d146102b0578063db4ecbc1146102fd578063e6b39eab14610354575b600080fd5b3480156100aa57600080fd5b506100b36103c5565b604051808273ffffffffffffffffffffffffffffffffffffffff1673ffffffffffffffffffffffffffffffffffffffff16815260200191505060405180910390f35b34801561010157600080fd5b5061010a6103ea565b60405180826000191660001916815260200191505060405180910390f35b34801561013457600080fd5b5061013d6103f0565b6040518080602001828103825283818151815260200191508051906020019060200280838360005b83811015610180578082015181840152602081019050610165565b505050509050019250505060405180910390f35b3480156101a057600080fd5b506101c36004803603810190808035600019169060200190929190505050611201565b604051808273ffffffffffffffffffffffffffffffffffffffff1673ffffffffffffffffffffffffffffffffffffffff16815260200191505060405180910390f35b34801561021157600080fd5b5061023460048036038101908080356000191690602001909291905050506112dd565b6040518082815260200191505060405180910390f35b34801561025657600080fd5b506102ae600480360381019080803590602001908201803590602001908080602002602001604051908101604052809392919081815260200183836020028082843782019150505050505091929192905050506112f5565b005b3480156102bc57600080fd5b506102df600480360381019080803560001916906020019092919050505061206c565b60405180826000191660001916815260200191505060405180910390f35b34801561030957600080fd5b50610312612084565b604051808273ffffffffffffffffffffffffffffffffffffffff1673ffffffffffffffffffffffffffffffffffffffff16815260200191505060405180910390f35b34801561036057600080fd5b5061038360048036038101908080356000191690602001909291905050506120aa565b604051808273ffffffffffffffffffffffffffffffffffffffff1673ffffffffffffffffffffffffffffffffffffffff16815260200191505060405180910390f35b6000809054906101000a900473ffffffffffffffffffffffffffffffffffffffff1681565b60015481565b606080603c6040519080825280602002602001820160405280156104235781602001602082028038833980820191505090505b50905060706000603754600019166000191681526020019081526020016000205481600081518110151561045357fe5b906020019060200201818152505060706000603854600019166000191681526020019081526020016000205481600181518110151561048e57fe5b90602001906020020181815250506070600060395460001916600019168152602001908152602001600020548160028151811015156104c957fe5b906020019060200201818152505060706000603a54600019166000191681526020019081526020016000205481600381518110151561050457fe5b906020019060200201818152505060706000603b54600019166000191681526020019081526020016000205481600481518110151561053f57fe5b906020019060200201818152505060706000603c54600019166000191681526020019081526020016000205481600581518110151561057a57fe5b906020019060200201818152505060706000603d5460001916600019168152602001908152602001600020548160068151811015156105b557fe5b906020019060200201818152505060706000603e5460001916600019168152602001908152602001600020548160078151811015156105f057fe5b906020019060200201818152505060706000603f54600019166000191681526020019081526020016000205481600881518110151561062b57fe5b906020019060200201818152505060706000604054600019166000191681526020019081526020016000205481600981518110151561066657fe5b906020019060200201818152505060706000604154600019166000191681526020019081526020016000205481600a8151811015156106a157fe5b906020019060200201818152505060706000604254600019166000191681526020019081526020016000205481600b8151811015156106dc57fe5b906020019060200201818152505060706000604354600019166000191681526020019081526020016000205481600c81518110151561071757fe5b906020019060200201818152505060706000604454600019166000191681526020019081526020016000205481600d81518110151561075257fe5b906020019060200201818152505060706000604754600019166000191681526020019081526020016000205481600e81518110151561078d57fe5b906020019060200201818152505060706000604854600019166000191681526020019081526020016000205481600f8151811015156107c857fe5b906020019060200201818152505060706000604954600019166000191681526020019081526020016000205481601081518110151561080357fe5b906020019060200201818152505060706000604a54600019166000191681526020019081526020016000205481601181518110151561083e57fe5b906020019060200201818152505060706000605154600019166000191681526020019081526020016000205481601281518110151561087957fe5b90602001906020020181815250506070600060525460001916600019168152602001908152602001600020548160138151811015156108b457fe5b90602001906020020181815250506070600060535460001916600019168152602001908152602001600020548160148151811015156108ef57fe5b906020019060200201818152505060706000604b54600019166000191681526020019081526020016000205481601581518110151561092a57fe5b906020019060200201818152505060706000605454600019166000191681526020019081526020016000205481601681518110151561096557fe5b90602001906020020181815250506070600060555460001916600019168152602001908152602001600020548160178151811015156109a057fe5b90602001906020020181815250506070600060565460001916600019168152602001908152602001600020548160188151811015156109db57fe5b9060200190602002018181525050607060006057546000191660001916815260200190815260200160002054816019815181101515610a1657fe5b906020019060200201818152505060706000605854600019166000191681526020019081526020016000205481601a815181101515610a5157fe5b906020019060200201818152505060706000605954600019166000191681526020019081526020016000205481601b815181101515610a8c57fe5b906020019060200201818152505060706000605a54600019166000191681526020019081526020016000205481601c815181101515610ac757fe5b906020019060200201818152505060706000605b54600019166000191681526020019081526020016000205481601d815181101515610b0257fe5b906020019060200201818152505060706000605c54600019166000191681526020019081526020016000205481601e815181101515610b3d57fe5b906020019060200201818152505060706000605d54600019166000191681526020019081526020016000205481601f815181101515610b7857fe5b906020019060200201818152505060706000605e546000191660001916815260200190815260200160002054816020815181101515610bb357fe5b906020019060200201818152505060706000605f546000191660001916815260200190815260200160002054816021815181101515610bee57fe5b9060200190602002018181525050607060006060546000191660001916815260200190815260200160002054816022815181101515610c2957fe5b9060200190602002018181525050607060006061546000191660001916815260200190815260200160002054816023815181101515610c6457fe5b906020019060200201818152505060706000604c546000191660001916815260200190815260200160002054816024815181101515610c9f57fe5b906020019060200201818152505060706000604d546000191660001916815260200190815260200160002054816025815181101515610cda57fe5b906020019060200201818152505060706000604e546000191660001916815260200190815260200160002054816026815181101515610d1557fe5b906020019060200201818152505060706000604f546000191660001916815260200190815260200160002054816027815181101515610d5057fe5b9060200190602002018181525050607060006050546000191660001916815260200190815260200160002054816028815181101515610d8b57fe5b9060200190602002018181525050607060006065546000191660001916815260200190815260200160002054816029815181101515610dc657fe5b906020019060200201818152505060706000606654600019166000191681526020019081526020016000205481602a815181101515610e0157fe5b906020019060200201818152505060706000606754600019166000191681526020019081526020016000205481602b815181101515610e3c57fe5b906020019060200201818152505060706000606854600019166000191681526020019081526020016000205481602c815181101515610e7757fe5b906020019060200201818152505060706000604554600019166000191681526020019081526020016000205481602d815181101515610eb257fe5b906020019060200201818152505060706000604654600019166000191681526020019081526020016000205481602e815181101515610eed57fe5b906020019060200201818152505060706000606254600019166000191681526020019081526020016000205481602f815181101515610f2857fe5b9060200190602002018181525050607060006063546000191660001916815260200190815260200160002054816030815181101515610f6357fe5b9060200190602002018181525050607060006064546000191660001916815260200190815260200160002054816031815181101515610f9e57fe5b9060200190602002018181525050607060006069546000191660001916815260200190815260200160002054816032815181101515610fd957fe5b906020019060200201818152505060706000603454600019166000191681526020019081526020016000205481603381518110151561101457fe5b906020019060200201818152505060706000603554600019166000191681526020019081526020016000205481603481518110151561104f57fe5b906020019060200201818152505060706000603654600019166000191681526020019081526020016000205481603581518110151561108a57fe5b906020019060200201818152505060706000606a5460001916600019168152602001908152602001600020548160368151811015156110c557fe5b906020019060200201818152505060706000606b54600019166000191681526020019081526020016000205481603781518110151561110057fe5b906020019060200201818152505060706000606c54600019166000191681526020019081526020016000205481603881518110151561113b57fe5b906020019060200201818152505060706000606d54600019166000191681526020019081526020016000205481603981518110151561117657fe5b906020019060200201818152505060706000606e54600019166000191681526020019081526020016000205481603a8151811015156111b157fe5b906020019060200201818152505060706000606f54600019166000191681526020019081526020016000205481603b8151811015156111ec57fe5b90602001906020020181815250508091505090565b60008060009054906101000a900473ffffffffffffffffffffffffffffffffffffffff1673ffffffffffffffffffffffffffffffffffffffff16633f83acff836040518263ffffffff167c0100000000000000000000000000000000000000000000000000000000028152600401808260001916600019168152602001915050602060405180830381600087803b15801561129b57600080fd5b505af11580156112af573d6000803e3d6000fd5b505050506040513d60208110156112c557600080fd5b81019080805190602001909291905050509050919050565b60706020528060005260406000206000915090505481565b6113006018546120dd565b151561130b57600080fd5b80600081518110151561131a57fe5b9060200190602002015160706000603754600019166000191681526020019081526020016000208190555080600281518110151561135457fe5b9060200190602002015160706000603954600019166000191681526020019081526020016000208190555080600381518110151561138e57fe5b9060200190602002015160706000603a5460001916600019168152602001908152602001600020819055508060048151811015156113c857fe5b9060200190602002015160706000603b54600019166000191681526020019081526020016000208190555080600581518110151561140257fe5b9060200190602002015160706000603c54600019166000191681526020019081526020016000208190555080600681518110151561143c57fe5b9060200190602002015160706000603d54600019166000191681526020019081526020016000208190555080600781518110151561147657fe5b9060200190602002015160706000603e5460001916600019168152602001908152602001600020819055508060088151811015156114b057fe5b9060200190602002015160706000603f5460001916600019168152602001908152602001600020819055508060098151811015156114ea57fe5b9060200190602002015160706000604054600019166000191681526020019081526020016000208190555080600a81518110151561152457fe5b9060200190602002015160706000604154600019166000191681526020019081526020016000208190555080600b81518110151561155e57fe5b9060200190602002015160706000604254600019166000191681526020019081526020016000208190555080600c81518110151561159857fe5b9060200190602002015160706000604354600019166000191681526020019081526020016000208190555080600d8151811015156115d257fe5b9060200190602002015160706000604454600019166000191681526020019081526020016000208190555080600e81518110151561160c57fe5b9060200190602002015160706000604754600019166000191681526020019081526020016000208190555080600f81518110151561164657fe5b9060200190602002015160706000604854600019166000191681526020019081526020016000208190555080601081518110151561168057fe5b906020019060200201516070600060495460001916600019168152602001908152602001600020819055508060118151811015156116ba57fe5b9060200190602002015160706000604a5460001916600019168152602001908152602001600020819055508060128151811015156116f457fe5b9060200190602002015160706000605154600019166000191681526020019081526020016000208190555080601381518110151561172e57fe5b9060200190602002015160706000605254600019166000191681526020019081526020016000208190555080601481518110151561176857fe5b906020019060200201516070600060535460001916600019168152602001908152602001600020819055508060158151811015156117a257fe5b9060200190602002015160706000604b5460001916600019168152602001908152602001600020819055508060168151811015156117dc57fe5b9060200190602002015160706000605454600019166000191681526020019081526020016000208190555080601781518110151561181657fe5b9060200190602002015160706000605554600019166000191681526020019081526020016000208190555080601881518110151561185057fe5b9060200190602002015160706000605654600019166000191681526020019081526020016000208190555080601981518110151561188a57fe5b9060200190602002015160706000605754600019166000191681526020019081526020016000208190555080601a8151811015156118c457fe5b9060200190602002015160706000605854600019166000191681526020019081526020016000208190555080601b8151811015156118fe57fe5b9060200190602002015160706000605954600019166000191681526020019081526020016000208190555080601c81518110151561193857fe5b9060200190602002015160706000605a54600019166000191681526020019081526020016000208190555080601d81518110151561197257fe5b9060200190602002015160706000605b54600019166000191681526020019081526020016000208190555080601e8151811015156119ac57fe5b9060200190602002015160706000605c54600019166000191681526020019081526020016000208190555080601f8151811015156119e657fe5b9060200190602002015160706000605d546000191660001916815260200190815260200160002081905550806020815181101515611a2057fe5b9060200190602002015160706000605e546000191660001916815260200190815260200160002081905550806021815181101515611a5a57fe5b9060200190602002015160706000605f546000191660001916815260200190815260200160002081905550806022815181101515611a9457fe5b90602001906020020151607060006060546000191660001916815260200190815260200160002081905550806023815181101515611ace57fe5b90602001906020020151607060006061546000191660001916815260200190815260200160002081905550806024815181101515611b0857fe5b9060200190602002015160706000604c546000191660001916815260200190815260200160002081905550806025815181101515611b4257fe5b9060200190602002015160706000604d546000191660001916815260200190815260200160002081905550806026815181101515611b7c57fe5b9060200190602002015160706000604e546000191660001916815260200190815260200160002081905550806027815181101515611bb657fe5b9060200190602002015160706000604f546000191660001916815260200190815260200160002081905550806028815181101515611bf057fe5b90602001906020020151607060006050546000191660001916815260200190815260200160002081905550806029815181101515611c2a57fe5b9060200190602002015160706000606554600019166000191681526020019081526020016000208190555080602a815181101515611c6457fe5b9060200190602002015160706000606654600019166000191681526020019081526020016000208190555080602b815181101515611c9e57fe5b9060200190602002015160706000606754600019166000191681526020019081526020016000208190555080602c815181101515611cd857fe5b9060200190602002015160706000606854600019166000191681526020019081526020016000208190555080602d815181101515611d1257fe5b9060200190602002015160706000604554600019166000191681526020019081526020016000208190555080602e815181101515611d4c57fe5b9060200190602002015160706000604654600019166000191681526020019081526020016000208190555080602f815181101515611d8657fe5b90602001906020020151607060006062546000191660001916815260200190815260200160002081905550806030815181101515611dc057fe5b90602001906020020151607060006063546000191660001916815260200190815260200160002081905550806031815181101515611dfa57fe5b90602001906020020151607060006064546000191660001916815260200190815260200160002081905550806032815181101515611e3457fe5b90602001906020020151607060006069546000191660001916815260200190815260200160002081905550806033815181101515611e6e57fe5b90602001906020020151607060006034546000191660001916815260200190815260200160002081905550806034815181101515611ea857fe5b90602001906020020151607060006035546000191660001916815260200190815260200160002081905550806035815181101515611ee257fe5b90602001906020020151607060006036546000191660001916815260200190815260200160002081905550806036815181101515611f1c57fe5b9060200190602002015160706000606a546000191660001916815260200190815260200160002081905550806037815181101515611f5657fe5b9060200190602002015160706000606b546000191660001916815260200190815260200160002081905550806038815181101515611f9057fe5b9060200190602002015160706000606c546000191660001916815260200190815260200160002081905550806039815181101515611fca57fe5b9060200190602002015160706000606d54600019166000191681526020019081526020016000208190555080603a81518110151561200457fe5b9060200190602002015160706000606e54600019166000191681526020019081526020016000208190555080603b81518110151561203e57fe5b9060200190602002015160706000606f54600019166000191681526020019081526020016000208190555050565b60726020528060005260406000206000915090505481565b600260009054906101000a900473ffffffffffffffffffffffffffffffffffffffff1681565b60716020528060005260406000206000915054906101000a900473ffffffffffffffffffffffffffffffffffffffff1681565b60008060009054906101000a900473ffffffffffffffffffffffffffffffffffffffff1673ffffffffffffffffffffffffffffffffffffffff16633f83acff836040518263ffffffff167c0100000000000000000000000000000000000000000000000000000000028152600401808260001916600019168152602001915050602060405180830381600087803b15801561217757600080fd5b505af115801561218b573d6000803e3d6000fd5b505050506040513d60208110156121a157600080fd5b810190808051906020019092919050505073ffffffffffffffffffffffffffffffffffffffff163373ffffffffffffffffffffffffffffffffffffffff161490509190505600a165627a7a72305820d56449fc2c9a30b4a058e951f43cbc1b63f3a6da038f256c979c51a5e7a5a9f20029",
  "source": "pragma solidity ^0.4.24;\n\nimport \"@digix/cacp-contracts-dao/contracts/ResolverClient.sol\";\nimport \"../common/DaoConstants.sol\";\n\ncontract DaoConfigsStorage is ResolverClient, DaoConstants {\n\n    // mapping of config name to config value\n    // config names can be found in DaoConstants contract\n    mapping (bytes32 => uint256) public uintConfigs;\n\n    // mapping of config name to config value\n    // config names can be found in DaoConstants contract\n    mapping (bytes32 => address) public addressConfigs;\n\n    // mapping of config name to config value\n    // config names can be found in DaoConstants contract\n    mapping (bytes32 => bytes32) public bytesConfigs;\n\n    constructor(address _resolver)\n        public\n    {\n        require(init(CONTRACT_STORAGE_DAO_CONFIG, _resolver));\n\n        uintConfigs[CONFIG_LOCKING_PHASE_DURATION] = 10 days;\n        uintConfigs[CONFIG_QUARTER_DURATION] = QUARTER_DURATION;\n        uintConfigs[CONFIG_VOTING_COMMIT_PHASE] = 3 weeks;\n        uintConfigs[CONFIG_VOTING_PHASE_TOTAL] = 4 weeks;\n        uintConfigs[CONFIG_INTERIM_COMMIT_PHASE] = 7 days;\n        uintConfigs[CONFIG_INTERIM_PHASE_TOTAL] = 10 days;\n\n        uintConfigs[CONFIG_DRAFT_QUORUM_FIXED_PORTION_NUMERATOR] = 20;\n        uintConfigs[CONFIG_DRAFT_QUORUM_FIXED_PORTION_DENOMINATOR] = 100;\n        uintConfigs[CONFIG_DRAFT_QUORUM_SCALING_FACTOR_NUMERATOR] = 60;\n        uintConfigs[CONFIG_DRAFT_QUORUM_SCALING_FACTOR_DENOMINATOR] = 100;\n\n        uintConfigs[CONFIG_VOTING_QUORUM_FIXED_PORTION_NUMERATOR] = 20;\n        uintConfigs[CONFIG_VOTING_QUORUM_FIXED_PORTION_DENOMINATOR] = 100;\n        uintConfigs[CONFIG_VOTING_QUORUM_SCALING_FACTOR_NUMERATOR] = 60;\n        uintConfigs[CONFIG_VOTING_QUORUM_SCALING_FACTOR_DENOMINATOR] = 100;\n\n        uintConfigs[CONFIG_DRAFT_QUOTA_NUMERATOR] = 30;\n        uintConfigs[CONFIG_DRAFT_QUOTA_DENOMINATOR] = 100;\n        uintConfigs[CONFIG_VOTING_QUOTA_NUMERATOR] = 30;\n        uintConfigs[CONFIG_VOTING_QUOTA_DENOMINATOR] = 100;\n\n        uintConfigs[CONFIG_QUARTER_POINT_DRAFT_VOTE] = 1;\n        uintConfigs[CONFIG_QUARTER_POINT_VOTE] = 1;\n        uintConfigs[CONFIG_QUARTER_POINT_INTERIM_VOTE] = 1;\n        uintConfigs[CONFIG_QUARTER_POINT_CLAIM_RESULT] = 1; // TODO: remove this config\n        uintConfigs[CONFIG_QUARTER_POINT_MILESTONE_COMPLETION_PER_10000ETH] = 3;\n\n        uintConfigs[CONFIG_BONUS_REPUTATION_NUMERATOR] = 200;\n        uintConfigs[CONFIG_BONUS_REPUTATION_DENOMINATOR] = 100;\n\n        uintConfigs[CONFIG_SPECIAL_PROPOSAL_COMMIT_PHASE] = 3 weeks;\n        uintConfigs[CONFIG_SPECIAL_PROPOSAL_PHASE_TOTAL] = 4 weeks;\n\n        uintConfigs[CONFIG_SPECIAL_QUOTA_NUMERATOR] = 51;\n        uintConfigs[CONFIG_SPECIAL_QUOTA_DENOMINATOR] = 100;\n        uintConfigs[CONFIG_SPECIAL_PROPOSAL_QUORUM_NUMERATOR] = 70;\n        uintConfigs[CONFIG_SPECIAL_PROPOSAL_QUORUM_DENOMINATOR] = 100;\n\n        uintConfigs[CONFIG_MAXIMUM_REPUTATION_DEDUCTION] = 20;\n        uintConfigs[CONFIG_PUNISHMENT_FOR_NOT_LOCKING] = 5;\n        uintConfigs[CONFIG_REPUTATION_PER_EXTRA_QP_NUM] = 1; // 1 extra QP gains 1/1 RP\n        uintConfigs[CONFIG_REPUTATION_PER_EXTRA_QP_DEN] = 1;\n\n        uintConfigs[CONFIG_MINIMAL_QUARTER_POINT] = 3;\n        uintConfigs[CONFIG_QUARTER_POINT_SCALING_FACTOR] = 10;\n        uintConfigs[CONFIG_REPUTATION_POINT_SCALING_FACTOR] = 10;\n\n        uintConfigs[CONFIG_MODERATOR_MINIMAL_QUARTER_POINT] = 3;\n        uintConfigs[CONFIG_MODERATOR_QUARTER_POINT_SCALING_FACTOR] = 10;\n        uintConfigs[CONFIG_MODERATOR_REPUTATION_POINT_SCALING_FACTOR] = 10;\n\n        uintConfigs[CONFIG_PORTION_TO_MODERATORS_NUM] = 5; //5% of DGX to Badge holder voting activity\n        uintConfigs[CONFIG_PORTION_TO_MODERATORS_DEN] = 100;\n\n        uintConfigs[CONFIG_DRAFT_VOTING_PHASE] = 2 weeks;\n        uintConfigs[CONFIG_REPUTATION_POINT_BOOST_FOR_BADGE] = 1000;\n\n        uintConfigs[CONFIG_FINAL_REWARD_SCALING_FACTOR_NUMERATOR] = 30;\n        uintConfigs[CONFIG_FINAL_REWARD_SCALING_FACTOR_DENOMINATOR] = 100;\n\n        uintConfigs[CONFIG_MAXIMUM_MODERATOR_REPUTATION_DEDUCTION] = 20;\n        uintConfigs[CONFIG_REPUTATION_PER_EXTRA_MODERATOR_QP_NUM] = 1;\n        uintConfigs[CONFIG_REPUTATION_PER_EXTRA_MODERATOR_QP_DEN] = 1;\n\n        uintConfigs[CONFIG_VOTE_CLAIMING_DEADLINE] = 5 days;\n\n        uintConfigs[CONFIG_MINIMUM_LOCKED_DGD] = 10 ** 9;\n        uintConfigs[CONFIG_MINIMUM_DGD_FOR_MODERATOR] = 100 * (10 ** 9);\n        uintConfigs[CONFIG_MINIMUM_REPUTATION_FOR_MODERATOR] = 100;\n\n        uintConfigs[CONFIG_PREPROPOSAL_DEPOSIT] = 2 ether;\n\n        uintConfigs[CONFIG_MAX_FUNDING_FOR_NON_DIGIX] = 20 ether;\n        uintConfigs[CONFIG_MAX_MILESTONES_FOR_NON_DIGIX] = 2;\n        uintConfigs[CONFIG_NON_DIGIX_PROPOSAL_CAP_PER_QUARTER] = 10;\n\n        uintConfigs[CONFIG_PROPOSAL_DEAD_DURATION] = 180 days;\n\n        uintConfigs[CONFIG_CARBON_VOTE_REPUTATION_BONUS] = 35;\n    }\n\n    function updateUintConfigs(uint256[] _uintConfigs)\n        public\n    {\n        require(sender_is(CONTRACT_DAO_SPECIAL_VOTING_CLAIMS));\n        uintConfigs[CONFIG_LOCKING_PHASE_DURATION] = _uintConfigs[0];\n        /*\n        This used to be a config that can be changed. Now, _uintConfigs[1] is just a dummy config that doesnt do anything\n        uintConfigs[CONFIG_QUARTER_DURATION] = _uintConfigs[1];\n        */\n        uintConfigs[CONFIG_VOTING_COMMIT_PHASE] = _uintConfigs[2];\n        uintConfigs[CONFIG_VOTING_PHASE_TOTAL] = _uintConfigs[3];\n        uintConfigs[CONFIG_INTERIM_COMMIT_PHASE] = _uintConfigs[4];\n        uintConfigs[CONFIG_INTERIM_PHASE_TOTAL] = _uintConfigs[5];\n        uintConfigs[CONFIG_DRAFT_QUORUM_FIXED_PORTION_NUMERATOR] = _uintConfigs[6];\n        uintConfigs[CONFIG_DRAFT_QUORUM_FIXED_PORTION_DENOMINATOR] = _uintConfigs[7];\n        uintConfigs[CONFIG_DRAFT_QUORUM_SCALING_FACTOR_NUMERATOR] = _uintConfigs[8];\n        uintConfigs[CONFIG_DRAFT_QUORUM_SCALING_FACTOR_DENOMINATOR] = _uintConfigs[9];\n        uintConfigs[CONFIG_VOTING_QUORUM_FIXED_PORTION_NUMERATOR] = _uintConfigs[10];\n        uintConfigs[CONFIG_VOTING_QUORUM_FIXED_PORTION_DENOMINATOR] = _uintConfigs[11];\n        uintConfigs[CONFIG_VOTING_QUORUM_SCALING_FACTOR_NUMERATOR] = _uintConfigs[12];\n        uintConfigs[CONFIG_VOTING_QUORUM_SCALING_FACTOR_DENOMINATOR] = _uintConfigs[13];\n        uintConfigs[CONFIG_DRAFT_QUOTA_NUMERATOR] = _uintConfigs[14];\n        uintConfigs[CONFIG_DRAFT_QUOTA_DENOMINATOR] = _uintConfigs[15];\n        uintConfigs[CONFIG_VOTING_QUOTA_NUMERATOR] = _uintConfigs[16];\n        uintConfigs[CONFIG_VOTING_QUOTA_DENOMINATOR] = _uintConfigs[17];\n        uintConfigs[CONFIG_QUARTER_POINT_DRAFT_VOTE] = _uintConfigs[18];\n        uintConfigs[CONFIG_QUARTER_POINT_VOTE] = _uintConfigs[19];\n        uintConfigs[CONFIG_QUARTER_POINT_INTERIM_VOTE] = _uintConfigs[20];\n        uintConfigs[CONFIG_MINIMAL_QUARTER_POINT] = _uintConfigs[21];\n        uintConfigs[CONFIG_QUARTER_POINT_CLAIM_RESULT] = _uintConfigs[22];\n        uintConfigs[CONFIG_QUARTER_POINT_MILESTONE_COMPLETION_PER_10000ETH] = _uintConfigs[23];\n        uintConfigs[CONFIG_BONUS_REPUTATION_NUMERATOR] = _uintConfigs[24];\n        uintConfigs[CONFIG_BONUS_REPUTATION_DENOMINATOR] = _uintConfigs[25];\n        uintConfigs[CONFIG_SPECIAL_PROPOSAL_COMMIT_PHASE] = _uintConfigs[26];\n        uintConfigs[CONFIG_SPECIAL_PROPOSAL_PHASE_TOTAL] = _uintConfigs[27];\n        uintConfigs[CONFIG_SPECIAL_QUOTA_NUMERATOR] = _uintConfigs[28];\n        uintConfigs[CONFIG_SPECIAL_QUOTA_DENOMINATOR] = _uintConfigs[29];\n        uintConfigs[CONFIG_SPECIAL_PROPOSAL_QUORUM_NUMERATOR] = _uintConfigs[30];\n        uintConfigs[CONFIG_SPECIAL_PROPOSAL_QUORUM_DENOMINATOR] = _uintConfigs[31];\n        uintConfigs[CONFIG_MAXIMUM_REPUTATION_DEDUCTION] = _uintConfigs[32];\n        uintConfigs[CONFIG_PUNISHMENT_FOR_NOT_LOCKING] = _uintConfigs[33];\n        uintConfigs[CONFIG_REPUTATION_PER_EXTRA_QP_NUM] = _uintConfigs[34];\n        uintConfigs[CONFIG_REPUTATION_PER_EXTRA_QP_DEN] = _uintConfigs[35];\n        uintConfigs[CONFIG_QUARTER_POINT_SCALING_FACTOR] = _uintConfigs[36];\n        uintConfigs[CONFIG_REPUTATION_POINT_SCALING_FACTOR] = _uintConfigs[37];\n        uintConfigs[CONFIG_MODERATOR_MINIMAL_QUARTER_POINT] = _uintConfigs[38];\n        uintConfigs[CONFIG_MODERATOR_QUARTER_POINT_SCALING_FACTOR] = _uintConfigs[39];\n        uintConfigs[CONFIG_MODERATOR_REPUTATION_POINT_SCALING_FACTOR] = _uintConfigs[40];\n        uintConfigs[CONFIG_PORTION_TO_MODERATORS_NUM] = _uintConfigs[41];\n        uintConfigs[CONFIG_PORTION_TO_MODERATORS_DEN] = _uintConfigs[42];\n        uintConfigs[CONFIG_DRAFT_VOTING_PHASE] = _uintConfigs[43];\n        uintConfigs[CONFIG_REPUTATION_POINT_BOOST_FOR_BADGE] = _uintConfigs[44];\n        uintConfigs[CONFIG_FINAL_REWARD_SCALING_FACTOR_NUMERATOR] = _uintConfigs[45];\n        uintConfigs[CONFIG_FINAL_REWARD_SCALING_FACTOR_DENOMINATOR] = _uintConfigs[46];\n        uintConfigs[CONFIG_MAXIMUM_MODERATOR_REPUTATION_DEDUCTION] = _uintConfigs[47];\n        uintConfigs[CONFIG_REPUTATION_PER_EXTRA_MODERATOR_QP_NUM] = _uintConfigs[48];\n        uintConfigs[CONFIG_REPUTATION_PER_EXTRA_MODERATOR_QP_DEN] = _uintConfigs[49];\n        uintConfigs[CONFIG_VOTE_CLAIMING_DEADLINE] = _uintConfigs[50];\n        uintConfigs[CONFIG_MINIMUM_LOCKED_DGD] = _uintConfigs[51];\n        uintConfigs[CONFIG_MINIMUM_DGD_FOR_MODERATOR] = _uintConfigs[52];\n        uintConfigs[CONFIG_MINIMUM_REPUTATION_FOR_MODERATOR] = _uintConfigs[53];\n        uintConfigs[CONFIG_PREPROPOSAL_DEPOSIT] = _uintConfigs[54];\n        uintConfigs[CONFIG_MAX_FUNDING_FOR_NON_DIGIX] = _uintConfigs[55];\n        uintConfigs[CONFIG_MAX_MILESTONES_FOR_NON_DIGIX] = _uintConfigs[56];\n        uintConfigs[CONFIG_NON_DIGIX_PROPOSAL_CAP_PER_QUARTER] = _uintConfigs[57];\n        uintConfigs[CONFIG_PROPOSAL_DEAD_DURATION] = _uintConfigs[58];\n        uintConfigs[CONFIG_CARBON_VOTE_REPUTATION_BONUS] = _uintConfigs[59];\n    }\n\n    function readUintConfigs()\n        public\n        constant\n        returns (uint256[])\n    {\n        uint256[] memory _uintConfigs = new uint256[](60);\n        _uintConfigs[0] = uintConfigs[CONFIG_LOCKING_PHASE_DURATION];\n        _uintConfigs[1] = uintConfigs[CONFIG_QUARTER_DURATION];\n        _uintConfigs[2] = uintConfigs[CONFIG_VOTING_COMMIT_PHASE];\n        _uintConfigs[3] = uintConfigs[CONFIG_VOTING_PHASE_TOTAL];\n        _uintConfigs[4] = uintConfigs[CONFIG_INTERIM_COMMIT_PHASE];\n        _uintConfigs[5] = uintConfigs[CONFIG_INTERIM_PHASE_TOTAL];\n        _uintConfigs[6] = uintConfigs[CONFIG_DRAFT_QUORUM_FIXED_PORTION_NUMERATOR];\n        _uintConfigs[7] = uintConfigs[CONFIG_DRAFT_QUORUM_FIXED_PORTION_DENOMINATOR];\n        _uintConfigs[8] = uintConfigs[CONFIG_DRAFT_QUORUM_SCALING_FACTOR_NUMERATOR];\n        _uintConfigs[9] = uintConfigs[CONFIG_DRAFT_QUORUM_SCALING_FACTOR_DENOMINATOR];\n        _uintConfigs[10] = uintConfigs[CONFIG_VOTING_QUORUM_FIXED_PORTION_NUMERATOR];\n        _uintConfigs[11] = uintConfigs[CONFIG_VOTING_QUORUM_FIXED_PORTION_DENOMINATOR];\n        _uintConfigs[12] = uintConfigs[CONFIG_VOTING_QUORUM_SCALING_FACTOR_NUMERATOR];\n        _uintConfigs[13] = uintConfigs[CONFIG_VOTING_QUORUM_SCALING_FACTOR_DENOMINATOR];\n        _uintConfigs[14] = uintConfigs[CONFIG_DRAFT_QUOTA_NUMERATOR];\n        _uintConfigs[15] = uintConfigs[CONFIG_DRAFT_QUOTA_DENOMINATOR];\n        _uintConfigs[16] = uintConfigs[CONFIG_VOTING_QUOTA_NUMERATOR];\n        _uintConfigs[17] = uintConfigs[CONFIG_VOTING_QUOTA_DENOMINATOR];\n        _uintConfigs[18] = uintConfigs[CONFIG_QUARTER_POINT_DRAFT_VOTE];\n        _uintConfigs[19] = uintConfigs[CONFIG_QUARTER_POINT_VOTE];\n        _uintConfigs[20] = uintConfigs[CONFIG_QUARTER_POINT_INTERIM_VOTE];\n        _uintConfigs[21] = uintConfigs[CONFIG_MINIMAL_QUARTER_POINT];\n        _uintConfigs[22] = uintConfigs[CONFIG_QUARTER_POINT_CLAIM_RESULT];\n        _uintConfigs[23] = uintConfigs[CONFIG_QUARTER_POINT_MILESTONE_COMPLETION_PER_10000ETH];\n        _uintConfigs[24] = uintConfigs[CONFIG_BONUS_REPUTATION_NUMERATOR];\n        _uintConfigs[25] = uintConfigs[CONFIG_BONUS_REPUTATION_DENOMINATOR];\n        _uintConfigs[26] = uintConfigs[CONFIG_SPECIAL_PROPOSAL_COMMIT_PHASE];\n        _uintConfigs[27] = uintConfigs[CONFIG_SPECIAL_PROPOSAL_PHASE_TOTAL];\n        _uintConfigs[28] = uintConfigs[CONFIG_SPECIAL_QUOTA_NUMERATOR];\n        _uintConfigs[29] = uintConfigs[CONFIG_SPECIAL_QUOTA_DENOMINATOR];\n        _uintConfigs[30] = uintConfigs[CONFIG_SPECIAL_PROPOSAL_QUORUM_NUMERATOR];\n        _uintConfigs[31] = uintConfigs[CONFIG_SPECIAL_PROPOSAL_QUORUM_DENOMINATOR];\n        _uintConfigs[32] = uintConfigs[CONFIG_MAXIMUM_REPUTATION_DEDUCTION];\n        _uintConfigs[33] = uintConfigs[CONFIG_PUNISHMENT_FOR_NOT_LOCKING];\n        _uintConfigs[34] = uintConfigs[CONFIG_REPUTATION_PER_EXTRA_QP_NUM];\n        _uintConfigs[35] = uintConfigs[CONFIG_REPUTATION_PER_EXTRA_QP_DEN];\n        _uintConfigs[36] = uintConfigs[CONFIG_QUARTER_POINT_SCALING_FACTOR];\n        _uintConfigs[37] = uintConfigs[CONFIG_REPUTATION_POINT_SCALING_FACTOR];\n        _uintConfigs[38] = uintConfigs[CONFIG_MODERATOR_MINIMAL_QUARTER_POINT];\n        _uintConfigs[39] = uintConfigs[CONFIG_MODERATOR_QUARTER_POINT_SCALING_FACTOR];\n        _uintConfigs[40] = uintConfigs[CONFIG_MODERATOR_REPUTATION_POINT_SCALING_FACTOR];\n        _uintConfigs[41] = uintConfigs[CONFIG_PORTION_TO_MODERATORS_NUM];\n        _uintConfigs[42] = uintConfigs[CONFIG_PORTION_TO_MODERATORS_DEN];\n        _uintConfigs[43] = uintConfigs[CONFIG_DRAFT_VOTING_PHASE];\n        _uintConfigs[44] = uintConfigs[CONFIG_REPUTATION_POINT_BOOST_FOR_BADGE];\n        _uintConfigs[45] = uintConfigs[CONFIG_FINAL_REWARD_SCALING_FACTOR_NUMERATOR];\n        _uintConfigs[46] = uintConfigs[CONFIG_FINAL_REWARD_SCALING_FACTOR_DENOMINATOR];\n        _uintConfigs[47] = uintConfigs[CONFIG_MAXIMUM_MODERATOR_REPUTATION_DEDUCTION];\n        _uintConfigs[48] = uintConfigs[CONFIG_REPUTATION_PER_EXTRA_MODERATOR_QP_NUM];\n        _uintConfigs[49] = uintConfigs[CONFIG_REPUTATION_PER_EXTRA_MODERATOR_QP_DEN];\n        _uintConfigs[50] = uintConfigs[CONFIG_VOTE_CLAIMING_DEADLINE];\n        _uintConfigs[51] = uintConfigs[CONFIG_MINIMUM_LOCKED_DGD];\n        _uintConfigs[52] = uintConfigs[CONFIG_MINIMUM_DGD_FOR_MODERATOR];\n        _uintConfigs[53] = uintConfigs[CONFIG_MINIMUM_REPUTATION_FOR_MODERATOR];\n        _uintConfigs[54] = uintConfigs[CONFIG_PREPROPOSAL_DEPOSIT];\n        _uintConfigs[55] = uintConfigs[CONFIG_MAX_FUNDING_FOR_NON_DIGIX];\n        _uintConfigs[56] = uintConfigs[CONFIG_MAX_MILESTONES_FOR_NON_DIGIX];\n        _uintConfigs[57] = uintConfigs[CONFIG_NON_DIGIX_PROPOSAL_CAP_PER_QUARTER];\n        _uintConfigs[58] = uintConfigs[CONFIG_PROPOSAL_DEAD_DURATION];\n        _uintConfigs[59] = uintConfigs[CONFIG_CARBON_VOTE_REPUTATION_BONUS];\n        return _uintConfigs;\n    }\n}\n",
  "sourcePath": "/home/rohit/Develop/dao-contracts/contracts/storage/DaoConfigsStorage.sol",
  "compiler": {
    "name": "solc",
    "version": "0.4.24+commit.e67f0147.Emscripten.clang"
  },
  "schemaVersion": "2.0.1",
  "updatedAt": "2018-10-08T06:32:23.409Z"
}