{
  "contractName": "DaoCalculatorService",
  "abi": [
    {
      "constant": true,
      "inputs": [],
      "name": "resolver",
      "outputs": [
        {
          "name": "",
          "type": "address"
        }
      ],
      "payable": false,
      "stateMutability": "view",
      "type": "function"
    },
    {
      "constant": true,
      "inputs": [],
      "name": "currentQuarterIndex",
      "outputs": [
        {
          "name": "_quarterIndex",
          "type": "uint256"
        }
      ],
      "payable": false,
      "stateMutability": "view",
      "type": "function"
    },
    {
      "constant": true,
      "inputs": [
        {
          "name": "_configKey",
          "type": "bytes32"
        }
      ],
      "name": "getAddressConfig",
      "outputs": [
        {
          "name": "_configValue",
          "type": "address"
        }
      ],
      "payable": false,
      "stateMutability": "view",
      "type": "function"
    },
    {
      "constant": true,
      "inputs": [],
      "name": "key",
      "outputs": [
        {
          "name": "",
          "type": "bytes32"
        }
      ],
      "payable": false,
      "stateMutability": "view",
      "type": "function"
    },
    {
      "constant": true,
      "inputs": [
        {
          "name": "_key",
          "type": "bytes32"
        }
      ],
      "name": "get_contract",
      "outputs": [
        {
          "name": "_contract",
          "type": "address"
        }
      ],
      "payable": false,
      "stateMutability": "view",
      "type": "function"
    },
    {
      "constant": true,
      "inputs": [],
      "name": "currentTimeInQuarter",
      "outputs": [
        {
          "name": "_currentT",
          "type": "uint256"
        }
      ],
      "payable": false,
      "stateMutability": "view",
      "type": "function"
    },
    {
      "constant": true,
      "inputs": [],
      "name": "isMainPhase",
      "outputs": [
        {
          "name": "_isMainPhase",
          "type": "bool"
        }
      ],
      "payable": false,
      "stateMutability": "view",
      "type": "function"
    },
    {
      "constant": true,
      "inputs": [],
      "name": "dgxDemurrageCalculatorAddress",
      "outputs": [
        {
          "name": "",
          "type": "address"
        }
      ],
      "payable": false,
      "stateMutability": "view",
      "type": "function"
    },
    {
      "constant": true,
      "inputs": [],
      "name": "isLockingPhase",
      "outputs": [
        {
          "name": "_isLockingPhase",
          "type": "bool"
        }
      ],
      "payable": false,
      "stateMutability": "view",
      "type": "function"
    },
    {
      "constant": true,
      "inputs": [
        {
          "name": "_user",
          "type": "address"
        }
      ],
      "name": "isParticipant",
      "outputs": [
        {
          "name": "_is",
          "type": "bool"
        }
      ],
      "payable": false,
      "stateMutability": "view",
      "type": "function"
    },
    {
      "constant": true,
      "inputs": [
        {
          "name": "_configKey",
          "type": "bytes32"
        }
      ],
      "name": "getBytesConfig",
      "outputs": [
        {
          "name": "_configValue",
          "type": "bytes32"
        }
      ],
      "payable": false,
      "stateMutability": "view",
      "type": "function"
    },
    {
      "constant": true,
      "inputs": [
        {
          "name": "_configKey",
          "type": "bytes32"
        }
      ],
      "name": "getUintConfig",
      "outputs": [
        {
          "name": "_configValue",
          "type": "uint256"
        }
      ],
      "payable": false,
      "stateMutability": "view",
      "type": "function"
    },
    {
      "constant": true,
      "inputs": [],
      "name": "isDaoNotReplaced",
      "outputs": [
        {
          "name": "_isNotReplaced",
          "type": "bool"
        }
      ],
      "payable": false,
      "stateMutability": "view",
      "type": "function"
    },
    {
      "constant": true,
      "inputs": [],
      "name": "CONTRACT_ADDRESS",
      "outputs": [
        {
          "name": "",
          "type": "address"
        }
      ],
      "payable": false,
      "stateMutability": "view",
      "type": "function"
    },
    {
      "constant": true,
      "inputs": [
        {
          "name": "_proposalId",
          "type": "bytes32"
        }
      ],
      "name": "isProposalPaused",
      "outputs": [
        {
          "name": "_isPausedOrStopped",
          "type": "bool"
        }
      ],
      "payable": false,
      "stateMutability": "view",
      "type": "function"
    },
    {
      "constant": true,
      "inputs": [
        {
          "name": "_user",
          "type": "address"
        }
      ],
      "name": "isModerator",
      "outputs": [
        {
          "name": "_is",
          "type": "bool"
        }
      ],
      "payable": false,
      "stateMutability": "view",
      "type": "function"
    },
    {
      "inputs": [
        {
          "name": "_resolver",
          "type": "address"
        },
        {
          "name": "_dgxDemurrageCalculatorAddress",
          "type": "address"
        }
      ],
      "payable": false,
      "stateMutability": "nonpayable",
      "type": "constructor"
    },
    {
      "constant": true,
      "inputs": [
        {
          "name": "_additionalDgd",
          "type": "uint256"
        }
      ],
      "name": "calculateAdditionalLockedDGDStake",
      "outputs": [
        {
          "name": "_additionalLockedDGDStake",
          "type": "uint256"
        }
      ],
      "payable": false,
      "stateMutability": "view",
      "type": "function"
    },
    {
      "constant": true,
      "inputs": [
        {
          "name": "_proposalId",
          "type": "bytes32"
        }
      ],
      "name": "minimumDraftQuorum",
      "outputs": [
        {
          "name": "_minQuorum",
          "type": "uint256"
        }
      ],
      "payable": false,
      "stateMutability": "view",
      "type": "function"
    },
    {
      "constant": true,
      "inputs": [
        {
          "name": "_for",
          "type": "uint256"
        },
        {
          "name": "_against",
          "type": "uint256"
        }
      ],
      "name": "draftQuotaPass",
      "outputs": [
        {
          "name": "_passed",
          "type": "bool"
        }
      ],
      "payable": false,
      "stateMutability": "view",
      "type": "function"
    },
    {
      "constant": true,
      "inputs": [
        {
          "name": "_proposalId",
          "type": "bytes32"
        },
        {
          "name": "_milestone_id",
          "type": "uint256"
        }
      ],
      "name": "minimumVotingQuorum",
      "outputs": [
        {
          "name": "_minQuorum",
          "type": "uint256"
        }
      ],
      "payable": false,
      "stateMutability": "view",
      "type": "function"
    },
    {
      "constant": true,
      "inputs": [],
      "name": "minimumVotingQuorumForSpecial",
      "outputs": [
        {
          "name": "_minQuorum",
          "type": "uint256"
        }
      ],
      "payable": false,
      "stateMutability": "view",
      "type": "function"
    },
    {
      "constant": true,
      "inputs": [
        {
          "name": "_for",
          "type": "uint256"
        },
        {
          "name": "_against",
          "type": "uint256"
        }
      ],
      "name": "votingQuotaPass",
      "outputs": [
        {
          "name": "_passed",
          "type": "bool"
        }
      ],
      "payable": false,
      "stateMutability": "view",
      "type": "function"
    },
    {
      "constant": true,
      "inputs": [
        {
          "name": "_for",
          "type": "uint256"
        },
        {
          "name": "_against",
          "type": "uint256"
        }
      ],
      "name": "votingQuotaForSpecialPass",
      "outputs": [
        {
          "name": "_passed",
          "type": "bool"
        }
      ],
      "payable": false,
      "stateMutability": "view",
      "type": "function"
    },
    {
      "constant": true,
      "inputs": [
        {
          "name": "_minimalParticipationPoint",
          "type": "uint256"
        },
        {
          "name": "_quarterPointScalingFactor",
          "type": "uint256"
        },
        {
          "name": "_reputationPointScalingFactor",
          "type": "uint256"
        },
        {
          "name": "_quarterPoint",
          "type": "uint256"
        },
        {
          "name": "_reputationPoint",
          "type": "uint256"
        },
        {
          "name": "_lockedDGDStake",
          "type": "uint256"
        }
      ],
      "name": "calculateUserEffectiveBalance",
      "outputs": [
        {
          "name": "_effectiveDGDBalance",
          "type": "uint256"
        }
      ],
      "payable": false,
      "stateMutability": "pure",
      "type": "function"
    },
    {
      "constant": true,
      "inputs": [
        {
          "name": "_balance",
          "type": "uint256"
        },
        {
          "name": "_daysElapsed",
          "type": "uint256"
        }
      ],
      "name": "calculateDemurrage",
      "outputs": [
        {
          "name": "_demurrageFees",
          "type": "uint256"
        }
      ],
      "payable": false,
      "stateMutability": "view",
      "type": "function"
    }
  ],
  "bytecode": "0x608060405260006001026003906000191690556000600460006101000a81548173ffffffffffffffffffffffffffffffffffffffff021916908373ffffffffffffffffffffffffffffffffffffffff1602179055507f70726f706f73616c5f73746174655f70726570726f706f73616c0000000000006005906000191690557f70726f706f73616c5f73746174655f64726166740000000000000000000000006006906000191690557f70726f706f73616c5f73746174655f6d6f6465726174656400000000000000006007906000191690557f70726f706f73616c5f73746174655f6f6e676f696e67000000000000000000006008906000191690557f70726f706f73616c5f73746174655f636c6f73656400000000000000000000006009906000191690556001600a556002600b556003600c556001600d556002600e556003600f557f696e7465725f6467645f696400000000000000000000000000000000000000006010906000191690557f696e7465725f6d6f645f6467645f6964000000000000000000000000000000006011906000191690557f696e7465725f626f6e75735f63616c63756c6174696f6e5f69640000000000006012906000191690557f64616f00000000000000000000000000000000000000000000000000000000006013906000191690557f64616f3a7370656369616c3a70726f706f73616c0000000000000000000000006014906000191690557f64616f3a7374616b652d6c6f636b696e670000000000000000000000000000006015906000191690557f64616f3a766f74696e67000000000000000000000000000000000000000000006016906000191690557f64616f3a766f74696e673a636c61696d730000000000000000000000000000006017906000191690557f64616f3a73766f74696e673a636c61696d7300000000000000000000000000006018906000191690557f64616f3a6964656e7469747900000000000000000000000000000000000000006019906000191690557f64616f3a726577617264732d6d616e6167657200000000000000000000000000601a906000191690557f64616f3a726577617264732d6578747261730000000000000000000000000000601b906000191690557f64616f3a726f6c65730000000000000000000000000000000000000000000000601c906000191690557f64616f3a66756e64696e672d6d616e6167657200000000000000000000000000601d906000191690557f64616f3a77686974656c697374696e6700000000000000000000000000000000601e906000191690557f736572766963653a726f6c650000000000000000000000000000000000000000601f906000191690557f736572766963653a64616f3a696e666f000000000000000000000000000000006020906000191690557f736572766963653a64616f3a6c697374696e67000000000000000000000000006021906000191690557f736572766963653a64616f3a63616c63756c61746f72000000000000000000006022906000191690557f73746f726167653a64616f0000000000000000000000000000000000000000006023906000191690557f73746f726167653a64616f3a75706772616465000000000000000000000000006024906000191690557f73746f726167653a64616f3a6964656e746974790000000000000000000000006025906000191690557f73746f726167653a64616f3a706f696e747300000000000000000000000000006026906000191690557f73746f726167653a64616f3a7370656369616c000000000000000000000000006027906000191690557f73746f726167653a64616f3a636f6e66696700000000000000000000000000006028906000191690557f73746f726167653a64616f3a7374616b650000000000000000000000000000006029906000191690557f73746f726167653a64616f3a66756e64696e6700000000000000000000000000602a906000191690557f73746f726167653a64616f3a7265776172647300000000000000000000000000602b906000191690557f73746f726167653a64616f3a77686974656c697374696e670000000000000000602c906000191690557f73746f726167653a696e7465726d6564696174653a726573756c747300000000602d906000191690557f73746f726167653a64616f3a636f6c6c61746572616c00000000000000000000602e906000191690557f743a646764000000000000000000000000000000000000000000000000000000602f906000191690557f743a6467780000000000000000000000000000000000000000000000000000006030906000191690557f743a6261646765000000000000000000000000000000000000000000000000006031906000191690556001603260006101000a81548160ff021916908360ff1602179055506002603260016101000a81548160ff021916908360ff1602179055506003603260026101000a81548160ff021916908360ff1602179055506004603260036101000a81548160ff021916908360ff1602179055506276a7006033557f6d696e5f6467645f7061727469636970616e74000000000000000000000000006034906000191690557f6d696e5f6467645f6d6f64657261746f720000000000000000000000000000006035906000191690557f6d696e5f72657075746174696f6e5f6d6f64657261746f7200000000000000006036906000191690557f6c6f636b696e675f70686173655f6475726174696f6e000000000000000000006037906000191690557f717561727465725f6475726174696f6e000000000000000000000000000000006038906000191690557f766f74696e675f636f6d6d69745f7068617365000000000000000000000000006039906000191690557f766f74696e675f70686173655f746f74616c0000000000000000000000000000603a906000191690557f696e746572696d5f766f74696e675f636f6d6d69745f70686173650000000000603b906000191690557f696e746572696d5f766f74696e675f70686173655f746f74616c000000000000603c906000191690557f64726166745f71756f72756d5f66697865645f6e756d657261746f7200000000603d906000191690557f64726166745f71756f72756d5f66697865645f64656e6f6d696e61746f720000603e906000191690557f64726166745f71756f72756d5f73666163746f725f6e756d657261746f720000603f906000191690557f64726166745f71756f72756d5f73666163746f725f64656e6f6d696e61746f726040906000191690557f766f74655f71756f72756d5f66697865645f6e756d657261746f7200000000006041906000191690557f766f74655f71756f72756d5f66697865645f64656e6f6d696e61746f720000006042906000191690557f766f74655f71756f72756d5f73666163746f725f6e756d657261746f720000006043906000191690557f766f74655f71756f72756d5f73666163746f725f64656e6f6d696e61746f72006044906000191690557f66696e616c5f7265776172645f73666163746f725f6e756d657261746f7200006045906000191690557f66696e616c5f7265776172645f73666163746f725f64656e6f6d696e61746f726046906000191690557f64726166745f71756f74615f6e756d657261746f7200000000000000000000006047906000191690557f64726166745f71756f74615f64656e6f6d696e61746f720000000000000000006048906000191690557f766f74696e675f71756f74615f6e756d657261746f72000000000000000000006049906000191690557f766f74696e675f71756f74615f64656e6f6d696e61746f720000000000000000604a906000191690557f6d696e696d616c5f717000000000000000000000000000000000000000000000604b906000191690557f717561727465725f706f696e745f7363616c696e675f666163746f7200000000604c906000191690557f7265705f706f696e745f7363616c696e675f666163746f720000000000000000604d906000191690557f6d696e696d616c5f6d6f645f7170000000000000000000000000000000000000604e906000191690557f6d6f645f71705f7363616c696e675f666163746f720000000000000000000000604f906000191690557f6d6f645f7265705f706f696e745f7363616c696e675f666163746f72000000006050906000191690557f717561727465725f706f696e745f64726166745f766f746500000000000000006051906000191690557f717561727465725f706f696e745f766f746500000000000000000000000000006052906000191690557f717561727465725f706f696e745f696e746572696d5f766f74650000000000006053906000191690557f717561727465725f706f696e745f636c61696d5f726573756c740000000000006054906000191690557f715f705f6d696c6573746f6e655f636f6d706c6574696f6e00000000000000006055906000191690557f626f6e75735f72657075746174696f6e5f6e756d657261746f720000000000006056906000191690557f626f6e75735f72657075746174696f6e5f64656e6f6d696e61746f72000000006057906000191690557f7370656369616c5f70726f706f73616c5f636f6d6d69745f70686173650000006058906000191690557f7370656369616c5f70726f706f73616c5f70686173655f746f74616c000000006059906000191690557f636f6e6669675f7370656369616c5f71756f74615f6e756d657261746f720000605a906000191690557f636f6e6669675f7370656369616c5f71756f74615f64656e6f6d696e61746f72605b906000191690557f7370656369616c5f71756f72756d5f6e756d657261746f720000000000000000605c906000191690557f7370656369616c5f71756f72756d5f64656e6f6d696e61746f72000000000000605d906000191690557f636f6e6669675f6d61785f72657075746174696f6e5f646564756374696f6e00605e906000191690557f636f6e6669675f70756e6973686d656e745f6e6f745f6c6f636b696e67000000605f906000191690557f636f6e6669675f7265705f7065725f65787472615f71705f6e756d00000000006060906000191690557f636f6e6669675f7265705f7065725f65787472615f71705f64656e00000000006061906000191690557f636f6e6669675f6d61785f6d5f72705f646564756374696f6e000000000000006062906000191690557f636f6e6669675f7265705f7065725f65787472615f6d5f71705f6e756d0000006063906000191690557f636f6e6669675f7265705f7065725f65787472615f6d5f71705f64656e0000006064906000191690557f636f6e6669675f6d6f645f706f7274696f6e5f6e756d000000000000000000006065906000191690557f636f6e6669675f6d6f645f706f7274696f6e5f64656e000000000000000000006066906000191690557f636f6e6669675f64726166745f766f74696e675f7068617365000000000000006067906000191690557f636f6e6669675f72705f626f6f73745f7065725f6261646765000000000000006068906000191690557f636f6e6669675f636c61696d696e675f646561646c696e6500000000000000006069906000191690557f636f6e6669675f70726570726f706f73616c5f6465706f736974000000000000606a906000191690557f636f6e6669675f6d61785f66756e64696e675f6e6f6e44696769780000000000606b906000191690557f636f6e6669675f6d61785f6d696c6573746f6e65735f6e6f6e44696769780000606c906000191690557f636f6e6669675f6e6f6e44696769785f70726f706f73616c5f63617000000000606d906000191690557f636f6e6669675f646561645f6475726174696f6e000000000000000000000000606e906000191690557f636f6e6669675f63765f72657075746174696f6e000000000000000000000000606f906000191690553480156200113457600080fd5b50604051604080620036ca83398101806040528101908080519060200190929190805190602001909291905050506200117f60225483620011d4640100000000026401000000009004565b15156200118b57600080fd5b80607060006101000a81548173ffffffffffffffffffffffffffffffffffffffff021916908373ffffffffffffffffffffffffffffffffffffffff160217905550505062001465565b6000808273ffffffffffffffffffffffffffffffffffffffff1663cf3090126040518163ffffffff167c0100000000000000000000000000000000000000000000000000000000028152600401602060405180830381600087803b1580156200123c57600080fd5b505af115801562001251573d6000803e3d6000fd5b505050506040513d60208110156200126857600080fd5b81019080805190602001909291905050509050600015158115151415620014595730600260006101000a81548173ffffffffffffffffffffffffffffffffffffffff021916908373ffffffffffffffffffffffffffffffffffffffff160217905550826000806101000a81548173ffffffffffffffffffffffffffffffffffffffff021916908373ffffffffffffffffffffffffffffffffffffffff16021790555083600181600019169055506000809054906101000a900473ffffffffffffffffffffffffffffffffffffffff1673ffffffffffffffffffffffffffffffffffffffff1663c0f6ef4a600154600260009054906101000a900473ffffffffffffffffffffffffffffffffffffffff166040518363ffffffff167c01000000000000000000000000000000000000000000000000000000000281526004018083600019166000191681526020018273ffffffffffffffffffffffffffffffffffffffff1673ffffffffffffffffffffffffffffffffffffffff16815260200192505050602060405180830381600087803b1580156200140657600080fd5b505af11580156200141b573d6000803e3d6000fd5b505050506040513d60208110156200143257600080fd5b810190808051906020019092919050505015156200144f57600080fd5b600191506200145e565b600091505b5092915050565b61225580620014756000396000f300608060405260043610610149576000357c0100000000000000000000000000000000000000000000000000000000900463ffffffff16806304f3bcec1461014e5780630b3b1595146101a55780630d7cc561146101e6578063120c52ef146102115780631d8ccd041461025c5780632850568f146102cd57806336dfb1c2146102f85780633943380c146103475780633f83acff1461037a578063535199aa146103eb578063560a25ea14610430578063685330601461045b57806370ae8f5c1461048a57806377ebd468146104fd5780637c6c9af21461054c5780637d6fed80146105a3578063929066f5146105d257806393ddad081461062d578063a27c834c1461067a578063b1e2b9dd146106c9578063d32d04991461070e578063d70d93581461075d578063db4ecbc11461078c578063f94f0f33146107e3578063fa6f39361461082c575b600080fd5b34801561015a57600080fd5b50610163610887565b604051808273ffffffffffffffffffffffffffffffffffffffff1673ffffffffffffffffffffffffffffffffffffffff16815260200191505060405180910390f35b3480156101b157600080fd5b506101d0600480360381019080803590602001909291905050506108ac565b6040518082815260200191505060405180910390f35b3480156101f257600080fd5b506101fb610936565b6040518082815260200191505060405180910390f35b34801561021d57600080fd5b506102466004803603810190808035906020019092919080359060200190929190505050610946565b6040518082815260200191505060405180910390f35b34801561026857600080fd5b5061028b6004803603810190808035600019169060200190929190505050610a30565b604051808273ffffffffffffffffffffffffffffffffffffffff1673ffffffffffffffffffffffffffffffffffffffff16815260200191505060405180910390f35b3480156102d957600080fd5b506102e2610af2565b6040518082815260200191505060405180910390f35b34801561030457600080fd5b5061032d6004803603810190808035906020019092919080359060200190929190505050610bd7565b604051808215151515815260200191505060405180910390f35b34801561035357600080fd5b5061035c610c2e565b60405180826000191660001916815260200191505060405180910390f35b34801561038657600080fd5b506103a96004803603810190808035600019169060200190929190505050610c34565b604051808273ffffffffffffffffffffffffffffffffffffffff1673ffffffffffffffffffffffffffffffffffffffff16815260200191505060405180910390f35b3480156103f757600080fd5b5061041a6004803603810190808035600019169060200190929190505050610d10565b6040518082815260200191505060405180910390f35b34801561043c57600080fd5b50610445610f30565b6040518082815260200191505060405180910390f35b34801561046757600080fd5b50610470610f40565b604051808215151515815260200191505060405180910390f35b34801561049657600080fd5b506104e7600480360381019080803590602001909291908035906020019092919080359060200190929190803590602001909291908035906020019092919080359060200190929190505050610f6c565b6040518082815260200191505060405180910390f35b34801561050957600080fd5b5061053660048036038101908080356000191690602001909291908035906020019092919050505061102b565b6040518082815260200191505060405180910390f35b34801561055857600080fd5b50610561611361565b604051808273ffffffffffffffffffffffffffffffffffffffff1673ffffffffffffffffffffffffffffffffffffffff16815260200191505060405180910390f35b3480156105af57600080fd5b506105b8611387565b604051808215151515815260200191505060405180910390f35b3480156105de57600080fd5b50610613600480360381019080803573ffffffffffffffffffffffffffffffffffffffff1690602001909291905050506113a2565b604051808215151515815260200191505060405180910390f35b34801561063957600080fd5b5061065c6004803603810190808035600019169060200190929190505050611583565b60405180826000191660001916815260200191505060405180910390f35b34801561068657600080fd5b506106af6004803603810190808035906020019092919080359060200190929190505050611645565b604051808215151515815260200191505060405180910390f35b3480156106d557600080fd5b506106f8600480360381019080803560001916906020019092919050505061169c565b6040518082815260200191505060405180910390f35b34801561071a57600080fd5b50610743600480360381019080803590602001909291908035906020019092919050505061175e565b604051808215151515815260200191505060405180910390f35b34801561076957600080fd5b506107726117b5565b604051808215151515815260200191505060405180910390f35b34801561079857600080fd5b506107a1611863565b604051808273ffffffffffffffffffffffffffffffffffffffff1673ffffffffffffffffffffffffffffffffffffffff16815260200191505060405180910390f35b3480156107ef57600080fd5b506108126004803603810190808035600019169060200190929190505050611889565b604051808215151515815260200191505060405180910390f35b34801561083857600080fd5b5061086d600480360381019080803573ffffffffffffffffffffffffffffffffffffffff1690602001909291905050506119de565b604051808215151515815260200191505060405180910390f35b6000809054906101000a900473ffffffffffffffffffffffffffffffffffffffff1681565b600061092f6108d86108bf60375461169c565b6108ca60385461169c565b611cb190919063ffffffff16565b6109216109126108f96108e9610f30565b6108f460375461169c565b611cca565b61090460385461169c565b611cb190919063ffffffff16565b85611ce190919063ffffffff16565b611d1990919063ffffffff16565b9050919050565b600061094142611d2f565b905090565b6000607060009054906101000a900473ffffffffffffffffffffffffffffffffffffffff1673ffffffffffffffffffffffffffffffffffffffff1663120c52ef84846040518363ffffffff167c010000000000000000000000000000000000000000000000000000000002815260040180838152602001828152602001925050506040805180830381600087803b1580156109e057600080fd5b505af11580156109f4573d6000803e3d6000fd5b505050506040513d6040811015610a0a57600080fd5b810190808051906020019092919080519060200190929190505050508091505092915050565b6000610a3a611e32565b73ffffffffffffffffffffffffffffffffffffffff1663e6b39eab836040518263ffffffff167c0100000000000000000000000000000000000000000000000000000000028152600401808260001916600019168152602001915050602060405180830381600087803b158015610ab057600080fd5b505af1158015610ac4573d6000803e3d6000fd5b505050506040513d6020811015610ada57600080fd5b81019080805190602001909291905050509050919050565b6000610bd2610b02605d5461169c565b610bc4610b0d611e44565b73ffffffffffffffffffffffffffffffffffffffff1663abed029a6040518163ffffffff167c0100000000000000000000000000000000000000000000000000000000028152600401602060405180830381600087803b158015610b7057600080fd5b505af1158015610b84573d6000803e3d6000fd5b505050506040513d6020811015610b9a57600080fd5b8101908080519060200190929190505050610bb6605c5461169c565b611ce190919063ffffffff16565b611d1990919063ffffffff16565b905090565b6000610c08610bef8385611e5690919063ffffffff16565b610bfa60495461169c565b611ce190919063ffffffff16565b610c25610c16604a5461169c565b85611ce190919063ffffffff16565b11905092915050565b60015481565b60008060009054906101000a900473ffffffffffffffffffffffffffffffffffffffff1673ffffffffffffffffffffffffffffffffffffffff16633f83acff836040518263ffffffff167c0100000000000000000000000000000000000000000000000000000000028152600401808260001916600019168152602001915050602060405180830381600087803b158015610cce57600080fd5b505af1158015610ce2573d6000803e3d6000fd5b505050506040513d6020811015610cf857600080fd5b81019080805190602001909291905050509050919050565b60006060610d1c611e72565b73ffffffffffffffffffffffffffffffffffffffff16637246d5a7846040518263ffffffff167c0100000000000000000000000000000000000000000000000000000000028152600401808260001916600019168152602001915050600060405180830381600087803b158015610d9257600080fd5b505af1158015610da6573d6000803e3d6000fd5b505050506040513d6000823e3d601f19601f820116820180604052506040811015610dd057600080fd5b810190808051640100000000811115610de857600080fd5b82810190506020810184811115610dfe57600080fd5b8151856020820283011164010000000082111715610e1b57600080fd5b5050929190602001805190602001909291905050505080915050610f28610e40611e44565b73ffffffffffffffffffffffffffffffffffffffff1663bf448a876040518163ffffffff167c0100000000000000000000000000000000000000000000000000000000028152600401602060405180830381600087803b158015610ea357600080fd5b505af1158015610eb7573d6000803e3d6000fd5b505050506040513d6020811015610ecd57600080fd5b8101908080519060200190929190505050610ee9603d5461169c565b610ef4603e5461169c565b610eff603f5461169c565b610f0a60405461169c565b866000815181101515610f1957fe5b90602001906020020151611e84565b915050919050565b6000610f3b42611f3a565b905090565b6000610f4a6117b5565b8015610f675750610f5c60375461169c565b610f64610f30565b10155b905090565b600080610f9d88610f8f85610f81898d612023565b611ce190919063ffffffff16565b611d1990919063ffffffff16565b905061101e610fb58789611ce190919063ffffffff16565b611010610fcb878a611e5690919063ffffffff16565b611002610ff38d610fe58c8f611e5690919063ffffffff16565b611cb190919063ffffffff16565b86611ce190919063ffffffff16565b611ce190919063ffffffff16565b611d1990919063ffffffff16565b9150509695505050505050565b60006060600061103a3361203a565b151561104557600080fd5b61104d611e72565b73ffffffffffffffffffffffffffffffffffffffff16637246d5a7866040518263ffffffff167c0100000000000000000000000000000000000000000000000000000000028152600401808260001916600019168152602001915050600060405180830381600087803b1580156110c357600080fd5b505af11580156110d7573d6000803e3d6000fd5b505050506040513d6000823e3d601f19601f82011682018060405250604081101561110157600080fd5b81019080805164010000000081111561111957600080fd5b8281019050602081018481111561112f57600080fd5b815185602082028301116401000000008211171561114c57600080fd5b50509291906020018051906020019092919050505080925081935050508151841115151561117957600080fd5b81518414156112645761125d61118d611e44565b73ffffffffffffffffffffffffffffffffffffffff1663abed029a6040518163ffffffff167c0100000000000000000000000000000000000000000000000000000000028152600401602060405180830381600087803b1580156111f057600080fd5b505af1158015611204573d6000803e3d6000fd5b505050506040513d602081101561121a57600080fd5b810190808051906020019092919050505061123660415461169c565b61124160425461169c565b61124c60455461169c565b61125760465461169c565b86611e84565b9250611359565b61135661126f611e44565b73ffffffffffffffffffffffffffffffffffffffff1663abed029a6040518163ffffffff167c0100000000000000000000000000000000000000000000000000000000028152600401602060405180830381600087803b1580156112d257600080fd5b505af11580156112e6573d6000803e3d6000fd5b505050506040513d60208110156112fc57600080fd5b810190808051906020019092919050505061131860415461169c565b61132360425461169c565b61132e60435461169c565b61133960445461169c565b878a81518110151561134757fe5b90602001906020020151611e84565b92505b505092915050565b607060009054906101000a900473ffffffffffffffffffffffffffffffffffffffff1681565b600061139460375461169c565b61139c610f30565b10905090565b60006113ac610936565b6113b4612131565b73ffffffffffffffffffffffffffffffffffffffff1663cefc2bff846040518263ffffffff167c0100000000000000000000000000000000000000000000000000000000028152600401808273ffffffffffffffffffffffffffffffffffffffff1673ffffffffffffffffffffffffffffffffffffffff168152602001915050602060405180830381600087803b15801561144e57600080fd5b505af1158015611462573d6000803e3d6000fd5b505050506040513d602081101561147857600080fd5b810190808051906020019092919050505014801561157c575061149c60345461169c565b6114a4611e44565b73ffffffffffffffffffffffffffffffffffffffff1663cd094a27846040518263ffffffff167c0100000000000000000000000000000000000000000000000000000000028152600401808273ffffffffffffffffffffffffffffffffffffffff1673ffffffffffffffffffffffffffffffffffffffff168152602001915050602060405180830381600087803b15801561153e57600080fd5b505af1158015611552573d6000803e3d6000fd5b505050506040513d602081101561156857600080fd5b810190808051906020019092919050505010155b9050919050565b600061158d611e32565b73ffffffffffffffffffffffffffffffffffffffff1663c0a8405d836040518263ffffffff167c0100000000000000000000000000000000000000000000000000000000028152600401808260001916600019168152602001915050602060405180830381600087803b15801561160357600080fd5b505af1158015611617573d6000803e3d6000fd5b505050506040513d602081101561162d57600080fd5b81019080805190602001909291905050509050919050565b600061167661165d8385611e5690919063ffffffff16565b611668605a5461169c565b611ce190919063ffffffff16565b611693611684605b5461169c565b85611ce190919063ffffffff16565b11905092915050565b60006116a6611e32565b73ffffffffffffffffffffffffffffffffffffffff1663734c1168836040518263ffffffff167c0100000000000000000000000000000000000000000000000000000000028152600401808260001916600019168152602001915050602060405180830381600087803b15801561171c57600080fd5b505af1158015611730573d6000803e3d6000fd5b505050506040513d602081101561174657600080fd5b81019080805190602001909291905050509050919050565b600061178f6117768385611e5690919063ffffffff16565b61178160475461169c565b611ce190919063ffffffff16565b6117ac61179d60485461169c565b85611ce190919063ffffffff16565b11905092915050565b60006117bf612143565b73ffffffffffffffffffffffffffffffffffffffff16638bc865fd6040518163ffffffff167c0100000000000000000000000000000000000000000000000000000000028152600401602060405180830381600087803b15801561182257600080fd5b505af1158015611836573d6000803e3d6000fd5b505050506040513d602081101561184c57600080fd5b810190808051906020019092919050505015905090565b600260009054906101000a900473ffffffffffffffffffffffffffffffffffffffff1681565b6000611893611e72565b73ffffffffffffffffffffffffffffffffffffffff1663d8d50179836040518263ffffffff167c010000000000000000000000000000000000000000000000000000000002815260040180826000191660001916815260200191505061014060405180830381600087803b15801561190a57600080fd5b505af115801561191e573d6000803e3d6000fd5b505050506040513d61014081101561193557600080fd5b8101908080519060200190929190805190602001909291908051906020019092919080519060200190929190805190602001909291908051906020019092919080519060200190929190805190602001909291908051906020019092919080519060200190929190505050909192939495969798509091929394959697509091929394959650909192939495509091929394509091929350909192509091505080915050919050565b60006119e8610936565b6119f0612131565b73ffffffffffffffffffffffffffffffffffffffff1663cefc2bff846040518263ffffffff167c0100000000000000000000000000000000000000000000000000000000028152600401808273ffffffffffffffffffffffffffffffffffffffff1673ffffffffffffffffffffffffffffffffffffffff168152602001915050602060405180830381600087803b158015611a8a57600080fd5b505af1158015611a9e573d6000803e3d6000fd5b505050506040513d6020811015611ab457600080fd5b8101908080519060200190929190505050148015611bb85750611ad860355461169c565b611ae0611e44565b73ffffffffffffffffffffffffffffffffffffffff1663cd094a27846040518263ffffffff167c0100000000000000000000000000000000000000000000000000000000028152600401808273ffffffffffffffffffffffffffffffffffffffff1673ffffffffffffffffffffffffffffffffffffffff168152602001915050602060405180830381600087803b158015611b7a57600080fd5b505af1158015611b8e573d6000803e3d6000fd5b505050506040513d6020811015611ba457600080fd5b810190808051906020019092919050505010155b8015611caa5750611bca60365461169c565b611bd2612155565b73ffffffffffffffffffffffffffffffffffffffff16639c89a0e2846040518263ffffffff167c0100000000000000000000000000000000000000000000000000000000028152600401808273ffffffffffffffffffffffffffffffffffffffff1673ffffffffffffffffffffffffffffffffffffffff168152602001915050602060405180830381600087803b158015611c6c57600080fd5b505af1158015611c80573d6000803e3d6000fd5b505050506040513d6020811015611c9657600080fd5b810190808051906020019092919050505010155b9050919050565b6000828211151515611cbf57fe5b818303905092915050565b600081905081831115611cdb578290505b92915050565b600080831415611cf45760009050611d13565b8183029050818382811515611d0557fe5b04141515611d0f57fe5b8090505b92915050565b60008183811515611d2657fe5b04905092915050565b6000611d39612167565b1515611d4457600080fd5b611e2b6001611e1d611d5760385461169c565b611e0f611d62612143565b73ffffffffffffffffffffffffffffffffffffffff1663d9c6bb206040518163ffffffff167c0100000000000000000000000000000000000000000000000000000000028152600401602060405180830381600087803b158015611dc557600080fd5b505af1158015611dd9573d6000803e3d6000fd5b505050506040513d6020811015611def57600080fd5b810190808051906020019092919050505087611cb190919063ffffffff16565b611d1990919063ffffffff16565b611e5690919063ffffffff16565b9050919050565b6000611e3f602854610c34565b905090565b6000611e51602954610c34565b905090565b60008183019050828110151515611e6957fe5b80905092915050565b6000611e7f602354610c34565b905090565b600080611e92601d54610c34565b73ffffffffffffffffffffffffffffffffffffffff16319050611ed086611ec2898b611ce190919063ffffffff16565b611d1990919063ffffffff16565b9150611f2d611f1e611eeb8684611ce190919063ffffffff16565b611f10611f018988611ce190919063ffffffff16565b8c611ce190919063ffffffff16565b611d1990919063ffffffff16565b83611e5690919063ffffffff16565b9150509695505050505050565b6000611f44612167565b1515611f4f57600080fd5b611f5a60385461169c565b612012611f65612143565b73ffffffffffffffffffffffffffffffffffffffff1663d9c6bb206040518163ffffffff167c0100000000000000000000000000000000000000000000000000000000028152600401602060405180830381600087803b158015611fc857600080fd5b505af1158015611fdc573d6000803e3d6000fd5b505050506040513d6020811015611ff257600080fd5b810190808051906020019092919050505084611cb190919063ffffffff16565b81151561201b57fe5b069050919050565b600081905081831015612034578290505b92915050565b600080823b905060008114806121295750612053612217565b73ffffffffffffffffffffffffffffffffffffffff16639b19251a846040518263ffffffff167c0100000000000000000000000000000000000000000000000000000000028152600401808273ffffffffffffffffffffffffffffffffffffffff1673ffffffffffffffffffffffffffffffffffffffff168152602001915050602060405180830381600087803b1580156120ed57600080fd5b505af1158015612101573d6000803e3d6000fd5b505050506040513d602081101561211757600080fd5b81019080805190602001909291905050505b915050919050565b600061213e602b54610c34565b905090565b6000612150602454610c34565b905090565b6000612162602654610c34565b905090565b600080612172612143565b73ffffffffffffffffffffffffffffffffffffffff1663d9c6bb206040518163ffffffff167c0100000000000000000000000000000000000000000000000000000000028152600401602060405180830381600087803b1580156121d557600080fd5b505af11580156121e9573d6000803e3d6000fd5b505050506040513d60208110156121ff57600080fd5b81019080805190602001909291905050501415905090565b6000612224602c54610c34565b9050905600a165627a7a72305820fe3d46e5cc27c4503f83662e82bc6d8496c81e6ba92a508eeb42fca9297e1efb0029",
  "source": "pragma solidity ^0.4.24;\n\nimport \"./../interface/DgxDemurrageCalculator.sol\";\nimport \"./../common/DaoCommon.sol\";\nimport \"./../lib/MathHelper.sol\";\n\n\ncontract DaoCalculatorService is DaoCommon {\n\n    address public dgxDemurrageCalculatorAddress;\n\n    using MathHelper for MathHelper;\n\n    constructor(address _resolver, address _dgxDemurrageCalculatorAddress)\n        public\n    {\n        require(init(CONTRACT_SERVICE_DAO_CALCULATOR, _resolver));\n        dgxDemurrageCalculatorAddress = _dgxDemurrageCalculatorAddress;\n    }\n\n\n    /**\n    @notice Calculate the additional lockedDGDStake, given the DGDs that the user has just locked in\n    @dev The earlier the locking happens, the more lockedDGDStake the user will get\n         The formula is: additionalLockedDGDStake = (90 - t)/80 * additionalDGD if t is more than 10. If t<=10, additionalLockedDGDStake = additionalDGD\n    */\n    function calculateAdditionalLockedDGDStake(uint256 _additionalDgd)\n        public\n        constant\n        returns (uint256 _additionalLockedDGDStake)\n    {\n        _additionalLockedDGDStake =\n            _additionalDgd.mul(\n                getUintConfig(CONFIG_QUARTER_DURATION)\n                .sub(\n                    MathHelper.max(\n                        currentTimeInQuarter(),\n                        getUintConfig(CONFIG_LOCKING_PHASE_DURATION)\n                    )\n                )\n            )\n            .div(\n                getUintConfig(CONFIG_QUARTER_DURATION)\n                .sub(getUintConfig(CONFIG_LOCKING_PHASE_DURATION))\n            );\n    }\n\n\n    // Quorum is in terms of lockedDGDStake\n    function minimumDraftQuorum(bytes32 _proposalId)\n        public\n        constant\n        returns (uint256 _minQuorum)\n    {\n        uint256[] memory _fundings;\n\n        (_fundings,) = daoStorage().readProposalFunding(_proposalId);\n        _minQuorum = calculateMinQuorum(\n            daoStakeStorage().totalModeratorLockedDGDStake(),\n            getUintConfig(CONFIG_DRAFT_QUORUM_FIXED_PORTION_NUMERATOR),\n            getUintConfig(CONFIG_DRAFT_QUORUM_FIXED_PORTION_DENOMINATOR),\n            getUintConfig(CONFIG_DRAFT_QUORUM_SCALING_FACTOR_NUMERATOR),\n            getUintConfig(CONFIG_DRAFT_QUORUM_SCALING_FACTOR_DENOMINATOR),\n            _fundings[0]\n        );\n    }\n\n\n    function draftQuotaPass(uint256 _for, uint256 _against)\n        public\n        constant\n        returns (bool _passed)\n    {\n        _passed = _for.mul(getUintConfig(CONFIG_DRAFT_QUOTA_DENOMINATOR))\n                > getUintConfig(CONFIG_DRAFT_QUOTA_NUMERATOR).mul(_for.add(_against));\n    }\n\n\n    // Quorum is in terms of lockedDGDStake\n    function minimumVotingQuorum(bytes32 _proposalId, uint256 _milestone_id)\n        public\n        constant\n        returns (uint256 _minQuorum)\n    {\n        require(isWhitelisted(msg.sender));\n        uint256[] memory _ethAskedPerMilestone;\n        uint256 _finalReward;\n        (_ethAskedPerMilestone,_finalReward) = daoStorage().readProposalFunding(_proposalId);\n        require(_milestone_id <= _ethAskedPerMilestone.length);\n        if (_milestone_id == _ethAskedPerMilestone.length) {\n            // calculate quorum for the final voting round\n            _minQuorum = calculateMinQuorum(\n                daoStakeStorage().totalLockedDGDStake(),\n                getUintConfig(CONFIG_VOTING_QUORUM_FIXED_PORTION_NUMERATOR),\n                getUintConfig(CONFIG_VOTING_QUORUM_FIXED_PORTION_DENOMINATOR),\n                getUintConfig(CONFIG_FINAL_REWARD_SCALING_FACTOR_NUMERATOR),\n                getUintConfig(CONFIG_FINAL_REWARD_SCALING_FACTOR_DENOMINATOR),\n                _finalReward\n            );\n        } else {\n            // calculate quorum for a voting round\n            _minQuorum = calculateMinQuorum(\n                daoStakeStorage().totalLockedDGDStake(),\n                getUintConfig(CONFIG_VOTING_QUORUM_FIXED_PORTION_NUMERATOR),\n                getUintConfig(CONFIG_VOTING_QUORUM_FIXED_PORTION_DENOMINATOR),\n                getUintConfig(CONFIG_VOTING_QUORUM_SCALING_FACTOR_NUMERATOR),\n                getUintConfig(CONFIG_VOTING_QUORUM_SCALING_FACTOR_DENOMINATOR),\n                _ethAskedPerMilestone[_milestone_id]\n            );\n        }\n    }\n\n\n    // Quorum is in terms of lockedDGDStake\n    function minimumVotingQuorumForSpecial()\n        public\n        constant\n        returns (uint256 _minQuorum)\n    {\n      _minQuorum = getUintConfig(CONFIG_SPECIAL_PROPOSAL_QUORUM_NUMERATOR).mul(\n                       daoStakeStorage().totalLockedDGDStake()\n                   ).div(\n                       getUintConfig(CONFIG_SPECIAL_PROPOSAL_QUORUM_DENOMINATOR)\n                   );\n    }\n\n\n    function votingQuotaPass(uint256 _for, uint256 _against)\n        public\n        constant\n        returns (bool _passed)\n    {\n        _passed = _for.mul(getUintConfig(CONFIG_VOTING_QUOTA_DENOMINATOR))\n                > getUintConfig(CONFIG_VOTING_QUOTA_NUMERATOR).mul(_for.add(_against));\n    }\n\n\n    function votingQuotaForSpecialPass(uint256 _for, uint256 _against)\n        public\n        constant\n        returns (bool _passed)\n    {\n        _passed =_for.mul(getUintConfig(CONFIG_SPECIAL_QUOTA_DENOMINATOR))\n                > getUintConfig(CONFIG_SPECIAL_QUOTA_NUMERATOR).mul(_for.add(_against));\n    }\n\n\n    function calculateMinQuorum(\n        uint256 _totalStake,\n        uint256 _fixedQuorumPortionNumerator,\n        uint256 _fixedQuorumPortionDenominator,\n        uint256 _scalingFactorNumerator,\n        uint256 _scalingFactorDenominator,\n        uint256 _ethAsked\n    )\n        internal\n        constant\n        returns (uint256 _minimumQuorum)\n    {\n        uint256 _ethInDao = get_contract(CONTRACT_DAO_FUNDING_MANAGER).balance;\n        // add the fixed portion of the quorum\n        _minimumQuorum = (_totalStake.mul(_fixedQuorumPortionNumerator)).div(_fixedQuorumPortionDenominator);\n\n        // add the dynamic portion of the quorum\n        _minimumQuorum = _minimumQuorum.add(_totalStake.mul(_ethAsked.mul(_scalingFactorNumerator)).div(_ethInDao.mul(_scalingFactorDenominator)));\n    }\n\n\n    function calculateUserEffectiveBalance(\n        uint256 _minimalParticipationPoint,\n        uint256 _quarterPointScalingFactor,\n        uint256 _reputationPointScalingFactor,\n        uint256 _quarterPoint,\n        uint256 _reputationPoint,\n        uint256 _lockedDGDStake\n    )\n        public\n        pure\n        returns (uint256 _effectiveDGDBalance)\n    {\n        uint256 _baseDGDBalance = MathHelper.min(_quarterPoint, _minimalParticipationPoint).mul(_lockedDGDStake).div(_minimalParticipationPoint);\n        _effectiveDGDBalance =\n            _baseDGDBalance\n            .mul(_quarterPointScalingFactor.add(_quarterPoint).sub(_minimalParticipationPoint))\n            .mul(_reputationPointScalingFactor.add(_reputationPoint))\n            .div(_quarterPointScalingFactor.mul(_reputationPointScalingFactor));\n    }\n\n\n    function calculateDemurrage(uint256 _balance, uint256 _daysElapsed)\n        public\n        view\n        returns (uint256 _demurrageFees)\n    {\n        (_demurrageFees,) = DgxDemurrageCalculator(dgxDemurrageCalculatorAddress).calculateDemurrage(_balance, _daysElapsed);\n    }\n\n}\n",
  "sourcePath": "/home/rohit/Develop/dao-contracts/contracts/service/DaoCalculatorService.sol",
  "compiler": {
    "name": "solc",
    "version": "0.4.24+commit.e67f0147.Emscripten.clang"
  },
  "schemaVersion": "2.0.1",
  "updatedAt": "2018-10-08T06:56:14.131Z"
}