{
  "contractName": "DaoRewardsManager",
  "abi": [
    {
      "constant": true,
      "inputs": [],
      "name": "resolver",
      "outputs": [
        {
          "name": "",
          "type": "address"
        }
      ],
      "payable": false,
      "stateMutability": "view",
      "type": "function"
    },
    {
      "constant": true,
      "inputs": [],
      "name": "ADDRESS_DGX_TOKEN",
      "outputs": [
        {
          "name": "",
          "type": "address"
        }
      ],
      "payable": false,
      "stateMutability": "view",
      "type": "function"
    },
    {
      "constant": true,
      "inputs": [],
      "name": "currentQuarterIndex",
      "outputs": [
        {
          "name": "_quarterIndex",
          "type": "uint256"
        }
      ],
      "payable": false,
      "stateMutability": "view",
      "type": "function"
    },
    {
      "constant": true,
      "inputs": [],
      "name": "key",
      "outputs": [
        {
          "name": "",
          "type": "bytes32"
        }
      ],
      "payable": false,
      "stateMutability": "view",
      "type": "function"
    },
    {
      "constant": true,
      "inputs": [
        {
          "name": "_key",
          "type": "bytes32"
        }
      ],
      "name": "get_contract",
      "outputs": [
        {
          "name": "_contract",
          "type": "address"
        }
      ],
      "payable": false,
      "stateMutability": "view",
      "type": "function"
    },
    {
      "constant": true,
      "inputs": [],
      "name": "currentTimeInQuarter",
      "outputs": [
        {
          "name": "_currentT",
          "type": "uint256"
        }
      ],
      "payable": false,
      "stateMutability": "view",
      "type": "function"
    },
    {
      "constant": true,
      "inputs": [],
      "name": "isMainPhase",
      "outputs": [
        {
          "name": "_isMainPhase",
          "type": "bool"
        }
      ],
      "payable": false,
      "stateMutability": "view",
      "type": "function"
    },
    {
      "constant": true,
      "inputs": [],
      "name": "isLockingPhase",
      "outputs": [
        {
          "name": "_isLockingPhase",
          "type": "bool"
        }
      ],
      "payable": false,
      "stateMutability": "view",
      "type": "function"
    },
    {
      "constant": true,
      "inputs": [
        {
          "name": "_configKey",
          "type": "bytes32"
        }
      ],
      "name": "getUintConfig",
      "outputs": [
        {
          "name": "_configValue",
          "type": "uint256"
        }
      ],
      "payable": false,
      "stateMutability": "view",
      "type": "function"
    },
    {
      "constant": true,
      "inputs": [],
      "name": "isDaoNotReplaced",
      "outputs": [
        {
          "name": "_isNotReplaced",
          "type": "bool"
        }
      ],
      "payable": false,
      "stateMutability": "view",
      "type": "function"
    },
    {
      "constant": true,
      "inputs": [],
      "name": "CONTRACT_ADDRESS",
      "outputs": [
        {
          "name": "",
          "type": "address"
        }
      ],
      "payable": false,
      "stateMutability": "view",
      "type": "function"
    },
    {
      "inputs": [
        {
          "name": "_resolver",
          "type": "address"
        },
        {
          "name": "_dgxAddress",
          "type": "address"
        }
      ],
      "payable": false,
      "stateMutability": "nonpayable",
      "type": "constructor"
    },
    {
      "anonymous": false,
      "inputs": [
        {
          "indexed": false,
          "name": "_quarterId",
          "type": "uint256"
        }
      ],
      "name": "StartNewQuarter",
      "type": "event"
    },
    {
      "constant": false,
      "inputs": [
        {
          "name": "_newDaoRewardsManager",
          "type": "address"
        }
      ],
      "name": "moveDGXsToNewDao",
      "outputs": [],
      "payable": false,
      "stateMutability": "nonpayable",
      "type": "function"
    },
    {
      "constant": false,
      "inputs": [],
      "name": "claimRewards",
      "outputs": [],
      "payable": false,
      "stateMutability": "nonpayable",
      "type": "function"
    },
    {
      "constant": false,
      "inputs": [
        {
          "name": "_user",
          "type": "address"
        }
      ],
      "name": "updateRewardsAndReputationBeforeNewQuarter",
      "outputs": [],
      "payable": false,
      "stateMutability": "nonpayable",
      "type": "function"
    },
    {
      "constant": false,
      "inputs": [
        {
          "name": "_operations",
          "type": "uint256"
        }
      ],
      "name": "calculateGlobalRewardsBeforeNewQuarter",
      "outputs": [
        {
          "name": "_done",
          "type": "bool"
        }
      ],
      "payable": false,
      "stateMutability": "nonpayable",
      "type": "function"
    }
  ],
  "bytecode": "0x608060405260006001026003906000191690556000600460006101000a81548173ffffffffffffffffffffffffffffffffffffffff021916908373ffffffffffffffffffffffffffffffffffffffff1602179055507f70726f706f73616c5f73746174655f70726570726f706f73616c0000000000006005906000191690557f70726f706f73616c5f73746174655f64726166740000000000000000000000006006906000191690557f70726f706f73616c5f73746174655f6d6f6465726174656400000000000000006007906000191690557f70726f706f73616c5f73746174655f6f6e676f696e67000000000000000000006008906000191690557f70726f706f73616c5f73746174655f636c6f73656400000000000000000000006009906000191690556001600a556002600b556003600c556001600d556002600e556003600f557f696e7465725f6467645f696400000000000000000000000000000000000000006010906000191690557f696e7465725f6d6f645f6467645f6964000000000000000000000000000000006011906000191690557f696e7465725f626f6e75735f63616c63756c6174696f6e5f69640000000000006012906000191690557f64616f00000000000000000000000000000000000000000000000000000000006013906000191690557f64616f3a7370656369616c3a70726f706f73616c0000000000000000000000006014906000191690557f64616f3a7374616b652d6c6f636b696e670000000000000000000000000000006015906000191690557f64616f3a766f74696e67000000000000000000000000000000000000000000006016906000191690557f64616f3a766f74696e673a636c61696d730000000000000000000000000000006017906000191690557f64616f3a73766f74696e673a636c61696d7300000000000000000000000000006018906000191690557f64616f3a6964656e7469747900000000000000000000000000000000000000006019906000191690557f64616f3a726577617264732d6d616e6167657200000000000000000000000000601a906000191690557f64616f3a726577617264732d6578747261730000000000000000000000000000601b906000191690557f64616f3a726f6c65730000000000000000000000000000000000000000000000601c906000191690557f64616f3a66756e64696e672d6d616e6167657200000000000000000000000000601d906000191690557f64616f3a77686974656c697374696e6700000000000000000000000000000000601e906000191690557f736572766963653a726f6c650000000000000000000000000000000000000000601f906000191690557f736572766963653a64616f3a696e666f000000000000000000000000000000006020906000191690557f736572766963653a64616f3a6c697374696e67000000000000000000000000006021906000191690557f736572766963653a64616f3a63616c63756c61746f72000000000000000000006022906000191690557f73746f726167653a64616f0000000000000000000000000000000000000000006023906000191690557f73746f726167653a64616f3a75706772616465000000000000000000000000006024906000191690557f73746f726167653a64616f3a6964656e746974790000000000000000000000006025906000191690557f73746f726167653a64616f3a706f696e747300000000000000000000000000006026906000191690557f73746f726167653a64616f3a7370656369616c000000000000000000000000006027906000191690557f73746f726167653a64616f3a636f6e66696700000000000000000000000000006028906000191690557f73746f726167653a64616f3a7374616b650000000000000000000000000000006029906000191690557f73746f726167653a64616f3a66756e64696e6700000000000000000000000000602a906000191690557f73746f726167653a64616f3a7265776172647300000000000000000000000000602b906000191690557f73746f726167653a64616f3a77686974656c697374696e670000000000000000602c906000191690557f73746f726167653a696e7465726d6564696174653a726573756c747300000000602d906000191690557f73746f726167653a64616f3a636f6c6c61746572616c00000000000000000000602e906000191690557f743a646764000000000000000000000000000000000000000000000000000000602f906000191690557f743a6467780000000000000000000000000000000000000000000000000000006030906000191690557f743a6261646765000000000000000000000000000000000000000000000000006031906000191690556001603260006101000a81548160ff021916908360ff1602179055506002603260016101000a81548160ff021916908360ff1602179055506003603260026101000a81548160ff021916908360ff1602179055506004603260036101000a81548160ff021916908360ff1602179055506276a7006033557f6d696e5f6467645f7061727469636970616e74000000000000000000000000006034906000191690557f6d696e5f6467645f6d6f64657261746f720000000000000000000000000000006035906000191690557f6d696e5f72657075746174696f6e5f6d6f64657261746f7200000000000000006036906000191690557f6c6f636b696e675f70686173655f6475726174696f6e000000000000000000006037906000191690557f717561727465725f6475726174696f6e000000000000000000000000000000006038906000191690557f766f74696e675f636f6d6d69745f7068617365000000000000000000000000006039906000191690557f766f74696e675f70686173655f746f74616c0000000000000000000000000000603a906000191690557f696e746572696d5f766f74696e675f636f6d6d69745f70686173650000000000603b906000191690557f696e746572696d5f766f74696e675f70686173655f746f74616c000000000000603c906000191690557f64726166745f71756f72756d5f66697865645f6e756d657261746f7200000000603d906000191690557f64726166745f71756f72756d5f66697865645f64656e6f6d696e61746f720000603e906000191690557f64726166745f71756f72756d5f73666163746f725f6e756d657261746f720000603f906000191690557f64726166745f71756f72756d5f73666163746f725f64656e6f6d696e61746f726040906000191690557f766f74655f71756f72756d5f66697865645f6e756d657261746f7200000000006041906000191690557f766f74655f71756f72756d5f66697865645f64656e6f6d696e61746f720000006042906000191690557f766f74655f71756f72756d5f73666163746f725f6e756d657261746f720000006043906000191690557f766f74655f71756f72756d5f73666163746f725f64656e6f6d696e61746f72006044906000191690557f66696e616c5f7265776172645f73666163746f725f6e756d657261746f7200006045906000191690557f66696e616c5f7265776172645f73666163746f725f64656e6f6d696e61746f726046906000191690557f64726166745f71756f74615f6e756d657261746f7200000000000000000000006047906000191690557f64726166745f71756f74615f64656e6f6d696e61746f720000000000000000006048906000191690557f766f74696e675f71756f74615f6e756d657261746f72000000000000000000006049906000191690557f766f74696e675f71756f74615f64656e6f6d696e61746f720000000000000000604a906000191690557f6d696e696d616c5f717000000000000000000000000000000000000000000000604b906000191690557f717561727465725f706f696e745f7363616c696e675f666163746f7200000000604c906000191690557f7265705f706f696e745f7363616c696e675f666163746f720000000000000000604d906000191690557f6d696e696d616c5f6d6f645f7170000000000000000000000000000000000000604e906000191690557f6d6f645f71705f7363616c696e675f666163746f720000000000000000000000604f906000191690557f6d6f645f7265705f706f696e745f7363616c696e675f666163746f72000000006050906000191690557f717561727465725f706f696e745f64726166745f766f746500000000000000006051906000191690557f717561727465725f706f696e745f766f746500000000000000000000000000006052906000191690557f717561727465725f706f696e745f696e746572696d5f766f74650000000000006053906000191690557f717561727465725f706f696e745f636c61696d5f726573756c740000000000006054906000191690557f715f705f6d696c6573746f6e655f636f6d706c6574696f6e00000000000000006055906000191690557f626f6e75735f72657075746174696f6e5f6e756d657261746f720000000000006056906000191690557f626f6e75735f72657075746174696f6e5f64656e6f6d696e61746f72000000006057906000191690557f7370656369616c5f70726f706f73616c5f636f6d6d69745f70686173650000006058906000191690557f7370656369616c5f70726f706f73616c5f70686173655f746f74616c000000006059906000191690557f636f6e6669675f7370656369616c5f71756f74615f6e756d657261746f720000605a906000191690557f636f6e6669675f7370656369616c5f71756f74615f64656e6f6d696e61746f72605b906000191690557f7370656369616c5f71756f72756d5f6e756d657261746f720000000000000000605c906000191690557f7370656369616c5f71756f72756d5f64656e6f6d696e61746f72000000000000605d906000191690557f636f6e6669675f6d61785f72657075746174696f6e5f646564756374696f6e00605e906000191690557f636f6e6669675f70756e6973686d656e745f6e6f745f6c6f636b696e67000000605f906000191690557f636f6e6669675f7265705f7065725f65787472615f71705f6e756d00000000006060906000191690557f636f6e6669675f7265705f7065725f65787472615f71705f64656e00000000006061906000191690557f636f6e6669675f6d61785f6d5f72705f646564756374696f6e000000000000006062906000191690557f636f6e6669675f7265705f7065725f65787472615f6d5f71705f6e756d0000006063906000191690557f636f6e6669675f7265705f7065725f65787472615f6d5f71705f64656e0000006064906000191690557f636f6e6669675f6d6f645f706f7274696f6e5f6e756d000000000000000000006065906000191690557f636f6e6669675f6d6f645f706f7274696f6e5f64656e000000000000000000006066906000191690557f636f6e6669675f64726166745f766f74696e675f7068617365000000000000006067906000191690557f636f6e6669675f72705f626f6f73745f7065725f6261646765000000000000006068906000191690557f636f6e6669675f636c61696d696e675f646561646c696e6500000000000000006069906000191690557f636f6e6669675f70726570726f706f73616c5f6465706f736974000000000000606a906000191690557f636f6e6669675f6d61785f66756e64696e675f6e6f6e44696769780000000000606b906000191690557f636f6e6669675f6d61785f6d696c6573746f6e65735f6e6f6e44696769780000606c906000191690557f636f6e6669675f6e6f6e44696769785f70726f706f73616c5f63617000000000606d906000191690557f636f6e6669675f646561645f6475726174696f6e000000000000000000000000606e906000191690557f636f6e6669675f63765f72657075746174696f6e000000000000000000000000606f906000191690553480156200113457600080fd5b50604051604080620060f783398101806040528101908080519060200190929190805190602001909291905050506200117f601a548362001373640100000000026401000000009004565b15156200118b57600080fd5b80607060006101000a81548173ffffffffffffffffffffffffffffffffffffffff021916908373ffffffffffffffffffffffffffffffffffffffff160217905550620011e562001604640100000000026401000000009004565b73ffffffffffffffffffffffffffffffffffffffff1663521fcb6660016200121e604b5462001627640100000000026401000000009004565b6200123a604c5462001627640100000000026401000000009004565b62001256604d5462001627640100000000026401000000009004565b600062001274604e5462001627640100000000026401000000009004565b62001290604f5462001627640100000000026401000000009004565b620012ac60505462001627640100000000026401000000009004565b6000426000806040518d63ffffffff167c0100000000000000000000000000000000000000000000000000000000028152600401808d81526020018c81526020018b81526020018a81526020018981526020018881526020018781526020018681526020018581526020018481526020018381526020018281526020019c50505050505050505050505050600060405180830381600087803b1580156200135257600080fd5b505af115801562001367573d6000803e3d6000fd5b505050505050620017ff565b6000808273ffffffffffffffffffffffffffffffffffffffff1663cf3090126040518163ffffffff167c0100000000000000000000000000000000000000000000000000000000028152600401602060405180830381600087803b158015620013db57600080fd5b505af1158015620013f0573d6000803e3d6000fd5b505050506040513d60208110156200140757600080fd5b81019080805190602001909291905050509050600015158115151415620015f85730600260006101000a81548173ffffffffffffffffffffffffffffffffffffffff021916908373ffffffffffffffffffffffffffffffffffffffff160217905550826000806101000a81548173ffffffffffffffffffffffffffffffffffffffff021916908373ffffffffffffffffffffffffffffffffffffffff16021790555083600181600019169055506000809054906101000a900473ffffffffffffffffffffffffffffffffffffffff1673ffffffffffffffffffffffffffffffffffffffff1663c0f6ef4a600154600260009054906101000a900473ffffffffffffffffffffffffffffffffffffffff166040518363ffffffff167c01000000000000000000000000000000000000000000000000000000000281526004018083600019166000191681526020018273ffffffffffffffffffffffffffffffffffffffff1673ffffffffffffffffffffffffffffffffffffffff16815260200192505050602060405180830381600087803b158015620015a557600080fd5b505af1158015620015ba573d6000803e3d6000fd5b505050506040513d6020811015620015d157600080fd5b81019080805190602001909291905050501515620015ee57600080fd5b60019150620015fd565b600091505b5092915050565b600062001622602b54620016fd640100000000026401000000009004565b905090565b600062001642620017dc640100000000026401000000009004565b73ffffffffffffffffffffffffffffffffffffffff1663734c1168836040518263ffffffff167c0100000000000000000000000000000000000000000000000000000000028152600401808260001916600019168152602001915050602060405180830381600087803b158015620016b957600080fd5b505af1158015620016ce573d6000803e3d6000fd5b505050506040513d6020811015620016e557600080fd5b81019080805190602001909291905050509050919050565b60008060009054906101000a900473ffffffffffffffffffffffffffffffffffffffff1673ffffffffffffffffffffffffffffffffffffffff16633f83acff836040518263ffffffff167c0100000000000000000000000000000000000000000000000000000000028152600401808260001916600019168152602001915050602060405180830381600087803b1580156200179857600080fd5b505af1158015620017ad573d6000803e3d6000fd5b505050506040513d6020811015620017c457600080fd5b81019080805190602001909291905050509050919050565b6000620017fa602854620016fd640100000000026401000000009004565b905090565b6148e8806200180f6000396000f3006080604052600436106100db576000357c0100000000000000000000000000000000000000000000000000000000900463ffffffff16806304f3bcec146100e05780630d12144b146101375780630d7cc5611461018e578063372500ab146101b95780633943380c146101d05780633f5a7583146102035780633f83acff1461024657806349da49bc146102b7578063560a25ea146102fa57806368533060146103255780637bf4a98d146103545780637d6fed8014610399578063b1e2b9dd146103c8578063d70d93581461040d578063db4ecbc11461043c575b600080fd5b3480156100ec57600080fd5b506100f5610493565b604051808273ffffffffffffffffffffffffffffffffffffffff1673ffffffffffffffffffffffffffffffffffffffff16815260200191505060405180910390f35b34801561014357600080fd5b5061014c6104b8565b604051808273ffffffffffffffffffffffffffffffffffffffff1673ffffffffffffffffffffffffffffffffffffffff16815260200191505060405180910390f35b34801561019a57600080fd5b506101a36104de565b6040518082815260200191505060405180910390f35b3480156101c557600080fd5b506101ce6104ee565b005b3480156101dc57600080fd5b506101e5610ad7565b60405180826000191660001916815260200191505060405180910390f35b34801561020f57600080fd5b50610244600480360381019080803573ffffffffffffffffffffffffffffffffffffffff169060200190929190505050610add565b005b34801561025257600080fd5b506102756004803603810190808035600019169060200190929190505050610cf4565b604051808273ffffffffffffffffffffffffffffffffffffffff1673ffffffffffffffffffffffffffffffffffffffff16815260200191505060405180910390f35b3480156102c357600080fd5b506102f8600480360381019080803573ffffffffffffffffffffffffffffffffffffffff169060200190929190505050610dd0565b005b34801561030657600080fd5b5061030f610dfd565b6040518082815260200191505060405180910390f35b34801561033157600080fd5b5061033a610e0d565b604051808215151515815260200191505060405180910390f35b34801561036057600080fd5b5061037f60048036038101908080359060200190929190505050610e39565b604051808215151515815260200191505060405180910390f35b3480156103a557600080fd5b506103ae611333565b604051808215151515815260200191505060405180910390f35b3480156103d457600080fd5b506103f7600480360381019080803560001916906020019092919050505061134e565b6040518082815260200191505060405180910390f35b34801561041957600080fd5b50610422611410565b604051808215151515815260200191505060405180910390f35b34801561044857600080fd5b506104516114be565b604051808273ffffffffffffffffffffffffffffffffffffffff1673ffffffffffffffffffffffffffffffffffffffff16815260200191505060405180910390f35b6000809054906101000a900473ffffffffffffffffffffffffffffffffffffffff1681565b607060009054906101000a900473ffffffffffffffffffffffffffffffffffffffff1681565b60006104e9426114e4565b905090565b60008060006104fb6104de565b60018111156105c457600061050e6115e7565b73ffffffffffffffffffffffffffffffffffffffff1663a78e00d6836040518263ffffffff167c010000000000000000000000000000000000000000000000000000000002815260040180828152602001915050602060405180830381600087803b15801561057c57600080fd5b505af1158015610590573d6000803e3d6000fd5b505050506040513d60208110156105a657600080fd5b81019080805190602001909291905050501115156105c357600080fd5b5b6105cc611410565b15156105d757600080fd5b3393506105e3846115f9565b9050809350506107b0620151806107a26105fb6115e7565b73ffffffffffffffffffffffffffffffffffffffff1663a78e00d661070660016106236115e7565b73ffffffffffffffffffffffffffffffffffffffff166327ddd3ae8c6040518263ffffffff167c0100000000000000000000000000000000000000000000000000000000028152600401808273ffffffffffffffffffffffffffffffffffffffff1673ffffffffffffffffffffffffffffffffffffffff168152602001915050602060405180830381600087803b1580156106bd57600080fd5b505af11580156106d1573d6000803e3d6000fd5b505050506040513d60208110156106e757600080fd5b8101908080519060200190929190505050611ce890919063ffffffff16565b6040518263ffffffff167c010000000000000000000000000000000000000000000000000000000002815260040180828152602001915050602060405180830381600087803b15801561075857600080fd5b505af115801561076c573d6000803e3d6000fd5b505050506040513d602081101561078257600080fd5b810190808051906020019092919050505042611d0490919063ffffffff16565b611d1d90919063ffffffff16565b91506107ba6115e7565b73ffffffffffffffffffffffffffffffffffffffff1663d715d6f5846040518263ffffffff167c010000000000000000000000000000000000000000000000000000000002815260040180828152602001915050600060405180830381600087803b15801561082857600080fd5b505af115801561083c573d6000803e3d6000fd5b5050505061090b61084b611d33565b73ffffffffffffffffffffffffffffffffffffffff1663120c52ef85856040518363ffffffff167c01000000000000000000000000000000000000000000000000000000000281526004018083815260200182815260200192505050602060405180830381600087803b1580156108c157600080fd5b505af11580156108d5573d6000803e3d6000fd5b505050506040513d60208110156108eb57600080fd5b810190808051906020019092919050505084611d0490919063ffffffff16565b92506109156115e7565b73ffffffffffffffffffffffffffffffffffffffff16636a8cfd098560006040518363ffffffff167c0100000000000000000000000000000000000000000000000000000000028152600401808373ffffffffffffffffffffffffffffffffffffffff1673ffffffffffffffffffffffffffffffffffffffff16815260200182815260200192505050600060405180830381600087803b1580156109b857600080fd5b505af11580156109cc573d6000803e3d6000fd5b50505050607060009054906101000a900473ffffffffffffffffffffffffffffffffffffffff1673ffffffffffffffffffffffffffffffffffffffff1663a9059cbb85856040518363ffffffff167c0100000000000000000000000000000000000000000000000000000000028152600401808373ffffffffffffffffffffffffffffffffffffffff1673ffffffffffffffffffffffffffffffffffffffff16815260200182815260200192505050602060405180830381600087803b158015610a9557600080fd5b505af1158015610aa9573d6000803e3d6000fd5b505050506040513d6020811015610abf57600080fd5b81019080805190602001909291905050505050505050565b60015481565b6000610aea601354611d45565b1515610af557600080fd5b607060009054906101000a900473ffffffffffffffffffffffffffffffffffffffff1673ffffffffffffffffffffffffffffffffffffffff166370a08231306040518263ffffffff167c0100000000000000000000000000000000000000000000000000000000028152600401808273ffffffffffffffffffffffffffffffffffffffff1673ffffffffffffffffffffffffffffffffffffffff168152602001915050602060405180830381600087803b158015610bb257600080fd5b505af1158015610bc6573d6000803e3d6000fd5b505050506040513d6020811015610bdc57600080fd5b81019080805190602001909291905050509050607060009054906101000a900473ffffffffffffffffffffffffffffffffffffffff1673ffffffffffffffffffffffffffffffffffffffff1663a9059cbb83836040518363ffffffff167c0100000000000000000000000000000000000000000000000000000000028152600401808373ffffffffffffffffffffffffffffffffffffffff1673ffffffffffffffffffffffffffffffffffffffff16815260200182815260200192505050602060405180830381600087803b158015610cb457600080fd5b505af1158015610cc8573d6000803e3d6000fd5b505050506040513d6020811015610cde57600080fd5b8101908080519060200190929190505050505050565b60008060009054906101000a900473ffffffffffffffffffffffffffffffffffffffff1673ffffffffffffffffffffffffffffffffffffffff16633f83acff836040518263ffffffff167c0100000000000000000000000000000000000000000000000000000000028152600401808260001916600019168152602001915050602060405180830381600087803b158015610d8e57600080fd5b505af1158015610da2573d6000803e3d6000fd5b505050506040513d6020811015610db857600080fd5b81019080805190602001909291905050509050919050565b610ddb601554611d45565b1515610de657600080fd5b610def816115f9565b5050610dfa81611e4f565b50565b6000610e08426125b4565b905090565b6000610e17611410565b8015610e345750610e2960375461134e565b610e31610dfd565b10155b905090565b6000610e43614715565b610e4b614790565b610e5361269d565b1515610e5e57600080fd5b610e66611410565b1515610e7157600080fd5b6000610e7b612795565b73ffffffffffffffffffffffffffffffffffffffff1663d9c6bb206040518163ffffffff167c0100000000000000000000000000000000000000000000000000000000028152600401602060405180830381600087803b158015610ede57600080fd5b505af1158015610ef2573d6000803e3d6000fd5b505050506040513d6020811015610f0857600080fd5b810190808051906020019092919050505014151515610f2657600080fd5b610f2e611333565b1515610f3957600080fd5b6000610f436115e7565b73ffffffffffffffffffffffffffffffffffffffff1663a78e00d6610f666104de565b6040518263ffffffff167c010000000000000000000000000000000000000000000000000000000002815260040180828152602001915050602060405180830381600087803b158015610fb857600080fd5b505af1158015610fcc573d6000803e3d6000fd5b505050506040513d6020811015610fe257600080fd5b8101908080519060200190929190505050141515610fff57600080fd5b61101a600161100c6104de565b611d0490919063ffffffff16565b8260000181815250506000826000015111151561103657600080fd5b61104382600001516127a7565b8260c00181905250611053612a7d565b73ffffffffffffffffffffffffffffffffffffffff166312d0c13b61107d84600001516000612a8f565b6040518263ffffffff167c0100000000000000000000000000000000000000000000000000000000028152600401808260001916600019168152602001915050608060405180830381600087803b1580156110d757600080fd5b505af11580156110eb573d6000803e3d6000fd5b505050506040513d608081101561110157600080fd5b810190808051906020019092919080519060200190929190805190602001909291908051906020019092919050505090915090508260000184602001828152508273ffffffffffffffffffffffffffffffffffffffff1673ffffffffffffffffffffffffffffffffffffffff1681525050506111808260008684612b3b565b935081604001511515611196576000925061132c565b61119e612a7d565b73ffffffffffffffffffffffffffffffffffffffff166312d0c13b6111c884600001516001612a8f565b6040518263ffffffff167c0100000000000000000000000000000000000000000000000000000000028152600401808260001916600019168152602001915050608060405180830381600087803b15801561122257600080fd5b505af1158015611236573d6000803e3d6000fd5b505050506040513d608081101561124c57600080fd5b810190808051906020019092919080519060200190929190805190602001909291908051906020019092919050505090915090508260000184608001828152508273ffffffffffffffffffffffffffffffffffffffff1673ffffffffffffffffffffffffffffffffffffffff1681525050506112cb8260018684612b3b565b50816060015115156112e0576000925061132c565b6112e982613d0e565b600192507ffc76425595a72efa6bd6c8f55ce8a0e01f5a789fc399e5d779ae1942f3875e5c6113166104de565b6040518082815260200191505060405180910390a15b5050919050565b600061134060375461134e565b611348610dfd565b10905090565b6000611358614166565b73ffffffffffffffffffffffffffffffffffffffff1663734c1168836040518263ffffffff167c0100000000000000000000000000000000000000000000000000000000028152600401808260001916600019168152602001915050602060405180830381600087803b1580156113ce57600080fd5b505af11580156113e2573d6000803e3d6000fd5b505050506040513d60208110156113f857600080fd5b81019080805190602001909291905050509050919050565b600061141a612795565b73ffffffffffffffffffffffffffffffffffffffff16638bc865fd6040518163ffffffff167c0100000000000000000000000000000000000000000000000000000000028152600401602060405180830381600087803b15801561147d57600080fd5b505af1158015611491573d6000803e3d6000fd5b505050506040513d60208110156114a757600080fd5b810190808051906020019092919050505015905090565b600260009054906101000a900473ffffffffffffffffffffffffffffffffffffffff1681565b60006114ee614178565b15156114f957600080fd5b6115e060016115d261150c60385461134e565b6115c4611517612795565b73ffffffffffffffffffffffffffffffffffffffff1663d9c6bb206040518163ffffffff167c0100000000000000000000000000000000000000000000000000000000028152600401602060405180830381600087803b15801561157a57600080fd5b505af115801561158e573d6000803e3d6000fd5b505050506040513d60208110156115a457600080fd5b810190808051906020019092919050505087611d0490919063ffffffff16565b611d1d90919063ffffffff16565b611ce890919063ffffffff16565b9050919050565b60006115f4602b54610cf4565b905090565b6000806116046147cf565b60008060008061161388614228565b945061161d6115e7565b73ffffffffffffffffffffffffffffffffffffffff166378af89ac896040518263ffffffff167c0100000000000000000000000000000000000000000000000000000000028152600401808273ffffffffffffffffffffffffffffffffffffffff1673ffffffffffffffffffffffffffffffffffffffff168152602001915050602060405180830381600087803b1580156116b757600080fd5b505af11580156116cb573d6000803e3d6000fd5b505050506040513d60208110156116e157600080fd5b8101908080519060200190929190505050955084600001516117016104de565b148061171557508460200151856000015111155b156117265760008696509650611cde565b6118dc620151806118ce6117386115e7565b73ffffffffffffffffffffffffffffffffffffffff1663a78e00d661176b60018b60200151611ce890919063ffffffff16565b6040518263ffffffff167c010000000000000000000000000000000000000000000000000000000002815260040180828152602001915050602060405180830381600087803b1580156117bd57600080fd5b505af11580156117d1573d6000803e3d6000fd5b505050506040513d60208110156117e757600080fd5b81019080805190602001909291905050506118006115e7565b73ffffffffffffffffffffffffffffffffffffffff1663a78e00d661183360018c60000151611ce890919063ffffffff16565b6040518263ffffffff167c010000000000000000000000000000000000000000000000000000000002815260040180828152602001915050602060405180830381600087803b15801561188557600080fd5b505af1158015611899573d6000803e3d6000fd5b505050506040513d60208110156118af57600080fd5b8101908080519060200190929190505050611d0490919063ffffffff16565b611d1d90919063ffffffff16565b93506118e6611d33565b73ffffffffffffffffffffffffffffffffffffffff1663120c52ef87866040518363ffffffff167c01000000000000000000000000000000000000000000000000000000000281526004018083815260200182815260200192505050602060405180830381600087803b15801561195c57600080fd5b505af1158015611970573d6000803e3d6000fd5b505050506040513d602081101561198657600080fd5b810190808051906020019092919050505092506119ac8387611d0490919063ffffffff16565b95506119b66115e7565b73ffffffffffffffffffffffffffffffffffffffff1663d715d6f5846040518263ffffffff167c010000000000000000000000000000000000000000000000000000000002815260040180828152602001915050600060405180830381600087803b158015611a2457600080fd5b505af1158015611a38573d6000803e3d6000fd5b50505050611a44614416565b73ffffffffffffffffffffffffffffffffffffffff1663fd56ff83896040518263ffffffff167c0100000000000000000000000000000000000000000000000000000000028152600401808273ffffffffffffffffffffffffffffffffffffffff1673ffffffffffffffffffffffffffffffffffffffff1681526020019150506040805180830381600087803b158015611add57600080fd5b505af1158015611af1573d6000803e3d6000fd5b505050506040513d6040811015611b0757600080fd5b8101908080519060200190929190805190602001909291905050508092508193505050611b4f81611b418489611ce890919063ffffffff16565b611ce890919063ffffffff16565b9550611b596115e7565b73ffffffffffffffffffffffffffffffffffffffff16636a8cfd0989886040518363ffffffff167c0100000000000000000000000000000000000000000000000000000000028152600401808373ffffffffffffffffffffffffffffffffffffffff1673ffffffffffffffffffffffffffffffffffffffff16815260200182815260200192505050600060405180830381600087803b158015611bfb57600080fd5b505af1158015611c0f573d6000803e3d6000fd5b50505050611c1b6115e7565b73ffffffffffffffffffffffffffffffffffffffff1663d8048c9d8987600001516040518363ffffffff167c0100000000000000000000000000000000000000000000000000000000028152600401808373ffffffffffffffffffffffffffffffffffffffff1673ffffffffffffffffffffffffffffffffffffffff16815260200182815260200192505050600060405180830381600087803b158015611cc157600080fd5b505af1158015611cd5573d6000803e3d6000fd5b50505050600196505b5050505050915091565b60008183019050828110151515611cfb57fe5b80905092915050565b6000828211151515611d1257fe5b818303905092915050565b60008183811515611d2a57fe5b04905092915050565b6000611d40602254610cf4565b905090565b60008060009054906101000a900473ffffffffffffffffffffffffffffffffffffffff1673ffffffffffffffffffffffffffffffffffffffff16633f83acff836040518263ffffffff167c0100000000000000000000000000000000000000000000000000000000028152600401808260001916600019168152602001915050602060405180830381600087803b158015611ddf57600080fd5b505af1158015611df3573d6000803e3d6000fd5b505050506040513d6020811015611e0957600080fd5b810190808051906020019092919050505073ffffffffffffffffffffffffffffffffffffffff163373ffffffffffffffffffffffffffffffffffffffff16149050919050565b6000806000611e5c6115e7565b73ffffffffffffffffffffffffffffffffffffffff1663cefc2bff856040518263ffffffff167c0100000000000000000000000000000000000000000000000000000000028152600401808273ffffffffffffffffffffffffffffffffffffffff1673ffffffffffffffffffffffffffffffffffffffff168152602001915050602060405180830381600087803b158015611ef657600080fd5b505af1158015611f0a573d6000803e3d6000fd5b505050506040513d6020811015611f2057600080fd5b81019080805190602001909291905050509250611f3b6115e7565b73ffffffffffffffffffffffffffffffffffffffff1663bd695d21856040518263ffffffff167c0100000000000000000000000000000000000000000000000000000000028152600401808273ffffffffffffffffffffffffffffffffffffffff1673ffffffffffffffffffffffffffffffffffffffff168152602001915050602060405180830381600087803b158015611fd557600080fd5b505af1158015611fe9573d6000803e3d6000fd5b505050506040513d6020811015611fff57600080fd5b8101908080519060200190929190505050915061201a6104de565b61202e600184611ce890919063ffffffff16565b10151561203a576125ae565b8261204f600184611ce890919063ffffffff16565b14156123705761216f84612061614428565b73ffffffffffffffffffffffffffffffffffffffff166393383c5187876040518363ffffffff167c0100000000000000000000000000000000000000000000000000000000028152600401808373ffffffffffffffffffffffffffffffffffffffff1673ffffffffffffffffffffffffffffffffffffffff16815260200182815260200192505050602060405180830381600087803b15801561210357600080fd5b505af1158015612117573d6000803e3d6000fd5b505050506040513d602081101561212d57600080fd5b8101908080519060200190929190505050612149604b5461134e565b612154605e5461134e565b61215f60605461134e565b61216a60615461134e565b61443a565b6121776146a7565b73ffffffffffffffffffffffffffffffffffffffff166388954a6c856040518263ffffffff167c0100000000000000000000000000000000000000000000000000000000028152600401808273ffffffffffffffffffffffffffffffffffffffff1673ffffffffffffffffffffffffffffffffffffffff168152602001915050602060405180830381600087803b15801561221157600080fd5b505af1158015612225573d6000803e3d6000fd5b505050506040513d602081101561223b57600080fd5b81019080805190602001909291905050501561236c5761236b8461225d614428565b73ffffffffffffffffffffffffffffffffffffffff1663a5a9f5bb87876040518363ffffffff167c0100000000000000000000000000000000000000000000000000000000028152600401808373ffffffffffffffffffffffffffffffffffffffff1673ffffffffffffffffffffffffffffffffffffffff16815260200182815260200192505050602060405180830381600087803b1580156122ff57600080fd5b505af1158015612313573d6000803e3d6000fd5b505050506040513d602081101561232957600080fd5b8101908080519060200190929190505050612345604e5461134e565b61235060625461134e565b61235b60635461134e565b61236660645461134e565b61443a565b5b8291505b6123d561239a612381605f5461134e565b61238c605e5461134e565b611ce890919063ffffffff16565b6123c7846123b960016123ab6104de565b611d0490919063ffffffff16565b611d0490919063ffffffff16565b6146b990919063ffffffff16565b905060008111156124d1576123e8614428565b73ffffffffffffffffffffffffffffffffffffffff166393d456e285836040518363ffffffff167c0100000000000000000000000000000000000000000000000000000000028152600401808373ffffffffffffffffffffffffffffffffffffffff1673ffffffffffffffffffffffffffffffffffffffff168152602001828152602001925050506040805180830381600087803b15801561248957600080fd5b505af115801561249d573d6000803e3d6000fd5b505050506040513d60408110156124b357600080fd5b81019080805190602001909291908051906020019092919050505050505b6124d96115e7565b73ffffffffffffffffffffffffffffffffffffffff166312d9b9398561251060016125026104de565b611d0490919063ffffffff16565b6040518363ffffffff167c0100000000000000000000000000000000000000000000000000000000028152600401808373ffffffffffffffffffffffffffffffffffffffff1673ffffffffffffffffffffffffffffffffffffffff16815260200182815260200192505050600060405180830381600087803b15801561259557600080fd5b505af11580156125a9573d6000803e3d6000fd5b505050505b50505050565b60006125be614178565b15156125c957600080fd5b6125d460385461134e565b61268c6125df612795565b73ffffffffffffffffffffffffffffffffffffffff1663d9c6bb206040518163ffffffff167c0100000000000000000000000000000000000000000000000000000000028152600401602060405180830381600087803b15801561264257600080fd5b505af1158015612656573d6000803e3d6000fd5b505050506040513d602081101561266c57600080fd5b810190808051906020019092919050505084611d0490919063ffffffff16565b81151561269557fe5b069050919050565b6000603260019054906101000a900460ff1660ff166126ba6146f1565b73ffffffffffffffffffffffffffffffffffffffff1663c31d02b2336040518263ffffffff167c0100000000000000000000000000000000000000000000000000000000028152600401808273ffffffffffffffffffffffffffffffffffffffff1673ffffffffffffffffffffffffffffffffffffffff168152602001915050602060405180830381600087803b15801561275457600080fd5b505af1158015612768573d6000803e3d6000fd5b505050506040513d602081101561277e57600080fd5b810190808051906020019092919050505014905090565b60006127a2602454610cf4565b905090565b6127af614806565b6127b76115e7565b73ffffffffffffffffffffffffffffffffffffffff166362961de9836040518263ffffffff167c010000000000000000000000000000000000000000000000000000000002815260040180828152602001915050608060405180830381600087803b15801561282557600080fd5b505af1158015612839573d6000803e3d6000fd5b505050506040513d608081101561284f57600080fd5b81019080805190602001909291908051906020019092919080519060200190929190805190602001909291905050508460000185602001866040018760600184815250848152508481525084815250505050506128aa6115e7565b73ffffffffffffffffffffffffffffffffffffffff1663a301c0d2836040518263ffffffff167c010000000000000000000000000000000000000000000000000000000002815260040180828152602001915050608060405180830381600087803b15801561291857600080fd5b505af115801561292c573d6000803e3d6000fd5b505050506040513d608081101561294257600080fd5b8101908080519060200190929190805190602001909291908051906020019092919080519060200190929190505050846080018560a0018660c0018760e001848152508481525084815250848152505050505061299d6115e7565b73ffffffffffffffffffffffffffffffffffffffff1663cf542aa9836040518263ffffffff167c010000000000000000000000000000000000000000000000000000000002815260040180828152602001915050606060405180830381600087803b158015612a0b57600080fd5b505af1158015612a1f573d6000803e3d6000fd5b505050506040513d6060811015612a3557600080fd5b81019080805190602001909291908051906020019092919080519060200190929190505050836101000184610120018561014001838152508381525083815250505050919050565b6000612a8a602d54610cf4565b905090565b600081612a9e57601054612aa2565b6011545b83604051602001808360001916600019168152602001828152602001925050506040516020818303038152906040526040518082805190602001908083835b602083101515612b065780518252602082019150602081019050602083039250612ae1565b6001836020036101000a0380198251168184511680821785525050505050509050019150506040518091039020905092915050565b6000806000841415612b4f57839150613d05565b600460009054906101000a900473ffffffffffffffffffffffffffffffffffffffff1673ffffffffffffffffffffffffffffffffffffffff16836000015173ffffffffffffffffffffffffffffffffffffffff161415612dea5784612cc757612bb6614703565b73ffffffffffffffffffffffffffffffffffffffff1663f4f9fadc8560016040518363ffffffff167c0100000000000000000000000000000000000000000000000000000000028152600401808381526020018215151515815260200192505050600060405180830381600087803b158015612c3157600080fd5b505af1158015612c45573d6000803e3d6000fd5b505050506040513d6000823e3d601f19601f820116820180604052506020811015612c6f57600080fd5b810190808051640100000000811115612c8757600080fd5b82810190506020810184811115612c9d57600080fd5b8151856020820283011164010000000082111715612cba57600080fd5b5050929190505050612ddc565b612ccf614703565b73ffffffffffffffffffffffffffffffffffffffff166385f0e4bf8560016040518363ffffffff167c0100000000000000000000000000000000000000000000000000000000028152600401808381526020018215151515815260200192505050600060405180830381600087803b158015612d4a57600080fd5b505af1158015612d5e573d6000803e3d6000fd5b505050506040513d6000823e3d601f19601f820116820180604052506020811015612d8857600080fd5b810190808051640100000000811115612da057600080fd5b82810190506020810184811115612db657600080fd5b8151856020820283011164010000000082111715612dd357600080fd5b50509291905050505b8661014001819052506130bf565b84612f4057612df7614703565b73ffffffffffffffffffffffffffffffffffffffff166396fe8e6584600001518660016040518463ffffffff167c0100000000000000000000000000000000000000000000000000000000028152600401808473ffffffffffffffffffffffffffffffffffffffff1673ffffffffffffffffffffffffffffffffffffffff168152602001838152602001821515151581526020019350505050600060405180830381600087803b158015612eaa57600080fd5b505af1158015612ebe573d6000803e3d6000fd5b505050506040513d6000823e3d601f19601f820116820180604052506020811015612ee857600080fd5b810190808051640100000000811115612f0057600080fd5b82810190506020810184811115612f1657600080fd5b8151856020820283011164010000000082111715612f3357600080fd5b505092919050505061308d565b612f48614703565b73ffffffffffffffffffffffffffffffffffffffff166340c7174e84600001518660016040518463ffffffff167c0100000000000000000000000000000000000000000000000000000000028152600401808473ffffffffffffffffffffffffffffffffffffffff1673ffffffffffffffffffffffffffffffffffffffff168152602001838152602001821515151581526020019350505050600060405180830381600087803b158015612ffb57600080fd5b505af115801561300f573d6000803e3d6000fd5b505050506040513d6000823e3d601f19601f82011682018060405250602081101561303957600080fd5b81019080805164010000000081111561305157600080fd5b8281019050602081018481111561306757600080fd5b815185602082028301116401000000008211171561308457600080fd5b50509291905050505b86610140018190525060008661014001515114156130be576001866040019015159081151581525050839150613d05565b5b856101400151600187610140015151038151811015156130db57fe5b90602001906020020151905085610140015151866101000181815250506000866101200181815250505b85610100015186610120015110156139fd5785610140015186610120015181518110151561312f57fe5b906020019060200201518660e0019073ffffffffffffffffffffffffffffffffffffffff16908173ffffffffffffffffffffffffffffffffffffffff1681525050856000015161317d6115e7565b73ffffffffffffffffffffffffffffffffffffffff1663cefc2bff8860e001516040518263ffffffff167c0100000000000000000000000000000000000000000000000000000000028152600401808273ffffffffffffffffffffffffffffffffffffffff1673ffffffffffffffffffffffffffffffffffffffff168152602001915050602060405180830381600087803b15801561321b57600080fd5b505af115801561322f573d6000803e3d6000fd5b505050506040513d602081101561324557600080fd5b8101908080519060200190929190505050141515613262576139e7565b84156136295761361b613273611d33565b73ffffffffffffffffffffffffffffffffffffffff166370ae8f5c8860c00151608001518960c0015160a001518a60c0015160c001516132b1614428565b73ffffffffffffffffffffffffffffffffffffffff1663a5a9f5bb8d60e001518e600001516040518363ffffffff167c0100000000000000000000000000000000000000000000000000000000028152600401808373ffffffffffffffffffffffffffffffffffffffff1673ffffffffffffffffffffffffffffffffffffffff16815260200182815260200192505050602060405180830381600087803b15801561335b57600080fd5b505af115801561336f573d6000803e3d6000fd5b505050506040513d602081101561338557600080fd5b810190808051906020019092919050505061339e614428565b73ffffffffffffffffffffffffffffffffffffffff16639c89a0e28e60e001516040518263ffffffff167c0100000000000000000000000000000000000000000000000000000000028152600401808273ffffffffffffffffffffffffffffffffffffffff1673ffffffffffffffffffffffffffffffffffffffff168152602001915050602060405180830381600087803b15801561343c57600080fd5b505af1158015613450573d6000803e3d6000fd5b505050506040513d602081101561346657600080fd5b810190808051906020019092919050505061347f6146a7565b73ffffffffffffffffffffffffffffffffffffffff1663cd094a278f60e001516040518263ffffffff167c0100000000000000000000000000000000000000000000000000000000028152600401808273ffffffffffffffffffffffffffffffffffffffff1673ffffffffffffffffffffffffffffffffffffffff168152602001915050602060405180830381600087803b15801561351d57600080fd5b505af1158015613531573d6000803e3d6000fd5b505050506040513d602081101561354757600080fd5b81019080805190602001909291905050506040518763ffffffff167c0100000000000000000000000000000000000000000000000000000000028152600401808781526020018681526020018581526020018481526020018381526020018281526020019650505050505050602060405180830381600087803b1580156135cd57600080fd5b505af11580156135e1573d6000803e3d6000fd5b505050506040513d60208110156135f757600080fd5b81019080805190602001909291905050508760800151611ce890919063ffffffff16565b8660800181815250506139e6565b6139dc613634611d33565b73ffffffffffffffffffffffffffffffffffffffff166370ae8f5c8860c00151600001518960c00151602001518a60c0015160400151613672614428565b73ffffffffffffffffffffffffffffffffffffffff166393383c518d60e001518e600001516040518363ffffffff167c0100000000000000000000000000000000000000000000000000000000028152600401808373ffffffffffffffffffffffffffffffffffffffff1673ffffffffffffffffffffffffffffffffffffffff16815260200182815260200192505050602060405180830381600087803b15801561371c57600080fd5b505af1158015613730573d6000803e3d6000fd5b505050506040513d602081101561374657600080fd5b810190808051906020019092919050505061375f614428565b73ffffffffffffffffffffffffffffffffffffffff16639c89a0e28e60e001516040518263ffffffff167c0100000000000000000000000000000000000000000000000000000000028152600401808273ffffffffffffffffffffffffffffffffffffffff1673ffffffffffffffffffffffffffffffffffffffff168152602001915050602060405180830381600087803b1580156137fd57600080fd5b505af1158015613811573d6000803e3d6000fd5b505050506040513d602081101561382757600080fd5b81019080805190602001909291905050506138406146a7565b73ffffffffffffffffffffffffffffffffffffffff1663cd094a278f60e001516040518263ffffffff167c0100000000000000000000000000000000000000000000000000000000028152600401808273ffffffffffffffffffffffffffffffffffffffff1673ffffffffffffffffffffffffffffffffffffffff168152602001915050602060405180830381600087803b1580156138de57600080fd5b505af11580156138f2573d6000803e3d6000fd5b505050506040513d602081101561390857600080fd5b81019080805190602001909291905050506040518763ffffffff167c0100000000000000000000000000000000000000000000000000000000028152600401808781526020018681526020018581526020018481526020018381526020018281526020019650505050505050602060405180830381600087803b15801561398e57600080fd5b505af11580156139a2573d6000803e3d6000fd5b505050506040513d60208110156139b857600080fd5b81019080805190602001909291905050508760200151611ce890919063ffffffff16565b8660200181815250505b5b8561012001805180919060010181525050613105565b613a056146a7565b73ffffffffffffffffffffffffffffffffffffffff1663bbb03dc26040518163ffffffff167c0100000000000000000000000000000000000000000000000000000000028152600401602060405180830381600087803b158015613a6857600080fd5b505af1158015613a7c573d6000803e3d6000fd5b505050506040513d6020811015613a9257600080fd5b810190808051906020019092919050505073ffffffffffffffffffffffffffffffffffffffff168173ffffffffffffffffffffffffffffffffffffffff16148015613ada5750845b15613af15760018660600190151590811515815250505b613af96146a7565b73ffffffffffffffffffffffffffffffffffffffff166382624a2e6040518163ffffffff167c0100000000000000000000000000000000000000000000000000000000028152600401602060405180830381600087803b158015613b5c57600080fd5b505af1158015613b70573d6000803e3d6000fd5b505050506040513d6020811015613b8657600080fd5b810190808051906020019092919050505073ffffffffffffffffffffffffffffffffffffffff168173ffffffffffffffffffffffffffffffffffffffff16148015613bcf575084155b15613be65760018660400190151590811515815250505b613bee612a7d565b73ffffffffffffffffffffffffffffffffffffffff16636e3f777c613c17886000015188612a8f565b836000808a613c2a578b60200151613c30565b8b608001515b6040518663ffffffff167c01000000000000000000000000000000000000000000000000000000000281526004018086600019166000191681526020018573ffffffffffffffffffffffffffffffffffffffff1673ffffffffffffffffffffffffffffffffffffffff16815260200184815260200183815260200182815260200195505050505050600060405180830381600087803b158015613cd257600080fd5b505af1158015613ce6573d6000803e3d6000fd5b50505050613d0286610100015185611d0490919063ffffffff16565b91505b50949350505050565b613ed88160c001516101400151613eca613d266115e7565b73ffffffffffffffffffffffffffffffffffffffff1663f03222f06040518163ffffffff167c0100000000000000000000000000000000000000000000000000000000028152600401602060405180830381600087803b158015613d8957600080fd5b505af1158015613d9d573d6000803e3d6000fd5b505050506040513d6020811015613db357600080fd5b8101908080519060200190929190505050607060009054906101000a900473ffffffffffffffffffffffffffffffffffffffff1673ffffffffffffffffffffffffffffffffffffffff166370a08231306040518263ffffffff167c0100000000000000000000000000000000000000000000000000000000028152600401808273ffffffffffffffffffffffffffffffffffffffff1673ffffffffffffffffffffffffffffffffffffffff168152602001915050602060405180830381600087803b158015613e8157600080fd5b505af1158015613e95573d6000803e3d6000fd5b505050506040513d6020811015613eab57600080fd5b8101908080519060200190929190505050611ce890919063ffffffff16565b611d0490919063ffffffff16565b8160a0018181525050613ee96146a7565b73ffffffffffffffffffffffffffffffffffffffff16631538e68c60006040518263ffffffff167c010000000000000000000000000000000000000000000000000000000002815260040180828152602001915050600060405180830381600087803b158015613f5857600080fd5b505af1158015613f6c573d6000803e3d6000fd5b50505050613f786146a7565b73ffffffffffffffffffffffffffffffffffffffff166391baa14460006040518263ffffffff167c010000000000000000000000000000000000000000000000000000000002815260040180828152602001915050600060405180830381600087803b158015613fe757600080fd5b505af1158015613ffb573d6000803e3d6000fd5b505050506140076115e7565b73ffffffffffffffffffffffffffffffffffffffff1663521fcb6661403a60018460000151611ce890919063ffffffff16565b614045604b5461134e565b614050604c5461134e565b61405b604d5461134e565b866020015161406b604e5461134e565b614076604f5461134e565b61408160505461134e565b8a60800151428c60a001516140ac8e60a001518f60c001516101400151611ce890919063ffffffff16565b6040518d63ffffffff167c0100000000000000000000000000000000000000000000000000000000028152600401808d81526020018c81526020018b81526020018a81526020018981526020018881526020018781526020018681526020018581526020018481526020018381526020018281526020019c50505050505050505050505050600060405180830381600087803b15801561414b57600080fd5b505af115801561415f573d6000803e3d6000fd5b5050505050565b6000614173602854610cf4565b905090565b600080614183612795565b73ffffffffffffffffffffffffffffffffffffffff1663d9c6bb206040518163ffffffff167c0100000000000000000000000000000000000000000000000000000000028152600401602060405180830381600087803b1580156141e657600080fd5b505af11580156141fa573d6000803e3d6000fd5b505050506040513d602081101561421057600080fd5b81019080805190602001909291905050501415905090565b6142306147cf565b6142386115e7565b73ffffffffffffffffffffffffffffffffffffffff1663cefc2bff836040518263ffffffff167c0100000000000000000000000000000000000000000000000000000000028152600401808273ffffffffffffffffffffffffffffffffffffffff1673ffffffffffffffffffffffffffffffffffffffff168152602001915050602060405180830381600087803b1580156142d257600080fd5b505af11580156142e6573d6000803e3d6000fd5b505050506040513d60208110156142fc57600080fd5b810190808051906020019092919050505081600001818152505061431e6115e7565b73ffffffffffffffffffffffffffffffffffffffff166327ddd3ae836040518263ffffffff167c0100000000000000000000000000000000000000000000000000000000028152600401808273ffffffffffffffffffffffffffffffffffffffff1673ffffffffffffffffffffffffffffffffffffffff168152602001915050602060405180830381600087803b1580156143b857600080fd5b505af11580156143cc573d6000803e3d6000fd5b505050506040513d60208110156143e257600080fd5b810190808051906020019092919050505081602001818152505061440981600001516127a7565b8160400181905250919050565b6000614423601b54610cf4565b905090565b6000614435602654610cf4565b905090565b600080858710156145735761447c8661446e876144608b8b611d0490919063ffffffff16565b6146b990919063ffffffff16565b611d1d90919063ffffffff16565b9150614486614428565b73ffffffffffffffffffffffffffffffffffffffff166393d456e289846040518363ffffffff167c0100000000000000000000000000000000000000000000000000000000028152600401808373ffffffffffffffffffffffffffffffffffffffff1673ffffffffffffffffffffffffffffffffffffffff168152602001828152602001925050506040805180830381600087803b15801561452757600080fd5b505af115801561453b573d6000803e3d6000fd5b505050506040513d604081101561455157600080fd5b810190808051906020019092919080519060200190929190505050505061469d565b6145aa8361459c8661458e8a8c611d0490919063ffffffff16565b6146b990919063ffffffff16565b611d1d90919063ffffffff16565b90506145b4614428565b73ffffffffffffffffffffffffffffffffffffffff1663e24f831389836040518363ffffffff167c0100000000000000000000000000000000000000000000000000000000028152600401808373ffffffffffffffffffffffffffffffffffffffff1673ffffffffffffffffffffffffffffffffffffffff168152602001828152602001925050506040805180830381600087803b15801561465557600080fd5b505af1158015614669573d6000803e3d6000fd5b505050506040513d604081101561467f57600080fd5b81019080805190602001909291908051906020019092919050505050505b5050505050505050565b60006146b4602954610cf4565b905090565b6000808314156146cc57600090506146eb565b81830290508183828115156146dd57fe5b041415156146e757fe5b8090505b92915050565b60006146fe602554610cf4565b905090565b6000614710602154610cf4565b905090565b6102a06040519081016040528060008152602001600081526020016000151581526020016000151581526020016000815260200160008152602001614758614861565b8152602001600073ffffffffffffffffffffffffffffffffffffffff1681526020016000815260200160008152602001606081525090565b608060405190810160405280600073ffffffffffffffffffffffffffffffffffffffff1681526020016000815260200160008152602001600081525090565b6101e06040519081016040528060008152602001600081526020016147f2614861565b815260200160008152602001600081525090565b6101606040519081016040528060008152602001600081526020016000815260200160008152602001600081526020016000815260200160008152602001600081526020016000815260200160008152602001600081525090565b61016060405190810160405280600081526020016000815260200160008152602001600081526020016000815260200160008152602001600081526020016000815260200160008152602001600081526020016000815250905600a165627a7a723058201ffde4a47af2ad8fe079d680de4cd60382f20e84d8677abade4e30034aa4d98e0029",
  "source": "pragma solidity ^0.4.24;\n\nimport \"@digix/cacp-contracts-dao/contracts/ResolverClient.sol\";\nimport \"../common/DaoRewardsManagerCommon.sol\";\nimport \"../lib/DaoStructs.sol\";\nimport \"../service/DaoCalculatorService.sol\";\nimport \"openzeppelin-solidity/contracts/token/ERC20/ERC20.sol\";\nimport \"./DaoRewardsManagerExtras.sol\";\n\n/**\n@title Contract to manage DGX rewards\n@author Digix Holdings\n*/\ncontract DaoRewardsManager is DaoRewardsManagerCommon {\n    using MathHelper for MathHelper;\n    using DaoStructs for DaoStructs.DaoQuarterInfo;\n    using DaoStructs for DaoStructs.IntermediateResults;\n\n    // is emitted when calculateGlobalRewardsBeforeNewQuarter has been done in the beginning of the quarter\n    // after which, all the other DAO activities could happen\n    event StartNewQuarter(uint256 _quarterId);\n\n    address public ADDRESS_DGX_TOKEN;\n\n    function daoCalculatorService()\n        internal\n        constant\n        returns (DaoCalculatorService _contract)\n    {\n        _contract = DaoCalculatorService(get_contract(CONTRACT_SERVICE_DAO_CALCULATOR));\n    }\n\n    function daoRewardsManagerExtras()\n        internal\n        constant\n        returns (DaoRewardsManagerExtras _contract)\n    {\n        _contract = DaoRewardsManagerExtras(get_contract(CONTRACT_DAO_REWARDS_MANAGER_EXTRAS));\n    }\n\n    /**\n    @notice Constructor (set the DaoQuarterInfo struct for the first quarter)\n    @param _resolver Address of the Contract Resolver contract\n    @param _dgxAddress Address of the Digix Gold Token contract\n    */\n    constructor(address _resolver, address _dgxAddress)\n        public\n    {\n        require(init(CONTRACT_DAO_REWARDS_MANAGER, _resolver));\n        ADDRESS_DGX_TOKEN = _dgxAddress;\n\n        // set the DaoQuarterInfo for the first quarter\n        daoRewardsStorage().updateQuarterInfo(\n            1,\n            getUintConfig(CONFIG_MINIMAL_QUARTER_POINT),\n            getUintConfig(CONFIG_QUARTER_POINT_SCALING_FACTOR),\n            getUintConfig(CONFIG_REPUTATION_POINT_SCALING_FACTOR),\n            0, // totalEffectiveDGDPreviousQuarter, Not Applicable, this value should not be used ever\n            getUintConfig(CONFIG_MODERATOR_MINIMAL_QUARTER_POINT),\n            getUintConfig(CONFIG_MODERATOR_QUARTER_POINT_SCALING_FACTOR),\n            getUintConfig(CONFIG_MODERATOR_REPUTATION_POINT_SCALING_FACTOR),\n            0, // _totalEffectiveModeratorDGDLastQuarter , Not applicable, this value should not be used ever\n\n            // _dgxDistributionDay, Not applicable, there shouldnt be any DGX rewards in the DAO now. The actual DGX fees that have been collected\n            // before the deployment of DigixDAO contracts would be counted as part of the DGX fees incurred in the first quarter\n            // this value should not be used ever\n            now,\n\n            0, // _dgxRewardsPoolLastQuarter, not applicable, this value should not be used ever\n            0 // sumRewardsFromBeginning, which is 0\n        );\n    }\n\n\n    /**\n    @notice Function to transfer the claimableDGXs to the new DaoRewardsManager\n    @dev This is done during the migrateToNewDao procedure\n    @param _newDaoRewardsManager Address of the new daoRewardsManager contract\n    */\n    function moveDGXsToNewDao(address _newDaoRewardsManager)\n        public\n    {\n        require(sender_is(CONTRACT_DAO));\n        uint256 _dgxBalance = ERC20(ADDRESS_DGX_TOKEN).balanceOf(address(this));\n        ERC20(ADDRESS_DGX_TOKEN).transfer(_newDaoRewardsManager, _dgxBalance);\n    }\n\n\n    /**\n    @notice Function for users to claim the claimable DGX rewards\n    @dev Will revert if _claimableDGX < MINIMUM_TRANSFER_AMOUNT of DGX.\n         Can only be called after calculateGlobalRewardsBeforeNewQuarter() has been called in the current quarter\n         This cannot be called once the current version of Dao contracts have been migrated to newer version\n    */\n    function claimRewards()\n        public\n        ifGlobalRewardsSet(currentQuarterIndex())\n    {\n        require(isDaoNotReplaced());\n\n        address _user = msg.sender;\n        uint256 _claimableDGX;\n\n        // update rewards for the quarter that he last participated in\n        (, _claimableDGX) = updateUserRewardsForLastParticipatingQuarter(_user);\n\n        // withdraw from his claimableDGXs\n        // This has to take into account demurrage\n        // Basically, the value of claimableDGXs in the contract is for the dgxDistributionDay of (lastParticipatedQuarter + 1)\n        // if now is after that, we need to deduct demurrage\n        uint256 _days_elapsed = now\n            .sub(\n                daoRewardsStorage().readDgxDistributionDay(\n                    daoRewardsStorage().lastQuarterThatRewardsWasUpdated(_user).add(1) // lastQuarterThatRewardsWasUpdated should be the same as lastParticipatedQuarter now\n                )\n            )\n            .div(1 days);\n\n         // similar logic as in the similar step in updateUserRewardsForLastParticipatingQuarter.\n         // it is as if the user has withdrawn all _claimableDGX, and the demurrage is paid back into the DAO immediately\n        daoRewardsStorage().addToTotalDgxClaimed(_claimableDGX);\n\n        _claimableDGX = _claimableDGX.sub(\n            daoCalculatorService().calculateDemurrage(\n                _claimableDGX,\n                _days_elapsed\n            ));\n\n        daoRewardsStorage().updateClaimableDGX(_user, 0);\n        ERC20(ADDRESS_DGX_TOKEN).transfer(_user, _claimableDGX);\n        // the _demurrageFees is implicitly \"transfered\" back into the DAO, and would be counted in the dgxRewardsPool of this quarter (in other words, dgxRewardsPoolLastQuarter of next quarter)\n    }\n\n\n    /**\n    @notice Function to update DGX rewards of user. This is only called during locking/withdrawing DGDs, or continuing participation for new quarter\n    @param _user Address of the DAO participant\n    */\n    function updateRewardsAndReputationBeforeNewQuarter(address _user)\n        public\n    {\n        require(sender_is(CONTRACT_DAO_STAKE_LOCKING));\n\n        updateUserRewardsForLastParticipatingQuarter(_user);\n        updateUserReputationUntilPreviousQuarter(_user);\n    }\n\n\n    // This function would ALWAYS make sure that the user's Reputation Point is updated for ALL activities that has happened\n    // BEFORE this current quarter. These activities include:\n    //  - Reputation bonus/penalty due to participation in all of the previous quarters\n    //  - Reputation penalty for not participating for a few quarters, up until and including the previous quarter\n    //  - Badges redemption and carbon vote reputation redemption (that happens in the first time locking)\n    // As such, after this function is called on quarter N, the updated reputation point of the user would tentatively be used to calculate the rewards for quarter N\n    // Its tentative because the user can also redeem a badge during the period of quarter N to add to his reputation point.\n    function updateUserReputationUntilPreviousQuarter (address _user)\n        private\n    {\n        uint256 _lastParticipatedQuarter = daoRewardsStorage().lastParticipatedQuarter(_user);\n        uint256 _lastQuarterThatReputationWasUpdated = daoRewardsStorage().lastQuarterThatReputationWasUpdated(_user);\n        uint256 _reputationDeduction;\n\n        // If the reputation was already updated until the previous quarter\n        // nothing needs to be done\n        if (\n            _lastQuarterThatReputationWasUpdated.add(1) >= currentQuarterIndex()\n        ) {\n            return;\n        }\n\n        // first, we calculate and update the reputation change due to the user's governance activities in lastParticipatedQuarter, if it is not already updated.\n        // reputation is not updated for lastParticipatedQuarter yet is equivalent to _lastQuarterThatReputationWasUpdated == _lastParticipatedQuarter - 1\n        if (\n            (_lastQuarterThatReputationWasUpdated.add(1) == _lastParticipatedQuarter)\n        ) {\n            updateRPfromQP(\n                _user,\n                daoPointsStorage().getQuarterPoint(_user, _lastParticipatedQuarter),\n                getUintConfig(CONFIG_MINIMAL_QUARTER_POINT),\n                getUintConfig(CONFIG_MAXIMUM_REPUTATION_DEDUCTION),\n                getUintConfig(CONFIG_REPUTATION_PER_EXTRA_QP_NUM),\n                getUintConfig(CONFIG_REPUTATION_PER_EXTRA_QP_DEN)\n            );\n\n            // this user is not a Moderator for current quarter\n            // coz this step is done before updating the refreshModerator.\n            // But may have been a Moderator before, and if was moderator in their\n            // lastParticipatedQuarter, we will find them in the DoublyLinkedList.\n            if (daoStakeStorage().isInModeratorsList(_user)) {\n                updateRPfromQP(\n                    _user,\n                    daoPointsStorage().getQuarterModeratorPoint(_user, _lastParticipatedQuarter),\n                    getUintConfig(CONFIG_MODERATOR_MINIMAL_QUARTER_POINT),\n                    getUintConfig(CONFIG_MAXIMUM_MODERATOR_REPUTATION_DEDUCTION),\n                    getUintConfig(CONFIG_REPUTATION_PER_EXTRA_MODERATOR_QP_NUM),\n                    getUintConfig(CONFIG_REPUTATION_PER_EXTRA_MODERATOR_QP_DEN)\n                );\n            }\n            _lastQuarterThatReputationWasUpdated = _lastParticipatedQuarter;\n        }\n\n        // at this point, the _lastQuarterThatReputationWasUpdated MUST be at least the _lastParticipatedQuarter already\n        // Hence, any quarters between the _lastQuarterThatReputationWasUpdated and now must be a non-participating quarter,\n        // and this participant should be penalized for those.\n\n        // If this is their first ever participation, It is fine as well, as the reputation would be still be 0 after this step.\n        // note that the carbon vote's reputation bonus will be added after this, so its fine\n\n        _reputationDeduction =\n            (currentQuarterIndex().sub(1).sub(_lastQuarterThatReputationWasUpdated))\n            .mul(\n                getUintConfig(CONFIG_MAXIMUM_REPUTATION_DEDUCTION)\n                .add(getUintConfig(CONFIG_PUNISHMENT_FOR_NOT_LOCKING))\n            );\n\n        if (_reputationDeduction > 0) daoPointsStorage().subtractReputation(_user, _reputationDeduction);\n        daoRewardsStorage().updateLastQuarterThatReputationWasUpdated(_user, currentQuarterIndex().sub(1));\n    }\n\n\n    // update ReputationPoint of a participant based on QuarterPoint/ModeratorQuarterPoint in a quarter\n    function updateRPfromQP (\n        address _user,\n        uint256 _userQP,\n        uint256 _minimalQP,\n        uint256 _maxRPDeduction,\n        uint256 _rpPerExtraQP_num,\n        uint256 _rpPerExtraQP_den\n    ) internal {\n        uint256 _reputationDeduction;\n        uint256 _reputationAddition;\n        if (_userQP < _minimalQP) {\n            _reputationDeduction =\n                _minimalQP.sub(_userQP)\n                .mul(_maxRPDeduction)\n                .div(_minimalQP);\n\n            daoPointsStorage().subtractReputation(_user, _reputationDeduction);\n        } else {\n            _reputationAddition =\n                _userQP.sub(_minimalQP)\n                .mul(_rpPerExtraQP_num)\n                .div(_rpPerExtraQP_den);\n\n            daoPointsStorage().addReputation(_user, _reputationAddition);\n        }\n    }\n\n    // if the DGX rewards has not been calculated for the user's lastParticipatedQuarter, calculate and update it\n    function updateUserRewardsForLastParticipatingQuarter(address _user)\n        internal\n        returns (bool _valid, uint256 _userClaimableDgx)\n    {\n        UserRewards memory data = getUserRewardsStruct(_user);\n        _userClaimableDgx = daoRewardsStorage().claimableDGXs(_user);\n\n        // There is nothing to do if:\n        //   - The participant is already participating this quarter and hence this function has been called in this quarter\n        //   - We have updated the rewards to the lastParticipatedQuarter\n        // In ANY other cases: it means that the lastParticipatedQuarter is NOT this quarter, and its greater than lastQuarterThatRewardsWasUpdated, hence\n        // This also means that this participant has ALREADY PARTICIPATED at least once IN THE PAST, and we have not calculated for this quarter\n        // Thus, we need to calculate the Rewards for the lastParticipatedQuarter\n        if (\n            (currentQuarterIndex() == data.lastParticipatedQuarter) ||\n            (data.lastParticipatedQuarter <= data.lastQuarterThatRewardsWasUpdated)\n        ) {\n            return (false, _userClaimableDgx);\n        }\n\n        // now we will calculate the user rewards based on info of the data.lastParticipatedQuarter\n\n        // first we \"deduct the demurrage\" for the existing claimable DGXs for time period from\n        // dgxDistributionDay of (lastQuarterThatRewardsWasUpdated + 1) to dgxDistributionDay of (lastParticipatedQuarter + 1)\n        // (note that, when people participate in quarter n, the DGX rewards for quarter n is only released at the dgxDistributionDay of (n+1)th quarter)\n        uint256 _days_elapsed = daoRewardsStorage().readDgxDistributionDay(data.lastParticipatedQuarter.add(1))\n            .sub(daoRewardsStorage().readDgxDistributionDay(data.lastQuarterThatRewardsWasUpdated.add(1)))\n            .div(1 days);\n        uint256 _demurrageFees = daoCalculatorService().calculateDemurrage(\n            _userClaimableDgx,\n            _days_elapsed\n        );\n        _userClaimableDgx = _userClaimableDgx.sub(_demurrageFees);\n        // this demurrage fees will not be accurate to the hours, but we will leave it as this.\n\n        // this deducted demurrage is then added to the totalDGXsClaimed\n        // This is as if, the user claims exactly _demurrageFees DGXs, which would be used immediately to pay for the demurrage on his claimableDGXs,\n        // from dgxDistributionDay of (lastQuarterThatRewardsWasUpdated + 1) to dgxDistributionDay of (lastParticipatedQuarter + 1)\n        // This is done as such, so that this _demurrageFees would \"flow back into the DAO\" and be counted in the dgxRewardsPool of this current quarter (in other words, dgxRewardsPoolLastQuarter of the next quarter, as will be calculated in calculateGlobalRewardsBeforeNewQuarter of the next quarter)\n        // this is not 100% techinally correct as a demurrage concept, because this demurrage fees could have been incurred for the duration of the quarters in the past, but we will account them this way, as if its demurrage fees for this quarter, for simplicity.\n        daoRewardsStorage().addToTotalDgxClaimed(_demurrageFees);\n\n        uint256 _dgxRewardsAsParticipant;\n        uint256 _dgxRewardsAsModerator;\n        (_dgxRewardsAsParticipant, _dgxRewardsAsModerator) = daoRewardsManagerExtras().calculateUserRewardsForLastParticipatingQuarter(_user);\n        _userClaimableDgx = _userClaimableDgx.add(_dgxRewardsAsParticipant).add(_dgxRewardsAsModerator);\n\n        // update claimableDGXs. The calculation just now should have taken into account demurrage\n        // such that the demurrage has been paid until dgxDistributionDay of (lastParticipatedQuarter + 1)\n        daoRewardsStorage().updateClaimableDGX(_user, _userClaimableDgx);\n\n        // update lastQuarterThatRewardsWasUpdated\n        daoRewardsStorage().updateLastQuarterThatRewardsWasUpdated(_user, data.lastParticipatedQuarter);\n        _valid = true;\n    }\n\n    /**\n    @notice Function called by the founder after transfering the DGX fees into the DAO at the beginning of the quarter\n    @dev This function needs to do lots of calculation, so it might not fit into one transaction\n         As such, it could be done in multiple transactions, each time passing _operations which is the number of operations we want to calculate.\n         When the value of _done is finally true, that's when the calculation is done.\n         Only after this function runs, any other activities in the DAO could happen.\n\n         Basically, if there were M participants and N moderators in the previous quarter, it takes M+N \"operations\".\n\n         In summary, the function populates the DaoQuarterInfo of this quarter.\n         The bulk of the calculation is to go through every participant in the previous quarter to calculate their effectiveDGDBalance and sum them to get the\n         totalEffectiveDGDLastQuarter\n    */\n    function calculateGlobalRewardsBeforeNewQuarter(uint256 _operations)\n        if_founder()\n        public\n        returns (bool _done)\n    {\n        require(isDaoNotReplaced());\n        require(daoUpgradeStorage().startOfFirstQuarter() != 0); // start of first quarter must have been set already\n        require(isLockingPhase());\n        require(daoRewardsStorage().readDgxDistributionDay(currentQuarterIndex()) == 0); // throw if this function has already finished running this quarter\n\n        QuarterRewardsInfo memory info;\n        info.previousQuarter = currentQuarterIndex().sub(1);\n        require(info.previousQuarter > 0); // throw if this is the first quarter\n        info.qInfo = readQuarterInfo(info.previousQuarter);\n\n        DaoStructs.IntermediateResults memory interResults;\n        (\n            interResults.countedUntil,,,\n            info.totalEffectiveDGDPreviousQuarter\n        ) = intermediateResultsStorage().getIntermediateResults(\n            getIntermediateResultsIdForGlobalRewards(info.previousQuarter, false)\n        );\n\n        _operations = sumEffectiveBalance(info, false, _operations, interResults);\n        // now we are left with _operations operations\n        // the results is saved in interResults\n\n        // if we have not done with calculating the effective balance, quit.\n        if (!info.doneCalculatingEffectiveBalance) { return false; }\n\n        (\n            interResults.countedUntil,,,\n            info.totalEffectiveModeratorDGDLastQuarter\n        ) = intermediateResultsStorage().getIntermediateResults(\n            getIntermediateResultsIdForGlobalRewards(info.previousQuarter, true)\n        );\n\n        sumEffectiveBalance(info, true, _operations, interResults);\n\n        // if we have not done with calculating the moderator effective balance, quit.\n        if (!info.doneCalculatingModeratorEffectiveBalance) { return false; }\n\n        // we have done the heavey calculation, now save the quarter info\n        processGlobalRewardsUpdate(info);\n        _done = true;\n\n        emit StartNewQuarter(currentQuarterIndex());\n    }\n\n\n    // get the Id for the intermediateResult for a quarter's global rewards calculation\n    function getIntermediateResultsIdForGlobalRewards(uint256 _quarterId, bool _forModerator) internal view returns (bytes32 _id) {\n        _id = keccak256(abi.encodePacked(\n            _forModerator ? INTERMEDIATE_MODERATOR_DGD_IDENTIFIER : INTERMEDIATE_DGD_IDENTIFIER,\n            _quarterId\n        ));\n    }\n\n\n    // final step in calculateGlobalRewardsBeforeNewQuarter, which is to save the DaoQuarterInfo struct for this quarter\n    function processGlobalRewardsUpdate(QuarterRewardsInfo memory info) internal {\n        // calculate how much DGX rewards we got for this quarter\n        info.dgxRewardsPoolLastQuarter =\n            ERC20(ADDRESS_DGX_TOKEN).balanceOf(address(this))\n            .add(daoRewardsStorage().totalDGXsClaimed())\n            .sub(info.qInfo.sumRewardsFromBeginning);\n\n        // starting new quarter, no one locked in DGDs yet\n        daoStakeStorage().updateTotalLockedDGDStake(0);\n        daoStakeStorage().updateTotalModeratorLockedDGDs(0);\n\n        daoRewardsStorage().updateQuarterInfo(\n            info.previousQuarter.add(1),\n            getUintConfig(CONFIG_MINIMAL_QUARTER_POINT),\n            getUintConfig(CONFIG_QUARTER_POINT_SCALING_FACTOR),\n            getUintConfig(CONFIG_REPUTATION_POINT_SCALING_FACTOR),\n            info.totalEffectiveDGDPreviousQuarter,\n\n            getUintConfig(CONFIG_MODERATOR_MINIMAL_QUARTER_POINT),\n            getUintConfig(CONFIG_MODERATOR_QUARTER_POINT_SCALING_FACTOR),\n            getUintConfig(CONFIG_MODERATOR_REPUTATION_POINT_SCALING_FACTOR),\n            info.totalEffectiveModeratorDGDLastQuarter,\n\n            now,\n            info.dgxRewardsPoolLastQuarter,\n            info.qInfo.sumRewardsFromBeginning.add(info.dgxRewardsPoolLastQuarter)\n        );\n    }\n\n\n    // Sum the effective balance (could be effectiveDGDBalance or effectiveModeratorDGDBalance), given that we have _operations left\n    function sumEffectiveBalance (\n        QuarterRewardsInfo memory info,\n        bool _badgeCalculation, // false if this is the first step, true if its the second step\n        uint256 _operations,\n        DaoStructs.IntermediateResults memory _interResults\n    )\n        internal\n        returns (uint _operationsLeft)\n    {\n        if (_operations == 0) return _operations; // no more operations left, quit\n\n        if (_interResults.countedUntil == EMPTY_ADDRESS) {\n            // if this is the first time we are doing this calculation, we need to\n            // get the list of the participants to calculate by querying the first _operations participants\n            info.users = _badgeCalculation ?\n                daoListingService().listModerators(_operations, true)\n                : daoListingService().listParticipants(_operations, true);\n        } else {\n            info.users = _badgeCalculation ?\n                daoListingService().listModeratorsFrom(_interResults.countedUntil, _operations, true)\n                : daoListingService().listParticipantsFrom(_interResults.countedUntil, _operations, true);\n\n            // if this list is the already empty, it means this is the first step (calculating effective balance), and its already done;\n            if (info.users.length == 0) {\n                info.doneCalculatingEffectiveBalance = true;\n                return _operations;\n            }\n        }\n\n        address _lastAddress;\n        _lastAddress = info.users[info.users.length - 1];\n\n        info.userCount = info.users.length;\n        for (info.i=0;info.i<info.userCount;info.i++) {\n            info.currentUser = info.users[info.i];\n            // check if this participant really did participate in the previous quarter\n            if (daoRewardsStorage().lastParticipatedQuarter(info.currentUser) != info.previousQuarter) {\n                continue;\n            }\n            if (_badgeCalculation) {\n                info.totalEffectiveModeratorDGDLastQuarter = info.totalEffectiveModeratorDGDLastQuarter.add(daoCalculatorService().calculateUserEffectiveBalance(\n                    info.qInfo.moderatorMinimalParticipationPoint,\n                    info.qInfo.moderatorQuarterPointScalingFactor,\n                    info.qInfo.moderatorReputationPointScalingFactor,\n                    daoPointsStorage().getQuarterModeratorPoint(info.currentUser, info.previousQuarter),\n                    daoPointsStorage().getReputation(info.currentUser),\n                    daoStakeStorage().lockedDGDStake(info.currentUser)\n                ));\n            } else {\n                info.totalEffectiveDGDPreviousQuarter = info.totalEffectiveDGDPreviousQuarter.add(daoCalculatorService().calculateUserEffectiveBalance(\n                    info.qInfo.minimalParticipationPoint,\n                    info.qInfo.quarterPointScalingFactor,\n                    info.qInfo.reputationPointScalingFactor,\n                    daoPointsStorage().getQuarterPoint(info.currentUser, info.previousQuarter),\n                    daoPointsStorage().getReputation(info.currentUser),\n                    daoStakeStorage().lockedDGDStake(info.currentUser)\n                ));\n            }\n        }\n\n        // check if we have reached the last guy in the current list\n        if (_lastAddress == daoStakeStorage().readLastModerator() && _badgeCalculation) {\n            info.doneCalculatingModeratorEffectiveBalance = true;\n        }\n        if (_lastAddress == daoStakeStorage().readLastParticipant() && !_badgeCalculation) {\n            info.doneCalculatingEffectiveBalance = true;\n        }\n        // save to the intermediateResult storage\n        intermediateResultsStorage().setIntermediateResults(\n            getIntermediateResultsIdForGlobalRewards(info.previousQuarter, _badgeCalculation),\n            _lastAddress,\n            0,0,\n            _badgeCalculation ? info.totalEffectiveModeratorDGDLastQuarter : info.totalEffectiveDGDPreviousQuarter\n        );\n\n        _operationsLeft = _operations.sub(info.userCount);\n    }\n}\n",
  "sourcePath": "/home/rohit/Develop/dao-contracts/contracts/interactive/DaoRewardsManager.sol",
  "compiler": {
    "name": "solc",
    "version": "0.4.24+commit.e67f0147.Emscripten.clang"
  },
  "schemaVersion": "2.0.1",
  "updatedAt": "2018-10-08T06:56:14.299Z"
}