{
  "contractName": "DaoSpecialProposal",
  "abi": [
    {
      "constant": true,
      "inputs": [],
      "name": "resolver",
      "outputs": [
        {
          "name": "",
          "type": "address"
        }
      ],
      "payable": false,
      "stateMutability": "view",
      "type": "function"
    },
    {
      "constant": true,
      "inputs": [],
      "name": "currentQuarterIndex",
      "outputs": [
        {
          "name": "_quarterIndex",
          "type": "uint256"
        }
      ],
      "payable": false,
      "stateMutability": "view",
      "type": "function"
    },
    {
      "constant": true,
      "inputs": [
        {
          "name": "_configKey",
          "type": "bytes32"
        }
      ],
      "name": "getAddressConfig",
      "outputs": [
        {
          "name": "_configValue",
          "type": "address"
        }
      ],
      "payable": false,
      "stateMutability": "view",
      "type": "function"
    },
    {
      "constant": true,
      "inputs": [],
      "name": "key",
      "outputs": [
        {
          "name": "",
          "type": "bytes32"
        }
      ],
      "payable": false,
      "stateMutability": "view",
      "type": "function"
    },
    {
      "constant": true,
      "inputs": [
        {
          "name": "_key",
          "type": "bytes32"
        }
      ],
      "name": "get_contract",
      "outputs": [
        {
          "name": "_contract",
          "type": "address"
        }
      ],
      "payable": false,
      "stateMutability": "view",
      "type": "function"
    },
    {
      "constant": true,
      "inputs": [],
      "name": "currentTimeInQuarter",
      "outputs": [
        {
          "name": "_currentT",
          "type": "uint256"
        }
      ],
      "payable": false,
      "stateMutability": "view",
      "type": "function"
    },
    {
      "constant": true,
      "inputs": [],
      "name": "isMainPhase",
      "outputs": [
        {
          "name": "_isMainPhase",
          "type": "bool"
        }
      ],
      "payable": false,
      "stateMutability": "view",
      "type": "function"
    },
    {
      "constant": true,
      "inputs": [],
      "name": "isLockingPhase",
      "outputs": [
        {
          "name": "_isLockingPhase",
          "type": "bool"
        }
      ],
      "payable": false,
      "stateMutability": "view",
      "type": "function"
    },
    {
      "constant": true,
      "inputs": [
        {
          "name": "_user",
          "type": "address"
        }
      ],
      "name": "isParticipant",
      "outputs": [
        {
          "name": "_is",
          "type": "bool"
        }
      ],
      "payable": false,
      "stateMutability": "view",
      "type": "function"
    },
    {
      "constant": true,
      "inputs": [
        {
          "name": "_configKey",
          "type": "bytes32"
        }
      ],
      "name": "getBytesConfig",
      "outputs": [
        {
          "name": "_configValue",
          "type": "bytes32"
        }
      ],
      "payable": false,
      "stateMutability": "view",
      "type": "function"
    },
    {
      "constant": true,
      "inputs": [
        {
          "name": "_configKey",
          "type": "bytes32"
        }
      ],
      "name": "getUintConfig",
      "outputs": [
        {
          "name": "_configValue",
          "type": "uint256"
        }
      ],
      "payable": false,
      "stateMutability": "view",
      "type": "function"
    },
    {
      "constant": true,
      "inputs": [],
      "name": "isDaoNotReplaced",
      "outputs": [
        {
          "name": "_isNotReplaced",
          "type": "bool"
        }
      ],
      "payable": false,
      "stateMutability": "view",
      "type": "function"
    },
    {
      "constant": true,
      "inputs": [],
      "name": "CONTRACT_ADDRESS",
      "outputs": [
        {
          "name": "",
          "type": "address"
        }
      ],
      "payable": false,
      "stateMutability": "view",
      "type": "function"
    },
    {
      "constant": true,
      "inputs": [
        {
          "name": "_proposalId",
          "type": "bytes32"
        }
      ],
      "name": "isProposalPaused",
      "outputs": [
        {
          "name": "_isPausedOrStopped",
          "type": "bool"
        }
      ],
      "payable": false,
      "stateMutability": "view",
      "type": "function"
    },
    {
      "constant": true,
      "inputs": [
        {
          "name": "_user",
          "type": "address"
        }
      ],
      "name": "isModerator",
      "outputs": [
        {
          "name": "_is",
          "type": "bool"
        }
      ],
      "payable": false,
      "stateMutability": "view",
      "type": "function"
    },
    {
      "inputs": [
        {
          "name": "_resolver",
          "type": "address"
        }
      ],
      "payable": false,
      "stateMutability": "nonpayable",
      "type": "constructor"
    },
    {
      "anonymous": false,
      "inputs": [
        {
          "indexed": false,
          "name": "_specialProposalId",
          "type": "bytes32"
        }
      ],
      "name": "StartSpecialProposal",
      "type": "event"
    },
    {
      "constant": false,
      "inputs": [
        {
          "name": "_doc",
          "type": "bytes32"
        },
        {
          "name": "_uintConfigs",
          "type": "uint256[]"
        },
        {
          "name": "_addressConfigs",
          "type": "address[]"
        },
        {
          "name": "_bytesConfigs",
          "type": "bytes32[]"
        }
      ],
      "name": "createSpecialProposal",
      "outputs": [
        {
          "name": "_success",
          "type": "bool"
        }
      ],
      "payable": false,
      "stateMutability": "nonpayable",
      "type": "function"
    },
    {
      "constant": false,
      "inputs": [
        {
          "name": "_proposalId",
          "type": "bytes32"
        }
      ],
      "name": "startSpecialProposalVoting",
      "outputs": [],
      "payable": false,
      "stateMutability": "nonpayable",
      "type": "function"
    }
  ],
  "bytecode": "0x608060405260006001026003906000191690556000600460006101000a81548173ffffffffffffffffffffffffffffffffffffffff021916908373ffffffffffffffffffffffffffffffffffffffff1602179055507f70726f706f73616c5f73746174655f70726570726f706f73616c0000000000006005906000191690557f70726f706f73616c5f73746174655f64726166740000000000000000000000006006906000191690557f70726f706f73616c5f73746174655f6d6f6465726174656400000000000000006007906000191690557f70726f706f73616c5f73746174655f6f6e676f696e67000000000000000000006008906000191690557f70726f706f73616c5f73746174655f636c6f73656400000000000000000000006009906000191690556001600a556002600b556003600c556001600d556002600e556003600f557f696e7465725f6467645f696400000000000000000000000000000000000000006010906000191690557f696e7465725f6d6f645f6467645f6964000000000000000000000000000000006011906000191690557f696e7465725f626f6e75735f63616c63756c6174696f6e5f69640000000000006012906000191690557f64616f00000000000000000000000000000000000000000000000000000000006013906000191690557f64616f3a7370656369616c3a70726f706f73616c0000000000000000000000006014906000191690557f64616f3a7374616b652d6c6f636b696e670000000000000000000000000000006015906000191690557f64616f3a766f74696e67000000000000000000000000000000000000000000006016906000191690557f64616f3a766f74696e673a636c61696d730000000000000000000000000000006017906000191690557f64616f3a73766f74696e673a636c61696d7300000000000000000000000000006018906000191690557f64616f3a6964656e7469747900000000000000000000000000000000000000006019906000191690557f64616f3a726577617264732d6d616e6167657200000000000000000000000000601a906000191690557f64616f3a726577617264732d6578747261730000000000000000000000000000601b906000191690557f64616f3a726f6c65730000000000000000000000000000000000000000000000601c906000191690557f64616f3a66756e64696e672d6d616e6167657200000000000000000000000000601d906000191690557f64616f3a77686974656c697374696e6700000000000000000000000000000000601e906000191690557f736572766963653a726f6c650000000000000000000000000000000000000000601f906000191690557f736572766963653a64616f3a696e666f000000000000000000000000000000006020906000191690557f736572766963653a64616f3a6c697374696e67000000000000000000000000006021906000191690557f736572766963653a64616f3a63616c63756c61746f72000000000000000000006022906000191690557f73746f726167653a64616f0000000000000000000000000000000000000000006023906000191690557f73746f726167653a64616f3a75706772616465000000000000000000000000006024906000191690557f73746f726167653a64616f3a6964656e746974790000000000000000000000006025906000191690557f73746f726167653a64616f3a706f696e747300000000000000000000000000006026906000191690557f73746f726167653a64616f3a7370656369616c000000000000000000000000006027906000191690557f73746f726167653a64616f3a636f6e66696700000000000000000000000000006028906000191690557f73746f726167653a64616f3a7374616b650000000000000000000000000000006029906000191690557f73746f726167653a64616f3a66756e64696e6700000000000000000000000000602a906000191690557f73746f726167653a64616f3a7265776172647300000000000000000000000000602b906000191690557f73746f726167653a64616f3a77686974656c697374696e670000000000000000602c906000191690557f73746f726167653a696e7465726d6564696174653a726573756c747300000000602d906000191690557f73746f726167653a64616f3a636f6c6c61746572616c00000000000000000000602e906000191690557f743a646764000000000000000000000000000000000000000000000000000000602f906000191690557f743a6467780000000000000000000000000000000000000000000000000000006030906000191690557f743a6261646765000000000000000000000000000000000000000000000000006031906000191690556001603260006101000a81548160ff021916908360ff1602179055506002603260016101000a81548160ff021916908360ff1602179055506003603260026101000a81548160ff021916908360ff1602179055506004603260036101000a81548160ff021916908360ff1602179055506276a7006033557f6d696e5f6467645f7061727469636970616e74000000000000000000000000006034906000191690557f6d696e5f6467645f6d6f64657261746f720000000000000000000000000000006035906000191690557f6d696e5f72657075746174696f6e5f6d6f64657261746f7200000000000000006036906000191690557f6c6f636b696e675f70686173655f6475726174696f6e000000000000000000006037906000191690557f717561727465725f6475726174696f6e000000000000000000000000000000006038906000191690557f766f74696e675f636f6d6d69745f7068617365000000000000000000000000006039906000191690557f766f74696e675f70686173655f746f74616c0000000000000000000000000000603a906000191690557f696e746572696d5f766f74696e675f636f6d6d69745f70686173650000000000603b906000191690557f696e746572696d5f766f74696e675f70686173655f746f74616c000000000000603c906000191690557f64726166745f71756f72756d5f66697865645f6e756d657261746f7200000000603d906000191690557f64726166745f71756f72756d5f66697865645f64656e6f6d696e61746f720000603e906000191690557f64726166745f71756f72756d5f73666163746f725f6e756d657261746f720000603f906000191690557f64726166745f71756f72756d5f73666163746f725f64656e6f6d696e61746f726040906000191690557f766f74655f71756f72756d5f66697865645f6e756d657261746f7200000000006041906000191690557f766f74655f71756f72756d5f66697865645f64656e6f6d696e61746f720000006042906000191690557f766f74655f71756f72756d5f73666163746f725f6e756d657261746f720000006043906000191690557f766f74655f71756f72756d5f73666163746f725f64656e6f6d696e61746f72006044906000191690557f66696e616c5f7265776172645f73666163746f725f6e756d657261746f7200006045906000191690557f66696e616c5f7265776172645f73666163746f725f64656e6f6d696e61746f726046906000191690557f64726166745f71756f74615f6e756d657261746f7200000000000000000000006047906000191690557f64726166745f71756f74615f64656e6f6d696e61746f720000000000000000006048906000191690557f766f74696e675f71756f74615f6e756d657261746f72000000000000000000006049906000191690557f766f74696e675f71756f74615f64656e6f6d696e61746f720000000000000000604a906000191690557f6d696e696d616c5f717000000000000000000000000000000000000000000000604b906000191690557f717561727465725f706f696e745f7363616c696e675f666163746f7200000000604c906000191690557f7265705f706f696e745f7363616c696e675f666163746f720000000000000000604d906000191690557f6d696e696d616c5f6d6f645f7170000000000000000000000000000000000000604e906000191690557f6d6f645f71705f7363616c696e675f666163746f720000000000000000000000604f906000191690557f6d6f645f7265705f706f696e745f7363616c696e675f666163746f72000000006050906000191690557f717561727465725f706f696e745f64726166745f766f746500000000000000006051906000191690557f717561727465725f706f696e745f766f746500000000000000000000000000006052906000191690557f717561727465725f706f696e745f696e746572696d5f766f74650000000000006053906000191690557f717561727465725f706f696e745f636c61696d5f726573756c740000000000006054906000191690557f715f705f6d696c6573746f6e655f636f6d706c6574696f6e00000000000000006055906000191690557f626f6e75735f72657075746174696f6e5f6e756d657261746f720000000000006056906000191690557f626f6e75735f72657075746174696f6e5f64656e6f6d696e61746f72000000006057906000191690557f7370656369616c5f70726f706f73616c5f636f6d6d69745f70686173650000006058906000191690557f7370656369616c5f70726f706f73616c5f70686173655f746f74616c000000006059906000191690557f636f6e6669675f7370656369616c5f71756f74615f6e756d657261746f720000605a906000191690557f636f6e6669675f7370656369616c5f71756f74615f64656e6f6d696e61746f72605b906000191690557f7370656369616c5f71756f72756d5f6e756d657261746f720000000000000000605c906000191690557f7370656369616c5f71756f72756d5f64656e6f6d696e61746f72000000000000605d906000191690557f636f6e6669675f6d61785f72657075746174696f6e5f646564756374696f6e00605e906000191690557f636f6e6669675f70756e6973686d656e745f6e6f745f6c6f636b696e67000000605f906000191690557f636f6e6669675f7265705f7065725f65787472615f71705f6e756d00000000006060906000191690557f636f6e6669675f7265705f7065725f65787472615f71705f64656e00000000006061906000191690557f636f6e6669675f6d61785f6d5f72705f646564756374696f6e000000000000006062906000191690557f636f6e6669675f7265705f7065725f65787472615f6d5f71705f6e756d0000006063906000191690557f636f6e6669675f7265705f7065725f65787472615f6d5f71705f64656e0000006064906000191690557f636f6e6669675f6d6f645f706f7274696f6e5f6e756d000000000000000000006065906000191690557f636f6e6669675f6d6f645f706f7274696f6e5f64656e000000000000000000006066906000191690557f636f6e6669675f64726166745f766f74696e675f7068617365000000000000006067906000191690557f636f6e6669675f72705f626f6f73745f7065725f6261646765000000000000006068906000191690557f636f6e6669675f636c61696d696e675f646561646c696e6500000000000000006069906000191690557f636f6e6669675f70726570726f706f73616c5f6465706f736974000000000000606a906000191690557f636f6e6669675f6d61785f66756e64696e675f6e6f6e44696769780000000000606b906000191690557f636f6e6669675f6d61785f6d696c6573746f6e65735f6e6f6e44696769780000606c906000191690557f636f6e6669675f6e6f6e44696769785f70726f706f73616c5f63617000000000606d906000191690557f636f6e6669675f646561645f6475726174696f6e000000000000000000000000606e906000191690557f636f6e6669675f63765f72657075746174696f6e000000000000000000000000606f906000191690553480156200113457600080fd5b5060405160208062002e9d83398101806040528101908080519060200190929190505050620011756014548262001188640100000000026401000000009004565b15156200118157600080fd5b5062001419565b6000808273ffffffffffffffffffffffffffffffffffffffff1663cf3090126040518163ffffffff167c0100000000000000000000000000000000000000000000000000000000028152600401602060405180830381600087803b158015620011f057600080fd5b505af115801562001205573d6000803e3d6000fd5b505050506040513d60208110156200121c57600080fd5b810190808051906020019092919050505090506000151581151514156200140d5730600260006101000a81548173ffffffffffffffffffffffffffffffffffffffff021916908373ffffffffffffffffffffffffffffffffffffffff160217905550826000806101000a81548173ffffffffffffffffffffffffffffffffffffffff021916908373ffffffffffffffffffffffffffffffffffffffff16021790555083600181600019169055506000809054906101000a900473ffffffffffffffffffffffffffffffffffffffff1673ffffffffffffffffffffffffffffffffffffffff1663c0f6ef4a600154600260009054906101000a900473ffffffffffffffffffffffffffffffffffffffff166040518363ffffffff167c01000000000000000000000000000000000000000000000000000000000281526004018083600019166000191681526020018273ffffffffffffffffffffffffffffffffffffffff1673ffffffffffffffffffffffffffffffffffffffff16815260200192505050602060405180830381600087803b158015620013ba57600080fd5b505af1158015620013cf573d6000803e3d6000fd5b505050506040513d6020811015620013e657600080fd5b810190808051906020019092919050505015156200140357600080fd5b6001915062001412565b600091505b5092915050565b611a7480620014296000396000f3006080604052600436106100f1576000357c0100000000000000000000000000000000000000000000000000000000900463ffffffff16806304f3bcec146100f65780630d7cc5611461014d5780631d8ccd041461017857806325505bfa146101e95780633943380c146102fb5780633f83acff1461032e578063517f4a801461039f578063560a25ea146103d057806368533060146103fb5780637d6fed801461042a578063929066f51461045957806393ddad08146104b4578063b1e2b9dd14610501578063d70d935814610546578063db4ecbc114610575578063f94f0f33146105cc578063fa6f393614610615575b600080fd5b34801561010257600080fd5b5061010b610670565b604051808273ffffffffffffffffffffffffffffffffffffffff1673ffffffffffffffffffffffffffffffffffffffff16815260200191505060405180910390f35b34801561015957600080fd5b50610162610695565b6040518082815260200191505060405180910390f35b34801561018457600080fd5b506101a760048036038101908080356000191690602001909291905050506106a5565b604051808273ffffffffffffffffffffffffffffffffffffffff1673ffffffffffffffffffffffffffffffffffffffff16815260200191505060405180910390f35b3480156101f557600080fd5b506102e16004803603810190808035600019169060200190929190803590602001908201803590602001908080602002602001604051908101604052809392919081815260200183836020028082843782019150505050505091929192908035906020019082018035906020019080806020026020016040519081016040528093929190818152602001838360200280828437820191505050505050919291929080359060200190820180359060200190808060200260200160405190810160405280939291908181526020018383602002808284378201915050505050509192919290505050610767565b604051808215151515815260200191505060405180910390f35b34801561030757600080fd5b50610310610945565b60405180826000191660001916815260200191505060405180910390f35b34801561033a57600080fd5b5061035d600480360381019080803560001916906020019092919050505061094b565b604051808273ffffffffffffffffffffffffffffffffffffffff1673ffffffffffffffffffffffffffffffffffffffff16815260200191505060405180910390f35b3480156103ab57600080fd5b506103ce6004803603810190808035600019169060200190929190505050610a27565b005b3480156103dc57600080fd5b506103e5610cf3565b6040518082815260200191505060405180910390f35b34801561040757600080fd5b50610410610d03565b604051808215151515815260200191505060405180910390f35b34801561043657600080fd5b5061043f610d2f565b604051808215151515815260200191505060405180910390f35b34801561046557600080fd5b5061049a600480360381019080803573ffffffffffffffffffffffffffffffffffffffff169060200190929190505050610d4a565b604051808215151515815260200191505060405180910390f35b3480156104c057600080fd5b506104e36004803603810190808035600019169060200190929190505050610f2b565b60405180826000191660001916815260200191505060405180910390f35b34801561050d57600080fd5b506105306004803603810190808035600019169060200190929190505050610fed565b6040518082815260200191505060405180910390f35b34801561055257600080fd5b5061055b6110af565b604051808215151515815260200191505060405180910390f35b34801561058157600080fd5b5061058a61115d565b604051808273ffffffffffffffffffffffffffffffffffffffff1673ffffffffffffffffffffffffffffffffffffffff16815260200191505060405180910390f35b3480156105d857600080fd5b506105fb6004803603810190808035600019169060200190929190505050611183565b604051808215151515815260200191505060405180910390f35b34801561062157600080fd5b50610656600480360381019080803573ffffffffffffffffffffffffffffffffffffffff1690602001909291905050506112d8565b604051808215151515815260200191505060405180910390f35b6000809054906101000a900473ffffffffffffffffffffffffffffffffffffffff1681565b60006106a0426115ab565b905090565b60006106af6116ae565b73ffffffffffffffffffffffffffffffffffffffff1663e6b39eab836040518263ffffffff167c0100000000000000000000000000000000000000000000000000000000028152600401808260001916600019168152602001915050602060405180830381600087803b15801561072557600080fd5b505af1158015610739573d6000803e3d6000fd5b505050506040513d602081101561074f57600080fd5b81019080805190602001909291905050509050919050565b6000806107726116c0565b151561077d57600080fd5b610785610d03565b151561079057600080fd5b33905061079b6117b8565b73ffffffffffffffffffffffffffffffffffffffff16638b8a759387838888886040518663ffffffff167c01000000000000000000000000000000000000000000000000000000000281526004018086600019166000191681526020018573ffffffffffffffffffffffffffffffffffffffff1673ffffffffffffffffffffffffffffffffffffffff168152602001806020018060200180602001848103845287818151815260200191508051906020019060200280838360005b83811015610871578082015181840152602081019050610856565b50505050905001848103835286818151815260200191508051906020019060200280838360005b838110156108b3578082015181840152602081019050610898565b50505050905001848103825285818151815260200191508051906020019060200280838360005b838110156108f55780820151818401526020810190506108da565b5050505090500198505050505050505050600060405180830381600087803b15801561092057600080fd5b505af1158015610934573d6000803e3d6000fd5b505050506001915050949350505050565b60015481565b60008060009054906101000a900473ffffffffffffffffffffffffffffffffffffffff1673ffffffffffffffffffffffffffffffffffffffff16633f83acff836040518263ffffffff167c0100000000000000000000000000000000000000000000000000000000028152600401808260001916600019168152602001915050602060405180830381600087803b1580156109e557600080fd5b505af11580156109f9573d6000803e3d6000fd5b505050506040513d6020811015610a0f57600080fd5b81019080805190602001909291905050509050919050565b610a2f610d03565b1515610a3a57600080fd5b3373ffffffffffffffffffffffffffffffffffffffff16610a596117b8565b73ffffffffffffffffffffffffffffffffffffffff16635b712eb6836040518263ffffffff167c0100000000000000000000000000000000000000000000000000000000028152600401808260001916600019168152602001915050602060405180830381600087803b158015610acf57600080fd5b505af1158015610ae3573d6000803e3d6000fd5b505050506040513d6020811015610af957600080fd5b810190808051906020019092919050505073ffffffffffffffffffffffffffffffffffffffff16141515610b2c57600080fd5b6000610b366117b8565b73ffffffffffffffffffffffffffffffffffffffff16638839a29d836040518263ffffffff167c0100000000000000000000000000000000000000000000000000000000028152600401808260001916600019168152602001915050602060405180830381600087803b158015610bac57600080fd5b505af1158015610bc0573d6000803e3d6000fd5b505050506040513d6020811015610bd657600080fd5b8101908080519060200190929190505050141515610bf357600080fd5b610bfe605954610fed565b610c07426117ca565b111515610c1357600080fd5b610c1b6117b8565b73ffffffffffffffffffffffffffffffffffffffff16636999b93f82426040518363ffffffff167c010000000000000000000000000000000000000000000000000000000002815260040180836000191660001916815260200182815260200192505050600060405180830381600087803b158015610c9957600080fd5b505af1158015610cad573d6000803e3d6000fd5b505050507f9d3e9e6558b8d0d71a8d5c19850eaf0f4d9618fa82afeccddb24563f6308dcca8160405180826000191660001916815260200191505060405180910390a150565b6000610cfe426117f8565b905090565b6000610d0d6110af565b8015610d2a5750610d1f603754610fed565b610d27610cf3565b10155b905090565b6000610d3c603754610fed565b610d44610cf3565b10905090565b6000610d54610695565b610d5c6118e1565b73ffffffffffffffffffffffffffffffffffffffff1663cefc2bff846040518263ffffffff167c0100000000000000000000000000000000000000000000000000000000028152600401808273ffffffffffffffffffffffffffffffffffffffff1673ffffffffffffffffffffffffffffffffffffffff168152602001915050602060405180830381600087803b158015610df657600080fd5b505af1158015610e0a573d6000803e3d6000fd5b505050506040513d6020811015610e2057600080fd5b8101908080519060200190929190505050148015610f245750610e44603454610fed565b610e4c6118f3565b73ffffffffffffffffffffffffffffffffffffffff1663cd094a27846040518263ffffffff167c0100000000000000000000000000000000000000000000000000000000028152600401808273ffffffffffffffffffffffffffffffffffffffff1673ffffffffffffffffffffffffffffffffffffffff168152602001915050602060405180830381600087803b158015610ee657600080fd5b505af1158015610efa573d6000803e3d6000fd5b505050506040513d6020811015610f1057600080fd5b810190808051906020019092919050505010155b9050919050565b6000610f356116ae565b73ffffffffffffffffffffffffffffffffffffffff1663c0a8405d836040518263ffffffff167c0100000000000000000000000000000000000000000000000000000000028152600401808260001916600019168152602001915050602060405180830381600087803b158015610fab57600080fd5b505af1158015610fbf573d6000803e3d6000fd5b505050506040513d6020811015610fd557600080fd5b81019080805190602001909291905050509050919050565b6000610ff76116ae565b73ffffffffffffffffffffffffffffffffffffffff1663734c1168836040518263ffffffff167c0100000000000000000000000000000000000000000000000000000000028152600401808260001916600019168152602001915050602060405180830381600087803b15801561106d57600080fd5b505af1158015611081573d6000803e3d6000fd5b505050506040513d602081101561109757600080fd5b81019080805190602001909291905050509050919050565b60006110b9611905565b73ffffffffffffffffffffffffffffffffffffffff16638bc865fd6040518163ffffffff167c0100000000000000000000000000000000000000000000000000000000028152600401602060405180830381600087803b15801561111c57600080fd5b505af1158015611130573d6000803e3d6000fd5b505050506040513d602081101561114657600080fd5b810190808051906020019092919050505015905090565b600260009054906101000a900473ffffffffffffffffffffffffffffffffffffffff1681565b600061118d611917565b73ffffffffffffffffffffffffffffffffffffffff1663d8d50179836040518263ffffffff167c010000000000000000000000000000000000000000000000000000000002815260040180826000191660001916815260200191505061014060405180830381600087803b15801561120457600080fd5b505af1158015611218573d6000803e3d6000fd5b505050506040513d61014081101561122f57600080fd5b8101908080519060200190929190805190602001909291908051906020019092919080519060200190929190805190602001909291908051906020019092919080519060200190929190805190602001909291908051906020019092919080519060200190929190505050909192939495969798509091929394959697509091929394959650909192939495509091929394509091929350909192509091505080915050919050565b60006112e2610695565b6112ea6118e1565b73ffffffffffffffffffffffffffffffffffffffff1663cefc2bff846040518263ffffffff167c0100000000000000000000000000000000000000000000000000000000028152600401808273ffffffffffffffffffffffffffffffffffffffff1673ffffffffffffffffffffffffffffffffffffffff168152602001915050602060405180830381600087803b15801561138457600080fd5b505af1158015611398573d6000803e3d6000fd5b505050506040513d60208110156113ae57600080fd5b81019080805190602001909291905050501480156114b257506113d2603554610fed565b6113da6118f3565b73ffffffffffffffffffffffffffffffffffffffff1663cd094a27846040518263ffffffff167c0100000000000000000000000000000000000000000000000000000000028152600401808273ffffffffffffffffffffffffffffffffffffffff1673ffffffffffffffffffffffffffffffffffffffff168152602001915050602060405180830381600087803b15801561147457600080fd5b505af1158015611488573d6000803e3d6000fd5b505050506040513d602081101561149e57600080fd5b810190808051906020019092919050505010155b80156115a457506114c4603654610fed565b6114cc611929565b73ffffffffffffffffffffffffffffffffffffffff16639c89a0e2846040518263ffffffff167c0100000000000000000000000000000000000000000000000000000000028152600401808273ffffffffffffffffffffffffffffffffffffffff1673ffffffffffffffffffffffffffffffffffffffff168152602001915050602060405180830381600087803b15801561156657600080fd5b505af115801561157a573d6000803e3d6000fd5b505050506040513d602081101561159057600080fd5b810190808051906020019092919050505010155b9050919050565b60006115b561193b565b15156115c057600080fd5b6116a760016116996115d3603854610fed565b61168b6115de611905565b73ffffffffffffffffffffffffffffffffffffffff1663d9c6bb206040518163ffffffff167c0100000000000000000000000000000000000000000000000000000000028152600401602060405180830381600087803b15801561164157600080fd5b505af1158015611655573d6000803e3d6000fd5b505050506040513d602081101561166b57600080fd5b8101908080519060200190929190505050876119eb90919063ffffffff16565b611a0490919063ffffffff16565b611a1a90919063ffffffff16565b9050919050565b60006116bb60285461094b565b905090565b6000603260019054906101000a900460ff1660ff166116dd611a36565b73ffffffffffffffffffffffffffffffffffffffff1663c31d02b2336040518263ffffffff167c0100000000000000000000000000000000000000000000000000000000028152600401808273ffffffffffffffffffffffffffffffffffffffff1673ffffffffffffffffffffffffffffffffffffffff168152602001915050602060405180830381600087803b15801561177757600080fd5b505af115801561178b573d6000803e3d6000fd5b505050506040513d60208110156117a157600080fd5b810190808051906020019092919050505014905090565b60006117c560275461094b565b905090565b60006117f16117d8836117f8565b6117e3603854610fed565b6119eb90919063ffffffff16565b9050919050565b600061180261193b565b151561180d57600080fd5b611818603854610fed565b6118d0611823611905565b73ffffffffffffffffffffffffffffffffffffffff1663d9c6bb206040518163ffffffff167c0100000000000000000000000000000000000000000000000000000000028152600401602060405180830381600087803b15801561188657600080fd5b505af115801561189a573d6000803e3d6000fd5b505050506040513d60208110156118b057600080fd5b8101908080519060200190929190505050846119eb90919063ffffffff16565b8115156118d957fe5b069050919050565b60006118ee602b5461094b565b905090565b600061190060295461094b565b905090565b600061191260245461094b565b905090565b600061192460235461094b565b905090565b600061193660265461094b565b905090565b600080611946611905565b73ffffffffffffffffffffffffffffffffffffffff1663d9c6bb206040518163ffffffff167c0100000000000000000000000000000000000000000000000000000000028152600401602060405180830381600087803b1580156119a957600080fd5b505af11580156119bd573d6000803e3d6000fd5b505050506040513d60208110156119d357600080fd5b81019080805190602001909291905050501415905090565b60008282111515156119f957fe5b818303905092915050565b60008183811515611a1157fe5b04905092915050565b60008183019050828110151515611a2d57fe5b80905092915050565b6000611a4360255461094b565b9050905600a165627a7a723058205fe01c8eaf49b0948dbf076ffc3ffc29de81e2f9a91100fa36cb9897bca8cf2f0029",
  "source": "pragma solidity 0.4.24;\n\nimport \"./../common/DaoCommon.sol\";\n\ncontract DaoSpecialProposal is DaoCommon {\n\n    event StartSpecialProposal(bytes32 _specialProposalId);\n\n    constructor(address _resolver) public {\n        require(init(CONTRACT_DAO_SPECIAL_PROPOSAL, _resolver));\n    }\n\n    /**\n    @notice Function to create a Special Proposal (can only be created by the founders)\n    @param _doc hash of the IPFS doc of the special proposal details\n    @param _uintConfigs Array of the new UINT256 configs\n    @param _addressConfigs Array of the new Address configs\n    @param _bytesConfigs Array of the new Bytes32 configs\n    @return {\n      \"_success\": \"true if created special successfully\"\n    }\n    */\n    function createSpecialProposal(\n        bytes32 _doc,\n        uint256[] _uintConfigs,\n        address[] _addressConfigs,\n        bytes32[] _bytesConfigs\n    )\n        public\n        if_founder()\n        returns (bool _success)\n    {\n        require(isMainPhase());\n        address _proposer = msg.sender;\n        daoSpecialStorage().addSpecialProposal(\n            _doc,\n            _proposer,\n            _uintConfigs,\n            _addressConfigs,\n            _bytesConfigs\n        );\n        _success = true;\n    }\n\n    /**\n    @notice Function to set start of voting round for special proposal\n    @param _proposalId ID of the special proposal\n    */\n    function startSpecialProposalVoting(\n        bytes32 _proposalId\n    )\n        public\n    {\n        require(isMainPhase());\n        require(daoSpecialStorage().readProposalProposer(_proposalId) == msg.sender);\n        require(daoSpecialStorage().readVotingTime(_proposalId) == 0); // voting hasnt started yet\n        require(getTimeLeftInQuarter(now) > getUintConfig(CONFIG_SPECIAL_PROPOSAL_PHASE_TOTAL));\n        daoSpecialStorage().setVotingTime(_proposalId, now);\n\n        emit StartSpecialProposal(_proposalId);\n    }\n}\n",
  "sourcePath": "/home/rohit/Develop/dao-contracts/contracts/interactive/DaoSpecialProposal.sol",
  "compiler": {
    "name": "solc",
    "version": "0.4.24+commit.e67f0147.Emscripten.clang"
  },
  "schemaVersion": "2.0.1",
  "updatedAt": "2018-10-08T06:56:14.156Z"
}