{
  "contractName": "DaoStorage",
  "abi": [
    {
      "constant": true,
      "inputs": [],
      "name": "resolver",
      "outputs": [
        {
          "name": "",
          "type": "address"
        }
      ],
      "payable": false,
      "stateMutability": "view",
      "type": "function"
    },
    {
      "constant": true,
      "inputs": [
        {
          "name": "",
          "type": "uint256"
        }
      ],
      "name": "proposalCountByQuarter",
      "outputs": [
        {
          "name": "",
          "type": "uint256"
        }
      ],
      "payable": false,
      "stateMutability": "view",
      "type": "function"
    },
    {
      "constant": true,
      "inputs": [],
      "name": "key",
      "outputs": [
        {
          "name": "",
          "type": "bytes32"
        }
      ],
      "payable": false,
      "stateMutability": "view",
      "type": "function"
    },
    {
      "constant": true,
      "inputs": [
        {
          "name": "_key",
          "type": "bytes32"
        }
      ],
      "name": "get_contract",
      "outputs": [
        {
          "name": "_contract",
          "type": "address"
        }
      ],
      "payable": false,
      "stateMutability": "view",
      "type": "function"
    },
    {
      "constant": true,
      "inputs": [],
      "name": "CONTRACT_ADDRESS",
      "outputs": [
        {
          "name": "",
          "type": "address"
        }
      ],
      "payable": false,
      "stateMutability": "view",
      "type": "function"
    },
    {
      "inputs": [
        {
          "name": "_resolver",
          "type": "address"
        }
      ],
      "payable": false,
      "stateMutability": "nonpayable",
      "type": "constructor"
    },
    {
      "constant": true,
      "inputs": [
        {
          "name": "_proposalId",
          "type": "bytes32"
        }
      ],
      "name": "readProposal",
      "outputs": [
        {
          "name": "_doc",
          "type": "bytes32"
        },
        {
          "name": "_proposer",
          "type": "address"
        },
        {
          "name": "_endorser",
          "type": "address"
        },
        {
          "name": "_state",
          "type": "bytes32"
        },
        {
          "name": "_timeCreated",
          "type": "uint256"
        },
        {
          "name": "_nVersions",
          "type": "uint256"
        },
        {
          "name": "_latestVersionDoc",
          "type": "bytes32"
        },
        {
          "name": "_finalVersion",
          "type": "bytes32"
        },
        {
          "name": "_pausedOrStopped",
          "type": "bool"
        },
        {
          "name": "_isDigixProposal",
          "type": "bool"
        }
      ],
      "payable": false,
      "stateMutability": "view",
      "type": "function"
    },
    {
      "constant": true,
      "inputs": [
        {
          "name": "_proposalId",
          "type": "bytes32"
        }
      ],
      "name": "readProposalProposer",
      "outputs": [
        {
          "name": "_proposer",
          "type": "address"
        }
      ],
      "payable": false,
      "stateMutability": "view",
      "type": "function"
    },
    {
      "constant": true,
      "inputs": [
        {
          "name": "_proposalId",
          "type": "bytes32"
        }
      ],
      "name": "readTotalPrlActions",
      "outputs": [
        {
          "name": "_length",
          "type": "uint256"
        }
      ],
      "payable": false,
      "stateMutability": "view",
      "type": "function"
    },
    {
      "constant": true,
      "inputs": [
        {
          "name": "_proposalId",
          "type": "bytes32"
        },
        {
          "name": "_index",
          "type": "uint256"
        }
      ],
      "name": "readPrlAction",
      "outputs": [
        {
          "name": "_actionId",
          "type": "uint256"
        },
        {
          "name": "_time",
          "type": "uint256"
        },
        {
          "name": "_doc",
          "type": "bytes32"
        }
      ],
      "payable": false,
      "stateMutability": "view",
      "type": "function"
    },
    {
      "constant": true,
      "inputs": [
        {
          "name": "_proposalId",
          "type": "bytes32"
        }
      ],
      "name": "readProposalDraftVotingResult",
      "outputs": [
        {
          "name": "_result",
          "type": "bool"
        }
      ],
      "payable": false,
      "stateMutability": "view",
      "type": "function"
    },
    {
      "constant": true,
      "inputs": [
        {
          "name": "_proposalId",
          "type": "bytes32"
        },
        {
          "name": "_index",
          "type": "uint256"
        }
      ],
      "name": "readProposalVotingResult",
      "outputs": [
        {
          "name": "_result",
          "type": "bool"
        }
      ],
      "payable": false,
      "stateMutability": "view",
      "type": "function"
    },
    {
      "constant": true,
      "inputs": [
        {
          "name": "_proposalId",
          "type": "bytes32"
        }
      ],
      "name": "readProposalDraftVotingTime",
      "outputs": [
        {
          "name": "_start",
          "type": "uint256"
        }
      ],
      "payable": false,
      "stateMutability": "view",
      "type": "function"
    },
    {
      "constant": true,
      "inputs": [
        {
          "name": "_proposalId",
          "type": "bytes32"
        },
        {
          "name": "_index",
          "type": "uint256"
        }
      ],
      "name": "readProposalVotingTime",
      "outputs": [
        {
          "name": "_start",
          "type": "uint256"
        }
      ],
      "payable": false,
      "stateMutability": "view",
      "type": "function"
    },
    {
      "constant": true,
      "inputs": [
        {
          "name": "_proposalId",
          "type": "bytes32"
        },
        {
          "name": "_allUsers",
          "type": "address[]"
        }
      ],
      "name": "readDraftVotingCount",
      "outputs": [
        {
          "name": "_for",
          "type": "uint256"
        },
        {
          "name": "_against",
          "type": "uint256"
        }
      ],
      "payable": false,
      "stateMutability": "view",
      "type": "function"
    },
    {
      "constant": true,
      "inputs": [
        {
          "name": "_proposalId",
          "type": "bytes32"
        },
        {
          "name": "_index",
          "type": "uint256"
        },
        {
          "name": "_allUsers",
          "type": "address[]"
        }
      ],
      "name": "readVotingCount",
      "outputs": [
        {
          "name": "_for",
          "type": "uint256"
        },
        {
          "name": "_against",
          "type": "uint256"
        }
      ],
      "payable": false,
      "stateMutability": "view",
      "type": "function"
    },
    {
      "constant": true,
      "inputs": [
        {
          "name": "_proposalId",
          "type": "bytes32"
        },
        {
          "name": "_index",
          "type": "uint256"
        },
        {
          "name": "_allUsers",
          "type": "address[]"
        },
        {
          "name": "_vote",
          "type": "bool"
        }
      ],
      "name": "readVotingRoundVotes",
      "outputs": [
        {
          "name": "_voters",
          "type": "address[]"
        },
        {
          "name": "_length",
          "type": "uint256"
        }
      ],
      "payable": false,
      "stateMutability": "view",
      "type": "function"
    },
    {
      "constant": true,
      "inputs": [
        {
          "name": "_proposalId",
          "type": "bytes32"
        },
        {
          "name": "_voter",
          "type": "address"
        }
      ],
      "name": "readDraftVote",
      "outputs": [
        {
          "name": "_vote",
          "type": "bool"
        },
        {
          "name": "_weight",
          "type": "uint256"
        }
      ],
      "payable": false,
      "stateMutability": "view",
      "type": "function"
    },
    {
      "constant": true,
      "inputs": [
        {
          "name": "_proposalId",
          "type": "bytes32"
        },
        {
          "name": "_index",
          "type": "uint256"
        },
        {
          "name": "_voter",
          "type": "address"
        }
      ],
      "name": "readComittedVote",
      "outputs": [
        {
          "name": "_commitHash",
          "type": "bytes32"
        }
      ],
      "payable": false,
      "stateMutability": "view",
      "type": "function"
    },
    {
      "constant": true,
      "inputs": [
        {
          "name": "_proposalId",
          "type": "bytes32"
        },
        {
          "name": "_index",
          "type": "uint256"
        },
        {
          "name": "_voter",
          "type": "address"
        }
      ],
      "name": "readVote",
      "outputs": [
        {
          "name": "_vote",
          "type": "bool"
        },
        {
          "name": "_weight",
          "type": "uint256"
        }
      ],
      "payable": false,
      "stateMutability": "view",
      "type": "function"
    },
    {
      "constant": true,
      "inputs": [],
      "name": "getFirstProposal",
      "outputs": [
        {
          "name": "_id",
          "type": "bytes32"
        }
      ],
      "payable": false,
      "stateMutability": "view",
      "type": "function"
    },
    {
      "constant": true,
      "inputs": [],
      "name": "getLastProposal",
      "outputs": [
        {
          "name": "_id",
          "type": "bytes32"
        }
      ],
      "payable": false,
      "stateMutability": "view",
      "type": "function"
    },
    {
      "constant": true,
      "inputs": [
        {
          "name": "_proposalId",
          "type": "bytes32"
        }
      ],
      "name": "getNextProposal",
      "outputs": [
        {
          "name": "_id",
          "type": "bytes32"
        }
      ],
      "payable": false,
      "stateMutability": "view",
      "type": "function"
    },
    {
      "constant": true,
      "inputs": [
        {
          "name": "_proposalId",
          "type": "bytes32"
        }
      ],
      "name": "getPreviousProposal",
      "outputs": [
        {
          "name": "_id",
          "type": "bytes32"
        }
      ],
      "payable": false,
      "stateMutability": "view",
      "type": "function"
    },
    {
      "constant": true,
      "inputs": [
        {
          "name": "_stateId",
          "type": "bytes32"
        }
      ],
      "name": "getFirstProposalInState",
      "outputs": [
        {
          "name": "_id",
          "type": "bytes32"
        }
      ],
      "payable": false,
      "stateMutability": "view",
      "type": "function"
    },
    {
      "constant": true,
      "inputs": [
        {
          "name": "_stateId",
          "type": "bytes32"
        }
      ],
      "name": "getLastProposalInState",
      "outputs": [
        {
          "name": "_id",
          "type": "bytes32"
        }
      ],
      "payable": false,
      "stateMutability": "view",
      "type": "function"
    },
    {
      "constant": true,
      "inputs": [
        {
          "name": "_stateId",
          "type": "bytes32"
        },
        {
          "name": "_proposalId",
          "type": "bytes32"
        }
      ],
      "name": "getNextProposalInState",
      "outputs": [
        {
          "name": "_id",
          "type": "bytes32"
        }
      ],
      "payable": false,
      "stateMutability": "view",
      "type": "function"
    },
    {
      "constant": true,
      "inputs": [
        {
          "name": "_stateId",
          "type": "bytes32"
        },
        {
          "name": "_proposalId",
          "type": "bytes32"
        }
      ],
      "name": "getPreviousProposalInState",
      "outputs": [
        {
          "name": "_id",
          "type": "bytes32"
        }
      ],
      "payable": false,
      "stateMutability": "view",
      "type": "function"
    },
    {
      "constant": true,
      "inputs": [
        {
          "name": "_proposalId",
          "type": "bytes32"
        },
        {
          "name": "_version",
          "type": "bytes32"
        }
      ],
      "name": "readProposalVersion",
      "outputs": [
        {
          "name": "_doc",
          "type": "bytes32"
        },
        {
          "name": "_created",
          "type": "uint256"
        },
        {
          "name": "_milestoneFundings",
          "type": "uint256[]"
        },
        {
          "name": "_finalReward",
          "type": "uint256"
        }
      ],
      "payable": false,
      "stateMutability": "view",
      "type": "function"
    },
    {
      "constant": true,
      "inputs": [
        {
          "name": "_proposalId",
          "type": "bytes32"
        }
      ],
      "name": "readProposalFunding",
      "outputs": [
        {
          "name": "_fundings",
          "type": "uint256[]"
        },
        {
          "name": "_finalReward",
          "type": "uint256"
        }
      ],
      "payable": false,
      "stateMutability": "view",
      "type": "function"
    },
    {
      "constant": true,
      "inputs": [
        {
          "name": "_proposalId",
          "type": "bytes32"
        },
        {
          "name": "_index",
          "type": "uint256"
        }
      ],
      "name": "readProposalMilestone",
      "outputs": [
        {
          "name": "_funding",
          "type": "uint256"
        }
      ],
      "payable": false,
      "stateMutability": "view",
      "type": "function"
    },
    {
      "constant": true,
      "inputs": [
        {
          "name": "_proposalId",
          "type": "bytes32"
        }
      ],
      "name": "getFirstProposalVersion",
      "outputs": [
        {
          "name": "_version",
          "type": "bytes32"
        }
      ],
      "payable": false,
      "stateMutability": "view",
      "type": "function"
    },
    {
      "constant": true,
      "inputs": [
        {
          "name": "_proposalId",
          "type": "bytes32"
        }
      ],
      "name": "getLastProposalVersion",
      "outputs": [
        {
          "name": "_version",
          "type": "bytes32"
        }
      ],
      "payable": false,
      "stateMutability": "view",
      "type": "function"
    },
    {
      "constant": true,
      "inputs": [
        {
          "name": "_proposalId",
          "type": "bytes32"
        },
        {
          "name": "_version",
          "type": "bytes32"
        }
      ],
      "name": "getNextProposalVersion",
      "outputs": [
        {
          "name": "_nextVersion",
          "type": "bytes32"
        }
      ],
      "payable": false,
      "stateMutability": "view",
      "type": "function"
    },
    {
      "constant": true,
      "inputs": [
        {
          "name": "_proposalId",
          "type": "bytes32"
        },
        {
          "name": "_version",
          "type": "bytes32"
        }
      ],
      "name": "getPreviousProposalVersion",
      "outputs": [
        {
          "name": "_previousVersion",
          "type": "bytes32"
        }
      ],
      "payable": false,
      "stateMutability": "view",
      "type": "function"
    },
    {
      "constant": true,
      "inputs": [
        {
          "name": "_proposalId",
          "type": "bytes32"
        }
      ],
      "name": "isDraftClaimed",
      "outputs": [
        {
          "name": "_claimed",
          "type": "bool"
        }
      ],
      "payable": false,
      "stateMutability": "view",
      "type": "function"
    },
    {
      "constant": true,
      "inputs": [
        {
          "name": "_proposalId",
          "type": "bytes32"
        },
        {
          "name": "_index",
          "type": "uint256"
        }
      ],
      "name": "isClaimed",
      "outputs": [
        {
          "name": "_claimed",
          "type": "bool"
        }
      ],
      "payable": false,
      "stateMutability": "view",
      "type": "function"
    },
    {
      "constant": true,
      "inputs": [
        {
          "name": "_proposalId",
          "type": "bytes32"
        }
      ],
      "name": "readProposalCollateralStatus",
      "outputs": [
        {
          "name": "_status",
          "type": "uint256"
        }
      ],
      "payable": false,
      "stateMutability": "view",
      "type": "function"
    },
    {
      "constant": true,
      "inputs": [
        {
          "name": "_proposalId",
          "type": "bytes32"
        }
      ],
      "name": "readProposalCollateralAmount",
      "outputs": [
        {
          "name": "_amount",
          "type": "uint256"
        }
      ],
      "payable": false,
      "stateMutability": "view",
      "type": "function"
    },
    {
      "constant": true,
      "inputs": [
        {
          "name": "_proposalId",
          "type": "bytes32"
        }
      ],
      "name": "readProposalDocs",
      "outputs": [
        {
          "name": "_moreDocs",
          "type": "bytes32[]"
        }
      ],
      "payable": false,
      "stateMutability": "view",
      "type": "function"
    },
    {
      "constant": true,
      "inputs": [
        {
          "name": "_proposalId",
          "type": "bytes32"
        },
        {
          "name": "_milestoneId",
          "type": "uint256"
        }
      ],
      "name": "readIfMilestoneFunded",
      "outputs": [
        {
          "name": "_funded",
          "type": "bool"
        }
      ],
      "payable": false,
      "stateMutability": "view",
      "type": "function"
    },
    {
      "constant": false,
      "inputs": [
        {
          "name": "_doc",
          "type": "bytes32"
        },
        {
          "name": "_proposer",
          "type": "address"
        },
        {
          "name": "_milestoneFundings",
          "type": "uint256[]"
        },
        {
          "name": "_finalReward",
          "type": "uint256"
        },
        {
          "name": "_isFounder",
          "type": "bool"
        }
      ],
      "name": "addProposal",
      "outputs": [],
      "payable": false,
      "stateMutability": "nonpayable",
      "type": "function"
    },
    {
      "constant": false,
      "inputs": [
        {
          "name": "_proposalId",
          "type": "bytes32"
        },
        {
          "name": "_newDoc",
          "type": "bytes32"
        },
        {
          "name": "_newMilestoneFundings",
          "type": "uint256[]"
        },
        {
          "name": "_finalReward",
          "type": "uint256"
        }
      ],
      "name": "editProposal",
      "outputs": [],
      "payable": false,
      "stateMutability": "nonpayable",
      "type": "function"
    },
    {
      "constant": false,
      "inputs": [
        {
          "name": "_proposalId",
          "type": "bytes32"
        },
        {
          "name": "_newMilestoneFundings",
          "type": "uint256[]"
        },
        {
          "name": "_finalReward",
          "type": "uint256"
        }
      ],
      "name": "changeFundings",
      "outputs": [],
      "payable": false,
      "stateMutability": "nonpayable",
      "type": "function"
    },
    {
      "constant": false,
      "inputs": [
        {
          "name": "_proposalId",
          "type": "bytes32"
        },
        {
          "name": "_newDoc",
          "type": "bytes32"
        }
      ],
      "name": "addProposalDoc",
      "outputs": [],
      "payable": false,
      "stateMutability": "nonpayable",
      "type": "function"
    },
    {
      "constant": false,
      "inputs": [
        {
          "name": "_proposalId",
          "type": "bytes32"
        }
      ],
      "name": "finalizeProposal",
      "outputs": [],
      "payable": false,
      "stateMutability": "nonpayable",
      "type": "function"
    },
    {
      "constant": false,
      "inputs": [
        {
          "name": "_proposalId",
          "type": "bytes32"
        },
        {
          "name": "_endorser",
          "type": "address"
        }
      ],
      "name": "updateProposalEndorse",
      "outputs": [],
      "payable": false,
      "stateMutability": "nonpayable",
      "type": "function"
    },
    {
      "constant": false,
      "inputs": [
        {
          "name": "_proposalId",
          "type": "bytes32"
        },
        {
          "name": "_result",
          "type": "bool"
        }
      ],
      "name": "setProposalDraftPass",
      "outputs": [],
      "payable": false,
      "stateMutability": "nonpayable",
      "type": "function"
    },
    {
      "constant": false,
      "inputs": [
        {
          "name": "_proposalId",
          "type": "bytes32"
        },
        {
          "name": "_index",
          "type": "uint256"
        },
        {
          "name": "_result",
          "type": "bool"
        }
      ],
      "name": "setProposalPass",
      "outputs": [],
      "payable": false,
      "stateMutability": "nonpayable",
      "type": "function"
    },
    {
      "constant": false,
      "inputs": [
        {
          "name": "_proposalId",
          "type": "bytes32"
        },
        {
          "name": "_time",
          "type": "uint256"
        }
      ],
      "name": "setProposalDraftVotingTime",
      "outputs": [],
      "payable": false,
      "stateMutability": "nonpayable",
      "type": "function"
    },
    {
      "constant": false,
      "inputs": [
        {
          "name": "_proposalId",
          "type": "bytes32"
        },
        {
          "name": "_index",
          "type": "uint256"
        },
        {
          "name": "_time",
          "type": "uint256"
        }
      ],
      "name": "setProposalVotingTime",
      "outputs": [],
      "payable": false,
      "stateMutability": "nonpayable",
      "type": "function"
    },
    {
      "constant": false,
      "inputs": [
        {
          "name": "_proposalId",
          "type": "bytes32"
        },
        {
          "name": "_claimed",
          "type": "bool"
        }
      ],
      "name": "setDraftVotingClaim",
      "outputs": [],
      "payable": false,
      "stateMutability": "nonpayable",
      "type": "function"
    },
    {
      "constant": false,
      "inputs": [
        {
          "name": "_proposalId",
          "type": "bytes32"
        },
        {
          "name": "_index",
          "type": "uint256"
        },
        {
          "name": "_claimed",
          "type": "bool"
        }
      ],
      "name": "setVotingClaim",
      "outputs": [],
      "payable": false,
      "stateMutability": "nonpayable",
      "type": "function"
    },
    {
      "constant": false,
      "inputs": [
        {
          "name": "_proposalId",
          "type": "bytes32"
        },
        {
          "name": "_status",
          "type": "uint256"
        }
      ],
      "name": "setProposalCollateralStatus",
      "outputs": [],
      "payable": false,
      "stateMutability": "nonpayable",
      "type": "function"
    },
    {
      "constant": false,
      "inputs": [
        {
          "name": "_proposalId",
          "type": "bytes32"
        },
        {
          "name": "_amount",
          "type": "uint256"
        }
      ],
      "name": "setProposalCollateralAmount",
      "outputs": [],
      "payable": false,
      "stateMutability": "nonpayable",
      "type": "function"
    },
    {
      "constant": false,
      "inputs": [
        {
          "name": "_proposalId",
          "type": "bytes32"
        },
        {
          "name": "_action",
          "type": "uint256"
        },
        {
          "name": "_doc",
          "type": "bytes32"
        },
        {
          "name": "_time",
          "type": "uint256"
        }
      ],
      "name": "updateProposalPRL",
      "outputs": [],
      "payable": false,
      "stateMutability": "nonpayable",
      "type": "function"
    },
    {
      "constant": false,
      "inputs": [
        {
          "name": "_proposalId",
          "type": "bytes32"
        },
        {
          "name": "_voter",
          "type": "address"
        },
        {
          "name": "_vote",
          "type": "bool"
        },
        {
          "name": "_weight",
          "type": "uint256"
        }
      ],
      "name": "addDraftVote",
      "outputs": [],
      "payable": false,
      "stateMutability": "nonpayable",
      "type": "function"
    },
    {
      "constant": false,
      "inputs": [
        {
          "name": "_proposalId",
          "type": "bytes32"
        },
        {
          "name": "_hash",
          "type": "bytes32"
        },
        {
          "name": "_voter",
          "type": "address"
        },
        {
          "name": "_index",
          "type": "uint256"
        }
      ],
      "name": "commitVote",
      "outputs": [],
      "payable": false,
      "stateMutability": "nonpayable",
      "type": "function"
    },
    {
      "constant": false,
      "inputs": [
        {
          "name": "_proposalId",
          "type": "bytes32"
        },
        {
          "name": "_voter",
          "type": "address"
        },
        {
          "name": "_vote",
          "type": "bool"
        },
        {
          "name": "_weight",
          "type": "uint256"
        },
        {
          "name": "_index",
          "type": "uint256"
        }
      ],
      "name": "revealVote",
      "outputs": [],
      "payable": false,
      "stateMutability": "nonpayable",
      "type": "function"
    },
    {
      "constant": false,
      "inputs": [
        {
          "name": "_quarterIndex",
          "type": "uint256"
        }
      ],
      "name": "addNonDigixProposalCountInQuarter",
      "outputs": [],
      "payable": false,
      "stateMutability": "nonpayable",
      "type": "function"
    },
    {
      "constant": false,
      "inputs": [
        {
          "name": "_proposalId",
          "type": "bytes32"
        }
      ],
      "name": "closeProposal",
      "outputs": [],
      "payable": false,
      "stateMutability": "nonpayable",
      "type": "function"
    },
    {
      "constant": false,
      "inputs": [
        {
          "name": "_proposalId",
          "type": "bytes32"
        },
        {
          "name": "_milestoneId",
          "type": "uint256"
        }
      ],
      "name": "setMilestoneFunded",
      "outputs": [],
      "payable": false,
      "stateMutability": "nonpayable",
      "type": "function"
    }
  ],
  "bytecode": "0x608060405260006001026003906000191690556000600460006101000a81548173ffffffffffffffffffffffffffffffffffffffff021916908373ffffffffffffffffffffffffffffffffffffffff1602179055507f70726f706f73616c5f73746174655f70726570726f706f73616c0000000000006005906000191690557f70726f706f73616c5f73746174655f64726166740000000000000000000000006006906000191690557f70726f706f73616c5f73746174655f6d6f6465726174656400000000000000006007906000191690557f70726f706f73616c5f73746174655f6f6e676f696e67000000000000000000006008906000191690557f70726f706f73616c5f73746174655f636c6f73656400000000000000000000006009906000191690556001600a556002600b556003600c556001600d556002600e556003600f557f696e7465725f6467645f696400000000000000000000000000000000000000006010906000191690557f696e7465725f6d6f645f6467645f6964000000000000000000000000000000006011906000191690557f696e7465725f626f6e75735f63616c63756c6174696f6e5f69640000000000006012906000191690557f64616f00000000000000000000000000000000000000000000000000000000006013906000191690557f64616f3a7370656369616c3a70726f706f73616c0000000000000000000000006014906000191690557f64616f3a7374616b652d6c6f636b696e670000000000000000000000000000006015906000191690557f64616f3a766f74696e67000000000000000000000000000000000000000000006016906000191690557f64616f3a766f74696e673a636c61696d730000000000000000000000000000006017906000191690557f64616f3a73766f74696e673a636c61696d7300000000000000000000000000006018906000191690557f64616f3a6964656e7469747900000000000000000000000000000000000000006019906000191690557f64616f3a726577617264732d6d616e6167657200000000000000000000000000601a906000191690557f64616f3a726577617264732d6578747261730000000000000000000000000000601b906000191690557f64616f3a726f6c65730000000000000000000000000000000000000000000000601c906000191690557f64616f3a66756e64696e672d6d616e6167657200000000000000000000000000601d906000191690557f64616f3a77686974656c697374696e6700000000000000000000000000000000601e906000191690557f736572766963653a726f6c650000000000000000000000000000000000000000601f906000191690557f736572766963653a64616f3a696e666f000000000000000000000000000000006020906000191690557f736572766963653a64616f3a6c697374696e67000000000000000000000000006021906000191690557f736572766963653a64616f3a63616c63756c61746f72000000000000000000006022906000191690557f73746f726167653a64616f0000000000000000000000000000000000000000006023906000191690557f73746f726167653a64616f3a75706772616465000000000000000000000000006024906000191690557f73746f726167653a64616f3a6964656e746974790000000000000000000000006025906000191690557f73746f726167653a64616f3a706f696e747300000000000000000000000000006026906000191690557f73746f726167653a64616f3a7370656369616c000000000000000000000000006027906000191690557f73746f726167653a64616f3a636f6e66696700000000000000000000000000006028906000191690557f73746f726167653a64616f3a7374616b650000000000000000000000000000006029906000191690557f73746f726167653a64616f3a66756e64696e6700000000000000000000000000602a906000191690557f73746f726167653a64616f3a7265776172647300000000000000000000000000602b906000191690557f73746f726167653a64616f3a77686974656c697374696e670000000000000000602c906000191690557f73746f726167653a696e7465726d6564696174653a726573756c747300000000602d906000191690557f73746f726167653a64616f3a636f6c6c61746572616c00000000000000000000602e906000191690557f743a646764000000000000000000000000000000000000000000000000000000602f906000191690557f743a6467780000000000000000000000000000000000000000000000000000006030906000191690557f743a6261646765000000000000000000000000000000000000000000000000006031906000191690556001603260006101000a81548160ff021916908360ff1602179055506002603260016101000a81548160ff021916908360ff1602179055506003603260026101000a81548160ff021916908360ff1602179055506004603260036101000a81548160ff021916908360ff1602179055506276a7006033557f6d696e5f6467645f7061727469636970616e74000000000000000000000000006034906000191690557f6d696e5f6467645f6d6f64657261746f720000000000000000000000000000006035906000191690557f6d696e5f72657075746174696f6e5f6d6f64657261746f7200000000000000006036906000191690557f6c6f636b696e675f70686173655f6475726174696f6e000000000000000000006037906000191690557f717561727465725f6475726174696f6e000000000000000000000000000000006038906000191690557f766f74696e675f636f6d6d69745f7068617365000000000000000000000000006039906000191690557f766f74696e675f70686173655f746f74616c0000000000000000000000000000603a906000191690557f696e746572696d5f766f74696e675f636f6d6d69745f70686173650000000000603b906000191690557f696e746572696d5f766f74696e675f70686173655f746f74616c000000000000603c906000191690557f64726166745f71756f72756d5f66697865645f6e756d657261746f7200000000603d906000191690557f64726166745f71756f72756d5f66697865645f64656e6f6d696e61746f720000603e906000191690557f64726166745f71756f72756d5f73666163746f725f6e756d657261746f720000603f906000191690557f64726166745f71756f72756d5f73666163746f725f64656e6f6d696e61746f726040906000191690557f766f74655f71756f72756d5f66697865645f6e756d657261746f7200000000006041906000191690557f766f74655f71756f72756d5f66697865645f64656e6f6d696e61746f720000006042906000191690557f766f74655f71756f72756d5f73666163746f725f6e756d657261746f720000006043906000191690557f766f74655f71756f72756d5f73666163746f725f64656e6f6d696e61746f72006044906000191690557f66696e616c5f7265776172645f73666163746f725f6e756d657261746f7200006045906000191690557f66696e616c5f7265776172645f73666163746f725f64656e6f6d696e61746f726046906000191690557f64726166745f71756f74615f6e756d657261746f7200000000000000000000006047906000191690557f64726166745f71756f74615f64656e6f6d696e61746f720000000000000000006048906000191690557f766f74696e675f71756f74615f6e756d657261746f72000000000000000000006049906000191690557f766f74696e675f71756f74615f64656e6f6d696e61746f720000000000000000604a906000191690557f6d696e696d616c5f717000000000000000000000000000000000000000000000604b906000191690557f717561727465725f706f696e745f7363616c696e675f666163746f7200000000604c906000191690557f7265705f706f696e745f7363616c696e675f666163746f720000000000000000604d906000191690557f6d696e696d616c5f6d6f645f7170000000000000000000000000000000000000604e906000191690557f6d6f645f71705f7363616c696e675f666163746f720000000000000000000000604f906000191690557f6d6f645f7265705f706f696e745f7363616c696e675f666163746f72000000006050906000191690557f717561727465725f706f696e745f64726166745f766f746500000000000000006051906000191690557f717561727465725f706f696e745f766f746500000000000000000000000000006052906000191690557f717561727465725f706f696e745f696e746572696d5f766f74650000000000006053906000191690557f717561727465725f706f696e745f636c61696d5f726573756c740000000000006054906000191690557f715f705f6d696c6573746f6e655f636f6d706c6574696f6e00000000000000006055906000191690557f626f6e75735f72657075746174696f6e5f6e756d657261746f720000000000006056906000191690557f626f6e75735f72657075746174696f6e5f64656e6f6d696e61746f72000000006057906000191690557f7370656369616c5f70726f706f73616c5f636f6d6d69745f70686173650000006058906000191690557f7370656369616c5f70726f706f73616c5f70686173655f746f74616c000000006059906000191690557f636f6e6669675f7370656369616c5f71756f74615f6e756d657261746f720000605a906000191690557f636f6e6669675f7370656369616c5f71756f74615f64656e6f6d696e61746f72605b906000191690557f7370656369616c5f71756f72756d5f6e756d657261746f720000000000000000605c906000191690557f7370656369616c5f71756f72756d5f64656e6f6d696e61746f72000000000000605d906000191690557f636f6e6669675f6d61785f72657075746174696f6e5f646564756374696f6e00605e906000191690557f636f6e6669675f70756e6973686d656e745f6e6f745f6c6f636b696e67000000605f906000191690557f636f6e6669675f7265705f7065725f65787472615f71705f6e756d00000000006060906000191690557f636f6e6669675f7265705f7065725f65787472615f71705f64656e00000000006061906000191690557f636f6e6669675f6d61785f6d5f72705f646564756374696f6e000000000000006062906000191690557f636f6e6669675f7265705f7065725f65787472615f6d5f71705f6e756d0000006063906000191690557f636f6e6669675f7265705f7065725f65787472615f6d5f71705f64656e0000006064906000191690557f636f6e6669675f6d6f645f706f7274696f6e5f6e756d000000000000000000006065906000191690557f636f6e6669675f6d6f645f706f7274696f6e5f64656e000000000000000000006066906000191690557f636f6e6669675f64726166745f766f74696e675f7068617365000000000000006067906000191690557f636f6e6669675f72705f626f6f73745f7065725f6261646765000000000000006068906000191690557f636f6e6669675f636c61696d696e675f646561646c696e6500000000000000006069906000191690557f636f6e6669675f70726570726f706f73616c5f6465706f736974000000000000606a906000191690557f636f6e6669675f6d61785f66756e64696e675f6e6f6e44696769780000000000606b906000191690557f636f6e6669675f6d61785f6d696c6573746f6e65735f6e6f6e44696769780000606c906000191690557f636f6e6669675f6e6f6e44696769785f70726f706f73616c5f63617000000000606d906000191690557f636f6e6669675f646561645f6475726174696f6e000000000000000000000000606e906000191690557f636f6e6669675f63765f72657075746174696f6e000000000000000000000000606f906000191690553480156200113457600080fd5b50604051602080620060ac83398101806040528101908080519060200190929190505050620011756023548262001188640100000000026401000000009004565b15156200118157600080fd5b5062001419565b6000808273ffffffffffffffffffffffffffffffffffffffff1663cf3090126040518163ffffffff167c0100000000000000000000000000000000000000000000000000000000028152600401602060405180830381600087803b158015620011f057600080fd5b505af115801562001205573d6000803e3d6000fd5b505050506040513d60208110156200121c57600080fd5b810190808051906020019092919050505090506000151581151514156200140d5730600260006101000a81548173ffffffffffffffffffffffffffffffffffffffff021916908373ffffffffffffffffffffffffffffffffffffffff160217905550826000806101000a81548173ffffffffffffffffffffffffffffffffffffffff021916908373ffffffffffffffffffffffffffffffffffffffff16021790555083600181600019169055506000809054906101000a900473ffffffffffffffffffffffffffffffffffffffff1673ffffffffffffffffffffffffffffffffffffffff1663c0f6ef4a600154600260009054906101000a900473ffffffffffffffffffffffffffffffffffffffff166040518363ffffffff167c01000000000000000000000000000000000000000000000000000000000281526004018083600019166000191681526020018273ffffffffffffffffffffffffffffffffffffffff1673ffffffffffffffffffffffffffffffffffffffff16815260200192505050602060405180830381600087803b158015620013ba57600080fd5b505af1158015620013cf573d6000803e3d6000fd5b505050506040513d6020811015620013e657600080fd5b810190808051906020019092919050505015156200140357600080fd5b6001915062001412565b600091505b5092915050565b614c8380620014296000396000f3006080604052600436106102d5576000357c0100000000000000000000000000000000000000000000000000000000900463ffffffff16806303020ea9146102da57806304f3bcec1461038b578063078f872c146103e25780630bcaa451146104135780630c012e59146104665780630ec8f125146104b35780631478fff1146104fc578063198c6e24146105575780631d2103d1146105985780631d47c3d3146106125780631ea5d62f1461065f578063237286e9146106a657806327618ad9146106f357806327a9bb0e146107305780632fd010da1461076b578063344e436e146107d25780633943380c14610817578063395ddde91461084a5780633a85b822146108935780633be88369146108e25780633e020d2f146109275780633f83acff1461096e57806341a71589146109df57806347d0da1414610a3257806347d621a314610a6357806349a428d014610abe5780634c5b318a14610b035780635552f20014610b4857806356674c9f14610b7557806358cec13914610bd0578063598f0eaf14610c395780635b712eb614610cb057806370a6f59114610d215780637246d5a714610d6e5780637aafacae14610dfb57806382e445c614610e6057806385f5276f14610e9d5780638a2d659714610ef0578063a1d444a414610f2b578063a1e55acf14610fd5578063a6129f8c1461106e578063a692e0ef146110df578063ac443d9f1461113a578063baf426601461118b578063bb3b5f6d146111da578063c004b7de14611269578063c3093bb1146112bc578063c362c7901461133a578063cfd5917214611375578063d8d50179146113a8578063db4ecbc1146114ac578063de233e4214611503578063e14b2c2614611589578063e3f3f7a2146115f9578063e415667514611634578063e7853aac14611681578063e81362fe146116ce578063eb82718a146117b4578063eef7b8f5146117f9578063f0ab3dd914611838578063ffec1b211461186b575b600080fd5b3480156102e657600080fd5b50610317600480360381019080803560001916906020019092919080356000191690602001909291905050506118f7565b60405180856000191660001916815260200184815260200180602001838152602001828103825284818151815260200191508051906020019060200280838360005b83811015610374578082015181840152602081019050610359565b505050509050019550505050505060405180910390f35b34801561039757600080fd5b506103a0611a64565b604051808273ffffffffffffffffffffffffffffffffffffffff1673ffffffffffffffffffffffffffffffffffffffff16815260200191505060405180910390f35b3480156103ee57600080fd5b506104116004803603810190808035600019169060200190929190505050611a89565b005b34801561041f57600080fd5b5061044c600480360381019080803560001916906020019092919080359060200190929190505050611aab565b604051808215151515815260200191505060405180910390f35b34801561047257600080fd5b506104956004803603810190808035600019169060200190929190505050611b09565b60405180826000191660001916815260200191505060405180910390f35b3480156104bf57600080fd5b506104e26004803603810190808035600019169060200190929190505050611b3d565b604051808215151515815260200191505060405180910390f35b34801561050857600080fd5b5061053960048036038101908080356000191690602001909291908035600019169060200190929190505050611b89565b60405180826000191660001916815260200191505060405180910390f35b34801561056357600080fd5b5061058260048036038101908080359060200190929190505050611bcb565b6040518082815260200191505060405180910390f35b3480156105a457600080fd5b506105f1600480360381019080803560001916906020019092919080359060200190929190803573ffffffffffffffffffffffffffffffffffffffff169060200190929190505050611be3565b60405180831515151581526020018281526020019250505060405180910390f35b34801561061e57600080fd5b506106416004803603810190808035600019169060200190929190505050611d19565b60405180826000191660001916815260200191505060405180910390f35b34801561066b57600080fd5b506106a4600480360381019080803560001916906020019092919080359060200190929190803515159060200190929190505050611d59565b005b3480156106b257600080fd5b506106d56004803603810190808035600019169060200190929190505050611fb1565b60405180826000191660001916815260200191505060405180910390f35b3480156106ff57600080fd5b5061072e6004803603810190808035600019169060200190929190803515159060200190929190505050611fc5565b005b34801561073c57600080fd5b50610769600480360381019080803560001916906020019092919080359060200190929190505050612018565b005b34801561077757600080fd5b506107d06004803603810190808035600019169060200190929190803573ffffffffffffffffffffffffffffffffffffffff1690602001909291908035151590602001909291908035906020019092919050505061207d565b005b3480156107de57600080fd5b5061081560048036038101908080356000191690602001909291908035906020019092919080359060200190929190505050612287565b005b34801561082357600080fd5b5061082c612310565b60405180826000191660001916815260200191505060405180910390f35b34801561085657600080fd5b506108796004803603810190808035600019169060200190929190505050612316565b604051808215151515815260200191505060405180910390f35b34801561089f57600080fd5b506108cc60048036038101908080356000191690602001909291908035906020019092919050505061234e565b6040518082815260200191505060405180910390f35b3480156108ee57600080fd5b506109116004803603810190808035600019169060200190929190505050612436565b6040518082815260200191505060405180910390f35b34801561093357600080fd5b5061096c600480360381019080803560001916906020019092919080359060200190929190803515159060200190929190505050612472565b005b34801561097a57600080fd5b5061099d60048036038101908080356000191690602001909291905050506124d7565b604051808273ffffffffffffffffffffffffffffffffffffffff1673ffffffffffffffffffffffffffffffffffffffff16815260200191505060405180910390f35b3480156109eb57600080fd5b50610a186004803603810190808035600019169060200190929190803590602001909291905050506125b3565b604051808215151515815260200191505060405180910390f35b348015610a3e57600080fd5b50610a616004803603810190808035600019169060200190929190505050612611565b005b348015610a6f57600080fd5b50610aa060048036038101908080356000191690602001909291908035600019169060200190929190505050612659565b60405180826000191660001916815260200191505060405180910390f35b348015610aca57600080fd5b50610aed600480360381019080803560001916906020019092919050505061268f565b6040518082815260200191505060405180910390f35b348015610b0f57600080fd5b50610b3260048036038101908080356000191690602001909291905050506126ba565b6040518082815260200191505060405180910390f35b348015610b5457600080fd5b50610b73600480360381019080803590602001909291905050506126e5565b005b348015610b8157600080fd5b50610bb26004803603810190808035600019169060200190929190803560001916906020019092919050505061273c565b60405180826000191660001916815260200191505060405180910390f35b348015610bdc57600080fd5b50610c3760048036038101908080356000191690602001909291908035600019169060200190929190803573ffffffffffffffffffffffffffffffffffffffff16906020019092919080359060200190929190505050612772565b005b348015610c4557600080fd5b50610c92600480360381019080803560001916906020019092919080359060200190929190803573ffffffffffffffffffffffffffffffffffffffff169060200190929190505050612806565b60405180826000191660001916815260200191505060405180910390f35b348015610cbc57600080fd5b50610cdf6004803603810190808035600019169060200190929190505050612895565b604051808273ffffffffffffffffffffffffffffffffffffffff1673ffffffffffffffffffffffffffffffffffffffff16815260200191505060405180910390f35b348015610d2d57600080fd5b50610d5060048036038101908080356000191690602001909291905050506128dd565b60405180826000191660001916815260200191505060405180910390f35b348015610d7a57600080fd5b50610d9d60048036038101908080356000191690602001909291905050506128f1565b6040518080602001838152602001828103825284818151815260200191508051906020019060200280838360005b83811015610de6578082015181840152602081019050610dcb565b50505050905001935050505060405180910390f35b348015610e0757600080fd5b50610e34600480360381019080803560001916906020019092919080359060200190929190505050612a12565b604051808481526020018381526020018260001916600019168152602001935050505060405180910390f35b348015610e6c57600080fd5b50610e9b6004803603810190808035600019169060200190929190803515159060200190929190505050612b27565b005b348015610ea957600080fd5b50610ed6600480360381019080803560001916906020019092919080359060200190929190505050612d62565b604051808215151515815260200191505060405180910390f35b348015610efc57600080fd5b50610f29600480360381019080803560001916906020019092919080359060200190929190505050612dac565b005b348015610f3757600080fd5b50610fd36004803603810190808035600019169060200190929190803573ffffffffffffffffffffffffffffffffffffffff1690602001909291908035906020019082018035906020019080806020026020016040519081016040528093929190818152602001838360200280828437820191505050505050919291929080359060200190929190803515159060200190929190505050612de9565b005b348015610fe157600080fd5b506110516004803603810190808035600019169060200190929190803590602001909291908035906020019082018035906020019080806020026020016040519081016040528093929190818152602001838360200280828437820191505050505050919291929050505061319b565b604051808381526020018281526020019250505060405180910390f35b34801561107a57600080fd5b506110dd6004803603810190808035600019169060200190929190803573ffffffffffffffffffffffffffffffffffffffff16906020019092919080351515906020019092919080359060200190929190803590602001909291905050506132e6565b005b3480156110eb57600080fd5b5061111c600480360381019080803560001916906020019092919080356000191690602001909291905050506133fe565b60405180826000191660001916815260200191505060405180910390f35b34801561114657600080fd5b506111896004803603810190808035600019169060200190929190803573ffffffffffffffffffffffffffffffffffffffff169060200190929190505050613440565b005b34801561119757600080fd5b506111c4600480360381019080803560001916906020019092919080359060200190929190505050613676565b6040518082815260200191505060405180910390f35b3480156111e657600080fd5b5061124c6004803603810190808035600019169060200190929190803590602001908201803590602001908080602002602001604051908101604052809392919081815260200183836020028082843782019150505050505091929192905050506136c7565b604051808381526020018281526020019250505060405180910390f35b34801561127557600080fd5b506112ba600480360381019080803560001916906020019092919080359060200190929190803560001916906020019092919080359060200190929190505050613800565b005b3480156112c857600080fd5b506113386004803603810190808035600019169060200190929190803590602001908201803590602001908080602002602001604051908101604052809392919081815260200183836020028082843782019150505050505091929192908035906020019092919050505061398c565b005b34801561134657600080fd5b50611373600480360381019080803560001916906020019092919080359060200190929190505050613a72565b005b34801561138157600080fd5b5061138a613ae6565b60405180826000191660001916815260200191505060405180910390f35b3480156113b457600080fd5b506113d76004803603810190808035600019169060200190929190505050613af7565b604051808b600019166000191681526020018a73ffffffffffffffffffffffffffffffffffffffff1673ffffffffffffffffffffffffffffffffffffffff1681526020018973ffffffffffffffffffffffffffffffffffffffff1673ffffffffffffffffffffffffffffffffffffffff16815260200188600019166000191681526020018781526020018681526020018560001916600019168152602001846000191660001916815260200183151515158152602001821515151581526020019a505050505050505050505060405180910390f35b3480156114b857600080fd5b506114c1613bf5565b604051808273ffffffffffffffffffffffffffffffffffffffff1673ffffffffffffffffffffffffffffffffffffffff16815260200191505060405180910390f35b34801561150f57600080fd5b506115326004803603810190808035600019169060200190929190505050613c1b565b6040518080602001828103825283818151815260200191508051906020019060200280838360005b8381101561157557808201518184015260208101905061155a565b505050509050019250505060405180910390f35b34801561159557600080fd5b506115d86004803603810190808035600019169060200190929190803573ffffffffffffffffffffffffffffffffffffffff169060200190929190505050613cee565b60405180831515151581526020018281526020019250505060405180910390f35b34801561160557600080fd5b50611632600480360381019080803560001916906020019092919080359060200190929190505050613e12565b005b34801561164057600080fd5b506116636004803603810190808035600019169060200190929190505050613e52565b60405180826000191660001916815260200191505060405180910390f35b34801561168d57600080fd5b506116b06004803603810190808035600019169060200190929190505050613e86565b60405180826000191660001916815260200191505060405180910390f35b3480156116da57600080fd5b5061175660048036038101908080356000191690602001909291908035906020019092919080359060200190820180359060200190808060200260200160405190810160405280939291908181526020018383602002808284378201915050505050509192919290803515159060200190929190505050613ec6565b6040518080602001838152602001828103825284818151815260200191508051906020019060200280838360005b8381101561179f578082015181840152602081019050611784565b50505050905001935050505060405180910390f35b3480156117c057600080fd5b506117e36004803603810190808035600019169060200190929190505050614079565b6040518082815260200191505060405180910390f35b34801561180557600080fd5b50611836600480360381019080803560001916906020019092919080356000191690602001909291905050506140a1565b005b34801561184457600080fd5b5061184d614162565b60405180826000191660001916815260200191505060405180910390f35b34801561187757600080fd5b506118f5600480360381019080803560001916906020019092919080356000191690602001909291908035906020019082018035906020019080806020026020016040519081016040528093929190818152602001838360200280828437820191505050505050919291929080359060200190929190505050614173565b005b60008060606000607660008760001916600019168152602001908152602001600020600b016000866000191660001916815260200190815260200160002073__DaoStructs____________________________6310d31f6490916040518263ffffffff167c01000000000000000000000000000000000000000000000000000000000281526004018082815260200191505060006040518083038186803b1580156119a157600080fd5b505af41580156119b5573d6000803e3d6000fd5b505050506040513d6000823e3d601f19601f8201168201806040525060808110156119df57600080fd5b8101908080519060200190929190805190602001909291908051640100000000811115611a0b57600080fd5b82810190506020810184811115611a2157600080fd5b8151856020820283011164010000000082111715611a3e57600080fd5b505092919060200180519060200190929190505050935093509350935092959194509250565b6000809054906101000a900473ffffffffffffffffffffffffffffffffffffffff1681565b611a9460135461428f565b1515611a9f57600080fd5b611aa881614399565b50565b6000611ab633614591565b1515611ac157600080fd5b607660008460001916600019168152602001908152602001600020601201600083815260200190815260200160002060050160009054906101000a900460ff16905092915050565b6000806076600084600019166000191681526020019081526020016000209050611b3581600501614688565b915050919050565b6000611b4833614591565b1515611b5357600080fd5b607660008360001916600019168152602001908152602001600020600c0160050160009054906101000a900460ff169050919050565b6000611b9433614591565b1515611b9f57600080fd5b611bc360776000856000191660001916815260200190815260200160002083614739565b905092915050565b60786020528060005260406000206000915090505481565b600080611bef33614591565b1515611bfa57600080fd5b607660008660001916600019168152602001908152602001600020601201600085815260200190815260200160002073__DaoStructs____________________________634bf150b99091856040518363ffffffff167c0100000000000000000000000000000000000000000000000000000000028152600401808381526020018273ffffffffffffffffffffffffffffffffffffffff1673ffffffffffffffffffffffffffffffffffffffff16815260200192505050604080518083038186803b158015611cc857600080fd5b505af4158015611cdc573d6000803e3d6000fd5b505050506040513d6040811015611cf257600080fd5b81019080805190602001909291908051906020019092919050505091509150935093915050565b6000611d2433614591565b1515611d2f57600080fd5b611d52607760008460001916600019168152602001908152602001600020614688565b9050919050565b611d6460175461428f565b1515611d6f57600080fd5b801515611d8457611d7f83614399565b611f62565b6000821415611f6157607760006007546000191660001916815260200190815260200160002073__DoublyLinkedList______________________6352c6bbf49091856040518363ffffffff167c01000000000000000000000000000000000000000000000000000000000281526004018083815260200182600019166000191681526020019250505060206040518083038186803b158015611e2657600080fd5b505af4158015611e3a573d6000803e3d6000fd5b505050506040513d6020811015611e5057600080fd5b810190808051906020019092919050505050607760006008546000191660001916815260200190815260200160002073__DoublyLinkedList______________________63582f30b49091856040518363ffffffff167c01000000000000000000000000000000000000000000000000000000000281526004018083815260200182600019166000191681526020019250505060206040518083038186803b158015611efb57600080fd5b505af4158015611f0f573d6000803e3d6000fd5b505050506040513d6020811015611f2557600080fd5b81019080805190602001909291905050505060085460766000856000191660001916815260200190815260200160002060030181600019169055505b5b80607660008560001916600019168152602001908152602001600020601201600084815260200190815260200160002060050160006101000a81548160ff021916908315150217905550505050565b6000611fbe6070836147fb565b9050919050565b611fd060175461428f565b1515611fdb57600080fd5b80607660008460001916600019168152602001908152602001600020600c0160050160016101000a81548160ff0219169083151502179055505050565b612023601d5461428f565b151561202e57600080fd5b6001607660008460001916600019168152602001908152602001600020601201600083815260200190815260200160002060050160026101000a81548160ff0219169083151502179055505050565b600061208a60165461428f565b151561209557600080fd5b6076600086600019166000191681526020019081526020016000209050821561219e578181600c0160030160008673ffffffffffffffffffffffffffffffffffffffff1673ffffffffffffffffffffffffffffffffffffffff16815260200190815260200160002081905550600081600c0160040160008673ffffffffffffffffffffffffffffffffffffffff1673ffffffffffffffffffffffffffffffffffffffff16815260200190815260200160002054111561219957600081600c0160040160008673ffffffffffffffffffffffffffffffffffffffff1673ffffffffffffffffffffffffffffffffffffffff168152602001908152602001600020819055505b612280565b8181600c0160040160008673ffffffffffffffffffffffffffffffffffffffff1673ffffffffffffffffffffffffffffffffffffffff16815260200190815260200160002081905550600081600c0160030160008673ffffffffffffffffffffffffffffffffffffffff1673ffffffffffffffffffffffffffffffffffffffff16815260200190815260200160002054111561227f57600081600c0160030160008673ffffffffffffffffffffffffffffffffffffffff1673ffffffffffffffffffffffffffffffffffffffff168152602001908152602001600020819055505b5b5050505050565b6122c9606060405190810160405280601354600019166000191681526020016017546000191660001916815260200160035460001916600019168152506148bd565b15156122d457600080fd5b80607660008560001916600019168152602001908152602001600020601201600084815260200190815260200160002060000181905550505050565b60015481565b6000607660008360001916600019168152602001908152602001600020600c0160050160019054906101000a900460ff169050919050565b600061235933614591565b151561236457600080fd5b60766000846000191660001916815260200190815260200160002073__DaoStructs____________________________631728cc369091846040518363ffffffff167c0100000000000000000000000000000000000000000000000000000000028152600401808381526020018281526020019250505060206040518083038186803b1580156123f357600080fd5b505af4158015612407573d6000803e3d6000fd5b505050506040513d602081101561241d57600080fd5b8101908080519060200190929190505050905092915050565b600061244133614591565b151561244c57600080fd5b607660008360001916600019168152602001908152602001600020601401549050919050565b61247d60175461428f565b151561248857600080fd5b80607660008560001916600019168152602001908152602001600020601201600084815260200190815260200160002060050160016101000a81548160ff021916908315150217905550505050565b60008060009054906101000a900473ffffffffffffffffffffffffffffffffffffffff1673ffffffffffffffffffffffffffffffffffffffff16633f83acff836040518263ffffffff167c0100000000000000000000000000000000000000000000000000000000028152600401808260001916600019168152602001915050602060405180830381600087803b15801561257157600080fd5b505af1158015612585573d6000803e3d6000fd5b505050506040513d602081101561259b57600080fd5b81019080805190602001909291905050509050919050565b60006125be33614591565b15156125c957600080fd5b607660008460001916600019168152602001908152602001600020601201600083815260200190815260200160002060050160029054906101000a900460ff16905092915050565b61261c60135461428f565b151561262757600080fd5b61263081611b09565b607660008360001916600019168152602001908152602001600020601601816000191690555050565b600080607660008560001916600019168152602001908152602001600020905061268681600501846147fb565b91505092915050565b6000607660008360001916600019168152602001908152602001600020600c01600001549050919050565b6000607660008360001916600019168152602001908152602001600020601701805490509050919050565b6126f060175461428f565b15156126fb57600080fd5b61272260016078600084815260200190815260200160002054614a3090919063ffffffff16565b607860008381526020019081526020016000208190555050565b60008060766000856000191660001916815260200190815260200160002090506127698160050184614739565b91505092915050565b61277d60165461428f565b151561278857600080fd5b82607660008660001916600019168152602001908152602001600020601201600083815260200190815260200160002060020160008473ffffffffffffffffffffffffffffffffffffffff1673ffffffffffffffffffffffffffffffffffffffff168152602001908152602001600020816000191690555050505050565b600061281133614591565b151561281c57600080fd5b607660008560001916600019168152602001908152602001600020601201600084815260200190815260200160002060020160008373ffffffffffffffffffffffffffffffffffffffff1673ffffffffffffffffffffffffffffffffffffffff1681526020019081526020016000205490509392505050565b600060766000836000191660001916815260200190815260200160002060010160009054906101000a900473ffffffffffffffffffffffffffffffffffffffff169050919050565b60006128ea607083614739565b9050919050565b60606000806128ff33614591565b151561290a57600080fd5b6076600085600019166000191681526020019081526020016000206016015490506003546000191681600019161415151561294457600080fd5b607660008560001916600019168152602001908152602001600020600b01600082600019166000191681526020019081526020016000206003018054806020026020016040519081016040528092919081815260200182805480156129c857602002820191906000526020600020905b8154815260200190600101908083116129b4575b50505050509250607660008560001916600019168152602001908152602001600020600b016000826000191660001916815260200190815260200160002060040154915050915091565b60008060006060607660008760001916600019168152602001908152602001600020601701805480602002602001604051908101604052809291908181526020016000905b82821015612ab05783829060005260206000209060030201606060405190810160405290816000820154815260200160018201546000191660001916815260200160028201548152505081526020019060010190612a57565b505050509050805185101515612ac557600080fd5b8085815181101515612ad357fe5b906020019060200201516040015193508085815181101515612af157fe5b906020019060200201516000015192508085815181101515612b0f57fe5b90602001906020020151602001519150509250925092565b612b3260175461428f565b1515612b3d57600080fd5b80607660008460001916600019168152602001908152602001600020600c0160050160006101000a81548160ff0219169083151502179055508015612d5457607760006006546000191660001916815260200190815260200160002073__DoublyLinkedList______________________6352c6bbf49091846040518363ffffffff167c01000000000000000000000000000000000000000000000000000000000281526004018083815260200182600019166000191681526020019250505060206040518083038186803b158015612c1557600080fd5b505af4158015612c29573d6000803e3d6000fd5b505050506040513d6020811015612c3f57600080fd5b810190808051906020019092919050505050607760006007546000191660001916815260200190815260200160002073__DoublyLinkedList______________________63582f30b49091846040518363ffffffff167c01000000000000000000000000000000000000000000000000000000000281526004018083815260200182600019166000191681526020019250505060206040518083038186803b158015612cea57600080fd5b505af4158015612cfe573d6000803e3d6000fd5b505050506040513d6020811015612d1457600080fd5b8101908080519060200190929190505050506007546076600084600019166000191681526020019081526020016000206003018160001916905550612d5e565b612d5d82614399565b5b5050565b6000607660008460001916600019168152602001908152602001600020601201600083815260200190815260200160002060050160019054906101000a900460ff16905092915050565b612db760135461428f565b1515612dc257600080fd5b80607660008460001916600019168152602001908152602001600020601501819055505050565b612df460135461428f565b1515612dff57600080fd5b607073__DoublyLinkedList______________________63582f30b49091876040518363ffffffff167c01000000000000000000000000000000000000000000000000000000000281526004018083815260200182600019166000191681526020019250505060206040518083038186803b158015612e7d57600080fd5b505af4158015612e91573d6000803e3d6000fd5b505050506040513d6020811015612ea757600080fd5b810190808051906020019092919050505050607760006005546000191660001916815260200190815260200160002073__DoublyLinkedList______________________63582f30b49091876040518363ffffffff167c01000000000000000000000000000000000000000000000000000000000281526004018083815260200182600019166000191681526020019250505060206040518083038186803b158015612f5257600080fd5b505af4158015612f66573d6000803e3d6000fd5b505050506040513d6020811015612f7c57600080fd5b8101908080519060200190929190505050508460766000876000191660001916815260200190815260200160002060000181600019169055508360766000876000191660001916815260200190815260200160002060010160006101000a81548173ffffffffffffffffffffffffffffffffffffffff021916908373ffffffffffffffffffffffffffffffffffffffff160217905550600554607660008760001916600019168152602001908152602001600020600301816000191690555042607660008760001916600019168152602001908152602001600020600401819055508060766000876000191660001916815260200190815260200160002060130160016101000a81548160ff02191690831515021790555060766000866000191660001916815260200190815260200160002073__DaoStructs____________________________63ea496bc990918786866040518563ffffffff167c010000000000000000000000000000000000000000000000000000000002815260040180858152602001846000191660001916815260200180602001838152602001828103825284818151815260200191508051906020019060200280838360005b8381101561315657808201518184015260208101905061313b565b505050509050019550505050505060006040518083038186803b15801561317c57600080fd5b505af4158015613190573d6000803e3d6000fd5b505050505050505050565b6000806131a733614591565b15156131b257600080fd5b607660008660001916600019168152602001908152602001600020601201600085815260200190815260200160002073__DaoStructs____________________________63b31ee28c9091856040518363ffffffff167c01000000000000000000000000000000000000000000000000000000000281526004018083815260200180602001828103825283818151815260200191508051906020019060200280838360005b83811015613272578082015181840152602081019050613257565b505050509050019350505050604080518083038186803b15801561329557600080fd5b505af41580156132a9573d6000803e3d6000fd5b505050506040513d60408110156132bf57600080fd5b81019080805190602001909291908051906020019092919050505091509150935093915050565b6132f160165461428f565b15156132fc57600080fd5b607660008660001916600019168152602001908152602001600020601201600082815260200190815260200160002073__DaoStructs____________________________631a14c51b90918686866040518563ffffffff167c0100000000000000000000000000000000000000000000000000000000028152600401808581526020018473ffffffffffffffffffffffffffffffffffffffff1673ffffffffffffffffffffffffffffffffffffffff1681526020018315151515815260200182815260200194505050505060006040518083038186803b1580156133df57600080fd5b505af41580156133f3573d6000803e3d6000fd5b505050505050505050565b600061340933614591565b151561341457600080fd5b613438607760008560001916600019168152602001908152602001600020836147fb565b905092915050565b600061344d60135461428f565b151561345857600080fd5b6076600084600019166000191681526020019081526020016000209050818160020160006101000a81548173ffffffffffffffffffffffffffffffffffffffff021916908373ffffffffffffffffffffffffffffffffffffffff160217905550600654816003018160001916905550607760006005546000191660001916815260200190815260200160002073__DoublyLinkedList______________________6352c6bbf49091856040518363ffffffff167c01000000000000000000000000000000000000000000000000000000000281526004018083815260200182600019166000191681526020019250505060206040518083038186803b15801561356057600080fd5b505af4158015613574573d6000803e3d6000fd5b505050506040513d602081101561358a57600080fd5b810190808051906020019092919050505050607760006006546000191660001916815260200190815260200160002073__DoublyLinkedList______________________63582f30b49091856040518363ffffffff167c01000000000000000000000000000000000000000000000000000000000281526004018083815260200182600019166000191681526020019250505060206040518083038186803b15801561363557600080fd5b505af4158015613649573d6000803e3d6000fd5b505050506040513d602081101561365f57600080fd5b810190808051906020019092919050505050505050565b600061368133614591565b151561368c57600080fd5b607660008460001916600019168152602001908152602001600020601201600083815260200190815260200160002060000154905092915050565b6000806136d333614591565b15156136de57600080fd5b607660008560001916600019168152602001908152602001600020600c0173__DaoStructs____________________________63b31ee28c9091856040518363ffffffff167c01000000000000000000000000000000000000000000000000000000000281526004018083815260200180602001828103825283818151815260200191508051906020019060200280838360005b8381101561378d578082015181840152602081019050613772565b505050509050019350505050604080518083038186803b1580156137b057600080fd5b505af41580156137c4573d6000803e3d6000fd5b505050506040513d60408110156137da57600080fd5b810190808051906020019092919080519060200190929190505050915091509250929050565b613808614bc0565b61381360135461428f565b151561381e57600080fd5b818160000181815250508281602001906000191690816000191681525050838160400181815250506076600086600019166000191681526020019081526020016000206017018190806001815401808255809150509060018203906000526020600020906003020160009091929091909150600082015181600001556020820151816001019060001916905560408201518160020155505050600b548414156138fd57600160766000876000191660001916815260200190815260200160002060130160006101000a81548160ff021916908315150217905550613985565b600c5484141561394357600060766000876000191660001916815260200190815260200160002060130160006101000a81548160ff021916908315150217905550613984565b600160766000876000191660001916815260200190815260200160002060130160006101000a81548160ff02191690831515021790555061398385614399565b5b5b5050505050565b600061399960135461428f565b15156139a457600080fd5b607660008560001916600019168152602001908152602001600020601601549050600354600019168160001916141515156139de57600080fd5b82607660008660001916600019168152602001908152602001600020600b01600083600019166000191681526020019081526020016000206003019080519060200190613a2c929190614be5565b5081607660008660001916600019168152602001908152602001600020600b01600083600019166000191681526020019081526020016000206004018190555050505050565b613ab460606040519081016040528060175460001916600019168152602001601d546000191660001916815260200160135460001916600019168152506148bd565b1515613abf57600080fd5b80607660008460001916600019168152602001908152602001600020601401819055505050565b6000613af26070614a4c565b905090565b6000806000806000806000806000806000613b1133614591565b1515613b1c57600080fd5b607660008d60001916600019168152602001908152602001600020905080600001549a508060010160009054906101000a900473ffffffffffffffffffffffffffffffffffffffff1699508060020160009054906101000a900473ffffffffffffffffffffffffffffffffffffffff1698508060030154975080600401549650613ba881600501614afd565b9550613bb681600501614688565b9450806016015493508060130160009054906101000a900460ff1692508060130160019054906101000a900460ff169150509193959799509193959799565b600260009054906101000a900473ffffffffffffffffffffffffffffffffffffffff1681565b6060600060766000846000191660001916815260200190815260200160002060160154905060035460001916816000191614151515613c5957600080fd5b607660008460001916600019168152602001908152602001600020600b0160008260001916600019168152602001908152602001600020600501805480602002602001604051908101604052809291908181526020018280548015613ce157602002820191906000526020600020905b81546000191681526020019060010190808311613cc9575b5050505050915050919050565b600080613cfa33614591565b1515613d0557600080fd5b607660008560001916600019168152602001908152602001600020600c0173__DaoStructs____________________________634bf150b99091856040518363ffffffff167c0100000000000000000000000000000000000000000000000000000000028152600401808381526020018273ffffffffffffffffffffffffffffffffffffffff1673ffffffffffffffffffffffffffffffffffffffff16815260200192505050604080518083038186803b158015613dc257600080fd5b505af4158015613dd6573d6000803e3d6000fd5b505050506040513d6040811015613dec57600080fd5b810190808051906020019092919080519060200190929190505050915091509250929050565b613e1d60135461428f565b1515613e2857600080fd5b80607660008460001916600019168152602001908152602001600020600c01600001819055505050565b6000806076600084600019166000191681526020019081526020016000209050613e7e81600501614a4c565b915050919050565b6000613e9133614591565b1515613e9c57600080fd5b613ebf607760008460001916600019168152602001908152602001600020614a4c565b9050919050565b60606000613ed333614591565b1515613ede57600080fd5b607660008760001916600019168152602001908152602001600020601201600086815260200190815260200160002073__DaoStructs____________________________63f53380cf909186866040518463ffffffff167c0100000000000000000000000000000000000000000000000000000000028152600401808481526020018060200183151515158152602001828103825284818151815260200191508051906020019060200280838360005b83811015613fa9578082015181840152602081019050613f8e565b5050505090500194505050505060006040518083038186803b158015613fce57600080fd5b505af4158015613fe2573d6000803e3d6000fd5b505050506040513d6000823e3d601f19601f82011682018060405250604081101561400c57600080fd5b81019080805164010000000081111561402457600080fd5b8281019050602081018481111561403a57600080fd5b815185602082028301116401000000008211171561405757600080fd5b5050929190602001805190602001909291905050509150915094509492505050565b6000607660008360001916600019168152602001908152602001600020601501549050919050565b60006140ae60135461428f565b15156140b957600080fd5b607660008460001916600019168152602001908152602001600020601601549050600354600019168160001916141515156140f357600080fd5b607660008460001916600019168152602001908152602001600020600b0160008260001916600019168152602001908152602001600020600501829080600181540180825580915050906001820390600052602060002001600090919290919091509060001916905550505050565b600061416e6070614688565b905090565b61417e60135461428f565b151561418957600080fd5b60766000856000191660001916815260200190815260200160002073__DaoStructs____________________________63ea496bc990918585856040518563ffffffff167c010000000000000000000000000000000000000000000000000000000002815260040180858152602001846000191660001916815260200180602001838152602001828103825284818151815260200191508051906020019060200280838360005b8381101561424b578082015181840152602081019050614230565b505050509050019550505050505060006040518083038186803b15801561427157600080fd5b505af4158015614285573d6000803e3d6000fd5b5050505050505050565b60008060009054906101000a900473ffffffffffffffffffffffffffffffffffffffff1673ffffffffffffffffffffffffffffffffffffffff16633f83acff836040518263ffffffff167c0100000000000000000000000000000000000000000000000000000000028152600401808260001916600019168152602001915050602060405180830381600087803b15801561432957600080fd5b505af115801561433d573d6000803e3d6000fd5b505050506040513d602081101561435357600080fd5b810190808051906020019092919050505073ffffffffffffffffffffffffffffffffffffffff163373ffffffffffffffffffffffffffffffffffffffff16149050919050565b600060766000836000191660001916815260200190815260200160002060030154905060776000826000191660001916815260200190815260200160002073__DoublyLinkedList______________________6352c6bbf49091846040518363ffffffff167c01000000000000000000000000000000000000000000000000000000000281526004018083815260200182600019166000191681526020019250505060206040518083038186803b15801561445357600080fd5b505af4158015614467573d6000803e3d6000fd5b505050506040513d602081101561447d57600080fd5b810190808051906020019092919050505050607760006009546000191660001916815260200190815260200160002073__DoublyLinkedList______________________63582f30b49091846040518363ffffffff167c01000000000000000000000000000000000000000000000000000000000281526004018083815260200182600019166000191681526020019250505060206040518083038186803b15801561452857600080fd5b505af415801561453c573d6000803e3d6000fd5b505050506040513d602081101561455257600080fd5b81019080805190602001909291905050505060095460766000846000191660001916815260200190815260200160002060030181600019169055505050565b600080823b9050600081148061468057506145aa614bae565b73ffffffffffffffffffffffffffffffffffffffff16639b19251a846040518263ffffffff167c0100000000000000000000000000000000000000000000000000000000028152600401808273ffffffffffffffffffffffffffffffffffffffff1673ffffffffffffffffffffffffffffffffffffffff168152602001915050602060405180830381600087803b15801561464457600080fd5b505af1158015614658573d6000803e3d6000fd5b505050506040513d602081101561466e57600080fd5b81019080805190602001909291905050505b915050919050565b60008173__DoublyLinkedList______________________632553148290916040518263ffffffff167c01000000000000000000000000000000000000000000000000000000000281526004018082815260200191505060206040518083038186803b1580156146f757600080fd5b505af415801561470b573d6000803e3d6000fd5b505050506040513d602081101561472157600080fd5b81019080805190602001909291905050509050919050565b60008273__DoublyLinkedList______________________632a1441789091846040518363ffffffff167c01000000000000000000000000000000000000000000000000000000000281526004018083815260200182600019166000191681526020019250505060206040518083038186803b1580156147b857600080fd5b505af41580156147cc573d6000803e3d6000fd5b505050506040513d60208110156147e257600080fd5b8101908080519060200190929190505050905092915050565b60008273__DoublyLinkedList______________________63cf06689d9091846040518363ffffffff167c01000000000000000000000000000000000000000000000000000000000281526004018083815260200182600019166000191681526020019250505060206040518083038186803b15801561487a57600080fd5b505af415801561488e573d6000803e3d6000fd5b505050506040513d60208110156148a457600080fd5b8101908080519060200190929190505050905092915050565b600080600060039150600090505b81811015614a295760006001026000191684826003811015156148ea57fe5b60200201516000191614156148fe57614a1c565b6000809054906101000a900473ffffffffffffffffffffffffffffffffffffffff1673ffffffffffffffffffffffffffffffffffffffff16633f83acff858360038110151561494957fe5b60200201516040518263ffffffff167c0100000000000000000000000000000000000000000000000000000000028152600401808260001916600019168152602001915050602060405180830381600087803b1580156149a857600080fd5b505af11580156149bc573d6000803e3d6000fd5b505050506040513d60208110156149d257600080fd5b810190808051906020019092919050505073ffffffffffffffffffffffffffffffffffffffff163373ffffffffffffffffffffffffffffffffffffffff161415614a1b57600192505b5b80806001019150506148cb565b5050919050565b60008183019050828110151515614a4357fe5b80905092915050565b60008173__DoublyLinkedList______________________6356717c7990916040518263ffffffff167c01000000000000000000000000000000000000000000000000000000000281526004018082815260200191505060206040518083038186803b158015614abb57600080fd5b505af4158015614acf573d6000803e3d6000fd5b505050506040513d6020811015614ae557600080fd5b81019080805190602001909291905050509050919050565b60008173__DoublyLinkedList______________________630f77955290916040518263ffffffff167c01000000000000000000000000000000000000000000000000000000000281526004018082815260200191505060206040518083038186803b158015614b6c57600080fd5b505af4158015614b80573d6000803e3d6000fd5b505050506040513d6020811015614b9657600080fd5b81019080805190602001909291905050509050919050565b6000614bbb602c546124d7565b905090565b6060604051908101604052806000815260200160008019168152602001600081525090565b828054828255906000526020600020908101928215614c21579160200282015b82811115614c20578251825591602001919060010190614c05565b5b509050614c2e9190614c32565b5090565b614c5491905b80821115614c50576000816000905550600101614c38565b5090565b905600a165627a7a72305820e4bcc4915f2aa620d618e0b24e393dad08a7edfc5c3fb4fc4d94ac318c690cf80029",
  "source": "pragma solidity ^0.4.24;\n\nimport \"@digix/solidity-collections/contracts/abstract/BytesIteratorStorage.sol\";\nimport \"@digix/solidity-collections/contracts/lib/DoublyLinkedList.sol\";\nimport \"../common/DaoWhitelistingCommon.sol\";\nimport \"../lib/DaoStructs.sol\";\nimport \"./DaoWhitelistingStorage.sol\";\n\ncontract DaoStorage is DaoWhitelistingCommon, BytesIteratorStorage {\n    using DoublyLinkedList for DoublyLinkedList.Bytes;\n    using DaoStructs for DaoStructs.Voting;\n    using DaoStructs for DaoStructs.Proposal;\n    using DaoStructs for DaoStructs.ProposalVersion;\n\n    // List of all the proposals ever created in DigixDAO\n    DoublyLinkedList.Bytes allProposals;\n\n    // mapping of Proposal struct by its ID\n    // ID is also the IPFS doc hash of the first ever version of this proposal\n    mapping (bytes32 => DaoStructs.Proposal) proposalsById;\n\n    // mapping from state of a proposal to list of all proposals in that state\n    // proposals are added/removed from the state's list as their states change\n    // eg. when proposal is endorsed, when proposal is funded, etc\n    mapping (bytes32 => DoublyLinkedList.Bytes) proposalsByState;\n\n    // This is to mark the number of proposals that have been funded in a specific quarter\n    // this is to take care of the cap on the number of funded proposals in a quarter\n    mapping (uint256 => uint256) public proposalCountByQuarter;\n\n    constructor(address _resolver) public {\n        require(init(CONTRACT_STORAGE_DAO, _resolver));\n    }\n\n    /////////////////////////////// READ FUNCTIONS //////////////////////////////\n\n    /// @notice read all information and details of proposal\n    /// @param _proposalId Proposal ID, i.e. hash of IPFS doc Proposal ID, i.e. hash of IPFS doc\n    /// return {\n    ///   \"_doc\": \"Original IPFS doc of proposal, also ID of proposal\",\n    ///   \"_proposer\": \"Address of the proposer\",\n    ///   \"_endorser\": \"Address of the moderator that endorsed the proposal\",\n    ///   \"_state\": \"Current state of the proposal\",\n    ///   \"_timeCreated\": \"UTC timestamp at which proposal was created\",\n    ///   \"_nVersions\": \"Number of versions of the proposal\",\n    ///   \"_latestVersionDoc\": \"IPFS doc hash of the latest version of this proposal\",\n    ///   \"_finalVersion\": \"If finalized, the version of the final proposal\",\n    ///   \"_pausedOrStopped\": \"If the proposal is paused/stopped at the moment\",\n    ///   \"_isDigixProposal\": \"If the proposal has been created by founder or not\"\n    /// }\n    function readProposal(bytes32 _proposalId)\n        public\n        constant\n        returns (\n            bytes32 _doc,\n            address _proposer,\n            address _endorser,\n            bytes32 _state,\n            uint256 _timeCreated,\n            uint256 _nVersions,\n            bytes32 _latestVersionDoc,\n            bytes32 _finalVersion,\n            bool _pausedOrStopped,\n            bool _isDigixProposal\n        )\n    {\n        require(isWhitelisted(msg.sender));\n        DaoStructs.Proposal storage _proposal = proposalsById[_proposalId];\n        _doc = _proposal.proposalId;\n        _proposer = _proposal.proposer;\n        _endorser = _proposal.endorser;\n        _state = _proposal.currentState;\n        _timeCreated = _proposal.timeCreated;\n        _nVersions = read_total_bytesarray(_proposal.proposalVersionDocs);\n        _latestVersionDoc = read_last_from_bytesarray(_proposal.proposalVersionDocs);\n        _finalVersion = _proposal.finalVersion;\n        _pausedOrStopped = _proposal.isPausedOrStopped;\n        _isDigixProposal = _proposal.isDigix;\n    }\n\n    function readProposalProposer(bytes32 _proposalId)\n        public\n        constant\n        returns (address _proposer)\n    {\n        _proposer = proposalsById[_proposalId].proposer;\n    }\n\n    function readTotalPrlActions(bytes32 _proposalId)\n        public\n        constant\n        returns (uint256 _length)\n    {\n        _length = proposalsById[_proposalId].prlActions.length;\n    }\n\n    function readPrlAction(bytes32 _proposalId, uint256 _index)\n        public\n        constant\n        returns (uint256 _actionId, uint256 _time, bytes32 _doc)\n    {\n        DaoStructs.PrlAction[] memory _actions = proposalsById[_proposalId].prlActions;\n        require(_index < _actions.length);\n        _actionId = _actions[_index].actionId;\n        _time = _actions[_index].at;\n        _doc = _actions[_index].doc;\n    }\n\n    function readProposalDraftVotingResult(bytes32 _proposalId)\n        public\n        constant\n        returns (bool _result)\n    {\n        require(isWhitelisted(msg.sender));\n        _result = proposalsById[_proposalId].draftVoting.passed;\n    }\n\n    function readProposalVotingResult(bytes32 _proposalId, uint256 _index)\n        public\n        constant\n        returns (bool _result)\n    {\n        require(isWhitelisted(msg.sender));\n        _result = proposalsById[_proposalId].votingRounds[_index].passed;\n    }\n\n    function readProposalDraftVotingTime(bytes32 _proposalId)\n        public\n        constant\n        returns (uint256 _start)\n    {\n        _start = proposalsById[_proposalId].draftVoting.startTime;\n    }\n\n    function readProposalVotingTime(bytes32 _proposalId, uint256 _index)\n        public\n        constant\n        returns (uint256 _start)\n    {\n        require(isWhitelisted(msg.sender));\n        _start = proposalsById[_proposalId].votingRounds[_index].startTime;\n    }\n\n    function readDraftVotingCount(bytes32 _proposalId, address[] memory _allUsers)\n        public\n        constant\n        returns (uint256 _for, uint256 _against)\n    {\n        require(isWhitelisted(msg.sender));\n        return proposalsById[_proposalId].draftVoting.countVotes(_allUsers);\n    }\n\n    function readVotingCount(bytes32 _proposalId, uint256 _index, address[] _allUsers)\n        public\n        constant\n        returns (uint256 _for, uint256 _against)\n    {\n        require(isWhitelisted(msg.sender));\n        return proposalsById[_proposalId].votingRounds[_index].countVotes(_allUsers);\n    }\n\n    function readVotingRoundVotes(bytes32 _proposalId, uint256 _index, address[] _allUsers, bool _vote)\n        public\n        constant\n        returns (address[] memory _voters, uint256 _length)\n    {\n        require(isWhitelisted(msg.sender));\n        return proposalsById[_proposalId].votingRounds[_index].listVotes(_allUsers, _vote);\n    }\n\n    function readDraftVote(bytes32 _proposalId, address _voter)\n        public\n        constant\n        returns (bool _vote, uint256 _weight)\n    {\n        require(isWhitelisted(msg.sender));\n        return proposalsById[_proposalId].draftVoting.readVote(_voter);\n    }\n\n    /// @notice returns the latest committed vote by a voter on a proposal\n    /// @param _proposalId proposal ID\n    /// @param _voter address of the voter\n    /// @return {\n    ///   \"_commitHash\": \"\"\n    /// }\n    function readComittedVote(bytes32 _proposalId, uint256 _index, address _voter)\n        public\n        constant\n        returns (bytes32 _commitHash)\n    {\n        require(isWhitelisted(msg.sender));\n        _commitHash = proposalsById[_proposalId].votingRounds[_index].commits[_voter];\n    }\n\n    function readVote(bytes32 _proposalId, uint256 _index, address _voter)\n        public\n        constant\n        returns (bool _vote, uint256 _weight)\n    {\n        require(isWhitelisted(msg.sender));\n        return proposalsById[_proposalId].votingRounds[_index].readVote(_voter);\n    }\n\n    /// @notice get all information and details of the first proposal\n    /// return {\n    ///   \"_id\": \"\"\n    /// }\n    function getFirstProposal()\n        public\n        constant\n        returns (bytes32 _id)\n    {\n        _id = read_first_from_bytesarray(allProposals);\n    }\n\n    /// @notice get all information and details of the last proposal\n    /// return {\n    ///   \"_id\": \"\"\n    /// }\n    function getLastProposal()\n        public\n        constant\n        returns (bytes32 _id)\n    {\n        _id = read_last_from_bytesarray(allProposals);\n    }\n\n    /// @notice get all information and details of proposal next to _proposalId\n    /// @param _proposalId Proposal ID, i.e. hash of IPFS doc\n    /// return {\n    ///   \"_id\": \"\"\n    /// }\n    function getNextProposal(bytes32 _proposalId)\n        public\n        constant\n        returns (bytes32 _id)\n    {\n        _id = read_next_from_bytesarray(\n            allProposals,\n            _proposalId\n        );\n    }\n\n    /// @notice get all information and details of proposal previous to _proposalId\n    /// @param _proposalId Proposal ID, i.e. hash of IPFS doc\n    /// return {\n    ///   \"_id\": \"\"\n    /// }\n    function getPreviousProposal(bytes32 _proposalId)\n        public\n        constant\n        returns (bytes32 _id)\n    {\n        _id = read_previous_from_bytesarray(\n            allProposals,\n            _proposalId\n        );\n    }\n\n    /// @notice get all information and details of the first proposal in state _stateId\n    /// @param _stateId State ID of the proposal\n    /// return {\n    ///   \"_id\": \"\"\n    /// }\n    function getFirstProposalInState(bytes32 _stateId)\n        public\n        constant\n        returns (bytes32 _id)\n    {\n        require(isWhitelisted(msg.sender));\n        _id = read_first_from_bytesarray(proposalsByState[_stateId]);\n    }\n\n    /// @notice get all information and details of the last proposal in state _stateId\n    /// @param _stateId State ID of the proposal\n    /// return {\n    ///   \"_id\": \"\"\n    /// }\n    function getLastProposalInState(bytes32 _stateId)\n        public\n        constant\n        returns (bytes32 _id)\n    {\n        require(isWhitelisted(msg.sender));\n        _id = read_last_from_bytesarray(proposalsByState[_stateId]);\n    }\n\n    /// @notice get all information and details of the next proposal to _proposalId in state _stateId\n    /// @param _stateId State ID of the proposal\n    /// return {\n    ///   \"_id\": \"\"\n    /// }\n    function getNextProposalInState(bytes32 _stateId, bytes32 _proposalId)\n        public\n        constant\n        returns (bytes32 _id)\n    {\n        require(isWhitelisted(msg.sender));\n        _id = read_next_from_bytesarray(\n            proposalsByState[_stateId],\n            _proposalId\n        );\n    }\n\n    /// @notice get all information and details of the previous proposal to _proposalId in state _stateId\n    /// @param _stateId State ID of the proposal\n    /// return {\n    ///   \"_id\": \"\"\n    /// }\n    function getPreviousProposalInState(bytes32 _stateId, bytes32 _proposalId)\n        public\n        constant\n        returns (bytes32 _id)\n    {\n        require(isWhitelisted(msg.sender));\n        _id = read_previous_from_bytesarray(\n            proposalsByState[_stateId],\n            _proposalId\n        );\n    }\n\n    /// @notice read proposal version details for a specific version\n    /// @param _proposalId Proposal ID, i.e. hash of IPFS doc\n    /// @param _version Version of proposal, i.e. hash of IPFS doc for specific version\n    /// return {\n    ///   \"_doc\": \"\",\n    ///   \"_created\": \"\",\n    ///   \"_milestoneFundings\": \"\"\n    /// }\n    function readProposalVersion(bytes32 _proposalId, bytes32 _version)\n        public\n        constant\n        returns (\n            bytes32 _doc,\n            uint256 _created,\n            uint256[] _milestoneFundings,\n            uint256 _finalReward\n        )\n    {\n        return proposalsById[_proposalId].proposalVersions[_version].readVersion();\n    }\n\n    /**\n    @notice Read the fundings of a finalized proposal\n    @return {\n        \"_fundings\": \"fundings for the milestones\",\n        \"_finalReward\": \"the final reward\"\n    }\n    */\n    function readProposalFunding(bytes32 _proposalId)\n        public\n        constant\n        returns (uint256[] memory _fundings, uint256 _finalReward)\n    {\n        require(isWhitelisted(msg.sender));\n        bytes32 _finalVersion = proposalsById[_proposalId].finalVersion;\n        require(_finalVersion != EMPTY_BYTES);\n        _fundings = proposalsById[_proposalId].proposalVersions[_finalVersion].milestoneFundings;\n        _finalReward = proposalsById[_proposalId].proposalVersions[_finalVersion].finalReward;\n    }\n\n    function readProposalMilestone(bytes32 _proposalId, uint256 _index)\n        public\n        constant\n        returns (uint256 _funding)\n    {\n        require(isWhitelisted(msg.sender));\n        _funding = proposalsById[_proposalId].readProposalMilestone(_index);\n    }\n\n    /// @notice get proposal version details for the first version\n    /// @param _proposalId Proposal ID, i.e. hash of IPFS doc\n    /// return {\n    ///   \"_version\": \"\"\n    /// }\n    function getFirstProposalVersion(bytes32 _proposalId)\n        public\n        constant\n        returns (bytes32 _version)\n    {\n        DaoStructs.Proposal storage _proposal = proposalsById[_proposalId];\n        _version = read_first_from_bytesarray(_proposal.proposalVersionDocs);\n    }\n\n    /// @notice get proposal version details for the last version\n    /// @param _proposalId Proposal ID, i.e. hash of IPFS doc\n    /// return {\n    ///   \"_version\": \"\"\n    /// }\n    function getLastProposalVersion(bytes32 _proposalId)\n        public\n        constant\n        returns (bytes32 _version)\n    {\n        DaoStructs.Proposal storage _proposal = proposalsById[_proposalId];\n        _version = read_last_from_bytesarray(_proposal.proposalVersionDocs);\n    }\n\n    /// @notice get proposal version details for the next version to _version\n    /// @param _proposalId Proposal ID, i.e. hash of IPFS doc\n    /// @param _version Version of proposal\n    /// return {\n    ///   \"_nextVersion\": \"\"\n    /// }\n    function getNextProposalVersion(bytes32 _proposalId, bytes32 _version)\n        public\n        constant\n        returns (bytes32 _nextVersion)\n    {\n        DaoStructs.Proposal storage _proposal = proposalsById[_proposalId];\n        _nextVersion = read_next_from_bytesarray(\n            _proposal.proposalVersionDocs,\n            _version\n        );\n    }\n\n    /// @notice get proposal version details for the previous version to _version\n    /// @param _proposalId Proposal ID, i.e. hash of IPFS doc\n    /// @param _version Version of proposal\n    /// return {\n    ///   \"_previousVersion\": \"\"\n    /// }\n    function getPreviousProposalVersion(bytes32 _proposalId, bytes32 _version)\n        public\n        constant\n        returns (bytes32 _previousVersion)\n    {\n        DaoStructs.Proposal storage _proposal = proposalsById[_proposalId];\n        _previousVersion = read_previous_from_bytesarray(\n            _proposal.proposalVersionDocs,\n            _version\n        );\n    }\n\n    function isDraftClaimed(bytes32 _proposalId)\n        public\n        constant\n        returns (bool _claimed)\n    {\n        _claimed = proposalsById[_proposalId].draftVoting.claimed;\n    }\n\n    function isClaimed(bytes32 _proposalId, uint256 _index)\n        public\n        constant\n        returns (bool _claimed)\n    {\n        _claimed = proposalsById[_proposalId].votingRounds[_index].claimed;\n    }\n\n    function readProposalCollateralStatus(bytes32 _proposalId)\n        public\n        constant\n        returns (uint256 _status)\n    {\n        require(isWhitelisted(msg.sender));\n        _status = proposalsById[_proposalId].collateralStatus;\n    }\n\n    function readProposalCollateralAmount(bytes32 _proposalId)\n        public\n        constant\n        returns (uint256 _amount)\n    {\n        _amount = proposalsById[_proposalId].collateralAmount;\n    }\n\n    /// @notice Read the additional docs that are added after the proposal is finalized\n    /// @dev Will throw if the propsal is not finalized yet\n    function readProposalDocs(bytes32 _proposalId)\n        public\n        constant\n        returns (bytes32[] _moreDocs)\n    {\n        bytes32 _finalVersion = proposalsById[_proposalId].finalVersion;\n        require(_finalVersion != EMPTY_BYTES);\n        _moreDocs = proposalsById[_proposalId].proposalVersions[_finalVersion].moreDocs;\n    }\n\n    function readIfMilestoneFunded(bytes32 _proposalId, uint256 _milestoneId)\n        public\n        constant\n        returns (bool _funded)\n    {\n        require(isWhitelisted(msg.sender));\n        _funded = proposalsById[_proposalId].votingRounds[_milestoneId].funded;\n    }\n\n    ////////////////////////////// WRITE FUNCTIONS //////////////////////////////\n\n    function addProposal(\n        bytes32 _doc,\n        address _proposer,\n        uint256[] _milestoneFundings,\n        uint256 _finalReward,\n        bool _isFounder\n    )\n        public\n    {\n        require(sender_is(CONTRACT_DAO));\n\n        allProposals.append(_doc);\n        proposalsByState[PROPOSAL_STATE_PREPROPOSAL].append(_doc);\n        proposalsById[_doc].proposalId = _doc;\n        proposalsById[_doc].proposer = _proposer;\n        proposalsById[_doc].currentState = PROPOSAL_STATE_PREPROPOSAL;\n        proposalsById[_doc].timeCreated = now;\n        proposalsById[_doc].isDigix = _isFounder;\n        proposalsById[_doc].addProposalVersion(_doc, _milestoneFundings, _finalReward);\n    }\n\n    function editProposal(\n        bytes32 _proposalId,\n        bytes32 _newDoc,\n        uint256[] _newMilestoneFundings,\n        uint256 _finalReward\n    )\n        public\n    {\n        require(sender_is(CONTRACT_DAO));\n\n        proposalsById[_proposalId].addProposalVersion(_newDoc, _newMilestoneFundings, _finalReward);\n    }\n\n    /// @notice change fundings of a proposal\n    /// @dev Will throw if the proposal is not finalized yet\n    function changeFundings(bytes32 _proposalId, uint256[] _newMilestoneFundings, uint256 _finalReward)\n        public\n    {\n        require(sender_is(CONTRACT_DAO));\n\n        bytes32 _finalVersion = proposalsById[_proposalId].finalVersion;\n        require(_finalVersion != EMPTY_BYTES);\n        proposalsById[_proposalId].proposalVersions[_finalVersion].milestoneFundings = _newMilestoneFundings;\n        proposalsById[_proposalId].proposalVersions[_finalVersion].finalReward = _finalReward;\n    }\n\n    /// @dev Will throw if the proposal is not finalized yet\n    function addProposalDoc(bytes32 _proposalId, bytes32 _newDoc)\n        public\n    {\n        require(sender_is(CONTRACT_DAO));\n\n        bytes32 _finalVersion = proposalsById[_proposalId].finalVersion;\n        require(_finalVersion != EMPTY_BYTES); //already checked in interactive layer, but why not\n        proposalsById[_proposalId].proposalVersions[_finalVersion].moreDocs.push(_newDoc);\n    }\n\n    function finalizeProposal(bytes32 _proposalId)\n        public\n    {\n        require(sender_is(CONTRACT_DAO));\n\n        proposalsById[_proposalId].finalVersion = getLastProposalVersion(_proposalId);\n    }\n\n    function updateProposalEndorse(\n        bytes32 _proposalId,\n        address _endorser\n    )\n        public\n    {\n        require(sender_is(CONTRACT_DAO));\n\n        DaoStructs.Proposal storage _proposal = proposalsById[_proposalId];\n        _proposal.endorser = _endorser;\n        _proposal.currentState = PROPOSAL_STATE_DRAFT;\n        proposalsByState[PROPOSAL_STATE_PREPROPOSAL].remove_item(_proposalId);\n        proposalsByState[PROPOSAL_STATE_DRAFT].append(_proposalId);\n    }\n\n    function setProposalDraftPass(bytes32 _proposalId, bool _result)\n        public\n    {\n        require(sender_is(CONTRACT_DAO_VOTING_CLAIMS));\n\n        proposalsById[_proposalId].draftVoting.passed = _result;\n        if (_result) {\n            proposalsByState[PROPOSAL_STATE_DRAFT].remove_item(_proposalId);\n            proposalsByState[PROPOSAL_STATE_MODERATED].append(_proposalId);\n            proposalsById[_proposalId].currentState = PROPOSAL_STATE_MODERATED;\n        } else {\n            closeProposalInternal(_proposalId);\n        }\n    }\n\n    function setProposalPass(bytes32 _proposalId, uint256 _index, bool _result)\n        public\n    {\n        require(sender_is(CONTRACT_DAO_VOTING_CLAIMS));\n\n        if (!_result) {\n            closeProposalInternal(_proposalId);\n        } else if (_index == 0) {\n            proposalsByState[PROPOSAL_STATE_MODERATED].remove_item(_proposalId);\n            proposalsByState[PROPOSAL_STATE_ONGOING].append(_proposalId);\n            proposalsById[_proposalId].currentState = PROPOSAL_STATE_ONGOING;\n        }\n        proposalsById[_proposalId].votingRounds[_index].passed = _result;\n    }\n\n    function setProposalDraftVotingTime(\n        bytes32 _proposalId,\n        uint256 _time\n    )\n        public\n    {\n        require(sender_is(CONTRACT_DAO));\n\n        proposalsById[_proposalId].draftVoting.startTime = _time;\n    }\n\n    function setProposalVotingTime(\n        bytes32 _proposalId,\n        uint256 _index,\n        uint256 _time\n    )\n        public\n    {\n        require(sender_is_from([CONTRACT_DAO, CONTRACT_DAO_VOTING_CLAIMS, EMPTY_BYTES]));\n\n        proposalsById[_proposalId].votingRounds[_index].startTime = _time;\n    }\n\n    function setDraftVotingClaim(bytes32 _proposalId, bool _claimed)\n        public\n    {\n        require(sender_is(CONTRACT_DAO_VOTING_CLAIMS));\n        proposalsById[_proposalId].draftVoting.claimed = _claimed;\n    }\n\n    function setVotingClaim(bytes32 _proposalId, uint256 _index, bool _claimed)\n        public\n    {\n        require(sender_is(CONTRACT_DAO_VOTING_CLAIMS));\n        proposalsById[_proposalId].votingRounds[_index].claimed = _claimed;\n    }\n\n    function setProposalCollateralStatus(bytes32 _proposalId, uint256 _status)\n        public\n    {\n        require(sender_is_from([CONTRACT_DAO_VOTING_CLAIMS, CONTRACT_DAO_FUNDING_MANAGER, CONTRACT_DAO]));\n        proposalsById[_proposalId].collateralStatus = _status;\n    }\n\n    function setProposalCollateralAmount(bytes32 _proposalId, uint256 _amount)\n        public\n    {\n        require(sender_is(CONTRACT_DAO));\n        proposalsById[_proposalId].collateralAmount = _amount;\n    }\n\n    function updateProposalPRL(\n        bytes32 _proposalId,\n        uint256 _action,\n        bytes32 _doc,\n        uint256 _time\n    )\n        public\n    {\n        require(sender_is(CONTRACT_DAO));\n        DaoStructs.PrlAction memory prlAction;\n        prlAction.at = _time;\n        prlAction.doc = _doc;\n        prlAction.actionId = _action;\n        proposalsById[_proposalId].prlActions.push(prlAction);\n\n        if (_action == PRL_ACTION_PAUSE) {\n          proposalsById[_proposalId].isPausedOrStopped = true;\n        } else if (_action == PRL_ACTION_UNPAUSE) {\n          proposalsById[_proposalId].isPausedOrStopped = false;\n        } else { // STOP\n          proposalsById[_proposalId].isPausedOrStopped = true;\n          closeProposalInternal(_proposalId);\n        }\n    }\n\n    function closeProposalInternal(bytes32 _proposalId)\n        internal\n    {\n        bytes32 _currentState = proposalsById[_proposalId].currentState;\n        proposalsByState[_currentState].remove_item(_proposalId);\n        proposalsByState[PROPOSAL_STATE_CLOSED].append(_proposalId);\n        proposalsById[_proposalId].currentState = PROPOSAL_STATE_CLOSED;\n    }\n\n    function addDraftVote(\n        bytes32 _proposalId,\n        address _voter,\n        bool _vote,\n        uint256 _weight\n    )\n        public\n    {\n        require(sender_is(CONTRACT_DAO_VOTING));\n\n        DaoStructs.Proposal storage _proposal = proposalsById[_proposalId];\n        if (_vote) {\n            _proposal.draftVoting.yesVotes[_voter] = _weight;\n            if (_proposal.draftVoting.noVotes[_voter] > 0) { // minimize number of writes to storage, since EIP-1087 is not implemented yet\n                _proposal.draftVoting.noVotes[_voter] = 0;\n            }\n        } else {\n            _proposal.draftVoting.noVotes[_voter] = _weight;\n            if (_proposal.draftVoting.yesVotes[_voter] > 0) {\n                _proposal.draftVoting.yesVotes[_voter] = 0;\n            }\n        }\n    }\n\n    function commitVote(\n        bytes32 _proposalId,\n        bytes32 _hash,\n        address _voter,\n        uint256 _index\n    )\n        public\n    {\n        require(sender_is(CONTRACT_DAO_VOTING));\n\n        proposalsById[_proposalId].votingRounds[_index].commits[_voter] = _hash;\n    }\n\n    function revealVote(\n        bytes32 _proposalId,\n        address _voter,\n        bool _vote,\n        uint256 _weight,\n        uint256 _index\n    )\n        public\n    {\n        require(sender_is(CONTRACT_DAO_VOTING));\n\n        proposalsById[_proposalId].votingRounds[_index].revealVote(_voter, _vote, _weight);\n    }\n\n    function addNonDigixProposalCountInQuarter(uint256 _quarterIndex)\n        public\n    {\n        require(sender_is(CONTRACT_DAO_VOTING_CLAIMS));\n        proposalCountByQuarter[_quarterIndex] = proposalCountByQuarter[_quarterIndex].add(1);\n    }\n\n    function closeProposal(bytes32 _proposalId)\n        public\n    {\n        require(sender_is(CONTRACT_DAO));\n        closeProposalInternal(_proposalId);\n    }\n\n    function setMilestoneFunded(bytes32 _proposalId, uint256 _milestoneId)\n        public\n    {\n        require(sender_is(CONTRACT_DAO_FUNDING_MANAGER));\n        proposalsById[_proposalId].votingRounds[_milestoneId].funded = true;\n    }\n}\n",
  "sourcePath": "/home/rohit/Develop/dao-contracts/contracts/storage/DaoStorage.sol",
  "compiler": {
    "name": "solc",
    "version": "0.4.24+commit.e67f0147.Emscripten.clang"
  },
  "schemaVersion": "2.0.1",
  "updatedAt": "2018-10-08T06:48:25.507Z"
}