{
  "contractName": "DaoStructs",
  "abi": [
    {
      "constant": true,
      "inputs": [
        {
          "name": "_voting",
          "type": "DaoStructs.Voting storage"
        },
        {
          "name": "_allUsers",
          "type": "address[]"
        }
      ],
      "name": "countVotes",
      "outputs": [
        {
          "name": "_for",
          "type": "uint256"
        },
        {
          "name": "_against",
          "type": "uint256"
        }
      ],
      "payable": false,
      "stateMutability": "view",
      "type": "function"
    },
    {
      "constant": true,
      "inputs": [
        {
          "name": "_voting",
          "type": "DaoStructs.Voting storage"
        },
        {
          "name": "_allUsers",
          "type": "address[]"
        },
        {
          "name": "_vote",
          "type": "bool"
        }
      ],
      "name": "listVotes",
      "outputs": [
        {
          "name": "_voters",
          "type": "address[]"
        },
        {
          "name": "_length",
          "type": "uint256"
        }
      ],
      "payable": false,
      "stateMutability": "view",
      "type": "function"
    },
    {
      "constant": true,
      "inputs": [
        {
          "name": "_voting",
          "type": "DaoStructs.Voting storage"
        },
        {
          "name": "_voter",
          "type": "address"
        }
      ],
      "name": "readVote",
      "outputs": [
        {
          "name": "_vote",
          "type": "bool"
        },
        {
          "name": "_weight",
          "type": "uint256"
        }
      ],
      "payable": false,
      "stateMutability": "view",
      "type": "function"
    },
    {
      "constant": false,
      "inputs": [
        {
          "name": "_voting",
          "type": "DaoStructs.Voting storage"
        },
        {
          "name": "_voter",
          "type": "address"
        },
        {
          "name": "_vote",
          "type": "bool"
        },
        {
          "name": "_weight",
          "type": "uint256"
        }
      ],
      "name": "revealVote",
      "outputs": [],
      "payable": false,
      "stateMutability": "nonpayable",
      "type": "function"
    },
    {
      "constant": true,
      "inputs": [
        {
          "name": "_version",
          "type": "DaoStructs.ProposalVersion storage"
        }
      ],
      "name": "readVersion",
      "outputs": [
        {
          "name": "_doc",
          "type": "bytes32"
        },
        {
          "name": "_created",
          "type": "uint256"
        },
        {
          "name": "_milestoneFundings",
          "type": "uint256[]"
        },
        {
          "name": "_finalReward",
          "type": "uint256"
        }
      ],
      "payable": false,
      "stateMutability": "view",
      "type": "function"
    },
    {
      "constant": true,
      "inputs": [
        {
          "name": "_proposal",
          "type": "DaoStructs.Proposal storage"
        },
        {
          "name": "_milestoneIndex",
          "type": "uint256"
        }
      ],
      "name": "readProposalMilestone",
      "outputs": [
        {
          "name": "_funding",
          "type": "uint256"
        }
      ],
      "payable": false,
      "stateMutability": "view",
      "type": "function"
    },
    {
      "constant": false,
      "inputs": [
        {
          "name": "_proposal",
          "type": "DaoStructs.Proposal storage"
        },
        {
          "name": "_newDoc",
          "type": "bytes32"
        },
        {
          "name": "_newMilestoneFundings",
          "type": "uint256[]"
        },
        {
          "name": "_finalReward",
          "type": "uint256"
        }
      ],
      "name": "addProposalVersion",
      "outputs": [],
      "payable": false,
      "stateMutability": "nonpayable",
      "type": "function"
    }
  ],
  "bytecode": "0x610d15610030600b82828239805160001a6073146000811461002057610022565bfe5b5030600052607381538281f300730000000000000000000000000000000000000000301460806040526004361061009a576000357c0100000000000000000000000000000000000000000000000000000000900463ffffffff16806310d31f641461009f5780631728cc36146101315780631a14c51b1461016f5780634bf150b9146101d2578063b31ee28c14610231578063ea496bc9146102af578063f53380cf14610337575b600080fd5b6100bd60048036038101908080359060200190929190505050610402565b60405180856000191660001916815260200184815260200180602001838152602001828103825284818151815260200191508051906020019060200280838360005b8381101561011a5780820151818401526020810190506100ff565b505050509050019550505050505060405180910390f35b610159600480360381019080803590602001909291908035906020019092919050505061047a565b6040518082815260200191505060405180910390f35b81801561017b57600080fd5b506101d060048036038101908080359060200190929190803573ffffffffffffffffffffffffffffffffffffffff16906020019092919080351515906020019092919080359060200190929190505050610549565b005b61021060048036038101908080359060200190929190803573ffffffffffffffffffffffffffffffffffffffff1690602001909291905050506105e7565b60405180831515151581526020018281526020019250505060405180910390f35b61029260048036038101908080359060200190929190803590602001908201803590602001908080602002602001604051908101604052809392919081815260200183836020028082843782019150505050505091929192905050506106d1565b604051808381526020018281526020019250505060405180910390f35b8180156102bb57600080fd5b5061033560048036038101908080359060200190929190803560001916906020019092919080359060200190820180359060200190808060200260200160405190810160405280939291908181526020018383602002808284378201915050505050509192919290803590602001909291905050506108a1565b005b6103a46004803603810190808035906020019092919080359060200190820180359060200190808060200260200160405190810160405280939291908181526020018383602002808284378201915050505050509192919290803515159060200190929190505050610a31565b6040518080602001838152602001828103825284818151815260200191508051906020019060200280838360005b838110156103ed5780820151818401526020810190506103d2565b50505050905001935050505060405180910390f35b6000806060600084600001549350846001015492508460030180548060200260200160405190810160405280929190818152602001828054801561046557602002820191906000526020600020905b815481526020019060010190808311610451575b50505050509150846004015490509193509193565b60008060008460160154915084600b01600083600019166000191681526020019081526020016000206003018054905090508084111515156104bb57600080fd5b6000600102600019168260001916141515156104d657600080fd5b8084101561051d5784600b01600083600019166000191681526020019081526020016000206003018481548110151561050b57fe5b90600052602060002001549250610541565b84600b01600083600019166000191681526020019081526020016000206004015492505b505092915050565b811561059a57808460030160008573ffffffffffffffffffffffffffffffffffffffff1673ffffffffffffffffffffffffffffffffffffffff168152602001908152602001600020819055506105e1565b808460040160008573ffffffffffffffffffffffffffffffffffffffff1673ffffffffffffffffffffffffffffffffffffffff168152602001908152602001600020819055505b50505050565b60008060008460030160008573ffffffffffffffffffffffffffffffffffffffff1673ffffffffffffffffffffffffffffffffffffffff168152602001908152602001600020541115610681578360030160008473ffffffffffffffffffffffffffffffffffffffff1673ffffffffffffffffffffffffffffffffffffffff168152602001908152602001600020549050600191506106ca565b8360040160008473ffffffffffffffffffffffffffffffffffffffff1673ffffffffffffffffffffffffffffffffffffffff168152602001908152602001600020549050600091505b9250929050565b60008060008084519150600090505b8181101561089857600086600301600087848151811015156106fe57fe5b9060200190602002015173ffffffffffffffffffffffffffffffffffffffff1673ffffffffffffffffffffffffffffffffffffffff1681526020019081526020016000205411156107bb576107b4866003016000878481518110151561076057fe5b9060200190602002015173ffffffffffffffffffffffffffffffffffffffff1673ffffffffffffffffffffffffffffffffffffffff1681526020019081526020016000205485610c5b90919063ffffffff16565b935061088b565b600086600401600087848151811015156107d157fe5b9060200190602002015173ffffffffffffffffffffffffffffffffffffffff1673ffffffffffffffffffffffffffffffffffffffff16815260200190815260200160002054111561088a57610887866004016000878481518110151561083357fe5b9060200190602002015173ffffffffffffffffffffffffffffffffffffffff1673ffffffffffffffffffffffffffffffffffffffff1681526020019081526020016000205484610c5b90919063ffffffff16565b92505b5b80806001019150506106e0565b50509250929050565b8360050173__DoublyLinkedList______________________63582f30b49091856040518363ffffffff167c01000000000000000000000000000000000000000000000000000000000281526004018083815260200182600019166000191681526020019250505060206040518083038186803b15801561092157600080fd5b505af4158015610935573d6000803e3d6000fd5b505050506040513d602081101561094b57600080fd5b8101908080519060200190929190505050508284600b016000856000191660001916815260200190815260200160002060000181600019169055504284600b016000856000191660001916815260200190815260200160002060010181905550815184600b0160008560001916600019168152602001908152602001600020600201819055508184600b01600085600019166000191681526020019081526020016000206003019080519060200190610a05929190610c77565b508084600b01600085600019166000191681526020019081526020016000206004018190555050505050565b60606000806000855191506000925081604051908082528060200260200182016040528015610a6f5781602001602082028038833980820191505090505b509350600115158515151415610b6a57600090505b81811015610b655760008760030160008884815181101515610aa257fe5b9060200190602002015173ffffffffffffffffffffffffffffffffffffffff1673ffffffffffffffffffffffffffffffffffffffff168152602001908152602001600020541115610b58578581815181101515610afb57fe5b906020019060200201518484815181101515610b1357fe5b9060200190602002019073ffffffffffffffffffffffffffffffffffffffff16908173ffffffffffffffffffffffffffffffffffffffff168152505082806001019350505b8080600101915050610a84565b610c51565b600090505b81811015610c505760008760040160008884815181101515610b8d57fe5b9060200190602002015173ffffffffffffffffffffffffffffffffffffffff1673ffffffffffffffffffffffffffffffffffffffff168152602001908152602001600020541115610c43578581815181101515610be657fe5b906020019060200201518484815181101515610bfe57fe5b9060200190602002019073ffffffffffffffffffffffffffffffffffffffff16908173ffffffffffffffffffffffffffffffffffffffff168152505082806001019350505b8080600101915050610b6f565b5b5050935093915050565b60008183019050828110151515610c6e57fe5b80905092915050565b828054828255906000526020600020908101928215610cb3579160200282015b82811115610cb2578251825591602001919060010190610c97565b5b509050610cc09190610cc4565b5090565b610ce691905b80821115610ce2576000816000905550600101610cca565b5090565b905600a165627a7a72305820183d84546067afafe1a365a1466bef105dd9bef742c946f2df2a37ff234fc3950029",
  "source": "pragma solidity ^0.4.24;\n\nimport \"@digix/solidity-collections/contracts/lib/DoublyLinkedList.sol\";\nimport 'openzeppelin-solidity/contracts/math/SafeMath.sol';\n\nlibrary DaoStructs {\n    using DoublyLinkedList for DoublyLinkedList.Bytes;\n    using SafeMath for uint256;\n    bytes32 constant EMPTY_BYTES = bytes32(0x0);\n\n    struct PrlAction {\n        // UTC timestamp at which the PRL action was done\n        uint256 at;\n\n        // IPFS hash of the document summarizing the action\n        bytes32 doc;\n\n        // Type of action\n        // check PRL_ACTION_* in \"./../common/DaoConstants.sol\"\n        uint256 actionId;\n    }\n\n    struct Voting {\n        // UTC timestamp at which the voting round starts\n        uint256 startTime;\n\n        // Mapping of whether a commit was used in this voting round\n        mapping (bytes32 => bool) usedCommits;\n\n        // Mapping of commits by address. These are the commits during the commit phase in a voting round\n        // This only stores the most recent commit in the voting round\n        // In case a vote is edited, the previous commit is overwritten by the new commit\n        // Only this new commit is verified at the reveal phase\n        mapping (address => bytes32) commits;\n\n        // This mapping is updated after the reveal phase, when votes are revealed\n        // It is a mapping of address to weight of vote\n        // Weight implies the lockedDGDStake of the address, at the time of revealing\n        // If the address voted \"NO\", or didn't vote, this would be 0\n        mapping (address => uint256) yesVotes;\n\n        // This mapping is updated after the reveal phase, when votes are revealed\n        // It is a mapping of address to weight of vote\n        // Weight implies the lockedDGDStake of the address, at the time of revealing\n        // If the address voted \"YES\", or didn't vote, this would be 0\n        mapping (address => uint256) noVotes;\n\n        // Boolean whether the voting round passed or not\n        bool passed;\n\n        // Boolean whether the voting round results were claimed or not\n        // refer the claimProposalVotingResult function in \"./../interative/DaoVotingClaims.sol\"\n        bool claimed;\n\n        // Boolean whether the milestone following this voting round was funded or not\n        // The milestone is funded when the proposer calls claimFunding in \"./../interactive/DaoFundingManager.sol\"\n        bool funded;\n    }\n\n    struct ProposalVersion {\n        // IPFS doc hash of this version of the proposal\n        bytes32 docIpfsHash;\n\n        // UTC timestamp at which this version was created\n        uint256 created;\n\n        // The number of milestones in the proposal as per this version\n        uint256 milestoneCount;\n\n        // List of fundings required by the proposal as per this version\n        // The numbers are in wei\n        uint256[] milestoneFundings;\n\n        // The final reward asked by the proposer for completion of the entire proposal\n        uint256 finalReward;\n\n        // When a proposal is finalized (calling Dao.finalizeProposal), the proposer can no longer add proposal versions\n        // However, they can still add more details to this final proposal version, in the form of IPFS docs.\n        // These IPFS docs are stored in this array\n        bytes32[] moreDocs;\n    }\n\n    struct Proposal {\n        // ID of the proposal. Also the IPFS hash of the first ProposalVersion\n        bytes32 proposalId;\n\n        // Address of the user who created the proposal\n        address proposer;\n\n        // Address of the moderator who endorsed the proposal\n        address endorser;\n\n        // current state of the proposal\n        // refer PROPOSAL_STATE_* in \"./../common/DaoConstants.sol\"\n        bytes32 currentState;\n\n        // UTC timestamp at which the proposal was created\n        uint256 timeCreated;\n\n        // DoublyLinkedList of IPFS doc hashes of the various versions of the proposal\n        DoublyLinkedList.Bytes proposalVersionDocs;\n\n        // Mapping of version (IPFS doc hash) to ProposalVersion struct\n        mapping (bytes32 => ProposalVersion) proposalVersions;\n\n        // Voting struct for the draft voting round\n        Voting draftVoting;\n\n        // Mapping of voting round index (starts from 0) to Voting struct\n        // votingRounds[0] is the Voting round of the proposal, which lasts for get_uint_config(CONFIG_VOTING_PHASE_TOTAL)\n        // votingRounds[i] for i>0 are the Interim Voting rounds of the proposal, which lasts for get_uint_config(CONFIG_INTERIM_PHASE_TOTAL)\n        mapping (uint256 => Voting) votingRounds;\n\n        // Boolean whether the proposal is paused/stopped at the moment\n        bool isPausedOrStopped;\n\n        // Boolean whether the proposal was created by a founder role\n        bool isDigix;\n\n        // Every proposal has a collateral tied to it with a value of\n        // get_uint_config(CONFIG_PREPROPOSAL_DEPOSIT) (refer \"./../storage/DaoConfigsStorage.sol\")\n        // Collateral can be in different states\n        // refer COLLATERAL_STATUS_* in \"./../common/DaoConstants.sol\"\n        uint256 collateralStatus;\n        uint256 collateralAmount;\n\n        // The final version of the proposal\n        // Every proposal needs to be finalized before it can be voted on\n        // This is the IPFS doc hash of the final version\n        bytes32 finalVersion;\n\n        // List of PrlAction structs\n        // These are all the actions done by the PRL on the proposal\n        PrlAction[] prlActions;\n    }\n\n    function countVotes(Voting storage _voting, address[] memory _allUsers)\n        public\n        constant\n        returns (uint256 _for, uint256 _against)\n    {\n        uint256 _n = _allUsers.length;\n        for (uint256 i = 0; i < _n; i++) {\n            if (_voting.yesVotes[_allUsers[i]] > 0) {\n                _for = _for.add(_voting.yesVotes[_allUsers[i]]);\n            } else if (_voting.noVotes[_allUsers[i]] > 0) {\n                _against = _against.add(_voting.noVotes[_allUsers[i]]);\n            }\n        }\n    }\n\n    // get the list of voters who voted _vote (true-yes/false-no)\n    function listVotes(Voting storage _voting, address[] _allUsers, bool _vote)\n        public\n        constant\n        returns (address[] memory _voters, uint256 _length)\n    {\n        uint256 _n = _allUsers.length;\n        uint256 i;\n        _length = 0;\n        _voters = new address[](_n);\n        if (_vote == true) {\n            for (i = 0; i < _n; i++) {\n                if (_voting.yesVotes[_allUsers[i]] > 0) {\n                    _voters[_length] = _allUsers[i];\n                    _length++;\n                }\n            }\n        } else {\n            for (i = 0; i < _n; i++) {\n                if (_voting.noVotes[_allUsers[i]] > 0) {\n                    _voters[_length] = _allUsers[i];\n                    _length++;\n                }\n            }\n        }\n    }\n\n    function readVote(Voting storage _voting, address _voter)\n        public\n        constant\n        returns (bool _vote, uint256 _weight)\n    {\n        if (_voting.yesVotes[_voter] > 0) {\n            _weight = _voting.yesVotes[_voter];\n            _vote = true;\n        } else {\n            _weight = _voting.noVotes[_voter]; // if _voter didnt vote at all, the weight will be 0 anyway\n            _vote = false;\n        }\n    }\n\n    function revealVote(\n        Voting storage _voting,\n        address _voter,\n        bool _vote,\n        uint256 _weight\n    )\n        public\n    {\n        if (_vote) {\n            _voting.yesVotes[_voter] = _weight;\n        } else {\n            _voting.noVotes[_voter] = _weight;\n        }\n    }\n\n    function readVersion(ProposalVersion storage _version)\n        public\n        constant\n        returns (\n            bytes32 _doc,\n            uint256 _created,\n            uint256[] _milestoneFundings,\n            uint256 _finalReward\n        )\n    {\n        _doc = _version.docIpfsHash;\n        _created = _version.created;\n        _milestoneFundings = _version.milestoneFundings;\n        _finalReward = _version.finalReward;\n    }\n\n    // read the funding for a particular milestone of a finalized proposal\n    // if _milestoneId is the same as _milestoneCount, it returns the final reward\n    function readProposalMilestone(Proposal storage _proposal, uint256 _milestoneIndex)\n        public\n        constant\n        returns (uint256 _funding)\n    {\n        bytes32 _finalVersion = _proposal.finalVersion;\n        uint256 _milestoneCount = _proposal.proposalVersions[_finalVersion].milestoneFundings.length;\n        require(_milestoneIndex <= _milestoneCount);\n        require(_finalVersion != EMPTY_BYTES); // the proposal must have been finalized\n\n        if (_milestoneIndex < _milestoneCount) {\n            _funding = _proposal.proposalVersions[_finalVersion].milestoneFundings[_milestoneIndex];\n        } else {\n            _funding = _proposal.proposalVersions[_finalVersion].finalReward;\n        }\n    }\n\n    function addProposalVersion(\n        Proposal storage _proposal,\n        bytes32 _newDoc,\n        uint256[] _newMilestoneFundings,\n        uint256 _finalReward\n    )\n        public\n    {\n        _proposal.proposalVersionDocs.append(_newDoc);\n        _proposal.proposalVersions[_newDoc].docIpfsHash = _newDoc;\n        _proposal.proposalVersions[_newDoc].created = now;\n        _proposal.proposalVersions[_newDoc].milestoneCount = _newMilestoneFundings.length;\n        _proposal.proposalVersions[_newDoc].milestoneFundings = _newMilestoneFundings;\n        _proposal.proposalVersions[_newDoc].finalReward = _finalReward;\n    }\n\n    struct SpecialProposal {\n        // ID of the special proposal\n        // This is the IPFS doc hash of the proposal\n        bytes32 proposalId;\n\n        // Address of the user who created the special proposal\n        // This address should also be in the ROLES_FOUNDERS group\n        // refer \"./../storage/DaoIdentityStorage.sol\"\n        address proposer;\n\n        // UTC timestamp at which the proposal was created\n        uint256 timeCreated;\n\n        // Voting struct for the special proposal\n        Voting voting;\n\n        // List of the new uint256 configs as per the special proposal\n        uint256[] uintConfigs;\n\n        // List of the new address configs as per the special proposal\n        address[] addressConfigs;\n\n        // List of the new bytes32 configs as per the special proposal\n        bytes32[] bytesConfigs;\n    }\n\n    // All configs are as per the DaoConfigsStorage values at the time when\n    // calculateGlobalRewardsBeforeNewQuarter is called by founder in that quarter\n    struct DaoQuarterInfo {\n        // The minimum quarter points required\n        // below this, reputation will be deducted\n        uint256 minimalParticipationPoint;\n\n        // The scaling factor for quarter point\n        uint256 quarterPointScalingFactor;\n\n        // The scaling factor for reputation point\n        uint256 reputationPointScalingFactor;\n\n        // The summation of effectiveDGDs in the previous quarter\n        // The effectiveDGDs represents the effective participation in DigixDAO in a quarter\n        // Which depends on lockedDGDStake, quarter point and reputation point\n        // This value is the summation of all participant effectiveDGDs\n        // It will be used to calculate the fraction of effectiveDGD a user has,\n        // which will determine his portion of DGX rewards for that quarter\n        uint256 totalEffectiveDGDPreviousQuarter;\n\n        // The minimum moderator quarter point required\n        // below this, reputation will be deducted for moderators\n        uint256 moderatorMinimalParticipationPoint;\n\n        // the scaling factor for moderator quarter point\n        uint256 moderatorQuarterPointScalingFactor;\n\n        // the scaling factor for moderator reputation point\n        uint256 moderatorReputationPointScalingFactor;\n\n        // The summation of effectiveDGDs (only specific to moderators)\n        uint256 totalEffectiveModeratorDGDLastQuarter;\n\n        // UTC timestamp from which the DGX rewards for the previous quarter are distributable to Holders\n        uint256 dgxDistributionDay;\n\n        // This is the rewards pool for the previous quarter. This is the sum of the DGX fees coming in from the collector, and the demurrage that has incurred\n        // when user call claimRewards() in the previous quarter.\n        // more graphical explanation: https://ipfs.io/ipfs/QmZDgFFMbyF3dvuuDfoXv5F6orq4kaDPo7m3QvnseUguzo\n        uint256 dgxRewardsPoolLastQuarter;\n\n        // The summation of all dgxRewardsPoolLastQuarter up until this quarter\n        uint256 sumRewardsFromBeginning;\n    }\n\n    // There are many function calls where all calculations/summations cannot be done in one transaction\n    // and require multiple transactions.\n    // This struct stores the intermediate results in between the calculating transactions\n    // These intermediate results are stored in IntermediateResultsStorage\n    struct IntermediateResults {\n        // Address of user until which the calculation has been done\n        address countedUntil;\n\n        // weight of \"FOR\" votes counted up until the current calculation step\n        uint256 currentForCount;\n\n        // weight of \"AGAINST\" votes counted up until the current calculation step\n        uint256 currentAgainstCount;\n\n        // summation of effectiveDGDs up until the iteration of calculation\n        uint256 currentSumOfEffectiveBalance;\n    }\n}\n",
  "sourcePath": "/home/rohit/Develop/dao-contracts/contracts/lib/DaoStructs.sol",
  "compiler": {
    "name": "solc",
    "version": "0.4.24+commit.e67f0147.Emscripten.clang"
  },
  "schemaVersion": "2.0.1",
  "updatedAt": "2018-10-08T06:55:24.905Z"
}