{
  "contractName": "DaoVotingClaims",
  "abi": [
    {
      "constant": true,
      "inputs": [],
      "name": "resolver",
      "outputs": [
        {
          "name": "",
          "type": "address"
        }
      ],
      "payable": false,
      "stateMutability": "view",
      "type": "function"
    },
    {
      "constant": true,
      "inputs": [],
      "name": "currentQuarterIndex",
      "outputs": [
        {
          "name": "_quarterIndex",
          "type": "uint256"
        }
      ],
      "payable": false,
      "stateMutability": "view",
      "type": "function"
    },
    {
      "constant": true,
      "inputs": [
        {
          "name": "_configKey",
          "type": "bytes32"
        }
      ],
      "name": "getAddressConfig",
      "outputs": [
        {
          "name": "_configValue",
          "type": "address"
        }
      ],
      "payable": false,
      "stateMutability": "view",
      "type": "function"
    },
    {
      "constant": true,
      "inputs": [],
      "name": "key",
      "outputs": [
        {
          "name": "",
          "type": "bytes32"
        }
      ],
      "payable": false,
      "stateMutability": "view",
      "type": "function"
    },
    {
      "constant": true,
      "inputs": [
        {
          "name": "_key",
          "type": "bytes32"
        }
      ],
      "name": "get_contract",
      "outputs": [
        {
          "name": "_contract",
          "type": "address"
        }
      ],
      "payable": false,
      "stateMutability": "view",
      "type": "function"
    },
    {
      "constant": true,
      "inputs": [],
      "name": "currentTimeInQuarter",
      "outputs": [
        {
          "name": "_currentT",
          "type": "uint256"
        }
      ],
      "payable": false,
      "stateMutability": "view",
      "type": "function"
    },
    {
      "constant": true,
      "inputs": [],
      "name": "isMainPhase",
      "outputs": [
        {
          "name": "_isMainPhase",
          "type": "bool"
        }
      ],
      "payable": false,
      "stateMutability": "view",
      "type": "function"
    },
    {
      "constant": true,
      "inputs": [],
      "name": "isLockingPhase",
      "outputs": [
        {
          "name": "_isLockingPhase",
          "type": "bool"
        }
      ],
      "payable": false,
      "stateMutability": "view",
      "type": "function"
    },
    {
      "constant": true,
      "inputs": [
        {
          "name": "_user",
          "type": "address"
        }
      ],
      "name": "isParticipant",
      "outputs": [
        {
          "name": "_is",
          "type": "bool"
        }
      ],
      "payable": false,
      "stateMutability": "view",
      "type": "function"
    },
    {
      "constant": true,
      "inputs": [
        {
          "name": "_configKey",
          "type": "bytes32"
        }
      ],
      "name": "getBytesConfig",
      "outputs": [
        {
          "name": "_configValue",
          "type": "bytes32"
        }
      ],
      "payable": false,
      "stateMutability": "view",
      "type": "function"
    },
    {
      "constant": true,
      "inputs": [
        {
          "name": "_configKey",
          "type": "bytes32"
        }
      ],
      "name": "getUintConfig",
      "outputs": [
        {
          "name": "_configValue",
          "type": "uint256"
        }
      ],
      "payable": false,
      "stateMutability": "view",
      "type": "function"
    },
    {
      "constant": true,
      "inputs": [],
      "name": "isDaoNotReplaced",
      "outputs": [
        {
          "name": "_isNotReplaced",
          "type": "bool"
        }
      ],
      "payable": false,
      "stateMutability": "view",
      "type": "function"
    },
    {
      "constant": true,
      "inputs": [],
      "name": "CONTRACT_ADDRESS",
      "outputs": [
        {
          "name": "",
          "type": "address"
        }
      ],
      "payable": false,
      "stateMutability": "view",
      "type": "function"
    },
    {
      "constant": true,
      "inputs": [
        {
          "name": "_proposalId",
          "type": "bytes32"
        }
      ],
      "name": "isProposalPaused",
      "outputs": [
        {
          "name": "_isPausedOrStopped",
          "type": "bool"
        }
      ],
      "payable": false,
      "stateMutability": "view",
      "type": "function"
    },
    {
      "constant": true,
      "inputs": [
        {
          "name": "_user",
          "type": "address"
        }
      ],
      "name": "isModerator",
      "outputs": [
        {
          "name": "_is",
          "type": "bool"
        }
      ],
      "payable": false,
      "stateMutability": "view",
      "type": "function"
    },
    {
      "inputs": [
        {
          "name": "_resolver",
          "type": "address"
        }
      ],
      "payable": false,
      "stateMutability": "nonpayable",
      "type": "constructor"
    },
    {
      "constant": false,
      "inputs": [
        {
          "name": "_proposalId",
          "type": "bytes32"
        },
        {
          "name": "_operations",
          "type": "uint256"
        }
      ],
      "name": "claimDraftVotingResult",
      "outputs": [
        {
          "name": "_passed",
          "type": "bool"
        },
        {
          "name": "_done",
          "type": "bool"
        }
      ],
      "payable": false,
      "stateMutability": "nonpayable",
      "type": "function"
    },
    {
      "constant": false,
      "inputs": [
        {
          "name": "_proposalId",
          "type": "bytes32"
        },
        {
          "name": "_index",
          "type": "uint256"
        },
        {
          "name": "_operations",
          "type": "uint256"
        }
      ],
      "name": "claimProposalVotingResult",
      "outputs": [
        {
          "name": "_passed",
          "type": "bool"
        },
        {
          "name": "_done",
          "type": "bool"
        }
      ],
      "payable": false,
      "stateMutability": "nonpayable",
      "type": "function"
    },
    {
      "constant": true,
      "inputs": [
        {
          "name": "_proposalId",
          "type": "bytes32"
        }
      ],
      "name": "getInterResultKeyForBonusCalculation",
      "outputs": [
        {
          "name": "_key",
          "type": "bytes32"
        }
      ],
      "payable": false,
      "stateMutability": "view",
      "type": "function"
    }
  ],
  "bytecode": "0x608060405260006001026003906000191690556000600460006101000a81548173ffffffffffffffffffffffffffffffffffffffff021916908373ffffffffffffffffffffffffffffffffffffffff1602179055507f70726f706f73616c5f73746174655f70726570726f706f73616c0000000000006005906000191690557f70726f706f73616c5f73746174655f64726166740000000000000000000000006006906000191690557f70726f706f73616c5f73746174655f6d6f6465726174656400000000000000006007906000191690557f70726f706f73616c5f73746174655f6f6e676f696e67000000000000000000006008906000191690557f70726f706f73616c5f73746174655f636c6f73656400000000000000000000006009906000191690556001600a556002600b556003600c556001600d556002600e556003600f557f696e7465725f6467645f696400000000000000000000000000000000000000006010906000191690557f696e7465725f6d6f645f6467645f6964000000000000000000000000000000006011906000191690557f696e7465725f626f6e75735f63616c63756c6174696f6e5f69640000000000006012906000191690557f64616f00000000000000000000000000000000000000000000000000000000006013906000191690557f64616f3a7370656369616c3a70726f706f73616c0000000000000000000000006014906000191690557f64616f3a7374616b652d6c6f636b696e670000000000000000000000000000006015906000191690557f64616f3a766f74696e67000000000000000000000000000000000000000000006016906000191690557f64616f3a766f74696e673a636c61696d730000000000000000000000000000006017906000191690557f64616f3a73766f74696e673a636c61696d7300000000000000000000000000006018906000191690557f64616f3a6964656e7469747900000000000000000000000000000000000000006019906000191690557f64616f3a726577617264732d6d616e6167657200000000000000000000000000601a906000191690557f64616f3a726577617264732d6578747261730000000000000000000000000000601b906000191690557f64616f3a726f6c65730000000000000000000000000000000000000000000000601c906000191690557f64616f3a66756e64696e672d6d616e6167657200000000000000000000000000601d906000191690557f64616f3a77686974656c697374696e6700000000000000000000000000000000601e906000191690557f736572766963653a726f6c650000000000000000000000000000000000000000601f906000191690557f736572766963653a64616f3a696e666f000000000000000000000000000000006020906000191690557f736572766963653a64616f3a6c697374696e67000000000000000000000000006021906000191690557f736572766963653a64616f3a63616c63756c61746f72000000000000000000006022906000191690557f73746f726167653a64616f0000000000000000000000000000000000000000006023906000191690557f73746f726167653a64616f3a75706772616465000000000000000000000000006024906000191690557f73746f726167653a64616f3a6964656e746974790000000000000000000000006025906000191690557f73746f726167653a64616f3a706f696e747300000000000000000000000000006026906000191690557f73746f726167653a64616f3a7370656369616c000000000000000000000000006027906000191690557f73746f726167653a64616f3a636f6e66696700000000000000000000000000006028906000191690557f73746f726167653a64616f3a7374616b650000000000000000000000000000006029906000191690557f73746f726167653a64616f3a66756e64696e6700000000000000000000000000602a906000191690557f73746f726167653a64616f3a7265776172647300000000000000000000000000602b906000191690557f73746f726167653a64616f3a77686974656c697374696e670000000000000000602c906000191690557f73746f726167653a696e7465726d6564696174653a726573756c747300000000602d906000191690557f73746f726167653a64616f3a636f6c6c61746572616c00000000000000000000602e906000191690557f743a646764000000000000000000000000000000000000000000000000000000602f906000191690557f743a6467780000000000000000000000000000000000000000000000000000006030906000191690557f743a6261646765000000000000000000000000000000000000000000000000006031906000191690556001603260006101000a81548160ff021916908360ff1602179055506002603260016101000a81548160ff021916908360ff1602179055506003603260026101000a81548160ff021916908360ff1602179055506004603260036101000a81548160ff021916908360ff1602179055506276a7006033557f6d696e5f6467645f7061727469636970616e74000000000000000000000000006034906000191690557f6d696e5f6467645f6d6f64657261746f720000000000000000000000000000006035906000191690557f6d696e5f72657075746174696f6e5f6d6f64657261746f7200000000000000006036906000191690557f6c6f636b696e675f70686173655f6475726174696f6e000000000000000000006037906000191690557f717561727465725f6475726174696f6e000000000000000000000000000000006038906000191690557f766f74696e675f636f6d6d69745f7068617365000000000000000000000000006039906000191690557f766f74696e675f70686173655f746f74616c0000000000000000000000000000603a906000191690557f696e746572696d5f766f74696e675f636f6d6d69745f70686173650000000000603b906000191690557f696e746572696d5f766f74696e675f70686173655f746f74616c000000000000603c906000191690557f64726166745f71756f72756d5f66697865645f6e756d657261746f7200000000603d906000191690557f64726166745f71756f72756d5f66697865645f64656e6f6d696e61746f720000603e906000191690557f64726166745f71756f72756d5f73666163746f725f6e756d657261746f720000603f906000191690557f64726166745f71756f72756d5f73666163746f725f64656e6f6d696e61746f726040906000191690557f766f74655f71756f72756d5f66697865645f6e756d657261746f7200000000006041906000191690557f766f74655f71756f72756d5f66697865645f64656e6f6d696e61746f720000006042906000191690557f766f74655f71756f72756d5f73666163746f725f6e756d657261746f720000006043906000191690557f766f74655f71756f72756d5f73666163746f725f64656e6f6d696e61746f72006044906000191690557f66696e616c5f7265776172645f73666163746f725f6e756d657261746f7200006045906000191690557f66696e616c5f7265776172645f73666163746f725f64656e6f6d696e61746f726046906000191690557f64726166745f71756f74615f6e756d657261746f7200000000000000000000006047906000191690557f64726166745f71756f74615f64656e6f6d696e61746f720000000000000000006048906000191690557f766f74696e675f71756f74615f6e756d657261746f72000000000000000000006049906000191690557f766f74696e675f71756f74615f64656e6f6d696e61746f720000000000000000604a906000191690557f6d696e696d616c5f717000000000000000000000000000000000000000000000604b906000191690557f717561727465725f706f696e745f7363616c696e675f666163746f7200000000604c906000191690557f7265705f706f696e745f7363616c696e675f666163746f720000000000000000604d906000191690557f6d696e696d616c5f6d6f645f7170000000000000000000000000000000000000604e906000191690557f6d6f645f71705f7363616c696e675f666163746f720000000000000000000000604f906000191690557f6d6f645f7265705f706f696e745f7363616c696e675f666163746f72000000006050906000191690557f717561727465725f706f696e745f64726166745f766f746500000000000000006051906000191690557f717561727465725f706f696e745f766f746500000000000000000000000000006052906000191690557f717561727465725f706f696e745f696e746572696d5f766f74650000000000006053906000191690557f717561727465725f706f696e745f636c61696d5f726573756c740000000000006054906000191690557f715f705f6d696c6573746f6e655f636f6d706c6574696f6e00000000000000006055906000191690557f626f6e75735f72657075746174696f6e5f6e756d657261746f720000000000006056906000191690557f626f6e75735f72657075746174696f6e5f64656e6f6d696e61746f72000000006057906000191690557f7370656369616c5f70726f706f73616c5f636f6d6d69745f70686173650000006058906000191690557f7370656369616c5f70726f706f73616c5f70686173655f746f74616c000000006059906000191690557f636f6e6669675f7370656369616c5f71756f74615f6e756d657261746f720000605a906000191690557f636f6e6669675f7370656369616c5f71756f74615f64656e6f6d696e61746f72605b906000191690557f7370656369616c5f71756f72756d5f6e756d657261746f720000000000000000605c906000191690557f7370656369616c5f71756f72756d5f64656e6f6d696e61746f72000000000000605d906000191690557f636f6e6669675f6d61785f72657075746174696f6e5f646564756374696f6e00605e906000191690557f636f6e6669675f70756e6973686d656e745f6e6f745f6c6f636b696e67000000605f906000191690557f636f6e6669675f7265705f7065725f65787472615f71705f6e756d00000000006060906000191690557f636f6e6669675f7265705f7065725f65787472615f71705f64656e00000000006061906000191690557f636f6e6669675f6d61785f6d5f72705f646564756374696f6e000000000000006062906000191690557f636f6e6669675f7265705f7065725f65787472615f6d5f71705f6e756d0000006063906000191690557f636f6e6669675f7265705f7065725f65787472615f6d5f71705f64656e0000006064906000191690557f636f6e6669675f6d6f645f706f7274696f6e5f6e756d000000000000000000006065906000191690557f636f6e6669675f6d6f645f706f7274696f6e5f64656e000000000000000000006066906000191690557f636f6e6669675f64726166745f766f74696e675f7068617365000000000000006067906000191690557f636f6e6669675f72705f626f6f73745f7065725f6261646765000000000000006068906000191690557f636f6e6669675f636c61696d696e675f646561646c696e6500000000000000006069906000191690557f636f6e6669675f70726570726f706f73616c5f6465706f736974000000000000606a906000191690557f636f6e6669675f6d61785f66756e64696e675f6e6f6e44696769780000000000606b906000191690557f636f6e6669675f6d61785f6d696c6573746f6e65735f6e6f6e44696769780000606c906000191690557f636f6e6669675f6e6f6e44696769785f70726f706f73616c5f63617000000000606d906000191690557f636f6e6669675f646561645f6475726174696f6e000000000000000000000000606e906000191690557f636f6e6669675f63765f72657075746174696f6e000000000000000000000000606f906000191690553480156200113457600080fd5b506040516020806200653183398101806040528101908080519060200190929190505050620011756017548262001188640100000000026401000000009004565b15156200118157600080fd5b5062001419565b6000808273ffffffffffffffffffffffffffffffffffffffff1663cf3090126040518163ffffffff167c0100000000000000000000000000000000000000000000000000000000028152600401602060405180830381600087803b158015620011f057600080fd5b505af115801562001205573d6000803e3d6000fd5b505050506040513d60208110156200121c57600080fd5b810190808051906020019092919050505090506000151581151514156200140d5730600260006101000a81548173ffffffffffffffffffffffffffffffffffffffff021916908373ffffffffffffffffffffffffffffffffffffffff160217905550826000806101000a81548173ffffffffffffffffffffffffffffffffffffffff021916908373ffffffffffffffffffffffffffffffffffffffff16021790555083600181600019169055506000809054906101000a900473ffffffffffffffffffffffffffffffffffffffff1673ffffffffffffffffffffffffffffffffffffffff1663c0f6ef4a600154600260009054906101000a900473ffffffffffffffffffffffffffffffffffffffff166040518363ffffffff167c01000000000000000000000000000000000000000000000000000000000281526004018083600019166000191681526020018273ffffffffffffffffffffffffffffffffffffffff1673ffffffffffffffffffffffffffffffffffffffff16815260200192505050602060405180830381600087803b158015620013ba57600080fd5b505af1158015620013cf573d6000803e3d6000fd5b505050506040513d6020811015620013e657600080fd5b810190808051906020019092919050505015156200140357600080fd5b6001915062001412565b600091505b5092915050565b61510880620014296000396000f3006080604052600436106100fc576000357c0100000000000000000000000000000000000000000000000000000000900463ffffffff16806304f3bcec146101015780630d7cc561146101585780631d8ccd04146101835780633943380c146101f45780633d554f39146102275780633f83acff1461028f578063560a25ea14610300578063685330601461032b5780637d6fed801461035a57806390e353df14610389578063929066f5146103e757806393ddad0814610442578063b1e2b9dd1461048f578063c66c9efd146104d4578063d70d935814610521578063db4ecbc114610550578063f94f0f33146105a7578063fa6f3936146105f0575b600080fd5b34801561010d57600080fd5b5061011661064b565b604051808273ffffffffffffffffffffffffffffffffffffffff1673ffffffffffffffffffffffffffffffffffffffff16815260200191505060405180910390f35b34801561016457600080fd5b5061016d610670565b6040518082815260200191505060405180910390f35b34801561018f57600080fd5b506101b26004803603810190808035600019169060200190929190505050610680565b604051808273ffffffffffffffffffffffffffffffffffffffff1673ffffffffffffffffffffffffffffffffffffffff16815260200191505060405180910390f35b34801561020057600080fd5b50610209610742565b60405180826000191660001916815260200191505060405180910390f35b34801561023357600080fd5b5061026a60048036038101908080356000191690602001909291908035906020019092919080359060200190929190505050610748565b6040518083151515158152602001821515151581526020019250505060405180910390f35b34801561029b57600080fd5b506102be6004803603810190808035600019169060200190929190505050610c1a565b604051808273ffffffffffffffffffffffffffffffffffffffff1673ffffffffffffffffffffffffffffffffffffffff16815260200191505060405180910390f35b34801561030c57600080fd5b50610315610cf6565b6040518082815260200191505060405180910390f35b34801561033757600080fd5b50610340610d06565b604051808215151515815260200191505060405180910390f35b34801561036657600080fd5b5061036f610d32565b604051808215151515815260200191505060405180910390f35b34801561039557600080fd5b506103c2600480360381019080803560001916906020019092919080359060200190929190505050610d4d565b6040518083151515158152602001821515151581526020019250505060405180910390f35b3480156103f357600080fd5b50610428600480360381019080803573ffffffffffffffffffffffffffffffffffffffff1690602001909291905050506119cf565b604051808215151515815260200191505060405180910390f35b34801561044e57600080fd5b506104716004803603810190808035600019169060200190929190505050611bb0565b60405180826000191660001916815260200191505060405180910390f35b34801561049b57600080fd5b506104be6004803603810190808035600019169060200190929190505050611c72565b6040518082815260200191505060405180910390f35b3480156104e057600080fd5b506105036004803603810190808035600019169060200190929190505050611d34565b60405180826000191660001916815260200191505060405180910390f35b34801561052d57600080fd5b50610536611dd9565b604051808215151515815260200191505060405180910390f35b34801561055c57600080fd5b50610565611e87565b604051808273ffffffffffffffffffffffffffffffffffffffff1673ffffffffffffffffffffffffffffffffffffffff16815260200191505060405180910390f35b3480156105b357600080fd5b506105d66004803603810190808035600019169060200190929190505050611ead565b604051808215151515815260200191505060405180910390f35b3480156105fc57600080fd5b50610631600480360381019080803573ffffffffffffffffffffffffffffffffffffffff169060200190929190505050612002565b604051808215151515815260200191505060405180910390f35b6000809054906101000a900473ffffffffffffffffffffffffffffffffffffffff1681565b600061067b426122d5565b905090565b600061068a6123d8565b73ffffffffffffffffffffffffffffffffffffffff1663e6b39eab836040518263ffffffff167c0100000000000000000000000000000000000000000000000000000000028152600401808260001916600019168152602001915050602060405180830381600087803b15801561070057600080fd5b505af1158015610714573d6000803e3d6000fd5b505050506040513d602081101561072a57600080fd5b81019080805190602001909291905050509050919050565b60015481565b6000808484600015156107596123ea565b73ffffffffffffffffffffffffffffffffffffffff166385f5276f84846040518363ffffffff167c010000000000000000000000000000000000000000000000000000000002815260040180836000191660001916815260200182815260200192505050602060405180830381600087803b1580156107d757600080fd5b505af11580156107eb573d6000803e3d6000fd5b505050506040513d602081101561080157600080fd5b8101908080519060200190929190505050151514151561082057600080fd5b8686600061082c6123ea565b73ffffffffffffffffffffffffffffffffffffffff1663baf4266084846040518363ffffffff167c010000000000000000000000000000000000000000000000000000000002815260040180836000191660001916815260200182815260200192505050602060405180830381600087803b1580156108aa57600080fd5b505af11580156108be573d6000803e3d6000fd5b505050506040513d60208110156108d457600080fd5b810190808051906020019092919050505090506000811115156108f657600080fd5b6109246109156000841461090c57603c54610910565b603a545b611c72565b826123fc90919063ffffffff16565b421015151561093257600080fd5b61093a610d06565b151561094557600080fd5b600195506000965061097361095b606954611c72565b6109658c8c612418565b6123fc90919063ffffffff16565b4210156109a5576109858a8a8a612541565b809850819950829a505050508515156109a45786600096509650610c0d565b5b6000955060008911156109d8576109be8a8a8a8a612d14565b95508515156109d35786600096509650610c0d565b610aa2565b8680156109ea57506109e98a6136e0565b5b96508615610a97576109fa6123ea565b73ffffffffffffffffffffffffffffffffffffffff1663c362c7908b600e546040518363ffffffff167c010000000000000000000000000000000000000000000000000000000002815260040180836000191660001916815260200182815260200192505050600060405180830381600087803b158015610a7a57600080fd5b505af1158015610a8e573d6000803e3d6000fd5b50505050610aa1565b610aa08a61390a565b5b5b8615610ab357610ab28a8a613b5d565b5b610abb6123ea565b73ffffffffffffffffffffffffffffffffffffffff16633e020d2f8b8b60016040518463ffffffff167c0100000000000000000000000000000000000000000000000000000000028152600401808460001916600019168152602001838152602001821515151581526020019350505050600060405180830381600087803b158015610b4657600080fd5b505af1158015610b5a573d6000803e3d6000fd5b50505050610b666123ea565b73ffffffffffffffffffffffffffffffffffffffff16631ea5d62f8b8b8a6040518463ffffffff167c0100000000000000000000000000000000000000000000000000000000028152600401808460001916600019168152602001838152602001821515151581526020019350505050600060405180830381600087803b158015610bf057600080fd5b505af1158015610c04573d6000803e3d6000fd5b50505050600195505b5050505050935093915050565b60008060009054906101000a900473ffffffffffffffffffffffffffffffffffffffff1673ffffffffffffffffffffffffffffffffffffffff16633f83acff836040518263ffffffff167c0100000000000000000000000000000000000000000000000000000000028152600401808260001916600019168152602001915050602060405180830381600087803b158015610cb457600080fd5b505af1158015610cc8573d6000803e3d6000fd5b505050506040513d6020811015610cde57600080fd5b81019080805190602001909291905050509050919050565b6000610d01426141dd565b905090565b6000610d10611dd9565b8015610d2d5750610d22603754611c72565b610d2a610cf6565b10155b905090565b6000610d3f603754611c72565b610d47610cf6565b10905090565b600080610d58615069565b6060610d626150a8565b8660001515610d6f6123ea565b73ffffffffffffffffffffffffffffffffffffffff1663395ddde9836040518263ffffffff167c0100000000000000000000000000000000000000000000000000000000028152600401808260001916600019168152602001915050602060405180830381600087803b158015610de557600080fd5b505af1158015610df9573d6000803e3d6000fd5b505050506040513d6020811015610e0f57600080fd5b81019080805190602001909291905050501515141515610e2e57600080fd5b876000610e396123ea565b73ffffffffffffffffffffffffffffffffffffffff166349a428d0836040518263ffffffff167c0100000000000000000000000000000000000000000000000000000000028152600401808260001916600019168152602001915050602060405180830381600087803b158015610eaf57600080fd5b505af1158015610ec3573d6000803e3d6000fd5b505050506040513d6020811015610ed957600080fd5b81019080805190602001909291905050509050600081111515610efb57600080fd5b610f06606754611c72565b81014210151515610f1657600080fd5b611007610f24606954611c72565b610ff9610f32606754611c72565b610f3a6123ea565b73ffffffffffffffffffffffffffffffffffffffff166349a428d08f6040518263ffffffff167c0100000000000000000000000000000000000000000000000000000000028152600401808260001916600019168152602001915050602060405180830381600087803b158015610fb057600080fd5b505af1158015610fc4573d6000803e3d6000fd5b505050506040513d6020811015610fda57600080fd5b81019080805190602001909291905050506123fc90919063ffffffff16565b6123fc90919063ffffffff16565b42118061101a57506110188a6136e0565b155b1561117b576110276123ea565b73ffffffffffffffffffffffffffffffffffffffff166382e445c68b60006040518363ffffffff167c01000000000000000000000000000000000000000000000000000000000281526004018083600019166000191681526020018215151515815260200192505050600060405180830381600087803b1580156110aa57600080fd5b505af11580156110be573d6000803e3d6000fd5b505050506110ca6123ea565b73ffffffffffffffffffffffffffffffffffffffff166327618ad98b60016040518363ffffffff167c01000000000000000000000000000000000000000000000000000000000281526004018083600019166000191681526020018215151515815260200192505050600060405180830381600087803b15801561114d57600080fd5b505af1158015611161573d6000803e3d6000fd5b5050505061116e8a61390a565b60006001975097506119c2565b6111848a6142c6565b151561118f57600080fd5b6111976143b6565b61119f6144c7565b73ffffffffffffffffffffffffffffffffffffffff166312d0c13b8b6040518263ffffffff167c0100000000000000000000000000000000000000000000000000000000028152600401808260001916600019168152602001915050608060405180830381600087803b15801561121557600080fd5b505af1158015611229573d6000803e3d6000fd5b505050506040513d608081101561123f57600080fd5b81019080805190602001909291908051906020019092919080519060200190929190805190602001909291905050505088600001896020018a60400183815250838152508373ffffffffffffffffffffffffffffffffffffffff1673ffffffffffffffffffffffffffffffffffffffff16815250505050600460009054906101000a900473ffffffffffffffffffffffffffffffffffffffff1673ffffffffffffffffffffffffffffffffffffffff16866000015173ffffffffffffffffffffffffffffffffffffffff16141561142b576113186144d9565b73ffffffffffffffffffffffffffffffffffffffff166385f0e4bf8a60016040518363ffffffff167c0100000000000000000000000000000000000000000000000000000000028152600401808381526020018215151515815260200192505050600060405180830381600087803b15801561139357600080fd5b505af11580156113a7573d6000803e3d6000fd5b505050506040513d6000823e3d601f19601f8201168201806040525060208110156113d157600080fd5b8101908080516401000000008111156113e957600080fd5b828101905060208101848111156113ff57600080fd5b815185602082028301116401000000008211171561141c57600080fd5b5050929190505050945061157a565b6114336144d9565b73ffffffffffffffffffffffffffffffffffffffff166340c7174e87600001518b60016040518463ffffffff167c0100000000000000000000000000000000000000000000000000000000028152600401808473ffffffffffffffffffffffffffffffffffffffff1673ffffffffffffffffffffffffffffffffffffffff168152602001838152602001821515151581526020019350505050600060405180830381600087803b1580156114e657600080fd5b505af11580156114fa573d6000803e3d6000fd5b505050506040513d6000823e3d601f19601f82011682018060405250602081101561152457600080fd5b81019080805164010000000081111561153c57600080fd5b8281019050602081018481111561155257600080fd5b815185602082028301116401000000008211171561156f57600080fd5b505092919050505094505b6115826123ea565b73ffffffffffffffffffffffffffffffffffffffff1663bb3b5f6d8b876040518363ffffffff167c010000000000000000000000000000000000000000000000000000000002815260040180836000191660001916815260200180602001828103825283818151815260200191508051906020019060200280838360005b8381101561161b578082015181840152602081019050611600565b5050505090500193505050506040805180830381600087803b15801561164057600080fd5b505af1158015611654573d6000803e3d6000fd5b505050506040513d604081101561166a57600080fd5b8101908080519060200190929190805190602001909291905050508560000186602001828152508281525050508460018651038151811015156116a957fe5b90602001906020020151866000019073ffffffffffffffffffffffffffffffffffffffff16908173ffffffffffffffffffffffffffffffffffffffff1681525050611705846000015187602001516123fc90919063ffffffff16565b866020018181525050611729846020015187604001516123fc90919063ffffffff16565b86604001818152505061173a6144eb565b73ffffffffffffffffffffffffffffffffffffffff1663bbb03dc26040518163ffffffff167c0100000000000000000000000000000000000000000000000000000000028152600401602060405180830381600087803b15801561179d57600080fd5b505af11580156117b1573d6000803e3d6000fd5b505050506040513d60208110156117c757600080fd5b810190808051906020019092919050505073ffffffffffffffffffffffffffffffffffffffff1685600187510381518110151561180057fe5b9060200190602002015173ffffffffffffffffffffffffffffffffffffffff1614156118d1576118308a876144fd565b97506001965061183e6144c7565b73ffffffffffffffffffffffffffffffffffffffff1663d590f4ab8b6040518263ffffffff167c0100000000000000000000000000000000000000000000000000000000028152600401808260001916600019168152602001915050600060405180830381600087803b1580156118b457600080fd5b505af11580156118c8573d6000803e3d6000fd5b505050506119c1565b6118d96144c7565b73ffffffffffffffffffffffffffffffffffffffff16636e3f777c8b886000015189602001518a6040015160006040518663ffffffff167c01000000000000000000000000000000000000000000000000000000000281526004018086600019166000191681526020018573ffffffffffffffffffffffffffffffffffffffff1673ffffffffffffffffffffffffffffffffffffffff16815260200184815260200183815260200182815260200195505050505050600060405180830381600087803b1580156119a857600080fd5b505af11580156119bc573d6000803e3d6000fd5b505050505b5b5050505050509250929050565b60006119d9610670565b6119e1614a2e565b73ffffffffffffffffffffffffffffffffffffffff1663cefc2bff846040518263ffffffff167c0100000000000000000000000000000000000000000000000000000000028152600401808273ffffffffffffffffffffffffffffffffffffffff1673ffffffffffffffffffffffffffffffffffffffff168152602001915050602060405180830381600087803b158015611a7b57600080fd5b505af1158015611a8f573d6000803e3d6000fd5b505050506040513d6020811015611aa557600080fd5b8101908080519060200190929190505050148015611ba95750611ac9603454611c72565b611ad16144eb565b73ffffffffffffffffffffffffffffffffffffffff1663cd094a27846040518263ffffffff167c0100000000000000000000000000000000000000000000000000000000028152600401808273ffffffffffffffffffffffffffffffffffffffff1673ffffffffffffffffffffffffffffffffffffffff168152602001915050602060405180830381600087803b158015611b6b57600080fd5b505af1158015611b7f573d6000803e3d6000fd5b505050506040513d6020811015611b9557600080fd5b810190808051906020019092919050505010155b9050919050565b6000611bba6123d8565b73ffffffffffffffffffffffffffffffffffffffff1663c0a8405d836040518263ffffffff167c0100000000000000000000000000000000000000000000000000000000028152600401808260001916600019168152602001915050602060405180830381600087803b158015611c3057600080fd5b505af1158015611c44573d6000803e3d6000fd5b505050506040513d6020811015611c5a57600080fd5b81019080805190602001909291905050509050919050565b6000611c7c6123d8565b73ffffffffffffffffffffffffffffffffffffffff1663734c1168836040518263ffffffff167c0100000000000000000000000000000000000000000000000000000000028152600401808260001916600019168152602001915050602060405180830381600087803b158015611cf257600080fd5b505af1158015611d06573d6000803e3d6000fd5b505050506040513d6020811015611d1c57600080fd5b81019080805190602001909291905050509050919050565b6000816012546040516020018083600019166000191681526020018260001916600019168152602001925050506040516020818303038152906040526040518082805190602001908083835b602083101515611da55780518252602082019150602081019050602083039250611d80565b6001836020036101000a03801982511681845116808217855250505050505090500191505060405180910390209050919050565b6000611de3614a40565b73ffffffffffffffffffffffffffffffffffffffff16638bc865fd6040518163ffffffff167c0100000000000000000000000000000000000000000000000000000000028152600401602060405180830381600087803b158015611e4657600080fd5b505af1158015611e5a573d6000803e3d6000fd5b505050506040513d6020811015611e7057600080fd5b810190808051906020019092919050505015905090565b600260009054906101000a900473ffffffffffffffffffffffffffffffffffffffff1681565b6000611eb76123ea565b73ffffffffffffffffffffffffffffffffffffffff1663d8d50179836040518263ffffffff167c010000000000000000000000000000000000000000000000000000000002815260040180826000191660001916815260200191505061014060405180830381600087803b158015611f2e57600080fd5b505af1158015611f42573d6000803e3d6000fd5b505050506040513d610140811015611f5957600080fd5b8101908080519060200190929190805190602001909291908051906020019092919080519060200190929190805190602001909291908051906020019092919080519060200190929190805190602001909291908051906020019092919080519060200190929190505050909192939495969798509091929394959697509091929394959650909192939495509091929394509091929350909192509091505080915050919050565b600061200c610670565b612014614a2e565b73ffffffffffffffffffffffffffffffffffffffff1663cefc2bff846040518263ffffffff167c0100000000000000000000000000000000000000000000000000000000028152600401808273ffffffffffffffffffffffffffffffffffffffff1673ffffffffffffffffffffffffffffffffffffffff168152602001915050602060405180830381600087803b1580156120ae57600080fd5b505af11580156120c2573d6000803e3d6000fd5b505050506040513d60208110156120d857600080fd5b81019080805190602001909291905050501480156121dc57506120fc603554611c72565b6121046144eb565b73ffffffffffffffffffffffffffffffffffffffff1663cd094a27846040518263ffffffff167c0100000000000000000000000000000000000000000000000000000000028152600401808273ffffffffffffffffffffffffffffffffffffffff1673ffffffffffffffffffffffffffffffffffffffff168152602001915050602060405180830381600087803b15801561219e57600080fd5b505af11580156121b2573d6000803e3d6000fd5b505050506040513d60208110156121c857600080fd5b810190808051906020019092919050505010155b80156122ce57506121ee603654611c72565b6121f6614a52565b73ffffffffffffffffffffffffffffffffffffffff16639c89a0e2846040518263ffffffff167c0100000000000000000000000000000000000000000000000000000000028152600401808273ffffffffffffffffffffffffffffffffffffffff1673ffffffffffffffffffffffffffffffffffffffff168152602001915050602060405180830381600087803b15801561229057600080fd5b505af11580156122a4573d6000803e3d6000fd5b505050506040513d60208110156122ba57600080fd5b810190808051906020019092919050505010155b9050919050565b60006122df614a64565b15156122ea57600080fd5b6123d160016123c36122fd603854611c72565b6123b5612308614a40565b73ffffffffffffffffffffffffffffffffffffffff1663d9c6bb206040518163ffffffff167c0100000000000000000000000000000000000000000000000000000000028152600401602060405180830381600087803b15801561236b57600080fd5b505af115801561237f573d6000803e3d6000fd5b505050506040513d602081101561239557600080fd5b810190808051906020019092919050505087614b1490919063ffffffff16565b614b2d90919063ffffffff16565b6123fc90919063ffffffff16565b9050919050565b60006123e5602854610c1a565b905090565b60006123f7602354610c1a565b905090565b6000818301905082811015151561240f57fe5b80905092915050565b6000806124236123ea565b73ffffffffffffffffffffffffffffffffffffffff1663baf4266085856040518363ffffffff167c010000000000000000000000000000000000000000000000000000000002815260040180836000191660001916815260200182815260200192505050602060405180830381600087803b1580156124a157600080fd5b505af11580156124b5573d6000803e3d6000fd5b505050506040513d60208110156124cb57600080fd5b810190808051906020019092919050505090506000811115156124ed57600080fd5b600083141561251a57612513612504603a54611c72565b826123fc90919063ffffffff16565b915061253a565b612537612528603c54611c72565b826123fc90919063ffffffff16565b91505b5092915050565b600080600061254e615069565b6060600061255a6150a8565b6125626143b6565b61256b8a6142c6565b151561257657600080fd5b61257e6144c7565b73ffffffffffffffffffffffffffffffffffffffff166312d0c13b8b6040518263ffffffff167c0100000000000000000000000000000000000000000000000000000000028152600401808260001916600019168152602001915050608060405180830381600087803b1580156125f457600080fd5b505af1158015612608573d6000803e3d6000fd5b505050506040513d608081101561261e57600080fd5b81019080805190602001909291908051906020019092919080519060200190929190805190602001909291905050505086600001876020018860400183815250838152508373ffffffffffffffffffffffffffffffffffffffff1673ffffffffffffffffffffffffffffffffffffffff16815250505050600460009054906101000a900473ffffffffffffffffffffffffffffffffffffffff1673ffffffffffffffffffffffffffffffffffffffff16846000015173ffffffffffffffffffffffffffffffffffffffff16141561280a576126f76144d9565b73ffffffffffffffffffffffffffffffffffffffff1663f4f9fadc8960016040518363ffffffff167c0100000000000000000000000000000000000000000000000000000000028152600401808381526020018215151515815260200192505050600060405180830381600087803b15801561277257600080fd5b505af1158015612786573d6000803e3d6000fd5b505050506040513d6000823e3d601f19601f8201168201806040525060208110156127b057600080fd5b8101908080516401000000008111156127c857600080fd5b828101905060208101848111156127de57600080fd5b81518560208202830111640100000000821117156127fb57600080fd5b5050929190505050925061297c565b6128126144d9565b73ffffffffffffffffffffffffffffffffffffffff166396fe8e6585600001518a60016040518463ffffffff167c0100000000000000000000000000000000000000000000000000000000028152600401808473ffffffffffffffffffffffffffffffffffffffff1673ffffffffffffffffffffffffffffffffffffffff168152602001838152602001821515151581526020019350505050600060405180830381600087803b1580156128c557600080fd5b505af11580156128d9573d6000803e3d6000fd5b505050506040513d6000823e3d601f19601f82011682018060405250602081101561290357600080fd5b81019080805164010000000081111561291b57600080fd5b8281019050602081018481111561293157600080fd5b815185602082028301116401000000008211171561294e57600080fd5b5050929190505050925060008351141561297b578761296e858c8c614b43565b6001965096509650612d07565b5b82600184510381518110151561298e57fe5b9060200190602002015191506129a26123ea565b73ffffffffffffffffffffffffffffffffffffffff1663a1e55acf8b8b866040518463ffffffff167c010000000000000000000000000000000000000000000000000000000002815260040180846000191660001916815260200183815260200180602001828103825283818151815260200191508051906020019060200280838360005b83811015612a42578082015181840152602081019050612a27565b505050509050019450505050506040805180830381600087803b158015612a6857600080fd5b505af1158015612a7c573d6000803e3d6000fd5b505050506040513d6040811015612a9257600080fd5b810190808051906020019092919080519060200190929190505050826000018360200182815250828152505050612ada816000015185602001516123fc90919063ffffffff16565b846020018181525050612afe816020015185604001516123fc90919063ffffffff16565b846040018181525050612b0f6144c7565b73ffffffffffffffffffffffffffffffffffffffff16636e3f777c8b848760200151886040015160006040518663ffffffff167c01000000000000000000000000000000000000000000000000000000000281526004018086600019166000191681526020018573ffffffffffffffffffffffffffffffffffffffff1673ffffffffffffffffffffffffffffffffffffffff16815260200184815260200183815260200182815260200195505050505050600060405180830381600087803b158015612bda57600080fd5b505af1158015612bee573d6000803e3d6000fd5b50505050612bfa6144eb565b73ffffffffffffffffffffffffffffffffffffffff166382624a2e6040518163ffffffff167c0100000000000000000000000000000000000000000000000000000000028152600401602060405180830381600087803b158015612c5d57600080fd5b505af1158015612c71573d6000803e3d6000fd5b505050506040513d6020811015612c8757600080fd5b810190808051906020019092919050505073ffffffffffffffffffffffffffffffffffffffff168273ffffffffffffffffffffffffffffffffffffffff16141515612cdf576000806000829250965096509650612d07565b612cf3835189614b1490919063ffffffff16565b965060019450612d04848b8b614b43565b95505b5050505093509350939050565b60008060606000612d236150c2565b6000871415612d3557600094506136d4565b612d3d6144c7565b73ffffffffffffffffffffffffffffffffffffffff166312d0c13b612d618b611d34565b6040518263ffffffff167c0100000000000000000000000000000000000000000000000000000000028152600401808260001916600019168152602001915050608060405180830381600087803b158015612dbb57600080fd5b505af1158015612dcf573d6000803e3d6000fd5b505050506040513d6080811015612de557600080fd5b810190808051906020019092919080519060200190929190805190602001909291908051906020019092919050505090915090505080945050600460009054906101000a900473ffffffffffffffffffffffffffffffffffffffff1673ffffffffffffffffffffffffffffffffffffffff168473ffffffffffffffffffffffffffffffffffffffff161415612f8f57612e7c6144d9565b73ffffffffffffffffffffffffffffffffffffffff1663f4f9fadc8860016040518363ffffffff167c0100000000000000000000000000000000000000000000000000000000028152600401808381526020018215151515815260200192505050600060405180830381600087803b158015612ef757600080fd5b505af1158015612f0b573d6000803e3d6000fd5b505050506040513d6000823e3d601f19601f820116820180604052506020811015612f3557600080fd5b810190808051640100000000811115612f4d57600080fd5b82810190506020810184811115612f6357600080fd5b8151856020820283011164010000000082111715612f8057600080fd5b505092919050505092506130da565b612f976144d9565b73ffffffffffffffffffffffffffffffffffffffff166396fe8e65858960016040518463ffffffff167c0100000000000000000000000000000000000000000000000000000000028152600401808473ffffffffffffffffffffffffffffffffffffffff1673ffffffffffffffffffffffffffffffffffffffff168152602001838152602001821515151581526020019350505050600060405180830381600087803b15801561304657600080fd5b505af115801561305a573d6000803e3d6000fd5b505050506040513d6000823e3d601f19601f82011682018060405250602081101561308457600080fd5b81019080805164010000000081111561309c57600080fd5b828101905060208101848111156130b257600080fd5b81518560208202830111640100000000821117156130cf57600080fd5b505092919050505092505b8260018451038151811015156130ec57fe5b90602001906020020151915085156132a4576131066123ea565b73ffffffffffffffffffffffffffffffffffffffff1663e81362fe8a61313660018c614b1490919063ffffffff16565b8660016040518563ffffffff167c01000000000000000000000000000000000000000000000000000000000281526004018085600019166000191681526020018481526020018060200183151515158152602001828103825284818151815260200191508051906020019060200280838360005b838110156131c55780820151818401526020810190506131aa565b5050505090500195505050505050600060405180830381600087803b1580156131ed57600080fd5b505af1158015613201573d6000803e3d6000fd5b505050506040513d6000823e3d601f19601f82011682018060405250604081101561322b57600080fd5b81019080805164010000000081111561324357600080fd5b8281019050602081018481111561325957600080fd5b815185602082028301116401000000008211171561327657600080fd5b5050929190602001805190602001909291905050508191508260000183602001828152508290525050613446565b6132ac6123ea565b73ffffffffffffffffffffffffffffffffffffffff1663e81362fe8a6132dc60018c614b1490919063ffffffff16565b8660006040518563ffffffff167c01000000000000000000000000000000000000000000000000000000000281526004018085600019166000191681526020018481526020018060200183151515158152602001828103825284818151815260200191508051906020019060200280838360005b8381101561336b578082015181840152602081019050613350565b5050505090500195505050505050600060405180830381600087803b15801561339357600080fd5b505af11580156133a7573d6000803e3d6000fd5b505050506040513d6000823e3d601f19601f8201168201806040525060408110156133d157600080fd5b8101908080516401000000008111156133e957600080fd5b828101905060208101848111156133ff57600080fd5b815185602082028301116401000000008211171561341c57600080fd5b50509291906020018051906020019092919050505081915082600001836020018281525082905250505b6000816020015111156134665761346581600001518260200151614cf4565b5b61346e6144eb565b73ffffffffffffffffffffffffffffffffffffffff166382624a2e6040518163ffffffff167c0100000000000000000000000000000000000000000000000000000000028152600401602060405180830381600087803b1580156134d157600080fd5b505af11580156134e5573d6000803e3d6000fd5b505050506040513d60208110156134fb57600080fd5b810190808051906020019092919050505073ffffffffffffffffffffffffffffffffffffffff168273ffffffffffffffffffffffffffffffffffffffff1614156135e6576135476144c7565b73ffffffffffffffffffffffffffffffffffffffff1663d590f4ab61356b8b611d34565b6040518263ffffffff167c0100000000000000000000000000000000000000000000000000000000028152600401808260001916600019168152602001915050600060405180830381600087803b1580156135c557600080fd5b505af11580156135d9573d6000803e3d6000fd5b50505050600194506136d3565b6135ee6144c7565b73ffffffffffffffffffffffffffffffffffffffff16636e3f777c6136128b611d34565b8460008060006040518663ffffffff167c01000000000000000000000000000000000000000000000000000000000281526004018086600019166000191681526020018573ffffffffffffffffffffffffffffffffffffffff1673ffffffffffffffffffffffffffffffffffffffff16815260200184815260200183815260200182815260200195505050505050600060405180830381600087803b1580156136ba57600080fd5b505af11580156136ce573d6000803e3d6000fd5b505050505b5b50505050949350505050565b6000806136eb6123ea565b73ffffffffffffffffffffffffffffffffffffffff1663d8d50179846040518263ffffffff167c010000000000000000000000000000000000000000000000000000000002815260040180826000191660001916815260200191505061014060405180830381600087803b15801561376257600080fd5b505af1158015613776573d6000803e3d6000fd5b505050506040513d61014081101561378d57600080fd5b8101908080519060200190929190805190602001909291908051906020019092919080519060200190929190805190602001909291908051906020019092919080519060200190929190805190602001909291908051906020019092919080519060200190929190505050909192939495969798509091929394959697509091929394959650909192939495509091929394509091929350909192509091509050809150506001915080151561390457613848606d54611c72565b6138506123ea565b73ffffffffffffffffffffffffffffffffffffffff1663198c6e24613873610670565b6040518263ffffffff167c010000000000000000000000000000000000000000000000000000000002815260040180828152602001915050602060405180830381600087803b1580156138c557600080fd5b505af11580156138d9573d6000803e3d6000fd5b505050506040513d60208110156138ef57600080fd5b81019080805190602001909291905050501091505b50919050565b6139126123ea565b73ffffffffffffffffffffffffffffffffffffffff1663c362c79082600f546040518363ffffffff167c010000000000000000000000000000000000000000000000000000000002815260040180836000191660001916815260200182815260200192505050600060405180830381600087803b15801561399257600080fd5b505af11580156139a6573d6000803e3d6000fd5b505050506139b2614ed2565b73ffffffffffffffffffffffffffffffffffffffff16637e71332b6139d56123ea565b73ffffffffffffffffffffffffffffffffffffffff16635b712eb6846040518263ffffffff167c0100000000000000000000000000000000000000000000000000000000028152600401808260001916600019168152602001915050602060405180830381600087803b158015613a4b57600080fd5b505af1158015613a5f573d6000803e3d6000fd5b505050506040513d6020811015613a7557600080fd5b8101908080519060200190929190505050836040518363ffffffff167c0100000000000000000000000000000000000000000000000000000000028152600401808373ffffffffffffffffffffffffffffffffffffffff1673ffffffffffffffffffffffffffffffffffffffff168152602001826000191660001916815260200192505050602060405180830381600087803b158015613b1457600080fd5b505af1158015613b28573d6000803e3d6000fd5b505050506040513d6020811015613b3e57600080fd5b81019080805190602001909291905050501515613b5a57600080fd5b50565b6060600080613b6a6144c7565b73ffffffffffffffffffffffffffffffffffffffff1663d590f4ab866040518263ffffffff167c0100000000000000000000000000000000000000000000000000000000028152600401808260001916600019168152602001915050600060405180830381600087803b158015613be057600080fd5b505af1158015613bf4573d6000803e3d6000fd5b50505050613c006123ea565b73ffffffffffffffffffffffffffffffffffffffff16637246d5a7866040518263ffffffff167c0100000000000000000000000000000000000000000000000000000000028152600401808260001916600019168152602001915050600060405180830381600087803b158015613c7657600080fd5b505af1158015613c8a573d6000803e3d6000fd5b505050506040513d6000823e3d601f19601f820116820180604052506040811015613cb457600080fd5b810190808051640100000000811115613ccc57600080fd5b82810190506020810184811115613ce257600080fd5b8151856020820283011164010000000082111715613cff57600080fd5b50509291906020018051906020019092919050505050809350508251841415613d2c57613d2b8561390a565b5b613d346123ea565b73ffffffffffffffffffffffffffffffffffffffff1663d8d50179866040518263ffffffff167c010000000000000000000000000000000000000000000000000000000002815260040180826000191660001916815260200191505061014060405180830381600087803b158015613dab57600080fd5b505af1158015613dbf573d6000803e3d6000fd5b505050506040513d610140811015613dd657600080fd5b810190808051906020019092919080519060200190929190805190602001909291908051906020019092919080519060200190929190805190602001909291908051906020019092919080519060200190929190805190602001909291908051906020019092919050505090919293949596979850909192939495969750909192939495965090919293949550909192939450909192935090919250909150905080925050600084148015613e89575081155b15613f2457613e966123ea565b73ffffffffffffffffffffffffffffffffffffffff16635552f200613eb9610670565b6040518263ffffffff167c010000000000000000000000000000000000000000000000000000000002815260040180828152602001915050600060405180830381600087803b158015613f0b57600080fd5b505af1158015613f1f573d6000803e3d6000fd5b505050505b613f2c6123ea565b73ffffffffffffffffffffffffffffffffffffffff16633a85b82286866040518363ffffffff167c010000000000000000000000000000000000000000000000000000000002815260040180836000191660001916815260200182815260200192505050602060405180830381600087803b158015613faa57600080fd5b505af1158015613fbe573d6000803e3d6000fd5b505050506040513d6020811015613fd457600080fd5b81019080805190602001909291905050509050613fef614a52565b73ffffffffffffffffffffffffffffffffffffffff16631eee01546140126123ea565b73ffffffffffffffffffffffffffffffffffffffff16635b712eb6886040518263ffffffff167c0100000000000000000000000000000000000000000000000000000000028152600401808260001916600019168152602001915050602060405180830381600087803b15801561408857600080fd5b505af115801561409c573d6000803e3d6000fd5b505050506040513d60208110156140b257600080fd5b81019080805190602001909291905050506140fc69021e19e0c9bab24000006140ee866140e0605554611c72565b614ee490919063ffffffff16565b614b2d90919063ffffffff16565b614104610670565b6040518463ffffffff167c0100000000000000000000000000000000000000000000000000000000028152600401808473ffffffffffffffffffffffffffffffffffffffff1673ffffffffffffffffffffffffffffffffffffffff16815260200183815260200182815260200193505050506040805180830381600087803b15801561418f57600080fd5b505af11580156141a3573d6000803e3d6000fd5b505050506040513d60408110156141b957600080fd5b81019080805190602001909291908051906020019092919050505050505050505050565b60006141e7614a64565b15156141f257600080fd5b6141fd603854611c72565b6142b5614208614a40565b73ffffffffffffffffffffffffffffffffffffffff1663d9c6bb206040518163ffffffff167c0100000000000000000000000000000000000000000000000000000000028152600401602060405180830381600087803b15801561426b57600080fd5b505af115801561427f573d6000803e3d6000fd5b505050506040513d602081101561429557600080fd5b810190808051906020019092919050505084614b1490919063ffffffff16565b8115156142be57fe5b069050919050565b60006142d06123ea565b73ffffffffffffffffffffffffffffffffffffffff16635b712eb6836040518263ffffffff167c0100000000000000000000000000000000000000000000000000000000028152600401808260001916600019168152602001915050602060405180830381600087803b15801561434657600080fd5b505af115801561435a573d6000803e3d6000fd5b505050506040513d602081101561437057600080fd5b810190808051906020019092919050505073ffffffffffffffffffffffffffffffffffffffff163373ffffffffffffffffffffffffffffffffffffffff16149050919050565b6143be610d06565b15156143c957600080fd5b6143d2336119cf565b15156143dd57600080fd5b6143e5614f1c565b73ffffffffffffffffffffffffffffffffffffffff16634a9aedc4336040518263ffffffff167c0100000000000000000000000000000000000000000000000000000000028152600401808273ffffffffffffffffffffffffffffffffffffffff1673ffffffffffffffffffffffffffffffffffffffff168152602001915050602060405180830381600087803b15801561447f57600080fd5b505af1158015614493573d6000803e3d6000fd5b505050506040513d60208110156144a957600080fd5b810190808051906020019092919050505015156144c557600080fd5b565b60006144d4602d54610c1a565b905090565b60006144e6602154610c1a565b905090565b60006144f8602954610c1a565b905090565b600080614508614f2e565b73ffffffffffffffffffffffffffffffffffffffff1663535199aa856040518263ffffffff167c0100000000000000000000000000000000000000000000000000000000028152600401808260001916600019168152602001915050602060405180830381600087803b15801561457e57600080fd5b505af1158015614592573d6000803e3d6000fd5b505050506040513d60208110156145a857600080fd5b81019080805190602001909291905050506145d4846040015185602001516123fc90919063ffffffff16565b11801561469e57506145e4614f2e565b73ffffffffffffffffffffffffffffffffffffffff1663d32d0499846020015185604001516040518363ffffffff167c01000000000000000000000000000000000000000000000000000000000281526004018083815260200182815260200192505050602060405180830381600087803b15801561466257600080fd5b505af1158015614676573d6000803e3d6000fd5b505050506040513d602081101561468c57600080fd5b81019080805190602001909291905050505b156148d7576146ab6123ea565b73ffffffffffffffffffffffffffffffffffffffff166382e445c68560016040518363ffffffff167c01000000000000000000000000000000000000000000000000000000000281526004018083600019166000191681526020018215151515815260200192505050600060405180830381600087803b15801561472e57600080fd5b505af1158015614742573d6000803e3d6000fd5b5050505061481b614754606754611c72565b61475c6123ea565b73ffffffffffffffffffffffffffffffffffffffff166349a428d0876040518263ffffffff167c0100000000000000000000000000000000000000000000000000000000028152600401808260001916600019168152602001915050602060405180830381600087803b1580156147d257600080fd5b505af11580156147e6573d6000803e3d6000fd5b505050506040513d60208110156147fc57600080fd5b81019080805190602001909291905050506123fc90919063ffffffff16565b90506148256123ea565b73ffffffffffffffffffffffffffffffffffffffff1663344e436e85600061484e600086614f40565b6040518463ffffffff167c01000000000000000000000000000000000000000000000000000000000281526004018084600019166000191681526020018381526020018281526020019350505050600060405180830381600087803b1580156148b657600080fd5b505af11580156148ca573d6000803e3d6000fd5b5050505060019150614984565b6148df6123ea565b73ffffffffffffffffffffffffffffffffffffffff166382e445c68560006040518363ffffffff167c01000000000000000000000000000000000000000000000000000000000281526004018083600019166000191681526020018215151515815260200192505050600060405180830381600087803b15801561496257600080fd5b505af1158015614976573d6000803e3d6000fd5b505050506149838461390a565b5b61498c6123ea565b73ffffffffffffffffffffffffffffffffffffffff166327618ad98560016040518363ffffffff167c01000000000000000000000000000000000000000000000000000000000281526004018083600019166000191681526020018215151515815260200192505050600060405180830381600087803b158015614a0f57600080fd5b505af1158015614a23573d6000803e3d6000fd5b505050505092915050565b6000614a3b602b54610c1a565b905090565b6000614a4d602454610c1a565b905090565b6000614a5f602654610c1a565b905090565b600080614a6f614a40565b73ffffffffffffffffffffffffffffffffffffffff1663d9c6bb206040518163ffffffff167c0100000000000000000000000000000000000000000000000000000000028152600401602060405180830381600087803b158015614ad257600080fd5b505af1158015614ae6573d6000803e3d6000fd5b505050506040513d6020811015614afc57600080fd5b81019080805190602001909291905050501415905090565b6000828211151515614b2257fe5b818303905092915050565b60008183811515614b3a57fe5b04905092915050565b6000614b4d614f2e565b73ffffffffffffffffffffffffffffffffffffffff166377ebd46884846040518363ffffffff167c010000000000000000000000000000000000000000000000000000000002815260040180836000191660001916815260200182815260200192505050602060405180830381600087803b158015614bcb57600080fd5b505af1158015614bdf573d6000803e3d6000fd5b505050506040513d6020811015614bf557600080fd5b8101908080519060200190929190505050614c21856040015186602001516123fc90919063ffffffff16565b118015614ceb5750614c31614f2e565b73ffffffffffffffffffffffffffffffffffffffff166336dfb1c2856020015186604001516040518363ffffffff167c01000000000000000000000000000000000000000000000000000000000281526004018083815260200182815260200192505050602060405180830381600087803b158015614caf57600080fd5b505af1158015614cc3573d6000803e3d6000fd5b505050506040513d6020811015614cd957600080fd5b81019080805190602001909291905050505b90509392505050565b6000806000806000614d07605254611c72565b9450614d14605654611c72565b9350614d21605754611c72565b9250614d80614d43614d34606154611c72565b85614ee490919063ffffffff16565b614d72614d51606054611c72565b614d64888a614ee490919063ffffffff16565b614ee490919063ffffffff16565b614b2d90919063ffffffff16565b9150600090505b85811015614ec957614daf8782815181101515614da057fe5b906020019060200201516119cf565b15614ebc57614dbc614a52565b73ffffffffffffffffffffffffffffffffffffffff1663e24f83138883815181101515614de557fe5b90602001906020020151846040518363ffffffff167c0100000000000000000000000000000000000000000000000000000000028152600401808373ffffffffffffffffffffffffffffffffffffffff1673ffffffffffffffffffffffffffffffffffffffff168152602001828152602001925050506040805180830381600087803b158015614e7457600080fd5b505af1158015614e88573d6000803e3d6000fd5b505050506040513d6040811015614e9e57600080fd5b81019080805190602001909291908051906020019092919050505050505b8080600101915050614d87565b50505050505050565b6000614edf601d54610c1a565b905090565b600080831415614ef75760009050614f16565b8183029050818382811515614f0857fe5b04141515614f1257fe5b8090505b92915050565b6000614f29602554610c1a565b905090565b6000614f3b602254610c1a565b905090565b6000806000614f4e8461503b565b9150614f6c60008614614f6357603c54614f67565b603a545b611c72565b9050839250614f7c603754611c72565b614f85856141dd565b1015614fc957614fc2614fb3614f9a866141dd565b614fa5603754611c72565b614b1490919063ffffffff16565b856123fc90919063ffffffff16565b9250615033565b614fe6614fd7606954611c72565b826123fc90919063ffffffff16565b8210156150325761502f6150206001615012615003603754611c72565b866123fc90919063ffffffff16565b6123fc90919063ffffffff16565b856123fc90919063ffffffff16565b92505b5b505092915050565b6000615062615049836141dd565b615054603854611c72565b614b1490919063ffffffff16565b9050919050565b608060405190810160405280600073ffffffffffffffffffffffffffffffffffffffff1681526020016000815260200160008152602001600081525090565b604080519081016040528060008152602001600081525090565b6040805190810160405280606081526020016000815250905600a165627a7a723058206bceb2d028c2c1c5d2a5fd7b2d4c871bff59d54a1fbffe3e3ee73dc798b03eab0029",
  "source": "pragma solidity ^0.4.24;\n\nimport \"../common/DaoCommon.sol\";\nimport \"../service/DaoCalculatorService.sol\";\nimport \"./DaoFundingManager.sol\";\nimport \"./DaoRewardsManager.sol\";\nimport \"../lib/DaoIntermediateStructs.sol\";\nimport \"../lib/DaoStructs.sol\";\n\n\n/**\n@title Contract to claim voting results\n@author Digix Holdings\n*/\ncontract DaoVotingClaims is DaoCommon {\n    using DaoIntermediateStructs for DaoIntermediateStructs.VotingCount;\n    using DaoIntermediateStructs for DaoIntermediateStructs.Users;\n    using DaoStructs for DaoStructs.IntermediateResults;\n\n    function daoCalculatorService()\n        internal\n        constant\n        returns (DaoCalculatorService _contract)\n    {\n        _contract = DaoCalculatorService(get_contract(CONTRACT_SERVICE_DAO_CALCULATOR));\n    }\n\n    function daoFundingManager()\n        internal\n        constant\n        returns (DaoFundingManager _contract)\n    {\n        _contract = DaoFundingManager(get_contract(CONTRACT_DAO_FUNDING_MANAGER));\n    }\n\n    function daoRewardsManager()\n        internal\n        constant\n        returns (DaoRewardsManager _contract)\n    {\n        _contract = DaoRewardsManager(get_contract(CONTRACT_DAO_REWARDS_MANAGER));\n    }\n\n    constructor(address _resolver) public {\n        require(init(CONTRACT_DAO_VOTING_CLAIMS, _resolver));\n    }\n\n\n    /**\n    @notice Function to claim the draft voting result (can only be called by the proposal proposer)\n    @dev The founder/or anyone is supposed to call this function after the claiming deadline has passed, to clean it up and close this proposal.\n         If this voting fails, the collateral will be refunded\n    @param _proposalId ID of the proposal\n    @param _operations Number of operations to do in this call\n    @return {\n      \"_passed\": \"Boolean, true if the draft voting has passed, false if the claiming deadline has passed or the voting has failed\",\n      \"_done\": \"Boolean, true if the calculation has finished\"\n    }\n    */\n    function claimDraftVotingResult(\n        bytes32 _proposalId,\n        uint256 _operations\n    )\n        public\n        ifDraftNotClaimed(_proposalId)\n        ifAfterDraftVotingPhase(_proposalId)\n        returns (bool _passed, bool _done)\n    {\n        // if after the claiming deadline, or the limit for non-digix proposals is reached, its auto failed\n        if (now > daoStorage().readProposalDraftVotingTime(_proposalId)\n                    .add(getUintConfig(CONFIG_DRAFT_VOTING_PHASE))\n                    .add(getUintConfig(CONFIG_VOTE_CLAIMING_DEADLINE))\n            || !isNonDigixProposalsWithinLimit(_proposalId))\n        {\n            daoStorage().setProposalDraftPass(_proposalId, false);\n            daoStorage().setDraftVotingClaim(_proposalId, true);\n            processCollateralRefund(_proposalId);\n            return (false, true);\n        }\n        require(isFromProposer(_proposalId));\n        senderCanDoProposerOperations();\n\n        // get the previously stored intermediary state\n        DaoStructs.IntermediateResults memory _currentResults;\n        (\n            _currentResults.countedUntil,\n            _currentResults.currentForCount,\n            _currentResults.currentAgainstCount,\n        ) = intermediateResultsStorage().getIntermediateResults(_proposalId);\n\n        // get the moderators to calculate in this transaction, based on intermediate state\n        address[] memory _moderators;\n        if (_currentResults.countedUntil == EMPTY_ADDRESS) {\n            _moderators = daoListingService().listModerators(\n                _operations,\n                true\n            );\n        } else {\n            _moderators = daoListingService().listModeratorsFrom(\n               _currentResults.countedUntil,\n               _operations,\n               true\n           );\n        }\n\n        // count the votes for this batch of moderators\n        DaoIntermediateStructs.VotingCount memory _voteCount;\n        (_voteCount.forCount, _voteCount.againstCount) = daoStorage().readDraftVotingCount(_proposalId, _moderators);\n\n        _currentResults.countedUntil = _moderators[_moderators.length-1];\n        _currentResults.currentForCount = _currentResults.currentForCount.add(_voteCount.forCount);\n        _currentResults.currentAgainstCount = _currentResults.currentAgainstCount.add(_voteCount.againstCount);\n\n        if (_moderators[_moderators.length-1] == daoStakeStorage().readLastModerator()) {\n            // this is the last iteration\n            _passed = processDraftVotingClaim(_proposalId, _currentResults);\n            _done = true;\n\n            // reset intermediate result for the proposal.\n            intermediateResultsStorage().resetIntermediateResults(_proposalId);\n        } else {\n            // update intermediate results\n            intermediateResultsStorage().setIntermediateResults(\n                _proposalId,\n                _currentResults.countedUntil,\n                _currentResults.currentForCount,\n                _currentResults.currentAgainstCount,\n                0\n            );\n        }\n    }\n\n\n    function processDraftVotingClaim(bytes32 _proposalId, DaoStructs.IntermediateResults _currentResults)\n        internal\n        returns (bool _passed)\n    {\n        if (\n            (_currentResults.currentForCount.add(_currentResults.currentAgainstCount) > daoCalculatorService().minimumDraftQuorum(_proposalId)) &&\n            (daoCalculatorService().draftQuotaPass(_currentResults.currentForCount, _currentResults.currentAgainstCount))\n        ) {\n            daoStorage().setProposalDraftPass(_proposalId, true);\n\n            // set startTime of first voting round\n            // and the start of first milestone.\n            uint256 _idealStartTime = daoStorage().readProposalDraftVotingTime(_proposalId).add(getUintConfig(CONFIG_DRAFT_VOTING_PHASE));\n            daoStorage().setProposalVotingTime(\n                _proposalId,\n                0,\n                getTimelineForNextVote(0, _idealStartTime)\n            );\n            _passed = true;\n        } else {\n            daoStorage().setProposalDraftPass(_proposalId, false);\n            processCollateralRefund(_proposalId);\n        }\n\n        daoStorage().setDraftVotingClaim(_proposalId, true);\n    }\n\n    /// NOTE: Voting round i-th is before milestone index i-th\n\n\n    /**\n    @notice Function to claim the  voting round results\n    @dev This function has two major steps:\n         - Counting the votes\n            + There is no need for this step if there are some conditions that makes the proposal auto failed\n            + The number of operations needed for this step is the number of participants in the quarter\n         - Calculating the bonus for the voters in the preceding round\n            + We can skip this step if this is the Voting round 0 (there is no preceding voting round to calculate bonus)\n            + The number of operations needed for this step is the number of participants who voted \"correctly\" in the preceding voting round\n         Step 1 will have to finish first before step 2. The proposer is supposed to call this function repeatedly,\n         until _done is true\n\n         If the voting round fails, the collateral will be returned back to the proposer\n    @param _proposalId ID of the proposal\n    @param _index Index of the  voting round\n    @param _operations Number of operations to do in this call\n    @return {\n      \"_passed\": \"Boolean, true if the  voting round passed, false if failed\"\n    }\n    */\n    function claimProposalVotingResult(bytes32 _proposalId, uint256 _index, uint256 _operations)\n        public\n        ifNotClaimed(_proposalId, _index)\n        ifAfterProposalRevealPhase(_proposalId, _index)\n        returns (bool _passed, bool _done)\n    {\n        require(isMainPhase());\n\n        // STEP 1\n        // If the claiming deadline is over, the proposal is auto failed, and anyone can call this function\n        // Here, _done is refering to whether STEP 1 is done\n        _done = true;\n        _passed = false; // redundant, put here just to emphasize that its false\n        // In other words, we only need to do Step 1 if its before the deadline\n        if (now < startOfMilestone(_proposalId, _index)\n                    .add(getUintConfig(CONFIG_VOTE_CLAIMING_DEADLINE)))\n        {\n            (_operations, _passed, _done) = countProposalVote(_proposalId, _index, _operations);\n            // from here on, _operations is the number of operations left, after Step 1 is done\n            if (!_done) return (_passed, false); // haven't done Step 1 yet, return. The value of _passed here is irrelevant\n        }\n\n        // STEP 2\n        // from this point onwards, _done refers to step 2\n        _done = false;\n\n\n        //TODO: until here\n        if (_index > 0) { // We only need to do bonus calculation if its a interim voting round\n            _done = calculateVoterBonus(_proposalId, _index, _operations, _passed);\n            if (!_done) return (_passed, false); // Step 2 is not done yet, return\n        } else {\n            // its the first voting round, we return the collateral if it fails, locks if it passes\n\n            _passed = _passed && isNonDigixProposalsWithinLimit(_proposalId); // can only pass if its within the non-digix proposal limit\n            if (_passed) {\n                daoStorage().setProposalCollateralStatus(\n                    _proposalId,\n                    COLLATERAL_STATUS_LOCKED\n                );\n\n            } else {\n                processCollateralRefund(_proposalId);\n            }\n        }\n\n        if (_passed) {\n            processSuccessfulVotingClaim(_proposalId, _index);\n        }\n        daoStorage().setVotingClaim(_proposalId, _index, true);\n        daoStorage().setProposalPass(_proposalId, _index, _passed);\n        _done = true;\n    }\n\n\n    // do the necessary steps after a successful voting round.\n    function processSuccessfulVotingClaim(bytes32 _proposalId, uint256 _index)\n        internal\n    {\n        // clear the intermediate results for the proposal, so that next voting rounds can reuse the same key <proposal_id> for the intermediate results\n        intermediateResultsStorage().resetIntermediateResults(_proposalId);\n\n        // if this was the final voting round, unlock their original collateral\n        uint256[] memory _milestoneFundings;\n        (_milestoneFundings,) = daoStorage().readProposalFunding(_proposalId);\n        if (_index == _milestoneFundings.length) {\n            processCollateralRefund(_proposalId);\n        }\n\n        // increase the non-digix proposal count accordingly\n        bool _isDigixProposal;\n        (,,,,,,,,,_isDigixProposal) = daoStorage().readProposal(_proposalId);\n        if (_index == 0 && !_isDigixProposal) {\n            daoStorage().addNonDigixProposalCountInQuarter(currentQuarterIndex());\n        }\n\n        // Add quarter point for the proposer\n        uint256 _funding = daoStorage().readProposalMilestone(_proposalId, _index);\n        daoPointsStorage().addQuarterPoint(\n            daoStorage().readProposalProposer(_proposalId),\n            getUintConfig(CONFIG_QUARTER_POINT_MILESTONE_COMPLETION_PER_10000ETH).mul(_funding).div(10000 ether),\n            currentQuarterIndex()\n        );\n    }\n\n\n    function getInterResultKeyForBonusCalculation(bytes32 _proposalId) public view returns (bytes32 _key) {\n        _key = keccak256(abi.encodePacked(\n            _proposalId,\n            INTERMEDIATE_BONUS_CALCULATION_IDENTIFIER\n        ));\n    }\n\n\n    // calculate and update the bonuses for voters who voted \"correctly\" in the preceding voting round\n    function calculateVoterBonus(bytes32 _proposalId, uint256 _index, uint256 _operations, bool _passed)\n        internal\n        returns (bool _done)\n    {\n        if (_operations == 0) return false;\n        address _countedUntil;\n        (_countedUntil,,,) = intermediateResultsStorage().getIntermediateResults(\n            getInterResultKeyForBonusCalculation(_proposalId)\n        );\n\n        address[] memory _voterBatch;\n        if (_countedUntil == EMPTY_ADDRESS) {\n            _voterBatch = daoListingService().listParticipants(\n                _operations,\n                true\n            );\n        } else {\n            _voterBatch = daoListingService().listParticipantsFrom(\n                _countedUntil,\n                _operations,\n                true\n            );\n        }\n        address _lastVoter = _voterBatch[_voterBatch.length - 1]; // this will fail if _voterBatch is empty. However, there is at least the proposer as a participant in the quarter.\n\n        DaoIntermediateStructs.Users memory _bonusVoters;\n        if (_passed) {\n\n            // give bonus points for all those who\n            // voted YES in the previous round\n            (_bonusVoters.users, _bonusVoters.usersLength) = daoStorage().readVotingRoundVotes(_proposalId, _index.sub(1), _voterBatch, true);\n        } else {\n            // give bonus points for all those who\n            // voted NO in the previous round\n            (_bonusVoters.users, _bonusVoters.usersLength) = daoStorage().readVotingRoundVotes(_proposalId, _index.sub(1), _voterBatch, false);\n        }\n        //TODO: to here\n        if (_bonusVoters.usersLength > 0) addBonusReputation(_bonusVoters.users, _bonusVoters.usersLength);\n\n        if (_lastVoter == daoStakeStorage().readLastParticipant()) {\n            // this is the last iteration\n\n            intermediateResultsStorage().resetIntermediateResults(\n                getInterResultKeyForBonusCalculation(_proposalId)\n            );\n            _done = true;\n        } else {\n            // this is not the last iteration yet, save the intermediate results\n            intermediateResultsStorage().setIntermediateResults(\n                getInterResultKeyForBonusCalculation(_proposalId),\n                _lastVoter, 0, 0, 0\n            );\n        }\n    }\n\n\n    // Count the votes for a Voting Round and find out if its passed\n    /// @return _operationsLeft The number of operations left after the calculations in this function\n    /// @return _passed Whether this voting round passed\n    /// @return _done Whether the calculation for this step 1 is already done. If its not done, this function will need to run again in subsequent transactions\n    /// until _done is true\n    function countProposalVote(bytes32 _proposalId, uint256 _index, uint256 _operations)\n        internal\n        returns (uint256 _operationsLeft, bool _passed, bool _done)\n    {\n        senderCanDoProposerOperations();\n        require(isFromProposer(_proposalId));\n\n        DaoStructs.IntermediateResults memory _currentResults;\n        (\n            _currentResults.countedUntil,\n            _currentResults.currentForCount,\n            _currentResults.currentAgainstCount,\n        ) = intermediateResultsStorage().getIntermediateResults(_proposalId);\n        address[] memory _voters;\n        if (_currentResults.countedUntil == EMPTY_ADDRESS) { // This is the first transaction to count votes for this voting round\n            _voters = daoListingService().listParticipants(\n                _operations,\n                true\n            );\n        } else {\n            _voters = daoListingService().listParticipantsFrom(\n                _currentResults.countedUntil,\n                _operations,\n                true\n            );\n\n            // If there's no voters left to count, this means that STEP 1 is already done, just return whether it was passed\n            // Note that _currentResults should already be storing the final tally of votes for this voting round, as already calculated in previous iterations of this function\n            if (_voters.length == 0) {\n                return (\n                    _operations,\n                    isVoteCountPassed(_currentResults, _proposalId, _index),\n                    true\n                );\n            }\n        }\n\n        address _lastVoter = _voters[_voters.length - 1];\n\n        DaoIntermediateStructs.VotingCount memory _count;\n        (_count.forCount, _count.againstCount) = daoStorage().readVotingCount(_proposalId, _index, _voters);\n\n        _currentResults.currentForCount = _currentResults.currentForCount.add(_count.forCount);\n        _currentResults.currentAgainstCount = _currentResults.currentAgainstCount.add(_count.againstCount);\n        intermediateResultsStorage().setIntermediateResults(\n            _proposalId,\n            _lastVoter,\n            _currentResults.currentForCount,\n            _currentResults.currentAgainstCount,\n            0\n        );\n\n        if (_lastVoter != daoStakeStorage().readLastParticipant()) {\n            return (0, false, false); // hasn't done STEP 1 yet. The parent function (claimProposalVotingResult) should return after this. More transactions are needed to continue the calculation\n        }\n\n        // If it comes to here, this means all votes have already been counted\n        // From this point, the IntermediateResults struct will store the total tally of the votes for this voting round until processSuccessfulVotingClaim() is called,\n        // which will reset it.\n\n        _operationsLeft = _operations.sub(_voters.length);\n        _done = true;\n\n        _passed = isVoteCountPassed(_currentResults, _proposalId, _index);\n    }\n\n\n    function isVoteCountPassed(DaoStructs.IntermediateResults _currentResults, bytes32 _proposalId, uint256 _index)\n        internal\n        view\n        returns (bool _passed)\n    {\n        _passed = (_currentResults.currentForCount.add(_currentResults.currentAgainstCount) > daoCalculatorService().minimumVotingQuorum(_proposalId, _index))\n                && (daoCalculatorService().votingQuotaPass(_currentResults.currentForCount, _currentResults.currentAgainstCount));\n    }\n\n\n    function processCollateralRefund(bytes32 _proposalId)\n        internal\n    {\n        daoStorage().setProposalCollateralStatus(_proposalId, COLLATERAL_STATUS_CLAIMED);\n        require(daoFundingManager().refundCollateral(daoStorage().readProposalProposer(_proposalId), _proposalId));\n    }\n\n\n    // add bonus reputation for voters that voted \"correctly\" in the preceding voting round AND is currently participating this quarter\n    function addBonusReputation(address[] _voters, uint256 _n)\n        private\n    {\n        uint256 _qp = getUintConfig(CONFIG_QUARTER_POINT_VOTE);\n        uint256 _rate = getUintConfig(CONFIG_BONUS_REPUTATION_NUMERATOR);\n        uint256 _base = getUintConfig(CONFIG_BONUS_REPUTATION_DENOMINATOR);\n\n        uint256 _bonus = _qp.mul(_rate).mul(getUintConfig(CONFIG_REPUTATION_PER_EXTRA_QP_NUM))\n            .div(\n                _base.mul(getUintConfig(CONFIG_REPUTATION_PER_EXTRA_QP_DEN))\n            );\n\n        for (uint256 i = 0; i < _n; i++) {\n            if (isParticipant(_voters[i])) { // only give bonus reputation to current participants\n                daoPointsStorage().addReputation(_voters[i], _bonus);\n            }\n        }\n    }\n\n}\n",
  "sourcePath": "/home/rohit/Develop/dao-contracts/contracts/interactive/DaoVotingClaims.sol",
  "compiler": {
    "name": "solc",
    "version": "0.4.24+commit.e67f0147.Emscripten.clang"
  },
  "schemaVersion": "2.0.1",
  "updatedAt": "2018-10-08T06:56:14.207Z"
}