{
  "contractName": "DaoVoting",
  "abi": [
    {
      "constant": true,
      "inputs": [],
      "name": "resolver",
      "outputs": [
        {
          "name": "",
          "type": "address"
        }
      ],
      "payable": false,
      "stateMutability": "view",
      "type": "function"
    },
    {
      "constant": true,
      "inputs": [],
      "name": "currentQuarterIndex",
      "outputs": [
        {
          "name": "_quarterIndex",
          "type": "uint256"
        }
      ],
      "payable": false,
      "stateMutability": "view",
      "type": "function"
    },
    {
      "constant": true,
      "inputs": [
        {
          "name": "_configKey",
          "type": "bytes32"
        }
      ],
      "name": "getAddressConfig",
      "outputs": [
        {
          "name": "_configValue",
          "type": "address"
        }
      ],
      "payable": false,
      "stateMutability": "view",
      "type": "function"
    },
    {
      "constant": true,
      "inputs": [],
      "name": "key",
      "outputs": [
        {
          "name": "",
          "type": "bytes32"
        }
      ],
      "payable": false,
      "stateMutability": "view",
      "type": "function"
    },
    {
      "constant": true,
      "inputs": [
        {
          "name": "_key",
          "type": "bytes32"
        }
      ],
      "name": "get_contract",
      "outputs": [
        {
          "name": "_contract",
          "type": "address"
        }
      ],
      "payable": false,
      "stateMutability": "view",
      "type": "function"
    },
    {
      "constant": true,
      "inputs": [],
      "name": "currentTimeInQuarter",
      "outputs": [
        {
          "name": "_currentT",
          "type": "uint256"
        }
      ],
      "payable": false,
      "stateMutability": "view",
      "type": "function"
    },
    {
      "constant": true,
      "inputs": [],
      "name": "isMainPhase",
      "outputs": [
        {
          "name": "_isMainPhase",
          "type": "bool"
        }
      ],
      "payable": false,
      "stateMutability": "view",
      "type": "function"
    },
    {
      "constant": true,
      "inputs": [],
      "name": "isLockingPhase",
      "outputs": [
        {
          "name": "_isLockingPhase",
          "type": "bool"
        }
      ],
      "payable": false,
      "stateMutability": "view",
      "type": "function"
    },
    {
      "constant": true,
      "inputs": [
        {
          "name": "_user",
          "type": "address"
        }
      ],
      "name": "isParticipant",
      "outputs": [
        {
          "name": "_is",
          "type": "bool"
        }
      ],
      "payable": false,
      "stateMutability": "view",
      "type": "function"
    },
    {
      "constant": true,
      "inputs": [
        {
          "name": "_configKey",
          "type": "bytes32"
        }
      ],
      "name": "getBytesConfig",
      "outputs": [
        {
          "name": "_configValue",
          "type": "bytes32"
        }
      ],
      "payable": false,
      "stateMutability": "view",
      "type": "function"
    },
    {
      "constant": true,
      "inputs": [
        {
          "name": "_configKey",
          "type": "bytes32"
        }
      ],
      "name": "getUintConfig",
      "outputs": [
        {
          "name": "_configValue",
          "type": "uint256"
        }
      ],
      "payable": false,
      "stateMutability": "view",
      "type": "function"
    },
    {
      "constant": true,
      "inputs": [],
      "name": "isDaoNotReplaced",
      "outputs": [
        {
          "name": "_isNotReplaced",
          "type": "bool"
        }
      ],
      "payable": false,
      "stateMutability": "view",
      "type": "function"
    },
    {
      "constant": true,
      "inputs": [],
      "name": "CONTRACT_ADDRESS",
      "outputs": [
        {
          "name": "",
          "type": "address"
        }
      ],
      "payable": false,
      "stateMutability": "view",
      "type": "function"
    },
    {
      "constant": true,
      "inputs": [
        {
          "name": "_proposalId",
          "type": "bytes32"
        }
      ],
      "name": "isProposalPaused",
      "outputs": [
        {
          "name": "_isPausedOrStopped",
          "type": "bool"
        }
      ],
      "payable": false,
      "stateMutability": "view",
      "type": "function"
    },
    {
      "constant": true,
      "inputs": [
        {
          "name": "_user",
          "type": "address"
        }
      ],
      "name": "isModerator",
      "outputs": [
        {
          "name": "_is",
          "type": "bool"
        }
      ],
      "payable": false,
      "stateMutability": "view",
      "type": "function"
    },
    {
      "inputs": [
        {
          "name": "_resolver",
          "type": "address"
        }
      ],
      "payable": false,
      "stateMutability": "nonpayable",
      "type": "constructor"
    },
    {
      "constant": false,
      "inputs": [
        {
          "name": "_proposalId",
          "type": "bytes32"
        },
        {
          "name": "_voteYes",
          "type": "bool"
        }
      ],
      "name": "voteOnDraft",
      "outputs": [],
      "payable": false,
      "stateMutability": "nonpayable",
      "type": "function"
    },
    {
      "constant": false,
      "inputs": [
        {
          "name": "_proposalId",
          "type": "bytes32"
        },
        {
          "name": "_commitHash",
          "type": "bytes32"
        }
      ],
      "name": "commitVoteOnSpecialProposal",
      "outputs": [],
      "payable": false,
      "stateMutability": "nonpayable",
      "type": "function"
    },
    {
      "constant": false,
      "inputs": [
        {
          "name": "_proposalId",
          "type": "bytes32"
        },
        {
          "name": "_vote",
          "type": "bool"
        },
        {
          "name": "_salt",
          "type": "bytes32"
        }
      ],
      "name": "revealVoteOnSpecialProposal",
      "outputs": [],
      "payable": false,
      "stateMutability": "nonpayable",
      "type": "function"
    },
    {
      "constant": false,
      "inputs": [
        {
          "name": "_proposalId",
          "type": "bytes32"
        },
        {
          "name": "_index",
          "type": "uint8"
        },
        {
          "name": "_commitHash",
          "type": "bytes32"
        }
      ],
      "name": "commitVoteOnProposal",
      "outputs": [],
      "payable": false,
      "stateMutability": "nonpayable",
      "type": "function"
    },
    {
      "constant": false,
      "inputs": [
        {
          "name": "_proposalId",
          "type": "bytes32"
        },
        {
          "name": "_index",
          "type": "uint8"
        },
        {
          "name": "_vote",
          "type": "bool"
        },
        {
          "name": "_salt",
          "type": "bytes32"
        }
      ],
      "name": "revealVoteOnProposal",
      "outputs": [],
      "payable": false,
      "stateMutability": "nonpayable",
      "type": "function"
    }
  ],
  "bytecode": "0x608060405260006001026003906000191690556000600460006101000a81548173ffffffffffffffffffffffffffffffffffffffff021916908373ffffffffffffffffffffffffffffffffffffffff1602179055507f70726f706f73616c5f73746174655f70726570726f706f73616c0000000000006005906000191690557f70726f706f73616c5f73746174655f64726166740000000000000000000000006006906000191690557f70726f706f73616c5f73746174655f6d6f6465726174656400000000000000006007906000191690557f70726f706f73616c5f73746174655f6f6e676f696e67000000000000000000006008906000191690557f70726f706f73616c5f73746174655f636c6f73656400000000000000000000006009906000191690556001600a556002600b556003600c556001600d556002600e556003600f557f696e7465725f6467645f696400000000000000000000000000000000000000006010906000191690557f696e7465725f6d6f645f6467645f6964000000000000000000000000000000006011906000191690557f696e7465725f626f6e75735f63616c63756c6174696f6e5f69640000000000006012906000191690557f64616f00000000000000000000000000000000000000000000000000000000006013906000191690557f64616f3a7370656369616c3a70726f706f73616c0000000000000000000000006014906000191690557f64616f3a7374616b652d6c6f636b696e670000000000000000000000000000006015906000191690557f64616f3a766f74696e67000000000000000000000000000000000000000000006016906000191690557f64616f3a766f74696e673a636c61696d730000000000000000000000000000006017906000191690557f64616f3a73766f74696e673a636c61696d7300000000000000000000000000006018906000191690557f64616f3a6964656e7469747900000000000000000000000000000000000000006019906000191690557f64616f3a726577617264732d6d616e6167657200000000000000000000000000601a906000191690557f64616f3a726577617264732d6578747261730000000000000000000000000000601b906000191690557f64616f3a726f6c65730000000000000000000000000000000000000000000000601c906000191690557f64616f3a66756e64696e672d6d616e6167657200000000000000000000000000601d906000191690557f64616f3a77686974656c697374696e6700000000000000000000000000000000601e906000191690557f736572766963653a726f6c650000000000000000000000000000000000000000601f906000191690557f736572766963653a64616f3a696e666f000000000000000000000000000000006020906000191690557f736572766963653a64616f3a6c697374696e67000000000000000000000000006021906000191690557f736572766963653a64616f3a63616c63756c61746f72000000000000000000006022906000191690557f73746f726167653a64616f0000000000000000000000000000000000000000006023906000191690557f73746f726167653a64616f3a75706772616465000000000000000000000000006024906000191690557f73746f726167653a64616f3a6964656e746974790000000000000000000000006025906000191690557f73746f726167653a64616f3a706f696e747300000000000000000000000000006026906000191690557f73746f726167653a64616f3a7370656369616c000000000000000000000000006027906000191690557f73746f726167653a64616f3a636f6e66696700000000000000000000000000006028906000191690557f73746f726167653a64616f3a7374616b650000000000000000000000000000006029906000191690557f73746f726167653a64616f3a66756e64696e6700000000000000000000000000602a906000191690557f73746f726167653a64616f3a7265776172647300000000000000000000000000602b906000191690557f73746f726167653a64616f3a77686974656c697374696e670000000000000000602c906000191690557f73746f726167653a696e7465726d6564696174653a726573756c747300000000602d906000191690557f73746f726167653a64616f3a636f6c6c61746572616c00000000000000000000602e906000191690557f743a646764000000000000000000000000000000000000000000000000000000602f906000191690557f743a6467780000000000000000000000000000000000000000000000000000006030906000191690557f743a6261646765000000000000000000000000000000000000000000000000006031906000191690556001603260006101000a81548160ff021916908360ff1602179055506002603260016101000a81548160ff021916908360ff1602179055506003603260026101000a81548160ff021916908360ff1602179055506004603260036101000a81548160ff021916908360ff1602179055506276a7006033557f6d696e5f6467645f7061727469636970616e74000000000000000000000000006034906000191690557f6d696e5f6467645f6d6f64657261746f720000000000000000000000000000006035906000191690557f6d696e5f72657075746174696f6e5f6d6f64657261746f7200000000000000006036906000191690557f6c6f636b696e675f70686173655f6475726174696f6e000000000000000000006037906000191690557f717561727465725f6475726174696f6e000000000000000000000000000000006038906000191690557f766f74696e675f636f6d6d69745f7068617365000000000000000000000000006039906000191690557f766f74696e675f70686173655f746f74616c0000000000000000000000000000603a906000191690557f696e746572696d5f766f74696e675f636f6d6d69745f70686173650000000000603b906000191690557f696e746572696d5f766f74696e675f70686173655f746f74616c000000000000603c906000191690557f64726166745f71756f72756d5f66697865645f6e756d657261746f7200000000603d906000191690557f64726166745f71756f72756d5f66697865645f64656e6f6d696e61746f720000603e906000191690557f64726166745f71756f72756d5f73666163746f725f6e756d657261746f720000603f906000191690557f64726166745f71756f72756d5f73666163746f725f64656e6f6d696e61746f726040906000191690557f766f74655f71756f72756d5f66697865645f6e756d657261746f7200000000006041906000191690557f766f74655f71756f72756d5f66697865645f64656e6f6d696e61746f720000006042906000191690557f766f74655f71756f72756d5f73666163746f725f6e756d657261746f720000006043906000191690557f766f74655f71756f72756d5f73666163746f725f64656e6f6d696e61746f72006044906000191690557f66696e616c5f7265776172645f73666163746f725f6e756d657261746f7200006045906000191690557f66696e616c5f7265776172645f73666163746f725f64656e6f6d696e61746f726046906000191690557f64726166745f71756f74615f6e756d657261746f7200000000000000000000006047906000191690557f64726166745f71756f74615f64656e6f6d696e61746f720000000000000000006048906000191690557f766f74696e675f71756f74615f6e756d657261746f72000000000000000000006049906000191690557f766f74696e675f71756f74615f64656e6f6d696e61746f720000000000000000604a906000191690557f6d696e696d616c5f717000000000000000000000000000000000000000000000604b906000191690557f717561727465725f706f696e745f7363616c696e675f666163746f7200000000604c906000191690557f7265705f706f696e745f7363616c696e675f666163746f720000000000000000604d906000191690557f6d696e696d616c5f6d6f645f7170000000000000000000000000000000000000604e906000191690557f6d6f645f71705f7363616c696e675f666163746f720000000000000000000000604f906000191690557f6d6f645f7265705f706f696e745f7363616c696e675f666163746f72000000006050906000191690557f717561727465725f706f696e745f64726166745f766f746500000000000000006051906000191690557f717561727465725f706f696e745f766f746500000000000000000000000000006052906000191690557f717561727465725f706f696e745f696e746572696d5f766f74650000000000006053906000191690557f717561727465725f706f696e745f636c61696d5f726573756c740000000000006054906000191690557f715f705f6d696c6573746f6e655f636f6d706c6574696f6e00000000000000006055906000191690557f626f6e75735f72657075746174696f6e5f6e756d657261746f720000000000006056906000191690557f626f6e75735f72657075746174696f6e5f64656e6f6d696e61746f72000000006057906000191690557f7370656369616c5f70726f706f73616c5f636f6d6d69745f70686173650000006058906000191690557f7370656369616c5f70726f706f73616c5f70686173655f746f74616c000000006059906000191690557f636f6e6669675f7370656369616c5f71756f74615f6e756d657261746f720000605a906000191690557f636f6e6669675f7370656369616c5f71756f74615f64656e6f6d696e61746f72605b906000191690557f7370656369616c5f71756f72756d5f6e756d657261746f720000000000000000605c906000191690557f7370656369616c5f71756f72756d5f64656e6f6d696e61746f72000000000000605d906000191690557f636f6e6669675f6d61785f72657075746174696f6e5f646564756374696f6e00605e906000191690557f636f6e6669675f70756e6973686d656e745f6e6f745f6c6f636b696e67000000605f906000191690557f636f6e6669675f7265705f7065725f65787472615f71705f6e756d00000000006060906000191690557f636f6e6669675f7265705f7065725f65787472615f71705f64656e00000000006061906000191690557f636f6e6669675f6d61785f6d5f72705f646564756374696f6e000000000000006062906000191690557f636f6e6669675f7265705f7065725f65787472615f6d5f71705f6e756d0000006063906000191690557f636f6e6669675f7265705f7065725f65787472615f6d5f71705f64656e0000006064906000191690557f636f6e6669675f6d6f645f706f7274696f6e5f6e756d000000000000000000006065906000191690557f636f6e6669675f6d6f645f706f7274696f6e5f64656e000000000000000000006066906000191690557f636f6e6669675f64726166745f766f74696e675f7068617365000000000000006067906000191690557f636f6e6669675f72705f626f6f73745f7065725f6261646765000000000000006068906000191690557f636f6e6669675f636c61696d696e675f646561646c696e6500000000000000006069906000191690557f636f6e6669675f70726570726f706f73616c5f6465706f736974000000000000606a906000191690557f636f6e6669675f6d61785f66756e64696e675f6e6f6e44696769780000000000606b906000191690557f636f6e6669675f6d61785f6d696c6573746f6e65735f6e6f6e44696769780000606c906000191690557f636f6e6669675f6e6f6e44696769785f70726f706f73616c5f63617000000000606d906000191690557f636f6e6669675f646561645f6475726174696f6e000000000000000000000000606e906000191690557f636f6e6669675f63765f72657075746174696f6e000000000000000000000000606f906000191690553480156200113457600080fd5b5060405160208062003fc583398101806040528101908080519060200190929190505050620011756016548262001188640100000000026401000000009004565b15156200118157600080fd5b5062001419565b6000808273ffffffffffffffffffffffffffffffffffffffff1663cf3090126040518163ffffffff167c0100000000000000000000000000000000000000000000000000000000028152600401602060405180830381600087803b158015620011f057600080fd5b505af115801562001205573d6000803e3d6000fd5b505050506040513d60208110156200121c57600080fd5b810190808051906020019092919050505090506000151581151514156200140d5730600260006101000a81548173ffffffffffffffffffffffffffffffffffffffff021916908373ffffffffffffffffffffffffffffffffffffffff160217905550826000806101000a81548173ffffffffffffffffffffffffffffffffffffffff021916908373ffffffffffffffffffffffffffffffffffffffff16021790555083600181600019169055506000809054906101000a900473ffffffffffffffffffffffffffffffffffffffff1673ffffffffffffffffffffffffffffffffffffffff1663c0f6ef4a600154600260009054906101000a900473ffffffffffffffffffffffffffffffffffffffff166040518363ffffffff167c01000000000000000000000000000000000000000000000000000000000281526004018083600019166000191681526020018273ffffffffffffffffffffffffffffffffffffffff1673ffffffffffffffffffffffffffffffffffffffff16815260200192505050602060405180830381600087803b158015620013ba57600080fd5b505af1158015620013cf573d6000803e3d6000fd5b505050506040513d6020811015620013e657600080fd5b810190808051906020019092919050505015156200140357600080fd5b6001915062001412565b600091505b5092915050565b612b9c80620014296000396000f300608060405260043610610112576000357c0100000000000000000000000000000000000000000000000000000000900463ffffffff16806304f3bcec146101175780630d7cc5611461016e5780631d8ccd04146101995780632b051b501461020a5780633943380c146102625780633f83acff14610295578063560a25ea146103065780635e8254ea14610331578063610af5701461037d57806368533060146103ba5780637d6fed80146103e9578063929066f51461041857806393ddad0814610473578063b1e2b9dd146104c0578063be29783f14610505578063d70d935814610544578063d9db3c7314610573578063db4ecbc1146105be578063f94f0f3314610615578063fa6f39361461065e575b600080fd5b34801561012357600080fd5b5061012c6106b9565b604051808273ffffffffffffffffffffffffffffffffffffffff1673ffffffffffffffffffffffffffffffffffffffff16815260200191505060405180910390f35b34801561017a57600080fd5b506101836106de565b6040518082815260200191505060405180910390f35b3480156101a557600080fd5b506101c860048036038101908080356000191690602001909291905050506106ee565b604051808273ffffffffffffffffffffffffffffffffffffffff1673ffffffffffffffffffffffffffffffffffffffff16815260200191505060405180910390f35b34801561021657600080fd5b506102606004803603810190808035600019169060200190929190803560ff16906020019092919080351515906020019092919080356000191690602001909291905050506107b0565b005b34801561026e57600080fd5b50610277610ed8565b60405180826000191660001916815260200191505060405180910390f35b3480156102a157600080fd5b506102c46004803603810190808035600019169060200190929190505050610ede565b604051808273ffffffffffffffffffffffffffffffffffffffff1673ffffffffffffffffffffffffffffffffffffffff16815260200191505060405180910390f35b34801561031257600080fd5b5061031b610fba565b6040518082815260200191505060405180910390f35b34801561033d57600080fd5b5061037b6004803603810190808035600019169060200190929190803560ff1690602001909291908035600019169060200190929190505050610fca565b005b34801561038957600080fd5b506103b860048036038101908080356000191690602001909291908035151590602001909291905050506111b9565b005b3480156103c657600080fd5b506103cf61168b565b604051808215151515815260200191505060405180910390f35b3480156103f557600080fd5b506103fe6116b7565b604051808215151515815260200191505060405180910390f35b34801561042457600080fd5b50610459600480360381019080803573ffffffffffffffffffffffffffffffffffffffff1690602001909291905050506116d2565b604051808215151515815260200191505060405180910390f35b34801561047f57600080fd5b506104a260048036038101908080356000191690602001909291905050506118b3565b60405180826000191660001916815260200191505060405180910390f35b3480156104cc57600080fd5b506104ef6004803603810190808035600019169060200190929190505050611975565b6040518082815260200191505060405180910390f35b34801561051157600080fd5b5061054260048036038101908080356000191690602001909291908035600019169060200190929190505050611a37565b005b34801561055057600080fd5b50610559611bf9565b604051808215151515815260200191505060405180910390f35b34801561057f57600080fd5b506105bc60048036038101908080356000191690602001909291908035151590602001909291908035600019169060200190929190505050611ca7565b005b3480156105ca57600080fd5b506105d3612368565b604051808273ffffffffffffffffffffffffffffffffffffffff1673ffffffffffffffffffffffffffffffffffffffff16815260200191505060405180910390f35b34801561062157600080fd5b50610644600480360381019080803560001916906020019092919050505061238e565b604051808215151515815260200191505060405180910390f35b34801561066a57600080fd5b5061069f600480360381019080803573ffffffffffffffffffffffffffffffffffffffff1690602001909291905050506124e3565b604051808215151515815260200191505060405180910390f35b6000809054906101000a900473ffffffffffffffffffffffffffffffffffffffff1681565b60006106e9426127b6565b905090565b60006106f86128b9565b73ffffffffffffffffffffffffffffffffffffffff1663e6b39eab836040518263ffffffff167c0100000000000000000000000000000000000000000000000000000000028152600401808260001916600019168152602001915050602060405180830381600087803b15801561076e57600080fd5b505af1158015610782573d6000803e3d6000fd5b505050506040513d602081101561079857600080fd5b81019080805190602001909291905050509050919050565b838360ff166108b66107c06128cb565b73ffffffffffffffffffffffffffffffffffffffff1663baf4266084846040518363ffffffff167c010000000000000000000000000000000000000000000000000000000002815260040180836000191660001916815260200182815260200192505050602060405180830381600087803b15801561083e57600080fd5b505af1158015610852573d6000803e3d6000fd5b505050506040513d602081101561086857600080fd5b81019080805190602001909291905050506108956000841461088c57603b54610890565b6039545b611975565b6108b1600085146108a857603c546108ac565b603a545b611975565b6128dd565b858560ff1660006108c56128cb565b73ffffffffffffffffffffffffffffffffffffffff16631d2103d18484336040518463ffffffff167c01000000000000000000000000000000000000000000000000000000000281526004018084600019166000191681526020018381526020018273ffffffffffffffffffffffffffffffffffffffff1673ffffffffffffffffffffffffffffffffffffffff16815260200193505050506040805180830381600087803b15801561097657600080fd5b505af115801561098a573d6000803e3d6000fd5b505050506040513d60408110156109a057600080fd5b8101908080519060200190929190805190602001909291905050509050809150506000811415156109d057600080fd5b6109d9336116d2565b15156109e457600080fd5b6109ec6128cb565b73ffffffffffffffffffffffffffffffffffffffff1663598f0eaf8a8a336040518463ffffffff167c01000000000000000000000000000000000000000000000000000000000281526004018084600019166000191681526020018360ff1681526020018273ffffffffffffffffffffffffffffffffffffffff1673ffffffffffffffffffffffffffffffffffffffff1681526020019350505050602060405180830381600087803b158015610aa157600080fd5b505af1158015610ab5573d6000803e3d6000fd5b505050506040513d6020811015610acb57600080fd5b810190808051906020019092919050505060001916338888604051602001808473ffffffffffffffffffffffffffffffffffffffff1673ffffffffffffffffffffffffffffffffffffffff166c0100000000000000000000000002815260140183151515157f0100000000000000000000000000000000000000000000000000000000000000028152600101826000191660001916815260200193505050506040516020818303038152906040526040518082805190602001908083835b602083101515610bae5780518252602082019150602081019050602083039250610b89565b6001836020036101000a038019825116818451168082178552505050505050905001915050604051809103902060001916141515610beb57600080fd5b610bf36128cb565b73ffffffffffffffffffffffffffffffffffffffff1663a6129f8c8a338a610c19612932565b73ffffffffffffffffffffffffffffffffffffffff1663cd094a27336040518263ffffffff167c0100000000000000000000000000000000000000000000000000000000028152600401808273ffffffffffffffffffffffffffffffffffffffff1673ffffffffffffffffffffffffffffffffffffffff168152602001915050602060405180830381600087803b158015610cb357600080fd5b505af1158015610cc7573d6000803e3d6000fd5b505050506040513d6020811015610cdd57600080fd5b81019080805190602001909291905050508d6040518663ffffffff167c01000000000000000000000000000000000000000000000000000000000281526004018086600019166000191681526020018573ffffffffffffffffffffffffffffffffffffffff1673ffffffffffffffffffffffffffffffffffffffff168152602001841515151581526020018381526020018260ff16815260200195505050505050600060405180830381600087803b158015610d9857600080fd5b505af1158015610dac573d6000803e3d6000fd5b50505050610db8612944565b73ffffffffffffffffffffffffffffffffffffffff16631eee015433610df360008c60ff1614610dea57605354610dee565b6052545b611975565b610dfb6106de565b6040518463ffffffff167c0100000000000000000000000000000000000000000000000000000000028152600401808473ffffffffffffffffffffffffffffffffffffffff1673ffffffffffffffffffffffffffffffffffffffff16815260200183815260200182815260200193505050506040805180830381600087803b158015610e8657600080fd5b505af1158015610e9a573d6000803e3d6000fd5b505050506040513d6040811015610eb057600080fd5b8101908080519060200190929190805190602001909291905050505050505050505050505050565b60015481565b60008060009054906101000a900473ffffffffffffffffffffffffffffffffffffffff1673ffffffffffffffffffffffffffffffffffffffff16633f83acff836040518263ffffffff167c0100000000000000000000000000000000000000000000000000000000028152600401808260001916600019168152602001915050602060405180830381600087803b158015610f7857600080fd5b505af1158015610f8c573d6000803e3d6000fd5b505050506040513d6020811015610fa257600080fd5b81019080805190602001909291905050509050919050565b6000610fc542612956565b905090565b82826110b9610fd76128cb565b73ffffffffffffffffffffffffffffffffffffffff1663baf4266084846040518363ffffffff167c01000000000000000000000000000000000000000000000000000000000281526004018083600019166000191681526020018260ff16815260200192505050602060405180830381600087803b15801561105857600080fd5b505af115801561106c573d6000803e3d6000fd5b505050506040513d602081101561108257600080fd5b810190808051906020019092919050505060006110b460008560ff16146110ab57603b546110af565b6039545b611975565b6128dd565b6110c2336116d2565b15156110cd57600080fd5b6110d56128cb565b73ffffffffffffffffffffffffffffffffffffffff166358cec139868533886040518563ffffffff167c010000000000000000000000000000000000000000000000000000000002815260040180856000191660001916815260200184600019166000191681526020018373ffffffffffffffffffffffffffffffffffffffff1673ffffffffffffffffffffffffffffffffffffffff1681526020018260ff168152602001945050505050600060405180830381600087803b15801561119a57600080fd5b505af11580156111ae573d6000803e3d6000fd5b505050505050505050565b60008060008461128d6111ca6128cb565b73ffffffffffffffffffffffffffffffffffffffff166349a428d0836040518263ffffffff167c0100000000000000000000000000000000000000000000000000000000028152600401808260001916600019168152602001915050602060405180830381600087803b15801561124057600080fd5b505af1158015611254573d6000803e3d6000fd5b505050506040513d602081101561126a57600080fd5b81019080805190602001909291905050506000611288606754611975565b6128dd565b61129561168b565b15156112a057600080fd5b6112a9336124e3565b15156112b457600080fd5b3393506112bf612932565b73ffffffffffffffffffffffffffffffffffffffff1663cd094a27856040518263ffffffff167c0100000000000000000000000000000000000000000000000000000000028152600401808273ffffffffffffffffffffffffffffffffffffffff1673ffffffffffffffffffffffffffffffffffffffff168152602001915050602060405180830381600087803b15801561135957600080fd5b505af115801561136d573d6000803e3d6000fd5b505050506040513d602081101561138357600080fd5b8101908080519060200190929190505050925061139e6128cb565b73ffffffffffffffffffffffffffffffffffffffff1663e14b2c2687866040518363ffffffff167c01000000000000000000000000000000000000000000000000000000000281526004018083600019166000191681526020018273ffffffffffffffffffffffffffffffffffffffff1673ffffffffffffffffffffffffffffffffffffffff168152602001925050506040805180830381600087803b15801561144757600080fd5b505af115801561145b573d6000803e3d6000fd5b505050506040513d604081101561147157600080fd5b81019080805190602001909291908051906020019092919050505090508092505061149a6128cb565b73ffffffffffffffffffffffffffffffffffffffff16632fd010da878688876040518563ffffffff167c01000000000000000000000000000000000000000000000000000000000281526004018085600019166000191681526020018473ffffffffffffffffffffffffffffffffffffffff1673ffffffffffffffffffffffffffffffffffffffff16815260200183151515158152602001828152602001945050505050600060405180830381600087803b15801561155857600080fd5b505af115801561156c573d6000803e3d6000fd5b50505050600082141561168357611581612944565b73ffffffffffffffffffffffffffffffffffffffff1663f2f80af4856115a8605154611975565b6115b06106de565b6040518463ffffffff167c0100000000000000000000000000000000000000000000000000000000028152600401808473ffffffffffffffffffffffffffffffffffffffff1673ffffffffffffffffffffffffffffffffffffffff16815260200183815260200182815260200193505050506040805180830381600087803b15801561163b57600080fd5b505af115801561164f573d6000803e3d6000fd5b505050506040513d604081101561166557600080fd5b81019080805190602001909291908051906020019092919050505050505b505050505050565b6000611695611bf9565b80156116b257506116a7603754611975565b6116af610fba565b10155b905090565b60006116c4603754611975565b6116cc610fba565b10905090565b60006116dc6106de565b6116e4612a3f565b73ffffffffffffffffffffffffffffffffffffffff1663cefc2bff846040518263ffffffff167c0100000000000000000000000000000000000000000000000000000000028152600401808273ffffffffffffffffffffffffffffffffffffffff1673ffffffffffffffffffffffffffffffffffffffff168152602001915050602060405180830381600087803b15801561177e57600080fd5b505af1158015611792573d6000803e3d6000fd5b505050506040513d60208110156117a857600080fd5b81019080805190602001909291905050501480156118ac57506117cc603454611975565b6117d4612932565b73ffffffffffffffffffffffffffffffffffffffff1663cd094a27846040518263ffffffff167c0100000000000000000000000000000000000000000000000000000000028152600401808273ffffffffffffffffffffffffffffffffffffffff1673ffffffffffffffffffffffffffffffffffffffff168152602001915050602060405180830381600087803b15801561186e57600080fd5b505af1158015611882573d6000803e3d6000fd5b505050506040513d602081101561189857600080fd5b810190808051906020019092919050505010155b9050919050565b60006118bd6128b9565b73ffffffffffffffffffffffffffffffffffffffff1663c0a8405d836040518263ffffffff167c0100000000000000000000000000000000000000000000000000000000028152600401808260001916600019168152602001915050602060405180830381600087803b15801561193357600080fd5b505af1158015611947573d6000803e3d6000fd5b505050506040513d602081101561195d57600080fd5b81019080805190602001909291905050509050919050565b600061197f6128b9565b73ffffffffffffffffffffffffffffffffffffffff1663734c1168836040518263ffffffff167c0100000000000000000000000000000000000000000000000000000000028152600401808260001916600019168152602001915050602060405180830381600087803b1580156119f557600080fd5b505af1158015611a09573d6000803e3d6000fd5b505050506040513d6020811015611a1f57600080fd5b81019080805190602001909291905050509050919050565b81611b06611a43612a51565b73ffffffffffffffffffffffffffffffffffffffff16638839a29d836040518263ffffffff167c0100000000000000000000000000000000000000000000000000000000028152600401808260001916600019168152602001915050602060405180830381600087803b158015611ab957600080fd5b505af1158015611acd573d6000803e3d6000fd5b505050506040513d6020811015611ae357600080fd5b81019080805190602001909291905050506000611b01605854611975565b6128dd565b611b0f336116d2565b1515611b1a57600080fd5b611b22612a51565b73ffffffffffffffffffffffffffffffffffffffff16632e278bf98484336040518463ffffffff167c010000000000000000000000000000000000000000000000000000000002815260040180846000191660001916815260200183600019166000191681526020018273ffffffffffffffffffffffffffffffffffffffff1673ffffffffffffffffffffffffffffffffffffffff1681526020019350505050600060405180830381600087803b158015611bdc57600080fd5b505af1158015611bf0573d6000803e3d6000fd5b50505050505050565b6000611c03612a63565b73ffffffffffffffffffffffffffffffffffffffff16638bc865fd6040518163ffffffff167c0100000000000000000000000000000000000000000000000000000000028152600401602060405180830381600087803b158015611c6657600080fd5b505af1158015611c7a573d6000803e3d6000fd5b505050506040513d6020811015611c9057600080fd5b810190808051906020019092919050505015905090565b82611d7f611cb3612a51565b73ffffffffffffffffffffffffffffffffffffffff16638839a29d836040518263ffffffff167c0100000000000000000000000000000000000000000000000000000000028152600401808260001916600019168152602001915050602060405180830381600087803b158015611d2957600080fd5b505af1158015611d3d573d6000803e3d6000fd5b505050506040513d6020811015611d5357600080fd5b8101908080519060200190929190505050611d6f605854611975565b611d7a605954611975565b6128dd565b836000611d8a612a51565b73ffffffffffffffffffffffffffffffffffffffff1663e5c2654e83336040518363ffffffff167c01000000000000000000000000000000000000000000000000000000000281526004018083600019166000191681526020018273ffffffffffffffffffffffffffffffffffffffff1673ffffffffffffffffffffffffffffffffffffffff168152602001925050506040805180830381600087803b158015611e3357600080fd5b505af1158015611e47573d6000803e3d6000fd5b505050506040513d6040811015611e5d57600080fd5b810190808051906020019092919080519060200190929190505050905080915050600081141515611e8d57600080fd5b611e96336116d2565b1515611ea157600080fd5b611ea9612a51565b73ffffffffffffffffffffffffffffffffffffffff1663f31a1ba287336040518363ffffffff167c01000000000000000000000000000000000000000000000000000000000281526004018083600019166000191681526020018273ffffffffffffffffffffffffffffffffffffffff1673ffffffffffffffffffffffffffffffffffffffff16815260200192505050602060405180830381600087803b158015611f5357600080fd5b505af1158015611f67573d6000803e3d6000fd5b505050506040513d6020811015611f7d57600080fd5b810190808051906020019092919050505060001916338686604051602001808473ffffffffffffffffffffffffffffffffffffffff1673ffffffffffffffffffffffffffffffffffffffff166c0100000000000000000000000002815260140183151515157f0100000000000000000000000000000000000000000000000000000000000000028152600101826000191660001916815260200193505050506040516020818303038152906040526040518082805190602001908083835b602083101515612060578051825260208201915060208101905060208303925061203b565b6001836020036101000a03801982511681845116808217855250505050505090500191505060405180910390206000191614151561209d57600080fd5b6120a5612a51565b73ffffffffffffffffffffffffffffffffffffffff1663462d701f8733886120cb612932565b73ffffffffffffffffffffffffffffffffffffffff1663cd094a27336040518263ffffffff167c0100000000000000000000000000000000000000000000000000000000028152600401808273ffffffffffffffffffffffffffffffffffffffff1673ffffffffffffffffffffffffffffffffffffffff168152602001915050602060405180830381600087803b15801561216557600080fd5b505af1158015612179573d6000803e3d6000fd5b505050506040513d602081101561218f57600080fd5b81019080805190602001909291905050506040518563ffffffff167c01000000000000000000000000000000000000000000000000000000000281526004018085600019166000191681526020018473ffffffffffffffffffffffffffffffffffffffff1673ffffffffffffffffffffffffffffffffffffffff16815260200183151515158152602001828152602001945050505050600060405180830381600087803b15801561223f57600080fd5b505af1158015612253573d6000803e3d6000fd5b5050505061225f612944565b73ffffffffffffffffffffffffffffffffffffffff16631eee015433612286605254611975565b61228e6106de565b6040518463ffffffff167c0100000000000000000000000000000000000000000000000000000000028152600401808473ffffffffffffffffffffffffffffffffffffffff1673ffffffffffffffffffffffffffffffffffffffff16815260200183815260200182815260200193505050506040805180830381600087803b15801561231957600080fd5b505af115801561232d573d6000803e3d6000fd5b505050506040513d604081101561234357600080fd5b8101908080519060200190929190805190602001909291905050505050505050505050565b600260009054906101000a900473ffffffffffffffffffffffffffffffffffffffff1681565b60006123986128cb565b73ffffffffffffffffffffffffffffffffffffffff1663d8d50179836040518263ffffffff167c010000000000000000000000000000000000000000000000000000000002815260040180826000191660001916815260200191505061014060405180830381600087803b15801561240f57600080fd5b505af1158015612423573d6000803e3d6000fd5b505050506040513d61014081101561243a57600080fd5b8101908080519060200190929190805190602001909291908051906020019092919080519060200190929190805190602001909291908051906020019092919080519060200190929190805190602001909291908051906020019092919080519060200190929190505050909192939495969798509091929394959697509091929394959650909192939495509091929394509091929350909192509091505080915050919050565b60006124ed6106de565b6124f5612a3f565b73ffffffffffffffffffffffffffffffffffffffff1663cefc2bff846040518263ffffffff167c0100000000000000000000000000000000000000000000000000000000028152600401808273ffffffffffffffffffffffffffffffffffffffff1673ffffffffffffffffffffffffffffffffffffffff168152602001915050602060405180830381600087803b15801561258f57600080fd5b505af11580156125a3573d6000803e3d6000fd5b505050506040513d60208110156125b957600080fd5b81019080805190602001909291905050501480156126bd57506125dd603554611975565b6125e5612932565b73ffffffffffffffffffffffffffffffffffffffff1663cd094a27846040518263ffffffff167c0100000000000000000000000000000000000000000000000000000000028152600401808273ffffffffffffffffffffffffffffffffffffffff1673ffffffffffffffffffffffffffffffffffffffff168152602001915050602060405180830381600087803b15801561267f57600080fd5b505af1158015612693573d6000803e3d6000fd5b505050506040513d60208110156126a957600080fd5b810190808051906020019092919050505010155b80156127af57506126cf603654611975565b6126d7612944565b73ffffffffffffffffffffffffffffffffffffffff16639c89a0e2846040518263ffffffff167c0100000000000000000000000000000000000000000000000000000000028152600401808273ffffffffffffffffffffffffffffffffffffffff1673ffffffffffffffffffffffffffffffffffffffff168152602001915050602060405180830381600087803b15801561277157600080fd5b505af1158015612785573d6000803e3d6000fd5b505050506040513d602081101561279b57600080fd5b810190808051906020019092919050505010155b9050919050565b60006127c0612a75565b15156127cb57600080fd5b6128b260016128a46127de603854611975565b6128966127e9612a63565b73ffffffffffffffffffffffffffffffffffffffff1663d9c6bb206040518163ffffffff167c0100000000000000000000000000000000000000000000000000000000028152600401602060405180830381600087803b15801561284c57600080fd5b505af1158015612860573d6000803e3d6000fd5b505050506040513d602081101561287657600080fd5b810190808051906020019092919050505087612b2590919063ffffffff16565b612b3e90919063ffffffff16565b612b5490919063ffffffff16565b9050919050565b60006128c6602854610ede565b905090565b60006128d8602354610ede565b905090565b6000831115156128ec57600080fd5b6128ff8184612b5490919063ffffffff16565b4210151561290c57600080fd5b61291f8284612b5490919063ffffffff16565b421015151561292d57600080fd5b505050565b600061293f602954610ede565b905090565b6000612951602654610ede565b905090565b6000612960612a75565b151561296b57600080fd5b612976603854611975565b612a2e612981612a63565b73ffffffffffffffffffffffffffffffffffffffff1663d9c6bb206040518163ffffffff167c0100000000000000000000000000000000000000000000000000000000028152600401602060405180830381600087803b1580156129e457600080fd5b505af11580156129f8573d6000803e3d6000fd5b505050506040513d6020811015612a0e57600080fd5b810190808051906020019092919050505084612b2590919063ffffffff16565b811515612a3757fe5b069050919050565b6000612a4c602b54610ede565b905090565b6000612a5e602754610ede565b905090565b6000612a70602454610ede565b905090565b600080612a80612a63565b73ffffffffffffffffffffffffffffffffffffffff1663d9c6bb206040518163ffffffff167c0100000000000000000000000000000000000000000000000000000000028152600401602060405180830381600087803b158015612ae357600080fd5b505af1158015612af7573d6000803e3d6000fd5b505050506040513d6020811015612b0d57600080fd5b81019080805190602001909291905050501415905090565b6000828211151515612b3357fe5b818303905092915050565b60008183811515612b4b57fe5b04905092915050565b60008183019050828110151515612b6757fe5b809050929150505600a165627a7a72305820e13ec4288cda07a517b7be8c9ff92ca301adbe933d354e5947b43b3350e63cac0029",
  "source": "pragma solidity ^0.4.24;\n\nimport \"../common/DaoCommon.sol\";\n\n/**\n@title Contract for all voting operations of DAO\n@author Digix Holdings\n*/\ncontract DaoVoting is DaoCommon {\n\n    constructor(address _resolver) public {\n        require(init(CONTRACT_DAO_VOTING, _resolver));\n    }\n\n\n    /**\n    @notice Function to vote on draft proposal (only Moderators can vote)\n    @param _proposalId ID of the proposal\n    @param _voteYes Boolean, true if voting for, false if voting against\n    */\n    function voteOnDraft(\n        bytes32 _proposalId,\n        bool _voteYes\n    )\n        public\n        ifDraftVotingPhase(_proposalId)\n    {\n        require(isMainPhase());\n        require(isModerator(msg.sender));\n        address _moderator = msg.sender;\n        uint256 _moderatorStake = daoStakeStorage().lockedDGDStake(_moderator);\n\n        uint256 _voteWeight;\n        (,_voteWeight) = daoStorage().readDraftVote(_proposalId, _moderator);\n\n        daoStorage().addDraftVote(_proposalId, _moderator, _voteYes, _moderatorStake);\n\n        if (_voteWeight == 0) { // just voted the first time\n            daoPointsStorage().addModeratorQuarterPoint(_moderator, getUintConfig(CONFIG_QUARTER_POINT_DRAFT_VOTE), currentQuarterIndex());\n        }\n    }\n\n\n    /**\n    @notice Function to commit a vote on special proposal\n    @param _proposalId ID of the proposal\n    @param _commitHash Hash of the vote to commit (hash = SHA3(address(pub_address), bool(vote), bytes(random string)))\n    @return {\n      \"_success\": \"Boolean, true if vote was committed successfully\"\n    }\n    */\n    function commitVoteOnSpecialProposal(\n        bytes32 _proposalId,\n        bytes32 _commitHash\n    )\n        public\n        ifCommitPhaseSpecial(_proposalId)\n    {\n        require(isParticipant(msg.sender));\n        daoSpecialStorage().commitVote(_proposalId, _commitHash, msg.sender);\n    }\n\n\n    /**\n    @notice Function to reveal a committed vote on special proposal\n    @dev The lockedDGDStake that would be counted behind a participant's vote is his lockedDGDStake when this function is called\n    @param _proposalId ID of the proposal\n    @param _vote Boolean, true if voted for, false if voted against\n    @param _salt Random bytes used to commit vote\n    */\n    function revealVoteOnSpecialProposal(\n        bytes32 _proposalId,\n        bool _vote,\n        bytes32 _salt\n    )\n        public\n        ifRevealPhaseSpecial(_proposalId)\n        hasNotRevealedSpecial(_proposalId)\n    {\n        require(isParticipant(msg.sender));\n        require(keccak256(abi.encodePacked(msg.sender, _vote, _salt)) == daoSpecialStorage().readComittedVote(_proposalId, msg.sender));\n        daoSpecialStorage().revealVote(_proposalId, msg.sender, _vote, daoStakeStorage().lockedDGDStake(msg.sender));\n        daoPointsStorage().addQuarterPoint(msg.sender, getUintConfig(CONFIG_QUARTER_POINT_VOTE), currentQuarterIndex());\n    }\n\n\n    /**\n    @notice Function to commit a vote on proposal (Voting Round)\n    @param _proposalId ID of the proposal\n    @param _index Index of the Voting Round\n    @param _commitHash Hash of the vote to commit (hash = SHA3(address(pub_address), bool(vote), bytes32(random string)))\n    */\n    function commitVoteOnProposal(\n        bytes32 _proposalId,\n        uint8 _index,\n        bytes32 _commitHash\n    )\n        public\n        ifCommitPhase(_proposalId, _index)\n    {\n        require(isParticipant(msg.sender));\n        daoStorage().commitVote(_proposalId, _commitHash, msg.sender, _index);\n    }\n\n\n    /**\n    @notice Function to reveal a committed vote on proposal (Voting Round)\n    @dev The lockedDGDStake that would be counted behind a participant's vote is his lockedDGDStake when this function is called\n    @param _proposalId ID of the proposal\n    @param _index Index of the Voting Round\n    @param _vote Boolean, true if voted for, false if voted against\n    @param _salt Random bytes used to commit vote\n    */\n    function revealVoteOnProposal(\n        bytes32 _proposalId,\n        uint8 _index,\n        bool _vote,\n        bytes32 _salt\n    )\n        public\n        ifRevealPhase(_proposalId, _index)\n        hasNotRevealed(_proposalId, _index)\n    {\n        require(isParticipant(msg.sender));\n        require(keccak256(abi.encodePacked(msg.sender, _vote, _salt)) == daoStorage().readComittedVote(_proposalId, _index, msg.sender));\n        daoStorage().revealVote(_proposalId, msg.sender, _vote, daoStakeStorage().lockedDGDStake(msg.sender), _index);\n        daoPointsStorage().addQuarterPoint(\n            msg.sender,\n            getUintConfig(_index == 0 ? CONFIG_QUARTER_POINT_VOTE : CONFIG_QUARTER_POINT_INTERIM_VOTE),\n            currentQuarterIndex()\n        );\n    }\n}\n",
  "sourcePath": "/home/rohit/Develop/dao-contracts/contracts/interactive/DaoVoting.sol",
  "compiler": {
    "name": "solc",
    "version": "0.4.24+commit.e67f0147.Emscripten.clang"
  },
  "schemaVersion": "2.0.1",
  "updatedAt": "2018-10-08T06:56:14.164Z"
}