{
  "contractName": "MockDaoFundingManager",
  "abi": [
    {
      "constant": true,
      "inputs": [],
      "name": "oldFundingManager",
      "outputs": [
        {
          "name": "",
          "type": "address"
        }
      ],
      "payable": false,
      "stateMutability": "view",
      "type": "function"
    },
    {
      "constant": true,
      "inputs": [],
      "name": "ethInDao",
      "outputs": [
        {
          "name": "",
          "type": "uint256"
        }
      ],
      "payable": false,
      "stateMutability": "view",
      "type": "function"
    },
    {
      "inputs": [
        {
          "name": "_oldFundingManager",
          "type": "address"
        }
      ],
      "payable": false,
      "stateMutability": "nonpayable",
      "type": "constructor"
    },
    {
      "payable": true,
      "stateMutability": "payable",
      "type": "fallback"
    },
    {
      "constant": false,
      "inputs": [],
      "name": "updateEthInDao",
      "outputs": [],
      "payable": false,
      "stateMutability": "nonpayable",
      "type": "function"
    },
    {
      "constant": false,
      "inputs": [],
      "name": "manuallyFundDao",
      "outputs": [],
      "payable": true,
      "stateMutability": "payable",
      "type": "function"
    }
  ],
  "bytecode": "0x608060405234801561001057600080fd5b5060405160208061028e8339810180604052810190808051906020019092919050505080600160006101000a81548173ffffffffffffffffffffffffffffffffffffffff021916908373ffffffffffffffffffffffffffffffffffffffff1602179055505061020a806100846000396000f300608060405260043610610062576000357c0100000000000000000000000000000000000000000000000000000000900463ffffffff16806326f3aca9146100cf578063485c8766146101265780636409183014610130578063df4cb5b514610147575b60003411151561007157600080fd5b600160009054906101000a900473ffffffffffffffffffffffffffffffffffffffff1673ffffffffffffffffffffffffffffffffffffffff163373ffffffffffffffffffffffffffffffffffffffff161415156100cd57600080fd5b005b3480156100db57600080fd5b506100e4610172565b604051808273ffffffffffffffffffffffffffffffffffffffff1673ffffffffffffffffffffffffffffffffffffffff16815260200191505060405180910390f35b61012e610198565b005b34801561013c57600080fd5b506101456101b8565b005b34801561015357600080fd5b5061015c6101d8565b6040518082815260200191505060405180910390f35b600160009054906101000a900473ffffffffffffffffffffffffffffffffffffffff1681565b6000341115156101a757600080fd5b346000808282540192505081905550565b3073ffffffffffffffffffffffffffffffffffffffff1631600081905550565b600054815600a165627a7a723058200a2d785385c608bd49637651f097a9f69dd89054352f74daa17c3339f65c186f0029",
  "source": "pragma solidity ^0.4.24;\n\ncontract MockDaoFundingManager {\n    uint256 public ethInDao;\n    address public oldFundingManager;\n\n    constructor(address _oldFundingManager) public {\n        oldFundingManager = _oldFundingManager;\n    }\n\n    function () payable public {\n        require(msg.value > 0);\n        require(msg.sender == oldFundingManager);\n    }\n\n    function updateEthInDao() public {\n        ethInDao = address(this).balance;\n    }\n\n    function manuallyFundDao() payable public {\n        require(msg.value > 0);\n        ethInDao += msg.value;\n    }\n}\n",
  "sourcePath": "/home/rohit/Develop/dao-contracts/contracts/mock/interactive/MockDaoFundingManager.sol",
  "compiler": {
    "name": "solc",
    "version": "0.4.24+commit.e67f0147.Emscripten.clang"
  },
  "schemaVersion": "2.0.1",
  "updatedAt": "2018-10-08T06:32:23.379Z"
}