{
  "contractName": "MockDaoStorage",
  "abi": [
    {
      "constant": true,
      "inputs": [
        {
          "name": "_proposalId",
          "type": "bytes32"
        },
        {
          "name": "_version",
          "type": "bytes32"
        }
      ],
      "name": "readProposalVersion",
      "outputs": [
        {
          "name": "_doc",
          "type": "bytes32"
        },
        {
          "name": "_created",
          "type": "uint256"
        },
        {
          "name": "_milestoneFundings",
          "type": "uint256[]"
        },
        {
          "name": "_finalReward",
          "type": "uint256"
        }
      ],
      "payable": false,
      "stateMutability": "view",
      "type": "function"
    },
    {
      "constant": true,
      "inputs": [],
      "name": "resolver",
      "outputs": [
        {
          "name": "",
          "type": "address"
        }
      ],
      "payable": false,
      "stateMutability": "view",
      "type": "function"
    },
    {
      "constant": false,
      "inputs": [
        {
          "name": "_proposalId",
          "type": "bytes32"
        }
      ],
      "name": "closeProposal",
      "outputs": [],
      "payable": false,
      "stateMutability": "nonpayable",
      "type": "function"
    },
    {
      "constant": true,
      "inputs": [
        {
          "name": "_proposalId",
          "type": "bytes32"
        },
        {
          "name": "_index",
          "type": "uint256"
        }
      ],
      "name": "readProposalVotingResult",
      "outputs": [
        {
          "name": "_result",
          "type": "bool"
        }
      ],
      "payable": false,
      "stateMutability": "view",
      "type": "function"
    },
    {
      "constant": true,
      "inputs": [
        {
          "name": "_proposalId",
          "type": "bytes32"
        }
      ],
      "name": "getLastProposalVersion",
      "outputs": [
        {
          "name": "_version",
          "type": "bytes32"
        }
      ],
      "payable": false,
      "stateMutability": "view",
      "type": "function"
    },
    {
      "constant": true,
      "inputs": [
        {
          "name": "_proposalId",
          "type": "bytes32"
        }
      ],
      "name": "readProposalDraftVotingResult",
      "outputs": [
        {
          "name": "_result",
          "type": "bool"
        }
      ],
      "payable": false,
      "stateMutability": "view",
      "type": "function"
    },
    {
      "constant": true,
      "inputs": [
        {
          "name": "_stateId",
          "type": "bytes32"
        },
        {
          "name": "_proposalId",
          "type": "bytes32"
        }
      ],
      "name": "getPreviousProposalInState",
      "outputs": [
        {
          "name": "_id",
          "type": "bytes32"
        }
      ],
      "payable": false,
      "stateMutability": "view",
      "type": "function"
    },
    {
      "constant": true,
      "inputs": [
        {
          "name": "",
          "type": "uint256"
        }
      ],
      "name": "proposalCountByQuarter",
      "outputs": [
        {
          "name": "",
          "type": "uint256"
        }
      ],
      "payable": false,
      "stateMutability": "view",
      "type": "function"
    },
    {
      "constant": true,
      "inputs": [
        {
          "name": "_proposalId",
          "type": "bytes32"
        },
        {
          "name": "_index",
          "type": "uint256"
        },
        {
          "name": "_voter",
          "type": "address"
        }
      ],
      "name": "readVote",
      "outputs": [
        {
          "name": "_vote",
          "type": "bool"
        },
        {
          "name": "_weight",
          "type": "uint256"
        }
      ],
      "payable": false,
      "stateMutability": "view",
      "type": "function"
    },
    {
      "constant": true,
      "inputs": [
        {
          "name": "_stateId",
          "type": "bytes32"
        }
      ],
      "name": "getLastProposalInState",
      "outputs": [
        {
          "name": "_id",
          "type": "bytes32"
        }
      ],
      "payable": false,
      "stateMutability": "view",
      "type": "function"
    },
    {
      "constant": false,
      "inputs": [
        {
          "name": "_proposalId",
          "type": "bytes32"
        },
        {
          "name": "_index",
          "type": "uint256"
        },
        {
          "name": "_result",
          "type": "bool"
        }
      ],
      "name": "setProposalPass",
      "outputs": [],
      "payable": false,
      "stateMutability": "nonpayable",
      "type": "function"
    },
    {
      "constant": true,
      "inputs": [
        {
          "name": "_proposalId",
          "type": "bytes32"
        }
      ],
      "name": "getNextProposal",
      "outputs": [
        {
          "name": "_id",
          "type": "bytes32"
        }
      ],
      "payable": false,
      "stateMutability": "view",
      "type": "function"
    },
    {
      "constant": false,
      "inputs": [
        {
          "name": "_proposalId",
          "type": "bytes32"
        },
        {
          "name": "_claimed",
          "type": "bool"
        }
      ],
      "name": "setDraftVotingClaim",
      "outputs": [],
      "payable": false,
      "stateMutability": "nonpayable",
      "type": "function"
    },
    {
      "constant": false,
      "inputs": [
        {
          "name": "_proposalId",
          "type": "bytes32"
        },
        {
          "name": "_milestoneId",
          "type": "uint256"
        }
      ],
      "name": "setMilestoneFunded",
      "outputs": [],
      "payable": false,
      "stateMutability": "nonpayable",
      "type": "function"
    },
    {
      "constant": false,
      "inputs": [
        {
          "name": "_proposalId",
          "type": "bytes32"
        },
        {
          "name": "_voter",
          "type": "address"
        },
        {
          "name": "_vote",
          "type": "bool"
        },
        {
          "name": "_weight",
          "type": "uint256"
        }
      ],
      "name": "addDraftVote",
      "outputs": [],
      "payable": false,
      "stateMutability": "nonpayable",
      "type": "function"
    },
    {
      "constant": false,
      "inputs": [
        {
          "name": "_proposalId",
          "type": "bytes32"
        },
        {
          "name": "_index",
          "type": "uint256"
        },
        {
          "name": "_time",
          "type": "uint256"
        }
      ],
      "name": "setProposalVotingTime",
      "outputs": [],
      "payable": false,
      "stateMutability": "nonpayable",
      "type": "function"
    },
    {
      "constant": true,
      "inputs": [],
      "name": "key",
      "outputs": [
        {
          "name": "",
          "type": "bytes32"
        }
      ],
      "payable": false,
      "stateMutability": "view",
      "type": "function"
    },
    {
      "constant": true,
      "inputs": [
        {
          "name": "_proposalId",
          "type": "bytes32"
        }
      ],
      "name": "isDraftClaimed",
      "outputs": [
        {
          "name": "_claimed",
          "type": "bool"
        }
      ],
      "payable": false,
      "stateMutability": "view",
      "type": "function"
    },
    {
      "constant": true,
      "inputs": [
        {
          "name": "_proposalId",
          "type": "bytes32"
        },
        {
          "name": "_index",
          "type": "uint256"
        }
      ],
      "name": "readProposalMilestone",
      "outputs": [
        {
          "name": "_funding",
          "type": "uint256"
        }
      ],
      "payable": false,
      "stateMutability": "view",
      "type": "function"
    },
    {
      "constant": true,
      "inputs": [
        {
          "name": "_proposalId",
          "type": "bytes32"
        }
      ],
      "name": "readProposalCollateralStatus",
      "outputs": [
        {
          "name": "_status",
          "type": "uint256"
        }
      ],
      "payable": false,
      "stateMutability": "view",
      "type": "function"
    },
    {
      "constant": false,
      "inputs": [
        {
          "name": "_proposalId",
          "type": "bytes32"
        },
        {
          "name": "_index",
          "type": "uint256"
        },
        {
          "name": "_claimed",
          "type": "bool"
        }
      ],
      "name": "setVotingClaim",
      "outputs": [],
      "payable": false,
      "stateMutability": "nonpayable",
      "type": "function"
    },
    {
      "constant": true,
      "inputs": [
        {
          "name": "_key",
          "type": "bytes32"
        }
      ],
      "name": "get_contract",
      "outputs": [
        {
          "name": "_contract",
          "type": "address"
        }
      ],
      "payable": false,
      "stateMutability": "view",
      "type": "function"
    },
    {
      "constant": true,
      "inputs": [
        {
          "name": "_proposalId",
          "type": "bytes32"
        },
        {
          "name": "_milestoneId",
          "type": "uint256"
        }
      ],
      "name": "readIfMilestoneFunded",
      "outputs": [
        {
          "name": "_funded",
          "type": "bool"
        }
      ],
      "payable": false,
      "stateMutability": "view",
      "type": "function"
    },
    {
      "constant": false,
      "inputs": [
        {
          "name": "_proposalId",
          "type": "bytes32"
        }
      ],
      "name": "finalizeProposal",
      "outputs": [],
      "payable": false,
      "stateMutability": "nonpayable",
      "type": "function"
    },
    {
      "constant": true,
      "inputs": [
        {
          "name": "_proposalId",
          "type": "bytes32"
        },
        {
          "name": "_version",
          "type": "bytes32"
        }
      ],
      "name": "getNextProposalVersion",
      "outputs": [
        {
          "name": "_nextVersion",
          "type": "bytes32"
        }
      ],
      "payable": false,
      "stateMutability": "view",
      "type": "function"
    },
    {
      "constant": true,
      "inputs": [
        {
          "name": "_proposalId",
          "type": "bytes32"
        }
      ],
      "name": "readProposalDraftVotingTime",
      "outputs": [
        {
          "name": "_start",
          "type": "uint256"
        }
      ],
      "payable": false,
      "stateMutability": "view",
      "type": "function"
    },
    {
      "constant": true,
      "inputs": [
        {
          "name": "_proposalId",
          "type": "bytes32"
        }
      ],
      "name": "readTotalPrlActions",
      "outputs": [
        {
          "name": "_length",
          "type": "uint256"
        }
      ],
      "payable": false,
      "stateMutability": "view",
      "type": "function"
    },
    {
      "constant": false,
      "inputs": [
        {
          "name": "_quarterIndex",
          "type": "uint256"
        }
      ],
      "name": "addNonDigixProposalCountInQuarter",
      "outputs": [],
      "payable": false,
      "stateMutability": "nonpayable",
      "type": "function"
    },
    {
      "constant": true,
      "inputs": [
        {
          "name": "_proposalId",
          "type": "bytes32"
        },
        {
          "name": "_version",
          "type": "bytes32"
        }
      ],
      "name": "getPreviousProposalVersion",
      "outputs": [
        {
          "name": "_previousVersion",
          "type": "bytes32"
        }
      ],
      "payable": false,
      "stateMutability": "view",
      "type": "function"
    },
    {
      "constant": false,
      "inputs": [
        {
          "name": "_proposalId",
          "type": "bytes32"
        },
        {
          "name": "_hash",
          "type": "bytes32"
        },
        {
          "name": "_voter",
          "type": "address"
        },
        {
          "name": "_index",
          "type": "uint256"
        }
      ],
      "name": "commitVote",
      "outputs": [],
      "payable": false,
      "stateMutability": "nonpayable",
      "type": "function"
    },
    {
      "constant": true,
      "inputs": [
        {
          "name": "_proposalId",
          "type": "bytes32"
        },
        {
          "name": "_index",
          "type": "uint256"
        },
        {
          "name": "_voter",
          "type": "address"
        }
      ],
      "name": "readComittedVote",
      "outputs": [
        {
          "name": "_commitHash",
          "type": "bytes32"
        }
      ],
      "payable": false,
      "stateMutability": "view",
      "type": "function"
    },
    {
      "constant": true,
      "inputs": [
        {
          "name": "_proposalId",
          "type": "bytes32"
        }
      ],
      "name": "readProposalProposer",
      "outputs": [
        {
          "name": "_proposer",
          "type": "address"
        }
      ],
      "payable": false,
      "stateMutability": "view",
      "type": "function"
    },
    {
      "constant": true,
      "inputs": [
        {
          "name": "_proposalId",
          "type": "bytes32"
        }
      ],
      "name": "getPreviousProposal",
      "outputs": [
        {
          "name": "_id",
          "type": "bytes32"
        }
      ],
      "payable": false,
      "stateMutability": "view",
      "type": "function"
    },
    {
      "constant": true,
      "inputs": [
        {
          "name": "_proposalId",
          "type": "bytes32"
        }
      ],
      "name": "readProposalFunding",
      "outputs": [
        {
          "name": "_fundings",
          "type": "uint256[]"
        },
        {
          "name": "_finalReward",
          "type": "uint256"
        }
      ],
      "payable": false,
      "stateMutability": "view",
      "type": "function"
    },
    {
      "constant": true,
      "inputs": [
        {
          "name": "_proposalId",
          "type": "bytes32"
        },
        {
          "name": "_index",
          "type": "uint256"
        }
      ],
      "name": "readPrlAction",
      "outputs": [
        {
          "name": "_actionId",
          "type": "uint256"
        },
        {
          "name": "_time",
          "type": "uint256"
        },
        {
          "name": "_doc",
          "type": "bytes32"
        }
      ],
      "payable": false,
      "stateMutability": "view",
      "type": "function"
    },
    {
      "constant": false,
      "inputs": [
        {
          "name": "_proposalId",
          "type": "bytes32"
        },
        {
          "name": "_result",
          "type": "bool"
        }
      ],
      "name": "setProposalDraftPass",
      "outputs": [],
      "payable": false,
      "stateMutability": "nonpayable",
      "type": "function"
    },
    {
      "constant": true,
      "inputs": [
        {
          "name": "_proposalId",
          "type": "bytes32"
        },
        {
          "name": "_index",
          "type": "uint256"
        }
      ],
      "name": "isClaimed",
      "outputs": [
        {
          "name": "_claimed",
          "type": "bool"
        }
      ],
      "payable": false,
      "stateMutability": "view",
      "type": "function"
    },
    {
      "constant": false,
      "inputs": [
        {
          "name": "_proposalId",
          "type": "bytes32"
        },
        {
          "name": "_amount",
          "type": "uint256"
        }
      ],
      "name": "setProposalCollateralAmount",
      "outputs": [],
      "payable": false,
      "stateMutability": "nonpayable",
      "type": "function"
    },
    {
      "constant": false,
      "inputs": [
        {
          "name": "_doc",
          "type": "bytes32"
        },
        {
          "name": "_proposer",
          "type": "address"
        },
        {
          "name": "_milestoneFundings",
          "type": "uint256[]"
        },
        {
          "name": "_finalReward",
          "type": "uint256"
        },
        {
          "name": "_isFounder",
          "type": "bool"
        }
      ],
      "name": "addProposal",
      "outputs": [],
      "payable": false,
      "stateMutability": "nonpayable",
      "type": "function"
    },
    {
      "constant": true,
      "inputs": [
        {
          "name": "_proposalId",
          "type": "bytes32"
        },
        {
          "name": "_index",
          "type": "uint256"
        },
        {
          "name": "_allUsers",
          "type": "address[]"
        }
      ],
      "name": "readVotingCount",
      "outputs": [
        {
          "name": "_for",
          "type": "uint256"
        },
        {
          "name": "_against",
          "type": "uint256"
        }
      ],
      "payable": false,
      "stateMutability": "view",
      "type": "function"
    },
    {
      "constant": false,
      "inputs": [
        {
          "name": "_proposalId",
          "type": "bytes32"
        },
        {
          "name": "_voter",
          "type": "address"
        },
        {
          "name": "_vote",
          "type": "bool"
        },
        {
          "name": "_weight",
          "type": "uint256"
        },
        {
          "name": "_index",
          "type": "uint256"
        }
      ],
      "name": "revealVote",
      "outputs": [],
      "payable": false,
      "stateMutability": "nonpayable",
      "type": "function"
    },
    {
      "constant": true,
      "inputs": [
        {
          "name": "_stateId",
          "type": "bytes32"
        },
        {
          "name": "_proposalId",
          "type": "bytes32"
        }
      ],
      "name": "getNextProposalInState",
      "outputs": [
        {
          "name": "_id",
          "type": "bytes32"
        }
      ],
      "payable": false,
      "stateMutability": "view",
      "type": "function"
    },
    {
      "constant": false,
      "inputs": [
        {
          "name": "_proposalId",
          "type": "bytes32"
        },
        {
          "name": "_endorser",
          "type": "address"
        }
      ],
      "name": "updateProposalEndorse",
      "outputs": [],
      "payable": false,
      "stateMutability": "nonpayable",
      "type": "function"
    },
    {
      "constant": true,
      "inputs": [
        {
          "name": "_proposalId",
          "type": "bytes32"
        },
        {
          "name": "_index",
          "type": "uint256"
        }
      ],
      "name": "readProposalVotingTime",
      "outputs": [
        {
          "name": "_start",
          "type": "uint256"
        }
      ],
      "payable": false,
      "stateMutability": "view",
      "type": "function"
    },
    {
      "constant": true,
      "inputs": [
        {
          "name": "_proposalId",
          "type": "bytes32"
        },
        {
          "name": "_allUsers",
          "type": "address[]"
        }
      ],
      "name": "readDraftVotingCount",
      "outputs": [
        {
          "name": "_for",
          "type": "uint256"
        },
        {
          "name": "_against",
          "type": "uint256"
        }
      ],
      "payable": false,
      "stateMutability": "view",
      "type": "function"
    },
    {
      "constant": false,
      "inputs": [
        {
          "name": "_proposalId",
          "type": "bytes32"
        },
        {
          "name": "_action",
          "type": "uint256"
        },
        {
          "name": "_doc",
          "type": "bytes32"
        },
        {
          "name": "_time",
          "type": "uint256"
        }
      ],
      "name": "updateProposalPRL",
      "outputs": [],
      "payable": false,
      "stateMutability": "nonpayable",
      "type": "function"
    },
    {
      "constant": false,
      "inputs": [
        {
          "name": "_proposalId",
          "type": "bytes32"
        },
        {
          "name": "_newMilestoneFundings",
          "type": "uint256[]"
        },
        {
          "name": "_finalReward",
          "type": "uint256"
        }
      ],
      "name": "changeFundings",
      "outputs": [],
      "payable": false,
      "stateMutability": "nonpayable",
      "type": "function"
    },
    {
      "constant": false,
      "inputs": [
        {
          "name": "_proposalId",
          "type": "bytes32"
        },
        {
          "name": "_status",
          "type": "uint256"
        }
      ],
      "name": "setProposalCollateralStatus",
      "outputs": [],
      "payable": false,
      "stateMutability": "nonpayable",
      "type": "function"
    },
    {
      "constant": true,
      "inputs": [],
      "name": "getFirstProposal",
      "outputs": [
        {
          "name": "_id",
          "type": "bytes32"
        }
      ],
      "payable": false,
      "stateMutability": "view",
      "type": "function"
    },
    {
      "constant": true,
      "inputs": [
        {
          "name": "_proposalId",
          "type": "bytes32"
        }
      ],
      "name": "readProposal",
      "outputs": [
        {
          "name": "_doc",
          "type": "bytes32"
        },
        {
          "name": "_proposer",
          "type": "address"
        },
        {
          "name": "_endorser",
          "type": "address"
        },
        {
          "name": "_state",
          "type": "bytes32"
        },
        {
          "name": "_timeCreated",
          "type": "uint256"
        },
        {
          "name": "_nVersions",
          "type": "uint256"
        },
        {
          "name": "_latestVersionDoc",
          "type": "bytes32"
        },
        {
          "name": "_finalVersion",
          "type": "bytes32"
        },
        {
          "name": "_pausedOrStopped",
          "type": "bool"
        },
        {
          "name": "_isDigixProposal",
          "type": "bool"
        }
      ],
      "payable": false,
      "stateMutability": "view",
      "type": "function"
    },
    {
      "constant": true,
      "inputs": [],
      "name": "CONTRACT_ADDRESS",
      "outputs": [
        {
          "name": "",
          "type": "address"
        }
      ],
      "payable": false,
      "stateMutability": "view",
      "type": "function"
    },
    {
      "constant": true,
      "inputs": [
        {
          "name": "_proposalId",
          "type": "bytes32"
        }
      ],
      "name": "readProposalDocs",
      "outputs": [
        {
          "name": "_moreDocs",
          "type": "bytes32[]"
        }
      ],
      "payable": false,
      "stateMutability": "view",
      "type": "function"
    },
    {
      "constant": true,
      "inputs": [
        {
          "name": "_proposalId",
          "type": "bytes32"
        },
        {
          "name": "_voter",
          "type": "address"
        }
      ],
      "name": "readDraftVote",
      "outputs": [
        {
          "name": "_vote",
          "type": "bool"
        },
        {
          "name": "_weight",
          "type": "uint256"
        }
      ],
      "payable": false,
      "stateMutability": "view",
      "type": "function"
    },
    {
      "constant": false,
      "inputs": [
        {
          "name": "_proposalId",
          "type": "bytes32"
        },
        {
          "name": "_time",
          "type": "uint256"
        }
      ],
      "name": "setProposalDraftVotingTime",
      "outputs": [],
      "payable": false,
      "stateMutability": "nonpayable",
      "type": "function"
    },
    {
      "constant": true,
      "inputs": [
        {
          "name": "_proposalId",
          "type": "bytes32"
        }
      ],
      "name": "getFirstProposalVersion",
      "outputs": [
        {
          "name": "_version",
          "type": "bytes32"
        }
      ],
      "payable": false,
      "stateMutability": "view",
      "type": "function"
    },
    {
      "constant": true,
      "inputs": [
        {
          "name": "_stateId",
          "type": "bytes32"
        }
      ],
      "name": "getFirstProposalInState",
      "outputs": [
        {
          "name": "_id",
          "type": "bytes32"
        }
      ],
      "payable": false,
      "stateMutability": "view",
      "type": "function"
    },
    {
      "constant": true,
      "inputs": [
        {
          "name": "_proposalId",
          "type": "bytes32"
        },
        {
          "name": "_index",
          "type": "uint256"
        },
        {
          "name": "_allUsers",
          "type": "address[]"
        },
        {
          "name": "_vote",
          "type": "bool"
        }
      ],
      "name": "readVotingRoundVotes",
      "outputs": [
        {
          "name": "_voters",
          "type": "address[]"
        },
        {
          "name": "_length",
          "type": "uint256"
        }
      ],
      "payable": false,
      "stateMutability": "view",
      "type": "function"
    },
    {
      "constant": true,
      "inputs": [
        {
          "name": "_proposalId",
          "type": "bytes32"
        }
      ],
      "name": "readProposalCollateralAmount",
      "outputs": [
        {
          "name": "_amount",
          "type": "uint256"
        }
      ],
      "payable": false,
      "stateMutability": "view",
      "type": "function"
    },
    {
      "constant": false,
      "inputs": [
        {
          "name": "_proposalId",
          "type": "bytes32"
        },
        {
          "name": "_newDoc",
          "type": "bytes32"
        }
      ],
      "name": "addProposalDoc",
      "outputs": [],
      "payable": false,
      "stateMutability": "nonpayable",
      "type": "function"
    },
    {
      "constant": true,
      "inputs": [],
      "name": "getLastProposal",
      "outputs": [
        {
          "name": "_id",
          "type": "bytes32"
        }
      ],
      "payable": false,
      "stateMutability": "view",
      "type": "function"
    },
    {
      "constant": false,
      "inputs": [
        {
          "name": "_proposalId",
          "type": "bytes32"
        },
        {
          "name": "_newDoc",
          "type": "bytes32"
        },
        {
          "name": "_newMilestoneFundings",
          "type": "uint256[]"
        },
        {
          "name": "_finalReward",
          "type": "uint256"
        }
      ],
      "name": "editProposal",
      "outputs": [],
      "payable": false,
      "stateMutability": "nonpayable",
      "type": "function"
    },
    {
      "inputs": [
        {
          "name": "_resolver",
          "type": "address"
        }
      ],
      "payable": false,
      "stateMutability": "nonpayable",
      "type": "constructor"
    },
    {
      "constant": false,
      "inputs": [
        {
          "name": "_proposalId",
          "type": "bytes32"
        },
        {
          "name": "_roundIndex",
          "type": "uint256"
        },
        {
          "name": "_isDraftPhase",
          "type": "bool"
        },
        {
          "name": "_proposer",
          "type": "address"
        },
        {
          "name": "_endorser",
          "type": "address"
        },
        {
          "name": "_milestonesFundings",
          "type": "uint256[]"
        },
        {
          "name": "_finalReward",
          "type": "uint256"
        }
      ],
      "name": "mock_put_proposal_as",
      "outputs": [],
      "payable": false,
      "stateMutability": "nonpayable",
      "type": "function"
    },
    {
      "constant": false,
      "inputs": [
        {
          "name": "_proposalId",
          "type": "bytes32"
        },
        {
          "name": "_milestoneId",
          "type": "uint256"
        },
        {
          "name": "_proposer",
          "type": "address"
        },
        {
          "name": "_endorser",
          "type": "address"
        },
        {
          "name": "_milestonesFundings",
          "type": "uint256[]"
        },
        {
          "name": "_finalReward",
          "type": "uint256"
        },
        {
          "name": "_previousVotingStart",
          "type": "uint256"
        }
      ],
      "name": "mock_put_proposal_in_milestone",
      "outputs": [],
      "payable": false,
      "stateMutability": "nonpayable",
      "type": "function"
    },
    {
      "constant": false,
      "inputs": [
        {
          "name": "_proposalId",
          "type": "bytes32"
        },
        {
          "name": "_roundIndex",
          "type": "uint256"
        },
        {
          "name": "_isDraftPhase",
          "type": "bool"
        },
        {
          "name": "_voters",
          "type": "address[]"
        },
        {
          "name": "_votes",
          "type": "bool[]"
        },
        {
          "name": "_weights",
          "type": "uint256[]"
        },
        {
          "name": "_length",
          "type": "uint256"
        },
        {
          "name": "_startOfVotingRound",
          "type": "uint256"
        }
      ],
      "name": "mock_put_past_votes",
      "outputs": [],
      "payable": false,
      "stateMutability": "nonpayable",
      "type": "function"
    },
    {
      "constant": false,
      "inputs": [
        {
          "name": "_quarterId",
          "type": "uint256"
        },
        {
          "name": "_count",
          "type": "uint256"
        }
      ],
      "name": "mock_set_proposal_count",
      "outputs": [],
      "payable": false,
      "stateMutability": "nonpayable",
      "type": "function"
    }
  ],
  "bytecode": "0x608060405260006001026003906000191690556000600460006101000a81548173ffffffffffffffffffffffffffffffffffffffff021916908373ffffffffffffffffffffffffffffffffffffffff1602179055507f70726f706f73616c5f73746174655f70726570726f706f73616c0000000000006005906000191690557f70726f706f73616c5f73746174655f64726166740000000000000000000000006006906000191690557f70726f706f73616c5f73746174655f6d6f6465726174656400000000000000006007906000191690557f70726f706f73616c5f73746174655f6f6e676f696e67000000000000000000006008906000191690557f70726f706f73616c5f73746174655f636c6f73656400000000000000000000006009906000191690556001600a556002600b556003600c556001600d556002600e556003600f557f696e7465725f6467645f696400000000000000000000000000000000000000006010906000191690557f696e7465725f6d6f645f6467645f6964000000000000000000000000000000006011906000191690557f696e7465725f626f6e75735f63616c63756c6174696f6e5f69640000000000006012906000191690557f64616f00000000000000000000000000000000000000000000000000000000006013906000191690557f64616f3a7370656369616c3a70726f706f73616c0000000000000000000000006014906000191690557f64616f3a7374616b652d6c6f636b696e670000000000000000000000000000006015906000191690557f64616f3a766f74696e67000000000000000000000000000000000000000000006016906000191690557f64616f3a766f74696e673a636c61696d730000000000000000000000000000006017906000191690557f64616f3a73766f74696e673a636c61696d7300000000000000000000000000006018906000191690557f64616f3a6964656e7469747900000000000000000000000000000000000000006019906000191690557f64616f3a726577617264732d6d616e6167657200000000000000000000000000601a906000191690557f64616f3a726577617264732d6578747261730000000000000000000000000000601b906000191690557f64616f3a726f6c65730000000000000000000000000000000000000000000000601c906000191690557f64616f3a66756e64696e672d6d616e6167657200000000000000000000000000601d906000191690557f64616f3a77686974656c697374696e6700000000000000000000000000000000601e906000191690557f736572766963653a726f6c650000000000000000000000000000000000000000601f906000191690557f736572766963653a64616f3a696e666f000000000000000000000000000000006020906000191690557f736572766963653a64616f3a6c697374696e67000000000000000000000000006021906000191690557f736572766963653a64616f3a63616c63756c61746f72000000000000000000006022906000191690557f73746f726167653a64616f0000000000000000000000000000000000000000006023906000191690557f73746f726167653a64616f3a75706772616465000000000000000000000000006024906000191690557f73746f726167653a64616f3a6964656e746974790000000000000000000000006025906000191690557f73746f726167653a64616f3a706f696e747300000000000000000000000000006026906000191690557f73746f726167653a64616f3a7370656369616c000000000000000000000000006027906000191690557f73746f726167653a64616f3a636f6e66696700000000000000000000000000006028906000191690557f73746f726167653a64616f3a7374616b650000000000000000000000000000006029906000191690557f73746f726167653a64616f3a66756e64696e6700000000000000000000000000602a906000191690557f73746f726167653a64616f3a7265776172647300000000000000000000000000602b906000191690557f73746f726167653a64616f3a77686974656c697374696e670000000000000000602c906000191690557f73746f726167653a696e7465726d6564696174653a726573756c747300000000602d906000191690557f73746f726167653a64616f3a636f6c6c61746572616c00000000000000000000602e906000191690557f743a646764000000000000000000000000000000000000000000000000000000602f906000191690557f743a6467780000000000000000000000000000000000000000000000000000006030906000191690557f743a6261646765000000000000000000000000000000000000000000000000006031906000191690556001603260006101000a81548160ff021916908360ff1602179055506002603260016101000a81548160ff021916908360ff1602179055506003603260026101000a81548160ff021916908360ff1602179055506004603260036101000a81548160ff021916908360ff1602179055506276a7006033557f6d696e5f6467645f7061727469636970616e74000000000000000000000000006034906000191690557f6d696e5f6467645f6d6f64657261746f720000000000000000000000000000006035906000191690557f6d696e5f72657075746174696f6e5f6d6f64657261746f7200000000000000006036906000191690557f6c6f636b696e675f70686173655f6475726174696f6e000000000000000000006037906000191690557f717561727465725f6475726174696f6e000000000000000000000000000000006038906000191690557f766f74696e675f636f6d6d69745f7068617365000000000000000000000000006039906000191690557f766f74696e675f70686173655f746f74616c0000000000000000000000000000603a906000191690557f696e746572696d5f766f74696e675f636f6d6d69745f70686173650000000000603b906000191690557f696e746572696d5f766f74696e675f70686173655f746f74616c000000000000603c906000191690557f64726166745f71756f72756d5f66697865645f6e756d657261746f7200000000603d906000191690557f64726166745f71756f72756d5f66697865645f64656e6f6d696e61746f720000603e906000191690557f64726166745f71756f72756d5f73666163746f725f6e756d657261746f720000603f906000191690557f64726166745f71756f72756d5f73666163746f725f64656e6f6d696e61746f726040906000191690557f766f74655f71756f72756d5f66697865645f6e756d657261746f7200000000006041906000191690557f766f74655f71756f72756d5f66697865645f64656e6f6d696e61746f720000006042906000191690557f766f74655f71756f72756d5f73666163746f725f6e756d657261746f720000006043906000191690557f766f74655f71756f72756d5f73666163746f725f64656e6f6d696e61746f72006044906000191690557f66696e616c5f7265776172645f73666163746f725f6e756d657261746f7200006045906000191690557f66696e616c5f7265776172645f73666163746f725f64656e6f6d696e61746f726046906000191690557f64726166745f71756f74615f6e756d657261746f7200000000000000000000006047906000191690557f64726166745f71756f74615f64656e6f6d696e61746f720000000000000000006048906000191690557f766f74696e675f71756f74615f6e756d657261746f72000000000000000000006049906000191690557f766f74696e675f71756f74615f64656e6f6d696e61746f720000000000000000604a906000191690557f6d696e696d616c5f717000000000000000000000000000000000000000000000604b906000191690557f717561727465725f706f696e745f7363616c696e675f666163746f7200000000604c906000191690557f7265705f706f696e745f7363616c696e675f666163746f720000000000000000604d906000191690557f6d696e696d616c5f6d6f645f7170000000000000000000000000000000000000604e906000191690557f6d6f645f71705f7363616c696e675f666163746f720000000000000000000000604f906000191690557f6d6f645f7265705f706f696e745f7363616c696e675f666163746f72000000006050906000191690557f717561727465725f706f696e745f64726166745f766f746500000000000000006051906000191690557f717561727465725f706f696e745f766f746500000000000000000000000000006052906000191690557f717561727465725f706f696e745f696e746572696d5f766f74650000000000006053906000191690557f717561727465725f706f696e745f636c61696d5f726573756c740000000000006054906000191690557f715f705f6d696c6573746f6e655f636f6d706c6574696f6e00000000000000006055906000191690557f626f6e75735f72657075746174696f6e5f6e756d657261746f720000000000006056906000191690557f626f6e75735f72657075746174696f6e5f64656e6f6d696e61746f72000000006057906000191690557f7370656369616c5f70726f706f73616c5f636f6d6d69745f70686173650000006058906000191690557f7370656369616c5f70726f706f73616c5f70686173655f746f74616c000000006059906000191690557f636f6e6669675f7370656369616c5f71756f74615f6e756d657261746f720000605a906000191690557f636f6e6669675f7370656369616c5f71756f74615f64656e6f6d696e61746f72605b906000191690557f7370656369616c5f71756f72756d5f6e756d657261746f720000000000000000605c906000191690557f7370656369616c5f71756f72756d5f64656e6f6d696e61746f72000000000000605d906000191690557f636f6e6669675f6d61785f72657075746174696f6e5f646564756374696f6e00605e906000191690557f636f6e6669675f70756e6973686d656e745f6e6f745f6c6f636b696e67000000605f906000191690557f636f6e6669675f7265705f7065725f65787472615f71705f6e756d00000000006060906000191690557f636f6e6669675f7265705f7065725f65787472615f71705f64656e00000000006061906000191690557f636f6e6669675f6d61785f6d5f72705f646564756374696f6e000000000000006062906000191690557f636f6e6669675f7265705f7065725f65787472615f6d5f71705f6e756d0000006063906000191690557f636f6e6669675f7265705f7065725f65787472615f6d5f71705f64656e0000006064906000191690557f636f6e6669675f6d6f645f706f7274696f6e5f6e756d000000000000000000006065906000191690557f636f6e6669675f6d6f645f706f7274696f6e5f64656e000000000000000000006066906000191690557f636f6e6669675f64726166745f766f74696e675f7068617365000000000000006067906000191690557f636f6e6669675f72705f626f6f73745f7065725f6261646765000000000000006068906000191690557f636f6e6669675f636c61696d696e675f646561646c696e6500000000000000006069906000191690557f636f6e6669675f70726570726f706f73616c5f6465706f736974000000000000606a906000191690557f636f6e6669675f6d61785f66756e64696e675f6e6f6e44696769780000000000606b906000191690557f636f6e6669675f6d61785f6d696c6573746f6e65735f6e6f6e44696769780000606c906000191690557f636f6e6669675f6e6f6e44696769785f70726f706f73616c5f63617000000000606d906000191690557f636f6e6669675f646561645f6475726174696f6e000000000000000000000000606e906000191690557f636f6e6669675f63765f72657075746174696f6e000000000000000000000000606f906000191690553480156200113457600080fd5b50604051602080620072aa833981018060405281019080805190602001909291905050508062001176602354826200118a640100000000026401000000009004565b15156200118257600080fd5b50506200141b565b6000808273ffffffffffffffffffffffffffffffffffffffff1663cf3090126040518163ffffffff167c0100000000000000000000000000000000000000000000000000000000028152600401602060405180830381600087803b158015620011f257600080fd5b505af115801562001207573d6000803e3d6000fd5b505050506040513d60208110156200121e57600080fd5b810190808051906020019092919050505090506000151581151514156200140f5730600260006101000a81548173ffffffffffffffffffffffffffffffffffffffff021916908373ffffffffffffffffffffffffffffffffffffffff160217905550826000806101000a81548173ffffffffffffffffffffffffffffffffffffffff021916908373ffffffffffffffffffffffffffffffffffffffff16021790555083600181600019169055506000809054906101000a900473ffffffffffffffffffffffffffffffffffffffff1673ffffffffffffffffffffffffffffffffffffffff1663c0f6ef4a600154600260009054906101000a900473ffffffffffffffffffffffffffffffffffffffff166040518363ffffffff167c01000000000000000000000000000000000000000000000000000000000281526004018083600019166000191681526020018273ffffffffffffffffffffffffffffffffffffffff1673ffffffffffffffffffffffffffffffffffffffff16815260200192505050602060405180830381600087803b158015620013bc57600080fd5b505af1158015620013d1573d6000803e3d6000fd5b505050506040513d6020811015620013e857600080fd5b810190808051906020019092919050505015156200140557600080fd5b6001915062001414565b600091505b5092915050565b615e7f806200142b6000396000f300608060405260043610610301576000357c0100000000000000000000000000000000000000000000000000000000900463ffffffff16806303020ea91461030657806304f3bcec146103b7578063078f872c1461040e5780630bcaa4511461043f5780630c012e59146104925780630ec8f125146104df5780631478fff114610528578063198c6e24146105835780631d2103d1146105c45780631d47c3d31461063e5780631ea5d62f1461068b57806320091787146106d2578063237286e91461070957806327618ad91461075657806327a9bb0e146107935780632fd010da146107ce578063344e436e146108355780633943380c1461087a578063395ddde9146108ad5780633a85b822146108f65780633be88369146109455780633e020d2f1461098a5780633f83acff146109d157806341a7158914610a4257806347d0da1414610a9557806347d621a314610ac657806349a428d014610b215780634c5b318a14610b665780635552f20014610bab57806356674c9f14610bd857806358cec13914610c33578063598f0eaf14610c9c5780635b712eb614610d13578063689e699914610d8457806370a6f59114610ea85780637246d5a714610ef55780637aafacae14610f8257806382e445c614610fe757806385f5276f146110245780638a2d659714611077578063a1d444a4146110b2578063a1e55acf1461115c578063a6129f8c146111f5578063a692e0ef14611266578063ac443d9f146112c1578063afe2da7a14611312578063baf42660146113e4578063bb3b5f6d14611433578063c004b7de146114c2578063c3093bb114611515578063c362c79014611593578063cfd59172146115ce578063d8d5017914611601578063db4ecbc114611705578063de233e421461175c578063e14b2c26146117e2578063e2cf05d414611852578063e3f3f7a214611926578063e415667514611961578063e7853aac146119ae578063e81362fe146119fb578063eb82718a14611ae1578063eef7b8f514611b26578063f0ab3dd914611b65578063ffec1b2114611b98575b600080fd5b34801561031257600080fd5b5061034360048036038101908080356000191690602001909291908035600019169060200190929190505050611c24565b60405180856000191660001916815260200184815260200180602001838152602001828103825284818151815260200191508051906020019060200280838360005b838110156103a0578082015181840152602081019050610385565b505050509050019550505050505060405180910390f35b3480156103c357600080fd5b506103cc611d91565b604051808273ffffffffffffffffffffffffffffffffffffffff1673ffffffffffffffffffffffffffffffffffffffff16815260200191505060405180910390f35b34801561041a57600080fd5b5061043d6004803603810190808035600019169060200190929190505050611db6565b005b34801561044b57600080fd5b50610478600480360381019080803560001916906020019092919080359060200190929190505050611dd8565b604051808215151515815260200191505060405180910390f35b34801561049e57600080fd5b506104c16004803603810190808035600019169060200190929190505050611e36565b60405180826000191660001916815260200191505060405180910390f35b3480156104eb57600080fd5b5061050e6004803603810190808035600019169060200190929190505050611e6a565b604051808215151515815260200191505060405180910390f35b34801561053457600080fd5b5061056560048036038101908080356000191690602001909291908035600019169060200190929190505050611eb6565b60405180826000191660001916815260200191505060405180910390f35b34801561058f57600080fd5b506105ae60048036038101908080359060200190929190505050611ef8565b6040518082815260200191505060405180910390f35b3480156105d057600080fd5b5061061d600480360381019080803560001916906020019092919080359060200190929190803573ffffffffffffffffffffffffffffffffffffffff169060200190929190505050611f10565b60405180831515151581526020018281526020019250505060405180910390f35b34801561064a57600080fd5b5061066d6004803603810190808035600019169060200190929190505050612046565b60405180826000191660001916815260200191505060405180910390f35b34801561069757600080fd5b506106d0600480360381019080803560001916906020019092919080359060200190929190803515159060200190929190505050612086565b005b3480156106de57600080fd5b5061070760048036038101908080359060200190929190803590602001909291905050506122de565b005b34801561071557600080fd5b5061073860048036038101908080356000191690602001909291905050506122fa565b60405180826000191660001916815260200191505060405180910390f35b34801561076257600080fd5b50610791600480360381019080803560001916906020019092919080351515906020019092919050505061230e565b005b34801561079f57600080fd5b506107cc600480360381019080803560001916906020019092919080359060200190929190505050612361565b005b3480156107da57600080fd5b506108336004803603810190808035600019169060200190929190803573ffffffffffffffffffffffffffffffffffffffff169060200190929190803515159060200190929190803590602001909291905050506123c6565b005b34801561084157600080fd5b50610878600480360381019080803560001916906020019092919080359060200190929190803590602001909291905050506125d0565b005b34801561088657600080fd5b5061088f612659565b60405180826000191660001916815260200191505060405180910390f35b3480156108b957600080fd5b506108dc600480360381019080803560001916906020019092919050505061265f565b604051808215151515815260200191505060405180910390f35b34801561090257600080fd5b5061092f600480360381019080803560001916906020019092919080359060200190929190505050612697565b6040518082815260200191505060405180910390f35b34801561095157600080fd5b50610974600480360381019080803560001916906020019092919050505061277f565b6040518082815260200191505060405180910390f35b34801561099657600080fd5b506109cf6004803603810190808035600019169060200190929190803590602001909291908035151590602001909291905050506127bb565b005b3480156109dd57600080fd5b50610a006004803603810190808035600019169060200190929190505050612820565b604051808273ffffffffffffffffffffffffffffffffffffffff1673ffffffffffffffffffffffffffffffffffffffff16815260200191505060405180910390f35b348015610a4e57600080fd5b50610a7b6004803603810190808035600019169060200190929190803590602001909291905050506128fc565b604051808215151515815260200191505060405180910390f35b348015610aa157600080fd5b50610ac4600480360381019080803560001916906020019092919050505061295a565b005b348015610ad257600080fd5b50610b03600480360381019080803560001916906020019092919080356000191690602001909291905050506129a2565b60405180826000191660001916815260200191505060405180910390f35b348015610b2d57600080fd5b50610b5060048036038101908080356000191690602001909291905050506129d8565b6040518082815260200191505060405180910390f35b348015610b7257600080fd5b50610b956004803603810190808035600019169060200190929190505050612a03565b6040518082815260200191505060405180910390f35b348015610bb757600080fd5b50610bd660048036038101908080359060200190929190505050612a2e565b005b348015610be457600080fd5b50610c1560048036038101908080356000191690602001909291908035600019169060200190929190505050612a85565b60405180826000191660001916815260200191505060405180910390f35b348015610c3f57600080fd5b50610c9a60048036038101908080356000191690602001909291908035600019169060200190929190803573ffffffffffffffffffffffffffffffffffffffff16906020019092919080359060200190929190505050612abb565b005b348015610ca857600080fd5b50610cf5600480360381019080803560001916906020019092919080359060200190929190803573ffffffffffffffffffffffffffffffffffffffff169060200190929190505050612b4f565b60405180826000191660001916815260200191505060405180910390f35b348015610d1f57600080fd5b50610d426004803603810190808035600019169060200190929190505050612bde565b604051808273ffffffffffffffffffffffffffffffffffffffff1673ffffffffffffffffffffffffffffffffffffffff16815260200191505060405180910390f35b348015610d9057600080fd5b50610ea66004803603810190808035600019169060200190929190803590602001909291908035151590602001909291908035906020019082018035906020019080806020026020016040519081016040528093929190818152602001838360200280828437820191505050505050919291929080359060200190820180359060200190808060200260200160405190810160405280939291908181526020018383602002808284378201915050505050509192919290803590602001908201803590602001908080602002602001604051908101604052809392919081815260200183836020028082843782019150505050505091929192908035906020019092919080359060200190929190505050612c26565b005b348015610eb457600080fd5b50610ed76004803603810190808035600019169060200190929190505050612df5565b60405180826000191660001916815260200191505060405180910390f35b348015610f0157600080fd5b50610f246004803603810190808035600019169060200190929190505050612e09565b6040518080602001838152602001828103825284818151815260200191508051906020019060200280838360005b83811015610f6d578082015181840152602081019050610f52565b50505050905001935050505060405180910390f35b348015610f8e57600080fd5b50610fbb600480360381019080803560001916906020019092919080359060200190929190505050612f2a565b604051808481526020018381526020018260001916600019168152602001935050505060405180910390f35b348015610ff357600080fd5b50611022600480360381019080803560001916906020019092919080351515906020019092919050505061303f565b005b34801561103057600080fd5b5061105d60048036038101908080356000191690602001909291908035906020019092919050505061327a565b604051808215151515815260200191505060405180910390f35b34801561108357600080fd5b506110b06004803603810190808035600019169060200190929190803590602001909291905050506132c4565b005b3480156110be57600080fd5b5061115a6004803603810190808035600019169060200190929190803573ffffffffffffffffffffffffffffffffffffffff1690602001909291908035906020019082018035906020019080806020026020016040519081016040528093929190818152602001838360200280828437820191505050505050919291929080359060200190929190803515159060200190929190505050613301565b005b34801561116857600080fd5b506111d8600480360381019080803560001916906020019092919080359060200190929190803590602001908201803590602001908080602002602001604051908101604052809392919081815260200183836020028082843782019150505050505091929192905050506136b3565b604051808381526020018281526020019250505060405180910390f35b34801561120157600080fd5b506112646004803603810190808035600019169060200190929190803573ffffffffffffffffffffffffffffffffffffffff16906020019092919080351515906020019092919080359060200190929190803590602001909291905050506137fe565b005b34801561127257600080fd5b506112a360048036038101908080356000191690602001909291908035600019169060200190929190505050613916565b60405180826000191660001916815260200191505060405180910390f35b3480156112cd57600080fd5b506113106004803603810190808035600019169060200190929190803573ffffffffffffffffffffffffffffffffffffffff169060200190929190505050613958565b005b34801561131e57600080fd5b506113e2600480360381019080803560001916906020019092919080359060200190929190803573ffffffffffffffffffffffffffffffffffffffff169060200190929190803573ffffffffffffffffffffffffffffffffffffffff169060200190929190803590602001908201803590602001908080602002602001604051908101604052809392919081815260200183836020028082843782019150505050505091929192908035906020019092919080359060200190929190505050613b8e565b005b3480156113f057600080fd5b5061141d6004803603810190808035600019169060200190929190803590602001909291905050506140be565b6040518082815260200191505060405180910390f35b34801561143f57600080fd5b506114a560048036038101908080356000191690602001909291908035906020019082018035906020019080806020026020016040519081016040528093929190818152602001838360200280828437820191505050505050919291929050505061410f565b604051808381526020018281526020019250505060405180910390f35b3480156114ce57600080fd5b50611513600480360381019080803560001916906020019092919080359060200190929190803560001916906020019092919080359060200190929190505050614248565b005b34801561152157600080fd5b50611591600480360381019080803560001916906020019092919080359060200190820180359060200190808060200260200160405190810160405280939291908181526020018383602002808284378201915050505050509192919290803590602001909291905050506143d4565b005b34801561159f57600080fd5b506115cc6004803603810190808035600019169060200190929190803590602001909291905050506144ba565b005b3480156115da57600080fd5b506115e361452e565b60405180826000191660001916815260200191505060405180910390f35b34801561160d57600080fd5b50611630600480360381019080803560001916906020019092919050505061453f565b604051808b600019166000191681526020018a73ffffffffffffffffffffffffffffffffffffffff1673ffffffffffffffffffffffffffffffffffffffff1681526020018973ffffffffffffffffffffffffffffffffffffffff1673ffffffffffffffffffffffffffffffffffffffff16815260200188600019166000191681526020018781526020018681526020018560001916600019168152602001846000191660001916815260200183151515158152602001821515151581526020019a505050505050505050505060405180910390f35b34801561171157600080fd5b5061171a61463d565b604051808273ffffffffffffffffffffffffffffffffffffffff1673ffffffffffffffffffffffffffffffffffffffff16815260200191505060405180910390f35b34801561176857600080fd5b5061178b6004803603810190808035600019169060200190929190505050614663565b6040518080602001828103825283818151815260200191508051906020019060200280838360005b838110156117ce5780820151818401526020810190506117b3565b505050509050019250505060405180910390f35b3480156117ee57600080fd5b506118316004803603810190808035600019169060200190929190803573ffffffffffffffffffffffffffffffffffffffff169060200190929190505050614736565b60405180831515151581526020018281526020019250505060405180910390f35b34801561185e57600080fd5b50611924600480360381019080803560001916906020019092919080359060200190929190803515159060200190929190803573ffffffffffffffffffffffffffffffffffffffff169060200190929190803573ffffffffffffffffffffffffffffffffffffffff169060200190929190803590602001908201803590602001908080602002602001604051908101604052809392919081815260200183836020028082843782019150505050505091929192908035906020019092919050505061485a565b005b34801561193257600080fd5b5061195f60048036038101908080356000191690602001909291908035906020019092919050505061500e565b005b34801561196d57600080fd5b50611990600480360381019080803560001916906020019092919050505061504e565b60405180826000191660001916815260200191505060405180910390f35b3480156119ba57600080fd5b506119dd6004803603810190808035600019169060200190929190505050615082565b60405180826000191660001916815260200191505060405180910390f35b348015611a0757600080fd5b50611a83600480360381019080803560001916906020019092919080359060200190929190803590602001908201803590602001908080602002602001604051908101604052809392919081815260200183836020028082843782019150505050505091929192908035151590602001909291905050506150c2565b6040518080602001838152602001828103825284818151815260200191508051906020019060200280838360005b83811015611acc578082015181840152602081019050611ab1565b50505050905001935050505060405180910390f35b348015611aed57600080fd5b50611b106004803603810190808035600019169060200190929190505050615275565b6040518082815260200191505060405180910390f35b348015611b3257600080fd5b50611b636004803603810190808035600019169060200190929190803560001916906020019092919050505061529d565b005b348015611b7157600080fd5b50611b7a61535e565b60405180826000191660001916815260200191505060405180910390f35b348015611ba457600080fd5b50611c2260048036038101908080356000191690602001909291908035600019169060200190929190803590602001908201803590602001908080602002602001604051908101604052809392919081815260200183836020028082843782019150505050505091929192908035906020019092919050505061536f565b005b60008060606000607660008760001916600019168152602001908152602001600020600b016000866000191660001916815260200190815260200160002073__DaoStructs____________________________6310d31f6490916040518263ffffffff167c01000000000000000000000000000000000000000000000000000000000281526004018082815260200191505060006040518083038186803b158015611cce57600080fd5b505af4158015611ce2573d6000803e3d6000fd5b505050506040513d6000823e3d601f19601f820116820180604052506080811015611d0c57600080fd5b8101908080519060200190929190805190602001909291908051640100000000811115611d3857600080fd5b82810190506020810184811115611d4e57600080fd5b8151856020820283011164010000000082111715611d6b57600080fd5b505092919060200180519060200190929190505050935093509350935092959194509250565b6000809054906101000a900473ffffffffffffffffffffffffffffffffffffffff1681565b611dc160135461548b565b1515611dcc57600080fd5b611dd581615595565b50565b6000611de33361578d565b1515611dee57600080fd5b607660008460001916600019168152602001908152602001600020601201600083815260200190815260200160002060050160009054906101000a900460ff16905092915050565b6000806076600084600019166000191681526020019081526020016000209050611e6281600501615884565b915050919050565b6000611e753361578d565b1515611e8057600080fd5b607660008360001916600019168152602001908152602001600020600c0160050160009054906101000a900460ff169050919050565b6000611ec13361578d565b1515611ecc57600080fd5b611ef060776000856000191660001916815260200190815260200160002083615935565b905092915050565b60786020528060005260406000206000915090505481565b600080611f1c3361578d565b1515611f2757600080fd5b607660008660001916600019168152602001908152602001600020601201600085815260200190815260200160002073__DaoStructs____________________________634bf150b99091856040518363ffffffff167c0100000000000000000000000000000000000000000000000000000000028152600401808381526020018273ffffffffffffffffffffffffffffffffffffffff1673ffffffffffffffffffffffffffffffffffffffff16815260200192505050604080518083038186803b158015611ff557600080fd5b505af4158015612009573d6000803e3d6000fd5b505050506040513d604081101561201f57600080fd5b81019080805190602001909291908051906020019092919050505091509150935093915050565b60006120513361578d565b151561205c57600080fd5b61207f607760008460001916600019168152602001908152602001600020615884565b9050919050565b61209160175461548b565b151561209c57600080fd5b8015156120b1576120ac83615595565b61228f565b600082141561228e57607760006007546000191660001916815260200190815260200160002073__DoublyLinkedList______________________6352c6bbf49091856040518363ffffffff167c01000000000000000000000000000000000000000000000000000000000281526004018083815260200182600019166000191681526020019250505060206040518083038186803b15801561215357600080fd5b505af4158015612167573d6000803e3d6000fd5b505050506040513d602081101561217d57600080fd5b810190808051906020019092919050505050607760006008546000191660001916815260200190815260200160002073__DoublyLinkedList______________________63582f30b49091856040518363ffffffff167c01000000000000000000000000000000000000000000000000000000000281526004018083815260200182600019166000191681526020019250505060206040518083038186803b15801561222857600080fd5b505af415801561223c573d6000803e3d6000fd5b505050506040513d602081101561225257600080fd5b81019080805190602001909291905050505060085460766000856000191660001916815260200190815260200160002060030181600019169055505b5b80607660008560001916600019168152602001908152602001600020601201600084815260200190815260200160002060050160006101000a81548160ff021916908315150217905550505050565b8060786000848152602001908152602001600020819055505050565b60006123076070836159f7565b9050919050565b61231960175461548b565b151561232457600080fd5b80607660008460001916600019168152602001908152602001600020600c0160050160016101000a81548160ff0219169083151502179055505050565b61236c601d5461548b565b151561237757600080fd5b6001607660008460001916600019168152602001908152602001600020601201600083815260200190815260200160002060050160026101000a81548160ff0219169083151502179055505050565b60006123d360165461548b565b15156123de57600080fd5b607660008660001916600019168152602001908152602001600020905082156124e7578181600c0160030160008673ffffffffffffffffffffffffffffffffffffffff1673ffffffffffffffffffffffffffffffffffffffff16815260200190815260200160002081905550600081600c0160040160008673ffffffffffffffffffffffffffffffffffffffff1673ffffffffffffffffffffffffffffffffffffffff1681526020019081526020016000205411156124e257600081600c0160040160008673ffffffffffffffffffffffffffffffffffffffff1673ffffffffffffffffffffffffffffffffffffffff168152602001908152602001600020819055505b6125c9565b8181600c0160040160008673ffffffffffffffffffffffffffffffffffffffff1673ffffffffffffffffffffffffffffffffffffffff16815260200190815260200160002081905550600081600c0160030160008673ffffffffffffffffffffffffffffffffffffffff1673ffffffffffffffffffffffffffffffffffffffff1681526020019081526020016000205411156125c857600081600c0160030160008673ffffffffffffffffffffffffffffffffffffffff1673ffffffffffffffffffffffffffffffffffffffff168152602001908152602001600020819055505b5b5050505050565b61261260606040519081016040528060135460001916600019168152602001601754600019166000191681526020016003546000191660001916815250615ab9565b151561261d57600080fd5b80607660008560001916600019168152602001908152602001600020601201600084815260200190815260200160002060000181905550505050565b60015481565b6000607660008360001916600019168152602001908152602001600020600c0160050160019054906101000a900460ff169050919050565b60006126a23361578d565b15156126ad57600080fd5b60766000846000191660001916815260200190815260200160002073__DaoStructs____________________________631728cc369091846040518363ffffffff167c0100000000000000000000000000000000000000000000000000000000028152600401808381526020018281526020019250505060206040518083038186803b15801561273c57600080fd5b505af4158015612750573d6000803e3d6000fd5b505050506040513d602081101561276657600080fd5b8101908080519060200190929190505050905092915050565b600061278a3361578d565b151561279557600080fd5b607660008360001916600019168152602001908152602001600020601401549050919050565b6127c660175461548b565b15156127d157600080fd5b80607660008560001916600019168152602001908152602001600020601201600084815260200190815260200160002060050160016101000a81548160ff021916908315150217905550505050565b60008060009054906101000a900473ffffffffffffffffffffffffffffffffffffffff1673ffffffffffffffffffffffffffffffffffffffff16633f83acff836040518263ffffffff167c0100000000000000000000000000000000000000000000000000000000028152600401808260001916600019168152602001915050602060405180830381600087803b1580156128ba57600080fd5b505af11580156128ce573d6000803e3d6000fd5b505050506040513d60208110156128e457600080fd5b81019080805190602001909291905050509050919050565b60006129073361578d565b151561291257600080fd5b607660008460001916600019168152602001908152602001600020601201600083815260200190815260200160002060050160029054906101000a900460ff16905092915050565b61296560135461548b565b151561297057600080fd5b61297981611e36565b607660008360001916600019168152602001908152602001600020601601816000191690555050565b60008060766000856000191660001916815260200190815260200160002090506129cf81600501846159f7565b91505092915050565b6000607660008360001916600019168152602001908152602001600020600c01600001549050919050565b6000607660008360001916600019168152602001908152602001600020601701805490509050919050565b612a3960175461548b565b1515612a4457600080fd5b612a6b60016078600084815260200190815260200160002054615c2c90919063ffffffff16565b607860008381526020019081526020016000208190555050565b6000806076600085600019166000191681526020019081526020016000209050612ab28160050184615935565b91505092915050565b612ac660165461548b565b1515612ad157600080fd5b82607660008660001916600019168152602001908152602001600020601201600083815260200190815260200160002060020160008473ffffffffffffffffffffffffffffffffffffffff1673ffffffffffffffffffffffffffffffffffffffff168152602001908152602001600020816000191690555050505050565b6000612b5a3361578d565b1515612b6557600080fd5b607660008560001916600019168152602001908152602001600020601201600084815260200190815260200160002060020160008373ffffffffffffffffffffffffffffffffffffffff1673ffffffffffffffffffffffffffffffffffffffff1681526020019081526020016000205490509392505050565b600060766000836000191660001916815260200190815260200160002060010160009054906101000a900473ffffffffffffffffffffffffffffffffffffffff169050919050565b600080607660008b6000191660001916815260200190815260200160002060120160008a815260200190815260200160002091508715612c8557607660008b60001916600019168152602001908152602001600020600c019150612cbd565b82607660008c6000191660001916815260200190815260200160002060120160008b8152602001908152602001600020600001819055505b600090505b83811015612de957600115158682815181101515612cdc57fe5b9060200190602002015115151415612d67578481815181101515612cfc57fe5b906020019060200201518260030160008984815181101515612d1a57fe5b9060200190602002015173ffffffffffffffffffffffffffffffffffffffff1673ffffffffffffffffffffffffffffffffffffffff16815260200190815260200160002081905550612ddc565b8481815181101515612d7557fe5b906020019060200201518260040160008984815181101515612d9357fe5b9060200190602002015173ffffffffffffffffffffffffffffffffffffffff1673ffffffffffffffffffffffffffffffffffffffff168152602001908152602001600020819055505b8080600101915050612cc2565b50505050505050505050565b6000612e02607083615935565b9050919050565b6060600080612e173361578d565b1515612e2257600080fd5b60766000856000191660001916815260200190815260200160002060160154905060035460001916816000191614151515612e5c57600080fd5b607660008560001916600019168152602001908152602001600020600b0160008260001916600019168152602001908152602001600020600301805480602002602001604051908101604052809291908181526020018280548015612ee057602002820191906000526020600020905b815481526020019060010190808311612ecc575b50505050509250607660008560001916600019168152602001908152602001600020600b016000826000191660001916815260200190815260200160002060040154915050915091565b60008060006060607660008760001916600019168152602001908152602001600020601701805480602002602001604051908101604052809291908181526020016000905b82821015612fc85783829060005260206000209060030201606060405190810160405290816000820154815260200160018201546000191660001916815260200160028201548152505081526020019060010190612f6f565b505050509050805185101515612fdd57600080fd5b8085815181101515612feb57fe5b90602001906020020151604001519350808581518110151561300957fe5b90602001906020020151600001519250808581518110151561302757fe5b90602001906020020151602001519150509250925092565b61304a60175461548b565b151561305557600080fd5b80607660008460001916600019168152602001908152602001600020600c0160050160006101000a81548160ff021916908315150217905550801561326c57607760006006546000191660001916815260200190815260200160002073__DoublyLinkedList______________________6352c6bbf49091846040518363ffffffff167c01000000000000000000000000000000000000000000000000000000000281526004018083815260200182600019166000191681526020019250505060206040518083038186803b15801561312d57600080fd5b505af4158015613141573d6000803e3d6000fd5b505050506040513d602081101561315757600080fd5b810190808051906020019092919050505050607760006007546000191660001916815260200190815260200160002073__DoublyLinkedList______________________63582f30b49091846040518363ffffffff167c01000000000000000000000000000000000000000000000000000000000281526004018083815260200182600019166000191681526020019250505060206040518083038186803b15801561320257600080fd5b505af4158015613216573d6000803e3d6000fd5b505050506040513d602081101561322c57600080fd5b8101908080519060200190929190505050506007546076600084600019166000191681526020019081526020016000206003018160001916905550613276565b61327582615595565b5b5050565b6000607660008460001916600019168152602001908152602001600020601201600083815260200190815260200160002060050160019054906101000a900460ff16905092915050565b6132cf60135461548b565b15156132da57600080fd5b80607660008460001916600019168152602001908152602001600020601501819055505050565b61330c60135461548b565b151561331757600080fd5b607073__DoublyLinkedList______________________63582f30b49091876040518363ffffffff167c01000000000000000000000000000000000000000000000000000000000281526004018083815260200182600019166000191681526020019250505060206040518083038186803b15801561339557600080fd5b505af41580156133a9573d6000803e3d6000fd5b505050506040513d60208110156133bf57600080fd5b810190808051906020019092919050505050607760006005546000191660001916815260200190815260200160002073__DoublyLinkedList______________________63582f30b49091876040518363ffffffff167c01000000000000000000000000000000000000000000000000000000000281526004018083815260200182600019166000191681526020019250505060206040518083038186803b15801561346a57600080fd5b505af415801561347e573d6000803e3d6000fd5b505050506040513d602081101561349457600080fd5b8101908080519060200190929190505050508460766000876000191660001916815260200190815260200160002060000181600019169055508360766000876000191660001916815260200190815260200160002060010160006101000a81548173ffffffffffffffffffffffffffffffffffffffff021916908373ffffffffffffffffffffffffffffffffffffffff160217905550600554607660008760001916600019168152602001908152602001600020600301816000191690555042607660008760001916600019168152602001908152602001600020600401819055508060766000876000191660001916815260200190815260200160002060130160016101000a81548160ff02191690831515021790555060766000866000191660001916815260200190815260200160002073__DaoStructs____________________________63ea496bc990918786866040518563ffffffff167c010000000000000000000000000000000000000000000000000000000002815260040180858152602001846000191660001916815260200180602001838152602001828103825284818151815260200191508051906020019060200280838360005b8381101561366e578082015181840152602081019050613653565b505050509050019550505050505060006040518083038186803b15801561369457600080fd5b505af41580156136a8573d6000803e3d6000fd5b505050505050505050565b6000806136bf3361578d565b15156136ca57600080fd5b607660008660001916600019168152602001908152602001600020601201600085815260200190815260200160002073__DaoStructs____________________________63b31ee28c9091856040518363ffffffff167c01000000000000000000000000000000000000000000000000000000000281526004018083815260200180602001828103825283818151815260200191508051906020019060200280838360005b8381101561378a57808201518184015260208101905061376f565b505050509050019350505050604080518083038186803b1580156137ad57600080fd5b505af41580156137c1573d6000803e3d6000fd5b505050506040513d60408110156137d757600080fd5b81019080805190602001909291908051906020019092919050505091509150935093915050565b61380960165461548b565b151561381457600080fd5b607660008660001916600019168152602001908152602001600020601201600082815260200190815260200160002073__DaoStructs____________________________631a14c51b90918686866040518563ffffffff167c0100000000000000000000000000000000000000000000000000000000028152600401808581526020018473ffffffffffffffffffffffffffffffffffffffff1673ffffffffffffffffffffffffffffffffffffffff1681526020018315151515815260200182815260200194505050505060006040518083038186803b1580156138f757600080fd5b505af415801561390b573d6000803e3d6000fd5b505050505050505050565b60006139213361578d565b151561392c57600080fd5b613950607760008560001916600019168152602001908152602001600020836159f7565b905092915050565b600061396560135461548b565b151561397057600080fd5b6076600084600019166000191681526020019081526020016000209050818160020160006101000a81548173ffffffffffffffffffffffffffffffffffffffff021916908373ffffffffffffffffffffffffffffffffffffffff160217905550600654816003018160001916905550607760006005546000191660001916815260200190815260200160002073__DoublyLinkedList______________________6352c6bbf49091856040518363ffffffff167c01000000000000000000000000000000000000000000000000000000000281526004018083815260200182600019166000191681526020019250505060206040518083038186803b158015613a7857600080fd5b505af4158015613a8c573d6000803e3d6000fd5b505050506040513d6020811015613aa257600080fd5b810190808051906020019092919050505050607760006006546000191660001916815260200190815260200160002073__DoublyLinkedList______________________63582f30b49091856040518363ffffffff167c01000000000000000000000000000000000000000000000000000000000281526004018083815260200182600019166000191681526020019250505060206040518083038186803b158015613b4d57600080fd5b505af4158015613b61573d6000803e3d6000fd5b505050506040513d6020811015613b7757600080fd5b810190808051906020019092919050505050505050565b607073__DoublyLinkedList______________________63582f30b49091896040518363ffffffff167c01000000000000000000000000000000000000000000000000000000000281526004018083815260200182600019166000191681526020019250505060206040518083038186803b158015613c0c57600080fd5b505af4158015613c20573d6000803e3d6000fd5b505050506040513d6020811015613c3657600080fd5b8101908080519060200190929190505050508660766000896000191660001916815260200190815260200160002060000181600019169055508460766000896000191660001916815260200190815260200160002060010160006101000a81548173ffffffffffffffffffffffffffffffffffffffff021916908373ffffffffffffffffffffffffffffffffffffffff16021790555061012c42036076600089600019166000191681526020019081526020016000206004018190555060766000886000191660001916815260200190815260200160002060050173__DoublyLinkedList______________________63582f30b49091896040518363ffffffff167c01000000000000000000000000000000000000000000000000000000000281526004018083815260200182600019166000191681526020019250505060206040518083038186803b158015613d8d57600080fd5b505af4158015613da1573d6000803e3d6000fd5b505050506040513d6020811015613db757600080fd5b81019080805190602001909291905050505086607660008960001916600019168152602001908152602001600020600b0160008960001916600019168152602001908152602001600020600001816000191690555042607660008960001916600019168152602001908152602001600020600b0160008960001916600019168152602001908152602001600020600101819055508251607660008960001916600019168152602001908152602001600020600b01600089600019166000191681526020019081526020016000206002018190555082607660008960001916600019168152602001908152602001600020600b01600089600019166000191681526020019081526020016000206003019080519060200190613ed9929190615dbc565b5081607660008960001916600019168152602001908152602001600020600b0160008960001916600019168152602001908152602001600020600401819055508360766000896000191660001916815260200190815260200160002060020160006101000a81548173ffffffffffffffffffffffffffffffffffffffff021916908373ffffffffffffffffffffffffffffffffffffffff160217905550866076600089600019166000191681526020019081526020016000206016018160001916905550806076600089600019166000191681526020019081526020016000206012016000888152602001908152602001600020600001819055506001607660008960001916600019168152602001908152602001600020601201600088815260200190815260200160002060050160016101000a81548160ff0219169083151502179055506001607660008960001916600019168152602001908152602001600020601201600088815260200190815260200160002060050160006101000a81548160ff0219169083151502179055506001607660008960001916600019168152602001908152602001600020601201600088815260200190815260200160002060050160026101000a81548160ff02191690831515021790555050505050505050565b60006140c93361578d565b15156140d457600080fd5b607660008460001916600019168152602001908152602001600020601201600083815260200190815260200160002060000154905092915050565b60008061411b3361578d565b151561412657600080fd5b607660008560001916600019168152602001908152602001600020600c0173__DaoStructs____________________________63b31ee28c9091856040518363ffffffff167c01000000000000000000000000000000000000000000000000000000000281526004018083815260200180602001828103825283818151815260200191508051906020019060200280838360005b838110156141d55780820151818401526020810190506141ba565b505050509050019350505050604080518083038186803b1580156141f857600080fd5b505af415801561420c573d6000803e3d6000fd5b505050506040513d604081101561422257600080fd5b810190808051906020019092919080519060200190929190505050915091509250929050565b614250615e09565b61425b60135461548b565b151561426657600080fd5b818160000181815250508281602001906000191690816000191681525050838160400181815250506076600086600019166000191681526020019081526020016000206017018190806001815401808255809150509060018203906000526020600020906003020160009091929091909150600082015181600001556020820151816001019060001916905560408201518160020155505050600b5484141561434557600160766000876000191660001916815260200190815260200160002060130160006101000a81548160ff0219169083151502179055506143cd565b600c5484141561438b57600060766000876000191660001916815260200190815260200160002060130160006101000a81548160ff0219169083151502179055506143cc565b600160766000876000191660001916815260200190815260200160002060130160006101000a81548160ff0219169083151502179055506143cb85615595565b5b5b5050505050565b60006143e160135461548b565b15156143ec57600080fd5b6076600085600019166000191681526020019081526020016000206016015490506003546000191681600019161415151561442657600080fd5b82607660008660001916600019168152602001908152602001600020600b01600083600019166000191681526020019081526020016000206003019080519060200190614474929190615dbc565b5081607660008660001916600019168152602001908152602001600020600b01600083600019166000191681526020019081526020016000206004018190555050505050565b6144fc60606040519081016040528060175460001916600019168152602001601d54600019166000191681526020016013546000191660001916815250615ab9565b151561450757600080fd5b80607660008460001916600019168152602001908152602001600020601401819055505050565b600061453a6070615c48565b905090565b60008060008060008060008060008060006145593361578d565b151561456457600080fd5b607660008d60001916600019168152602001908152602001600020905080600001549a508060010160009054906101000a900473ffffffffffffffffffffffffffffffffffffffff1699508060020160009054906101000a900473ffffffffffffffffffffffffffffffffffffffff16985080600301549750806004015496506145f081600501615cf9565b95506145fe81600501615884565b9450806016015493508060130160009054906101000a900460ff1692508060130160019054906101000a900460ff169150509193959799509193959799565b600260009054906101000a900473ffffffffffffffffffffffffffffffffffffffff1681565b60606000607660008460001916600019168152602001908152602001600020601601549050600354600019168160001916141515156146a157600080fd5b607660008460001916600019168152602001908152602001600020600b016000826000191660001916815260200190815260200160002060050180548060200260200160405190810160405280929190818152602001828054801561472957602002820191906000526020600020905b81546000191681526020019060010190808311614711575b5050505050915050919050565b6000806147423361578d565b151561474d57600080fd5b607660008560001916600019168152602001908152602001600020600c0173__DaoStructs____________________________634bf150b99091856040518363ffffffff167c0100000000000000000000000000000000000000000000000000000000028152600401808381526020018273ffffffffffffffffffffffffffffffffffffffff1673ffffffffffffffffffffffffffffffffffffffff16815260200192505050604080518083038186803b15801561480a57600080fd5b505af415801561481e573d6000803e3d6000fd5b505050506040513d604081101561483457600080fd5b810190808051906020019092919080519060200190929190505050915091509250929050565b607073__DoublyLinkedList______________________63582f30b49091896040518363ffffffff167c01000000000000000000000000000000000000000000000000000000000281526004018083815260200182600019166000191681526020019250505060206040518083038186803b1580156148d857600080fd5b505af41580156148ec573d6000803e3d6000fd5b505050506040513d602081101561490257600080fd5b8101908080519060200190929190505050508660766000896000191660001916815260200190815260200160002060000181600019169055508360766000896000191660001916815260200190815260200160002060010160006101000a81548173ffffffffffffffffffffffffffffffffffffffff021916908373ffffffffffffffffffffffffffffffffffffffff160217905550603c42036076600089600019166000191681526020019081526020016000206004018190555060766000886000191660001916815260200190815260200160002060050173__DoublyLinkedList______________________63582f30b49091896040518363ffffffff167c01000000000000000000000000000000000000000000000000000000000281526004018083815260200182600019166000191681526020019250505060206040518083038186803b158015614a5857600080fd5b505af4158015614a6c573d6000803e3d6000fd5b505050506040513d6020811015614a8257600080fd5b81019080805190602001909291905050505086607660008960001916600019168152602001908152602001600020600b0160008960001916600019168152602001908152602001600020600001816000191690555042607660008960001916600019168152602001908152602001600020600b0160008960001916600019168152602001908152602001600020600101819055508151607660008960001916600019168152602001908152602001600020600b01600089600019166000191681526020019081526020016000206002018190555081607660008960001916600019168152602001908152602001600020600b01600089600019166000191681526020019081526020016000206003019080519060200190614ba4929190615dbc565b5080607660008960001916600019168152602001908152602001600020600b0160008960001916600019168152602001908152602001600020600401819055508260766000896000191660001916815260200190815260200160002060020160006101000a81548173ffffffffffffffffffffffffffffffffffffffff021916908373ffffffffffffffffffffffffffffffffffffffff160217905550866076600089600019166000191681526020019081526020016000206016018160001916905550671bc16d674ec80000607660008960001916600019168152602001908152602001600020601501819055508415614dc257607760006006546000191660001916815260200190815260200160002073__DoublyLinkedList______________________63582f30b49091896040518363ffffffff167c01000000000000000000000000000000000000000000000000000000000281526004018083815260200182600019166000191681526020019250505060206040518083038186803b158015614d3257600080fd5b505af4158015614d46573d6000803e3d6000fd5b505050506040513d6020811015614d5c57600080fd5b810190808051906020019092919050505050600654607660008960001916600019168152602001908152602001600020600301816000191690555042607660008960001916600019168152602001908152602001600020600c0160000181905550615005565b6000861415614ece57607760006007546000191660001916815260200190815260200160002073__DoublyLinkedList______________________63582f30b49091896040518363ffffffff167c01000000000000000000000000000000000000000000000000000000000281526004018083815260200182600019166000191681526020019250505060206040518083038186803b158015614e6457600080fd5b505af4158015614e78573d6000803e3d6000fd5b505050506040513d6020811015614e8e57600080fd5b8101908080519060200190929190505050506007546076600089600019166000191681526020019081526020016000206003018160001916905550614fcd565b607760006008546000191660001916815260200190815260200160002073__DoublyLinkedList______________________63582f30b49091896040518363ffffffff167c01000000000000000000000000000000000000000000000000000000000281526004018083815260200182600019166000191681526020019250505060206040518083038186803b158015614f6757600080fd5b505af4158015614f7b573d6000803e3d6000fd5b505050506040513d6020811015614f9157600080fd5b81019080805190602001909291905050505060085460766000896000191660001916815260200190815260200160002060030181600019169055505b426076600089600019166000191681526020019081526020016000206012016000888152602001908152602001600020600001819055505b50505050505050565b61501960135461548b565b151561502457600080fd5b80607660008460001916600019168152602001908152602001600020600c01600001819055505050565b600080607660008460001916600019168152602001908152602001600020905061507a81600501615c48565b915050919050565b600061508d3361578d565b151561509857600080fd5b6150bb607760008460001916600019168152602001908152602001600020615c48565b9050919050565b606060006150cf3361578d565b15156150da57600080fd5b607660008760001916600019168152602001908152602001600020601201600086815260200190815260200160002073__DaoStructs____________________________63f53380cf909186866040518463ffffffff167c0100000000000000000000000000000000000000000000000000000000028152600401808481526020018060200183151515158152602001828103825284818151815260200191508051906020019060200280838360005b838110156151a557808201518184015260208101905061518a565b5050505090500194505050505060006040518083038186803b1580156151ca57600080fd5b505af41580156151de573d6000803e3d6000fd5b505050506040513d6000823e3d601f19601f82011682018060405250604081101561520857600080fd5b81019080805164010000000081111561522057600080fd5b8281019050602081018481111561523657600080fd5b815185602082028301116401000000008211171561525357600080fd5b5050929190602001805190602001909291905050509150915094509492505050565b6000607660008360001916600019168152602001908152602001600020601501549050919050565b60006152aa60135461548b565b15156152b557600080fd5b607660008460001916600019168152602001908152602001600020601601549050600354600019168160001916141515156152ef57600080fd5b607660008460001916600019168152602001908152602001600020600b0160008260001916600019168152602001908152602001600020600501829080600181540180825580915050906001820390600052602060002001600090919290919091509060001916905550505050565b600061536a6070615884565b905090565b61537a60135461548b565b151561538557600080fd5b60766000856000191660001916815260200190815260200160002073__DaoStructs____________________________63ea496bc990918585856040518563ffffffff167c010000000000000000000000000000000000000000000000000000000002815260040180858152602001846000191660001916815260200180602001838152602001828103825284818151815260200191508051906020019060200280838360005b8381101561544757808201518184015260208101905061542c565b505050509050019550505050505060006040518083038186803b15801561546d57600080fd5b505af4158015615481573d6000803e3d6000fd5b5050505050505050565b60008060009054906101000a900473ffffffffffffffffffffffffffffffffffffffff1673ffffffffffffffffffffffffffffffffffffffff16633f83acff836040518263ffffffff167c0100000000000000000000000000000000000000000000000000000000028152600401808260001916600019168152602001915050602060405180830381600087803b15801561552557600080fd5b505af1158015615539573d6000803e3d6000fd5b505050506040513d602081101561554f57600080fd5b810190808051906020019092919050505073ffffffffffffffffffffffffffffffffffffffff163373ffffffffffffffffffffffffffffffffffffffff16149050919050565b600060766000836000191660001916815260200190815260200160002060030154905060776000826000191660001916815260200190815260200160002073__DoublyLinkedList______________________6352c6bbf49091846040518363ffffffff167c01000000000000000000000000000000000000000000000000000000000281526004018083815260200182600019166000191681526020019250505060206040518083038186803b15801561564f57600080fd5b505af4158015615663573d6000803e3d6000fd5b505050506040513d602081101561567957600080fd5b810190808051906020019092919050505050607760006009546000191660001916815260200190815260200160002073__DoublyLinkedList______________________63582f30b49091846040518363ffffffff167c01000000000000000000000000000000000000000000000000000000000281526004018083815260200182600019166000191681526020019250505060206040518083038186803b15801561572457600080fd5b505af4158015615738573d6000803e3d6000fd5b505050506040513d602081101561574e57600080fd5b81019080805190602001909291905050505060095460766000846000191660001916815260200190815260200160002060030181600019169055505050565b600080823b9050600081148061587c57506157a6615daa565b73ffffffffffffffffffffffffffffffffffffffff16639b19251a846040518263ffffffff167c0100000000000000000000000000000000000000000000000000000000028152600401808273ffffffffffffffffffffffffffffffffffffffff1673ffffffffffffffffffffffffffffffffffffffff168152602001915050602060405180830381600087803b15801561584057600080fd5b505af1158015615854573d6000803e3d6000fd5b505050506040513d602081101561586a57600080fd5b81019080805190602001909291905050505b915050919050565b60008173__DoublyLinkedList______________________632553148290916040518263ffffffff167c01000000000000000000000000000000000000000000000000000000000281526004018082815260200191505060206040518083038186803b1580156158f357600080fd5b505af4158015615907573d6000803e3d6000fd5b505050506040513d602081101561591d57600080fd5b81019080805190602001909291905050509050919050565b60008273__DoublyLinkedList______________________632a1441789091846040518363ffffffff167c01000000000000000000000000000000000000000000000000000000000281526004018083815260200182600019166000191681526020019250505060206040518083038186803b1580156159b457600080fd5b505af41580156159c8573d6000803e3d6000fd5b505050506040513d60208110156159de57600080fd5b8101908080519060200190929190505050905092915050565b60008273__DoublyLinkedList______________________63cf06689d9091846040518363ffffffff167c01000000000000000000000000000000000000000000000000000000000281526004018083815260200182600019166000191681526020019250505060206040518083038186803b158015615a7657600080fd5b505af4158015615a8a573d6000803e3d6000fd5b505050506040513d6020811015615aa057600080fd5b8101908080519060200190929190505050905092915050565b600080600060039150600090505b81811015615c25576000600102600019168482600381101515615ae657fe5b6020020151600019161415615afa57615c18565b6000809054906101000a900473ffffffffffffffffffffffffffffffffffffffff1673ffffffffffffffffffffffffffffffffffffffff16633f83acff8583600381101515615b4557fe5b60200201516040518263ffffffff167c0100000000000000000000000000000000000000000000000000000000028152600401808260001916600019168152602001915050602060405180830381600087803b158015615ba457600080fd5b505af1158015615bb8573d6000803e3d6000fd5b505050506040513d6020811015615bce57600080fd5b810190808051906020019092919050505073ffffffffffffffffffffffffffffffffffffffff163373ffffffffffffffffffffffffffffffffffffffff161415615c1757600192505b5b8080600101915050615ac7565b5050919050565b60008183019050828110151515615c3f57fe5b80905092915050565b60008173__DoublyLinkedList______________________6356717c7990916040518263ffffffff167c01000000000000000000000000000000000000000000000000000000000281526004018082815260200191505060206040518083038186803b158015615cb757600080fd5b505af4158015615ccb573d6000803e3d6000fd5b505050506040513d6020811015615ce157600080fd5b81019080805190602001909291905050509050919050565b60008173__DoublyLinkedList______________________630f77955290916040518263ffffffff167c01000000000000000000000000000000000000000000000000000000000281526004018082815260200191505060206040518083038186803b158015615d6857600080fd5b505af4158015615d7c573d6000803e3d6000fd5b505050506040513d6020811015615d9257600080fd5b81019080805190602001909291905050509050919050565b6000615db7602c54612820565b905090565b828054828255906000526020600020908101928215615df8579160200282015b82811115615df7578251825591602001919060010190615ddc565b5b509050615e059190615e2e565b5090565b6060604051908101604052806000815260200160008019168152602001600081525090565b615e5091905b80821115615e4c576000816000905550600101615e34565b5090565b905600a165627a7a72305820aef3368845ca57a5a028374246a98a83e7d1de155c7a91d6f7ff0ad6a15a37790029",
  "source": "pragma solidity ^0.4.24;\n\nimport \"../../storage/DaoStorage.sol\";\n\ncontract MockDaoStorage is DaoStorage {\n    using DoublyLinkedList for DoublyLinkedList.Bytes;\n\n    constructor(address _resolver) public DaoStorage(_resolver) {}\n\n    /**\n    @notice Function to mock add new proposal in pre-defined state\n    @dev Note that this function will only be called during the tests\n    @param _proposalId ID of the proposal, i.e. IPFS doc hash\n    @param _roundIndex Index of the voting round, if not draft phase\n    @param _proposer Address of the proposer\n    @param _endorser Address of the endorser\n    @param _milestonesFundings Uint Array of the milestone fundings\n    @param _isDraftPhase Boolean, true if adding proposal in draft phase\n    @param _finalReward Final rewards on completion of proposal\n    */\n    function mock_put_proposal_as(\n        bytes32 _proposalId,\n        uint256 _roundIndex,\n        bool _isDraftPhase,\n        address _proposer,\n        address _endorser,\n        uint256[] _milestonesFundings,\n        uint256 _finalReward\n    )\n        public\n    {\n        allProposals.append(_proposalId);\n        proposalsById[_proposalId].proposalId = _proposalId;\n        proposalsById[_proposalId].proposer = _proposer;\n        proposalsById[_proposalId].timeCreated = now - (1 minutes);\n        proposalsById[_proposalId].proposalVersionDocs.append(_proposalId);\n        proposalsById[_proposalId].proposalVersions[_proposalId].docIpfsHash = _proposalId;\n        proposalsById[_proposalId].proposalVersions[_proposalId].created = now;\n        proposalsById[_proposalId].proposalVersions[_proposalId].milestoneCount = _milestonesFundings.length;\n        proposalsById[_proposalId].proposalVersions[_proposalId].milestoneFundings = _milestonesFundings;\n        proposalsById[_proposalId].proposalVersions[_proposalId].finalReward = _finalReward;\n        proposalsById[_proposalId].endorser = _endorser;\n        proposalsById[_proposalId].finalVersion = _proposalId;\n        proposalsById[_proposalId].collateralAmount = 2 ether;\n        if (_isDraftPhase) {\n            proposalsByState[PROPOSAL_STATE_DRAFT].append(_proposalId);\n            proposalsById[_proposalId].currentState = PROPOSAL_STATE_DRAFT;\n            proposalsById[_proposalId].draftVoting.startTime = now;\n        } else {\n            if (_roundIndex == 0) {\n                proposalsByState[PROPOSAL_STATE_MODERATED].append(_proposalId);\n                proposalsById[_proposalId].currentState = PROPOSAL_STATE_MODERATED;\n            } else {\n                proposalsByState[PROPOSAL_STATE_ONGOING].append(_proposalId);\n                proposalsById[_proposalId].currentState = PROPOSAL_STATE_ONGOING;\n            }\n            proposalsById[_proposalId].votingRounds[_roundIndex].startTime = now;\n        }\n    }\n\n    function mock_put_proposal_in_milestone(\n        bytes32 _proposalId,\n        uint256 _milestoneId,\n        address _proposer,\n        address _endorser,\n        uint256[] _milestonesFundings,\n        uint256 _finalReward,\n        uint256 _previousVotingStart\n    )\n        public\n    {\n        allProposals.append(_proposalId);\n        proposalsById[_proposalId].proposalId = _proposalId;\n        proposalsById[_proposalId].proposer = _proposer;\n        proposalsById[_proposalId].timeCreated = now - (5 minutes);\n        proposalsById[_proposalId].proposalVersionDocs.append(_proposalId);\n        proposalsById[_proposalId].proposalVersions[_proposalId].docIpfsHash = _proposalId;\n        proposalsById[_proposalId].proposalVersions[_proposalId].created = now;\n        proposalsById[_proposalId].proposalVersions[_proposalId].milestoneCount = _milestonesFundings.length;\n        proposalsById[_proposalId].proposalVersions[_proposalId].milestoneFundings = _milestonesFundings;\n        proposalsById[_proposalId].proposalVersions[_proposalId].finalReward = _finalReward;\n        proposalsById[_proposalId].endorser = _endorser;\n        proposalsById[_proposalId].finalVersion = _proposalId;\n        proposalsById[_proposalId].votingRounds[_milestoneId].startTime = _previousVotingStart;\n        proposalsById[_proposalId].votingRounds[_milestoneId].claimed = true;\n        proposalsById[_proposalId].votingRounds[_milestoneId].passed = true;\n        proposalsById[_proposalId].votingRounds[_milestoneId].funded = true;\n    }\n\n    /**\n    @notice Mock function to add fake votes in the past for a proposal\n    @dev This will never be available in the deployment, only for test purposes\n    @param _proposalId ID of the proposal\n    @param _roundIndex Index of the voting round\n    @param _isDraftPhase Boolean, whether updating the votes for draft phase or not\n    @param _voters Array of addresses of the voters\n    @param _votes Boolean array of the votes (for or against)\n    @param _weights Uint array of the voting weights\n    @param _length Length of the above arrays (number of voters)\n    @param _startOfVotingRound start of this voting round\n    */\n    function mock_put_past_votes(\n        bytes32 _proposalId,\n        uint256 _roundIndex,\n        bool _isDraftPhase,\n        address[] _voters,\n        bool[] _votes,\n        uint256[] _weights,\n        uint256 _length,\n        uint256 _startOfVotingRound\n    )\n        public\n    {\n        DaoStructs.Voting storage _voting = proposalsById[_proposalId].votingRounds[_roundIndex];\n        if (_isDraftPhase) {\n            _voting = proposalsById[_proposalId].draftVoting;\n        } else {\n            proposalsById[_proposalId].votingRounds[_roundIndex].startTime = _startOfVotingRound;\n        }\n\n        for (uint256 i = 0; i < _length; i++) {\n            if (_votes[i] == true) {\n                _voting.yesVotes[_voters[i]] = _weights[i];\n            } else {\n                _voting.noVotes[_voters[i]] = _weights[i];\n            }\n        }\n    }\n\n    function mock_set_proposal_count(uint256 _quarterId, uint256 _count)\n        public\n    {\n        proposalCountByQuarter[_quarterId] = _count;\n    }\n}\n",
  "sourcePath": "/home/rohit/Develop/dao-contracts/contracts/mock/storage/MockDaoStorage.sol",
  "compiler": {
    "name": "solc",
    "version": "0.4.24+commit.e67f0147.Emscripten.clang"
  },
  "schemaVersion": "2.0.1",
  "updatedAt": "2018-10-08T06:32:23.392Z"
}