{
  "contractName": "MockDaoRewardsStorage",
  "abi": [
    {
      "constant": true,
      "inputs": [],
      "name": "resolver",
      "outputs": [
        {
          "name": "",
          "type": "address"
        }
      ],
      "payable": false,
      "stateMutability": "view",
      "type": "function"
    },
    {
      "constant": true,
      "inputs": [
        {
          "name": "_quarterIndex",
          "type": "uint256"
        }
      ],
      "name": "readTotalEffectiveModeratorDGDLastQuarter",
      "outputs": [
        {
          "name": "_totalEffectiveModeratorDGDLastQuarter",
          "type": "uint256"
        }
      ],
      "payable": false,
      "stateMutability": "view",
      "type": "function"
    },
    {
      "constant": false,
      "inputs": [
        {
          "name": "_user",
          "type": "address"
        },
        {
          "name": "_lastQuarter",
          "type": "uint256"
        }
      ],
      "name": "updateLastQuarterThatReputationWasUpdated",
      "outputs": [],
      "payable": false,
      "stateMutability": "nonpayable",
      "type": "function"
    },
    {
      "constant": true,
      "inputs": [
        {
          "name": "",
          "type": "address"
        }
      ],
      "name": "lastQuarterThatRewardsWasUpdated",
      "outputs": [
        {
          "name": "",
          "type": "uint256"
        }
      ],
      "payable": false,
      "stateMutability": "view",
      "type": "function"
    },
    {
      "constant": true,
      "inputs": [],
      "name": "key",
      "outputs": [
        {
          "name": "",
          "type": "bytes32"
        }
      ],
      "payable": false,
      "stateMutability": "view",
      "type": "function"
    },
    {
      "constant": true,
      "inputs": [
        {
          "name": "_key",
          "type": "bytes32"
        }
      ],
      "name": "get_contract",
      "outputs": [
        {
          "name": "_contract",
          "type": "address"
        }
      ],
      "payable": false,
      "stateMutability": "view",
      "type": "function"
    },
    {
      "constant": false,
      "inputs": [
        {
          "name": "_quarterIndex",
          "type": "uint256"
        },
        {
          "name": "_minimalParticipationPoint",
          "type": "uint256"
        },
        {
          "name": "_quarterPointScalingFactor",
          "type": "uint256"
        },
        {
          "name": "_reputationPointScalingFactor",
          "type": "uint256"
        },
        {
          "name": "_totalEffectiveDGDPreviousQuarter",
          "type": "uint256"
        },
        {
          "name": "_moderatorMinimalQuarterPoint",
          "type": "uint256"
        },
        {
          "name": "_moderatorQuarterPointScalingFactor",
          "type": "uint256"
        },
        {
          "name": "_moderatorReputationPointScalingFactor",
          "type": "uint256"
        },
        {
          "name": "_totalEffectiveModeratorDGDLastQuarter",
          "type": "uint256"
        },
        {
          "name": "_dgxDistributionDay",
          "type": "uint256"
        },
        {
          "name": "_dgxRewardsPoolLastQuarter",
          "type": "uint256"
        },
        {
          "name": "_sumRewardsFromBeginning",
          "type": "uint256"
        }
      ],
      "name": "updateQuarterInfo",
      "outputs": [],
      "payable": false,
      "stateMutability": "nonpayable",
      "type": "function"
    },
    {
      "constant": true,
      "inputs": [
        {
          "name": "_quarterIndex",
          "type": "uint256"
        }
      ],
      "name": "readQuarterInfo",
      "outputs": [
        {
          "name": "_minimalParticipationPoint",
          "type": "uint256"
        },
        {
          "name": "_quarterPointScalingFactor",
          "type": "uint256"
        },
        {
          "name": "_reputationPointScalingFactor",
          "type": "uint256"
        },
        {
          "name": "_totalEffectiveDGDPreviousQuarter",
          "type": "uint256"
        },
        {
          "name": "_moderatorMinimalQuarterPoint",
          "type": "uint256"
        },
        {
          "name": "_moderatorQuarterPointScalingFactor",
          "type": "uint256"
        },
        {
          "name": "_moderatorReputationPointScalingFactor",
          "type": "uint256"
        },
        {
          "name": "_totalEffectiveModeratorDGDLastQuarter",
          "type": "uint256"
        },
        {
          "name": "_dgxDistributionDay",
          "type": "uint256"
        },
        {
          "name": "_dgxRewardsPoolLastQuarter",
          "type": "uint256"
        },
        {
          "name": "_sumRewardsFromBeginning",
          "type": "uint256"
        }
      ],
      "payable": false,
      "stateMutability": "view",
      "type": "function"
    },
    {
      "constant": true,
      "inputs": [
        {
          "name": "_quarterIndex",
          "type": "uint256"
        }
      ],
      "name": "readQuarterParticipantInfo",
      "outputs": [
        {
          "name": "_minimalParticipationPoint",
          "type": "uint256"
        },
        {
          "name": "_quarterPointScalingFactor",
          "type": "uint256"
        },
        {
          "name": "_reputationPointScalingFactor",
          "type": "uint256"
        },
        {
          "name": "_totalEffectiveDGDPreviousQuarter",
          "type": "uint256"
        }
      ],
      "payable": false,
      "stateMutability": "view",
      "type": "function"
    },
    {
      "constant": false,
      "inputs": [
        {
          "name": "_user",
          "type": "address"
        },
        {
          "name": "_newClaimableDGX",
          "type": "uint256"
        }
      ],
      "name": "updateClaimableDGX",
      "outputs": [],
      "payable": false,
      "stateMutability": "nonpayable",
      "type": "function"
    },
    {
      "constant": true,
      "inputs": [
        {
          "name": "",
          "type": "address"
        }
      ],
      "name": "claimableDGXs",
      "outputs": [
        {
          "name": "",
          "type": "uint256"
        }
      ],
      "payable": false,
      "stateMutability": "view",
      "type": "function"
    },
    {
      "constant": false,
      "inputs": [
        {
          "name": "_user",
          "type": "address"
        },
        {
          "name": "_lastQuarter",
          "type": "uint256"
        }
      ],
      "name": "updatePreviousLastParticipatedQuarter",
      "outputs": [],
      "payable": false,
      "stateMutability": "nonpayable",
      "type": "function"
    },
    {
      "constant": false,
      "inputs": [
        {
          "name": "_user",
          "type": "address"
        },
        {
          "name": "_lastQuarter",
          "type": "uint256"
        }
      ],
      "name": "updateLastParticipatedQuarter",
      "outputs": [],
      "payable": false,
      "stateMutability": "nonpayable",
      "type": "function"
    },
    {
      "constant": true,
      "inputs": [
        {
          "name": "_quarterIndex",
          "type": "uint256"
        }
      ],
      "name": "readQuarterModeratorInfo",
      "outputs": [
        {
          "name": "_moderatorMinimalQuarterPoint",
          "type": "uint256"
        },
        {
          "name": "_moderatorQuarterPointScalingFactor",
          "type": "uint256"
        },
        {
          "name": "_moderatorReputationPointScalingFactor",
          "type": "uint256"
        },
        {
          "name": "_totalEffectiveModeratorDGDLastQuarter",
          "type": "uint256"
        }
      ],
      "payable": false,
      "stateMutability": "view",
      "type": "function"
    },
    {
      "constant": true,
      "inputs": [
        {
          "name": "_quarterIndex",
          "type": "uint256"
        }
      ],
      "name": "readDgxDistributionDay",
      "outputs": [
        {
          "name": "_distributionDay",
          "type": "uint256"
        }
      ],
      "payable": false,
      "stateMutability": "view",
      "type": "function"
    },
    {
      "constant": true,
      "inputs": [
        {
          "name": "_quarterIndex",
          "type": "uint256"
        }
      ],
      "name": "readRewardsPoolOfLastQuarter",
      "outputs": [
        {
          "name": "_rewardsPool",
          "type": "uint256"
        }
      ],
      "payable": false,
      "stateMutability": "view",
      "type": "function"
    },
    {
      "constant": true,
      "inputs": [
        {
          "name": "",
          "type": "address"
        }
      ],
      "name": "previousLastParticipatedQuarter",
      "outputs": [
        {
          "name": "",
          "type": "uint256"
        }
      ],
      "payable": false,
      "stateMutability": "view",
      "type": "function"
    },
    {
      "constant": true,
      "inputs": [
        {
          "name": "",
          "type": "address"
        }
      ],
      "name": "lastQuarterThatReputationWasUpdated",
      "outputs": [
        {
          "name": "",
          "type": "uint256"
        }
      ],
      "payable": false,
      "stateMutability": "view",
      "type": "function"
    },
    {
      "constant": true,
      "inputs": [
        {
          "name": "",
          "type": "address"
        }
      ],
      "name": "lastParticipatedQuarter",
      "outputs": [
        {
          "name": "",
          "type": "uint256"
        }
      ],
      "payable": false,
      "stateMutability": "view",
      "type": "function"
    },
    {
      "constant": true,
      "inputs": [
        {
          "name": "_quarterIndex",
          "type": "uint256"
        }
      ],
      "name": "readQuarterGeneralInfo",
      "outputs": [
        {
          "name": "_dgxDistributionDay",
          "type": "uint256"
        },
        {
          "name": "_dgxRewardsPoolLastQuarter",
          "type": "uint256"
        },
        {
          "name": "_sumRewardsFromBeginning",
          "type": "uint256"
        }
      ],
      "payable": false,
      "stateMutability": "view",
      "type": "function"
    },
    {
      "constant": false,
      "inputs": [
        {
          "name": "_dgxClaimed",
          "type": "uint256"
        }
      ],
      "name": "addToTotalDgxClaimed",
      "outputs": [],
      "payable": false,
      "stateMutability": "nonpayable",
      "type": "function"
    },
    {
      "constant": false,
      "inputs": [
        {
          "name": "_user",
          "type": "address"
        },
        {
          "name": "_lastQuarter",
          "type": "uint256"
        }
      ],
      "name": "updateLastQuarterThatRewardsWasUpdated",
      "outputs": [],
      "payable": false,
      "stateMutability": "nonpayable",
      "type": "function"
    },
    {
      "constant": true,
      "inputs": [],
      "name": "CONTRACT_ADDRESS",
      "outputs": [
        {
          "name": "",
          "type": "address"
        }
      ],
      "payable": false,
      "stateMutability": "view",
      "type": "function"
    },
    {
      "constant": true,
      "inputs": [],
      "name": "totalDGXsClaimed",
      "outputs": [
        {
          "name": "",
          "type": "uint256"
        }
      ],
      "payable": false,
      "stateMutability": "view",
      "type": "function"
    },
    {
      "constant": true,
      "inputs": [
        {
          "name": "",
          "type": "uint256"
        }
      ],
      "name": "allQuartersInfo",
      "outputs": [
        {
          "name": "minimalParticipationPoint",
          "type": "uint256"
        },
        {
          "name": "quarterPointScalingFactor",
          "type": "uint256"
        },
        {
          "name": "reputationPointScalingFactor",
          "type": "uint256"
        },
        {
          "name": "totalEffectiveDGDPreviousQuarter",
          "type": "uint256"
        },
        {
          "name": "moderatorMinimalParticipationPoint",
          "type": "uint256"
        },
        {
          "name": "moderatorQuarterPointScalingFactor",
          "type": "uint256"
        },
        {
          "name": "moderatorReputationPointScalingFactor",
          "type": "uint256"
        },
        {
          "name": "totalEffectiveModeratorDGDLastQuarter",
          "type": "uint256"
        },
        {
          "name": "dgxDistributionDay",
          "type": "uint256"
        },
        {
          "name": "dgxRewardsPoolLastQuarter",
          "type": "uint256"
        },
        {
          "name": "sumRewardsFromBeginning",
          "type": "uint256"
        }
      ],
      "payable": false,
      "stateMutability": "view",
      "type": "function"
    },
    {
      "constant": true,
      "inputs": [
        {
          "name": "_quarterIndex",
          "type": "uint256"
        }
      ],
      "name": "readTotalEffectiveDGDLastQuarter",
      "outputs": [
        {
          "name": "_totalEffectiveDGDPreviousQuarter",
          "type": "uint256"
        }
      ],
      "payable": false,
      "stateMutability": "view",
      "type": "function"
    },
    {
      "inputs": [
        {
          "name": "_resolver",
          "type": "address"
        }
      ],
      "payable": false,
      "stateMutability": "nonpayable",
      "type": "constructor"
    },
    {
      "constant": false,
      "inputs": [
        {
          "name": "_user",
          "type": "address"
        },
        {
          "name": "_quarterIndex",
          "type": "uint256"
        }
      ],
      "name": "mock_set_last_participated_quarter",
      "outputs": [],
      "payable": false,
      "stateMutability": "nonpayable",
      "type": "function"
    },
    {
      "constant": false,
      "inputs": [
        {
          "name": "_users",
          "type": "address[]"
        },
        {
          "name": "_quarterIndex",
          "type": "uint256"
        }
      ],
      "name": "mock_bulk_set_last_participated_quarter",
      "outputs": [],
      "payable": false,
      "stateMutability": "nonpayable",
      "type": "function"
    },
    {
      "constant": false,
      "inputs": [
        {
          "name": "_user",
          "type": "address"
        },
        {
          "name": "_quarterIndex",
          "type": "uint256"
        }
      ],
      "name": "mock_set_last_quarter_that_rewards_was_updated",
      "outputs": [],
      "payable": false,
      "stateMutability": "nonpayable",
      "type": "function"
    },
    {
      "constant": false,
      "inputs": [
        {
          "name": "_quarterIndex",
          "type": "uint256"
        },
        {
          "name": "_dgxDistributionDay",
          "type": "uint256"
        }
      ],
      "name": "mock_set_dgx_distribution_day",
      "outputs": [],
      "payable": false,
      "stateMutability": "nonpayable",
      "type": "function"
    }
  ],
  "bytecode": "0x608060405260006001026003906000191690556000600460006101000a81548173ffffffffffffffffffffffffffffffffffffffff021916908373ffffffffffffffffffffffffffffffffffffffff1602179055507f70726f706f73616c5f73746174655f70726570726f706f73616c0000000000006005906000191690557f70726f706f73616c5f73746174655f64726166740000000000000000000000006006906000191690557f70726f706f73616c5f73746174655f6d6f6465726174656400000000000000006007906000191690557f70726f706f73616c5f73746174655f6f6e676f696e67000000000000000000006008906000191690557f70726f706f73616c5f73746174655f636c6f73656400000000000000000000006009906000191690556001600a556002600b556003600c556001600d556002600e556003600f557f696e7465725f6467645f696400000000000000000000000000000000000000006010906000191690557f696e7465725f6d6f645f6467645f6964000000000000000000000000000000006011906000191690557f696e7465725f626f6e75735f63616c63756c6174696f6e5f69640000000000006012906000191690557f64616f00000000000000000000000000000000000000000000000000000000006013906000191690557f64616f3a7370656369616c3a70726f706f73616c0000000000000000000000006014906000191690557f64616f3a7374616b652d6c6f636b696e670000000000000000000000000000006015906000191690557f64616f3a766f74696e67000000000000000000000000000000000000000000006016906000191690557f64616f3a766f74696e673a636c61696d730000000000000000000000000000006017906000191690557f64616f3a73766f74696e673a636c61696d7300000000000000000000000000006018906000191690557f64616f3a6964656e7469747900000000000000000000000000000000000000006019906000191690557f64616f3a726577617264732d6d616e6167657200000000000000000000000000601a906000191690557f64616f3a726577617264732d6578747261730000000000000000000000000000601b906000191690557f64616f3a726f6c65730000000000000000000000000000000000000000000000601c906000191690557f64616f3a66756e64696e672d6d616e6167657200000000000000000000000000601d906000191690557f64616f3a77686974656c697374696e6700000000000000000000000000000000601e906000191690557f736572766963653a726f6c650000000000000000000000000000000000000000601f906000191690557f736572766963653a64616f3a696e666f000000000000000000000000000000006020906000191690557f736572766963653a64616f3a6c697374696e67000000000000000000000000006021906000191690557f736572766963653a64616f3a63616c63756c61746f72000000000000000000006022906000191690557f73746f726167653a64616f0000000000000000000000000000000000000000006023906000191690557f73746f726167653a64616f3a75706772616465000000000000000000000000006024906000191690557f73746f726167653a64616f3a6964656e746974790000000000000000000000006025906000191690557f73746f726167653a64616f3a706f696e747300000000000000000000000000006026906000191690557f73746f726167653a64616f3a7370656369616c000000000000000000000000006027906000191690557f73746f726167653a64616f3a636f6e66696700000000000000000000000000006028906000191690557f73746f726167653a64616f3a7374616b650000000000000000000000000000006029906000191690557f73746f726167653a64616f3a66756e64696e6700000000000000000000000000602a906000191690557f73746f726167653a64616f3a7265776172647300000000000000000000000000602b906000191690557f73746f726167653a64616f3a77686974656c697374696e670000000000000000602c906000191690557f73746f726167653a696e7465726d6564696174653a726573756c747300000000602d906000191690557f73746f726167653a64616f3a636f6c6c61746572616c00000000000000000000602e906000191690557f743a646764000000000000000000000000000000000000000000000000000000602f906000191690557f743a6467780000000000000000000000000000000000000000000000000000006030906000191690557f743a6261646765000000000000000000000000000000000000000000000000006031906000191690556001603260006101000a81548160ff021916908360ff1602179055506002603260016101000a81548160ff021916908360ff1602179055506003603260026101000a81548160ff021916908360ff1602179055506004603260036101000a81548160ff021916908360ff1602179055506276a7006033557f6d696e5f6467645f7061727469636970616e74000000000000000000000000006034906000191690557f6d696e5f6467645f6d6f64657261746f720000000000000000000000000000006035906000191690557f6d696e5f72657075746174696f6e5f6d6f64657261746f7200000000000000006036906000191690557f6c6f636b696e675f70686173655f6475726174696f6e000000000000000000006037906000191690557f717561727465725f6475726174696f6e000000000000000000000000000000006038906000191690557f766f74696e675f636f6d6d69745f7068617365000000000000000000000000006039906000191690557f766f74696e675f70686173655f746f74616c0000000000000000000000000000603a906000191690557f696e746572696d5f766f74696e675f636f6d6d69745f70686173650000000000603b906000191690557f696e746572696d5f766f74696e675f70686173655f746f74616c000000000000603c906000191690557f64726166745f71756f72756d5f66697865645f6e756d657261746f7200000000603d906000191690557f64726166745f71756f72756d5f66697865645f64656e6f6d696e61746f720000603e906000191690557f64726166745f71756f72756d5f73666163746f725f6e756d657261746f720000603f906000191690557f64726166745f71756f72756d5f73666163746f725f64656e6f6d696e61746f726040906000191690557f766f74655f71756f72756d5f66697865645f6e756d657261746f7200000000006041906000191690557f766f74655f71756f72756d5f66697865645f64656e6f6d696e61746f720000006042906000191690557f766f74655f71756f72756d5f73666163746f725f6e756d657261746f720000006043906000191690557f766f74655f71756f72756d5f73666163746f725f64656e6f6d696e61746f72006044906000191690557f66696e616c5f7265776172645f73666163746f725f6e756d657261746f7200006045906000191690557f66696e616c5f7265776172645f73666163746f725f64656e6f6d696e61746f726046906000191690557f64726166745f71756f74615f6e756d657261746f7200000000000000000000006047906000191690557f64726166745f71756f74615f64656e6f6d696e61746f720000000000000000006048906000191690557f766f74696e675f71756f74615f6e756d657261746f72000000000000000000006049906000191690557f766f74696e675f71756f74615f64656e6f6d696e61746f720000000000000000604a906000191690557f6d696e696d616c5f717000000000000000000000000000000000000000000000604b906000191690557f717561727465725f706f696e745f7363616c696e675f666163746f7200000000604c906000191690557f7265705f706f696e745f7363616c696e675f666163746f720000000000000000604d906000191690557f6d696e696d616c5f6d6f645f7170000000000000000000000000000000000000604e906000191690557f6d6f645f71705f7363616c696e675f666163746f720000000000000000000000604f906000191690557f6d6f645f7265705f706f696e745f7363616c696e675f666163746f72000000006050906000191690557f717561727465725f706f696e745f64726166745f766f746500000000000000006051906000191690557f717561727465725f706f696e745f766f746500000000000000000000000000006052906000191690557f717561727465725f706f696e745f696e746572696d5f766f74650000000000006053906000191690557f717561727465725f706f696e745f636c61696d5f726573756c740000000000006054906000191690557f715f705f6d696c6573746f6e655f636f6d706c6574696f6e00000000000000006055906000191690557f626f6e75735f72657075746174696f6e5f6e756d657261746f720000000000006056906000191690557f626f6e75735f72657075746174696f6e5f64656e6f6d696e61746f72000000006057906000191690557f7370656369616c5f70726f706f73616c5f636f6d6d69745f70686173650000006058906000191690557f7370656369616c5f70726f706f73616c5f70686173655f746f74616c000000006059906000191690557f636f6e6669675f7370656369616c5f71756f74615f6e756d657261746f720000605a906000191690557f636f6e6669675f7370656369616c5f71756f74615f64656e6f6d696e61746f72605b906000191690557f7370656369616c5f71756f72756d5f6e756d657261746f720000000000000000605c906000191690557f7370656369616c5f71756f72756d5f64656e6f6d696e61746f72000000000000605d906000191690557f636f6e6669675f6d61785f72657075746174696f6e5f646564756374696f6e00605e906000191690557f636f6e6669675f70756e6973686d656e745f6e6f745f6c6f636b696e67000000605f906000191690557f636f6e6669675f7265705f7065725f65787472615f71705f6e756d00000000006060906000191690557f636f6e6669675f7265705f7065725f65787472615f71705f64656e00000000006061906000191690557f636f6e6669675f6d61785f6d5f72705f646564756374696f6e000000000000006062906000191690557f636f6e6669675f7265705f7065725f65787472615f6d5f71705f6e756d0000006063906000191690557f636f6e6669675f7265705f7065725f65787472615f6d5f71705f64656e0000006064906000191690557f636f6e6669675f6d6f645f706f7274696f6e5f6e756d000000000000000000006065906000191690557f636f6e6669675f6d6f645f706f7274696f6e5f64656e000000000000000000006066906000191690557f636f6e6669675f64726166745f766f74696e675f7068617365000000000000006067906000191690557f636f6e6669675f72705f626f6f73745f7065725f6261646765000000000000006068906000191690557f636f6e6669675f636c61696d696e675f646561646c696e6500000000000000006069906000191690557f636f6e6669675f70726570726f706f73616c5f6465706f736974000000000000606a906000191690557f636f6e6669675f6d61785f66756e64696e675f6e6f6e44696769780000000000606b906000191690557f636f6e6669675f6d61785f6d696c6573746f6e65735f6e6f6e44696769780000606c906000191690557f636f6e6669675f6e6f6e44696769785f70726f706f73616c5f63617000000000606d906000191690557f636f6e6669675f646561645f6475726174696f6e000000000000000000000000606e906000191690557f636f6e6669675f63765f72657075746174696f6e000000000000000000000000606f906000191690553480156200113457600080fd5b5060405160208062002c23833981018060405281019080805190602001909291905050508062001176602b54826200118a640100000000026401000000009004565b15156200118257600080fd5b50506200141b565b6000808273ffffffffffffffffffffffffffffffffffffffff1663cf3090126040518163ffffffff167c0100000000000000000000000000000000000000000000000000000000028152600401602060405180830381600087803b158015620011f257600080fd5b505af115801562001207573d6000803e3d6000fd5b505050506040513d60208110156200121e57600080fd5b810190808051906020019092919050505090506000151581151514156200140f5730600260006101000a81548173ffffffffffffffffffffffffffffffffffffffff021916908373ffffffffffffffffffffffffffffffffffffffff160217905550826000806101000a81548173ffffffffffffffffffffffffffffffffffffffff021916908373ffffffffffffffffffffffffffffffffffffffff16021790555083600181600019169055506000809054906101000a900473ffffffffffffffffffffffffffffffffffffffff1673ffffffffffffffffffffffffffffffffffffffff1663c0f6ef4a600154600260009054906101000a900473ffffffffffffffffffffffffffffffffffffffff166040518363ffffffff167c01000000000000000000000000000000000000000000000000000000000281526004018083600019166000191681526020018273ffffffffffffffffffffffffffffffffffffffff1673ffffffffffffffffffffffffffffffffffffffff16815260200192505050602060405180830381600087803b158015620013bc57600080fd5b505af1158015620013d1573d6000803e3d6000fd5b505050506040513d6020811015620013e857600080fd5b810190808051906020019092919050505015156200140557600080fd5b6001915062001414565b600091505b5092915050565b6117f8806200142b6000396000f300608060405260043610610180576000357c0100000000000000000000000000000000000000000000000000000000900463ffffffff16806304f3bcec146101855780630a76be54146101dc5780630f491b11146102295780630f596e2d1461026a57806312d9b939146102da57806327ddd3ae146103275780633943380c1461037e5780633f83acff146103b1578063521fcb661461042257806356dfd2b7146104bd57806362961de9146105445780636a8cfd091461059a57806378af89ac146105e757806384dbe99e1461063e578063863eb74a14610675578063927bb668146106c2578063a301c0d21461070f578063a4eeadee14610765578063a78e00d6146107b2578063bb80203e146107f3578063bcda642414610834578063bd695d211461088b578063cefc2bff146108e2578063cf542aa914610939578063d715d6f514610988578063d8048c9d146109b5578063db4ecbc114610a02578063f03222f014610a59578063f1dfda7814610a84578063fedf945314610b0b575b600080fd5b34801561019157600080fd5b5061019a610b4c565b604051808273ffffffffffffffffffffffffffffffffffffffff1673ffffffffffffffffffffffffffffffffffffffff16815260200191505060405180910390f35b3480156101e857600080fd5b50610227600480360381019080803573ffffffffffffffffffffffffffffffffffffffff16906020019092919080359060200190929190505050610b71565b005b34801561023557600080fd5b5061025460048036038101908080359060200190929190505050610bb9565b6040518082815260200191505060405180910390f35b34801561027657600080fd5b506102d86004803603810190808035906020019082018035906020019080806020026020016040519081016040528093929190818152602001838360200280828437820191505050505050919291929080359060200190929190505050610bd9565b005b3480156102e657600080fd5b50610325600480360381019080803573ffffffffffffffffffffffffffffffffffffffff16906020019092919080359060200190929190505050610c5b565b005b34801561033357600080fd5b50610368600480360381019080803573ffffffffffffffffffffffffffffffffffffffff169060200190929190505050610cf0565b6040518082815260200191505060405180910390f35b34801561038a57600080fd5b50610393610d08565b60405180826000191660001916815260200191505060405180910390f35b3480156103bd57600080fd5b506103e06004803603810190808035600019169060200190929190505050610d0e565b604051808273ffffffffffffffffffffffffffffffffffffffff1673ffffffffffffffffffffffffffffffffffffffff16815260200191505060405180910390f35b34801561042e57600080fd5b506104bb600480360381019080803590602001909291908035906020019092919080359060200190929190803590602001909291908035906020019092919080359060200190929190803590602001909291908035906020019092919080359060200190929190803590602001909291908035906020019092919080359060200190929190505050610dea565b005b3480156104c957600080fd5b506104e860048036038101908080359060200190929190505050610f37565b604051808c81526020018b81526020018a81526020018981526020018881526020018781526020018681526020018581526020018481526020018381526020018281526020019b50505050505050505050505060405180910390f35b34801561055057600080fd5b5061056f6004803603810190808035906020019092919050505061106a565b6040518085815260200184815260200183815260200182815260200194505050505060405180910390f35b3480156105a657600080fd5b506105e5600480360381019080803573ffffffffffffffffffffffffffffffffffffffff169060200190929190803590602001909291905050506110db565b005b3480156105f357600080fd5b50610628600480360381019080803573ffffffffffffffffffffffffffffffffffffffff169060200190929190505050611139565b6040518082815260200191505060405180910390f35b34801561064a57600080fd5b506106736004803603810190808035906020019092919080359060200190929190505050611151565b005b34801561068157600080fd5b506106c0600480360381019080803573ffffffffffffffffffffffffffffffffffffffff16906020019092919080359060200190929190505050611170565b005b3480156106ce57600080fd5b5061070d600480360381019080803573ffffffffffffffffffffffffffffffffffffffff169060200190929190803590602001909291905050506111ce565b005b34801561071b57600080fd5b5061073a6004803603810190808035906020019092919050505061122c565b6040518085815260200184815260200183815260200182815260200194505050505060405180910390f35b34801561077157600080fd5b506107b0600480360381019080803573ffffffffffffffffffffffffffffffffffffffff1690602001909291908035906020019092919050505061129d565b005b3480156107be57600080fd5b506107dd600480360381019080803590602001909291905050506112e5565b6040518082815260200191505060405180910390f35b3480156107ff57600080fd5b5061081e60048036038101908080359060200190929190505050611305565b6040518082815260200191505060405180910390f35b34801561084057600080fd5b50610875600480360381019080803573ffffffffffffffffffffffffffffffffffffffff169060200190929190505050611325565b6040518082815260200191505060405180910390f35b34801561089757600080fd5b506108cc600480360381019080803573ffffffffffffffffffffffffffffffffffffffff16906020019092919050505061133d565b6040518082815260200191505060405180910390f35b3480156108ee57600080fd5b50610923600480360381019080803573ffffffffffffffffffffffffffffffffffffffff169060200190929190505050611355565b6040518082815260200191505060405180910390f35b34801561094557600080fd5b506109646004803603810190808035906020019092919050505061136d565b60405180848152602001838152602001828152602001935050505060405180910390f35b34801561099457600080fd5b506109b3600480360381019080803590602001909291905050506113c4565b005b3480156109c157600080fd5b50610a00600480360381019080803573ffffffffffffffffffffffffffffffffffffffff169060200190929190803590602001909291905050506113f8565b005b348015610a0e57600080fd5b50610a1761148d565b604051808273ffffffffffffffffffffffffffffffffffffffff1673ffffffffffffffffffffffffffffffffffffffff16815260200191505060405180910390f35b348015610a6557600080fd5b50610a6e6114b3565b6040518082815260200191505060405180910390f35b348015610a9057600080fd5b50610aaf600480360381019080803590602001909291905050506114b9565b604051808c81526020018b81526020018a81526020018981526020018881526020018781526020018681526020018581526020018481526020018381526020018281526020019b50505050505050505050505060405180910390f35b348015610b1757600080fd5b50610b3660048036038101908080359060200190929190505050611513565b6040518082815260200191505060405180910390f35b6000809054906101000a900473ffffffffffffffffffffffffffffffffffffffff1681565b80607560008473ffffffffffffffffffffffffffffffffffffffff1673ffffffffffffffffffffffffffffffffffffffff168152602001908152602001600020819055505050565b600060706000838152602001908152602001600020600701549050919050565b60008083519150600090505b81811015610c555782607360008684815181101515610c0057fe5b9060200190602002015173ffffffffffffffffffffffffffffffffffffffff1673ffffffffffffffffffffffffffffffffffffffff168152602001908152602001600020819055508080600101915050610be5565b50505050565b610c9d606060405190810160405280601a5460001916600019168152602001601554600019166000191681526020016003546000191660001916815250611533565b1515610ca857600080fd5b80607660008473ffffffffffffffffffffffffffffffffffffffff1673ffffffffffffffffffffffffffffffffffffffff168152602001908152602001600020819055505050565b60756020528060005260406000206000915090505481565b60015481565b60008060009054906101000a900473ffffffffffffffffffffffffffffffffffffffff1673ffffffffffffffffffffffffffffffffffffffff16633f83acff836040518263ffffffff167c0100000000000000000000000000000000000000000000000000000000028152600401808260001916600019168152602001915050602060405180830381600087803b158015610da857600080fd5b505af1158015610dbc573d6000803e3d6000fd5b505050506040513d6020811015610dd257600080fd5b81019080805190602001909291905050509050919050565b610df5601a546116a6565b1515610e0057600080fd5b8a607060008e81526020019081526020016000206000018190555089607060008e81526020019081526020016000206001018190555088607060008e81526020019081526020016000206002018190555087607060008e81526020019081526020016000206003018190555086607060008e81526020019081526020016000206004018190555085607060008e81526020019081526020016000206005018190555084607060008e81526020019081526020016000206006018190555083607060008e81526020019081526020016000206007018190555082607060008e81526020019081526020016000206008018190555081607060008e81526020019081526020016000206009018190555080607060008e8152602001908152602001600020600a0181905550505050505050505050505050565b6000806000806000806000806000806000607060008d8152602001908152602001600020600001549a50607060008d8152602001908152602001600020600101549950607060008d8152602001908152602001600020600201549850607060008d8152602001908152602001600020600301549750607060008d8152602001908152602001600020600401549650607060008d8152602001908152602001600020600501549550607060008d8152602001908152602001600020600601549450607060008d8152602001908152602001600020600701549350607060008d8152602001908152602001600020600801549250607060008d8152602001908152602001600020600901549150607060008d8152602001908152602001600020600a0154905091939597999b90929496989a50565b600080600080607060008681526020019081526020016000206000015493506070600086815260200190815260200160002060010154925060706000868152602001908152602001600020600201549150607060008681526020019081526020016000206003015490509193509193565b6110e6601a546116a6565b15156110f157600080fd5b80607160008473ffffffffffffffffffffffffffffffffffffffff1673ffffffffffffffffffffffffffffffffffffffff168152602001908152602001600020819055505050565b60716020528060005260406000206000915090505481565b8060706000848152602001908152602001600020600801819055505050565b61117b6015546116a6565b151561118657600080fd5b80607460008473ffffffffffffffffffffffffffffffffffffffff1673ffffffffffffffffffffffffffffffffffffffff168152602001908152602001600020819055505050565b6111d96015546116a6565b15156111e457600080fd5b80607360008473ffffffffffffffffffffffffffffffffffffffff1673ffffffffffffffffffffffffffffffffffffffff168152602001908152602001600020819055505050565b600080600080607060008681526020019081526020016000206004015493506070600086815260200190815260200160002060050154925060706000868152602001908152602001600020600601549150607060008681526020019081526020016000206007015490509193509193565b80607360008473ffffffffffffffffffffffffffffffffffffffff1673ffffffffffffffffffffffffffffffffffffffff168152602001908152602001600020819055505050565b600060706000838152602001908152602001600020600801549050919050565b600060706000838152602001908152602001600020600901549050919050565b60746020528060005260406000206000915090505481565b60766020528060005260406000206000915090505481565b60736020528060005260406000206000915090505481565b6000806000607060008581526020019081526020016000206008015492506070600085815260200190815260200160002060090154915060706000858152602001908152602001600020600a015490509193909250565b6113cf601a546116a6565b15156113da57600080fd5b6113ef816072546117b090919063ffffffff16565b60728190555050565b61143a606060405190810160405280601a5460001916600019168152602001601554600019166000191681526020016003546000191660001916815250611533565b151561144557600080fd5b80607560008473ffffffffffffffffffffffffffffffffffffffff1673ffffffffffffffffffffffffffffffffffffffff168152602001908152602001600020819055505050565b600260009054906101000a900473ffffffffffffffffffffffffffffffffffffffff1681565b60725481565b607060205280600052604060002060009150905080600001549080600101549080600201549080600301549080600401549080600501549080600601549080600701549080600801549080600901549080600a015490508b565b600060706000838152602001908152602001600020600301549050919050565b600080600060039150600090505b8181101561169f57600060010260001916848260038110151561156057fe5b602002015160001916141561157457611692565b6000809054906101000a900473ffffffffffffffffffffffffffffffffffffffff1673ffffffffffffffffffffffffffffffffffffffff16633f83acff85836003811015156115bf57fe5b60200201516040518263ffffffff167c0100000000000000000000000000000000000000000000000000000000028152600401808260001916600019168152602001915050602060405180830381600087803b15801561161e57600080fd5b505af1158015611632573d6000803e3d6000fd5b505050506040513d602081101561164857600080fd5b810190808051906020019092919050505073ffffffffffffffffffffffffffffffffffffffff163373ffffffffffffffffffffffffffffffffffffffff16141561169157600192505b5b8080600101915050611541565b5050919050565b60008060009054906101000a900473ffffffffffffffffffffffffffffffffffffffff1673ffffffffffffffffffffffffffffffffffffffff16633f83acff836040518263ffffffff167c0100000000000000000000000000000000000000000000000000000000028152600401808260001916600019168152602001915050602060405180830381600087803b15801561174057600080fd5b505af1158015611754573d6000803e3d6000fd5b505050506040513d602081101561176a57600080fd5b810190808051906020019092919050505073ffffffffffffffffffffffffffffffffffffffff163373ffffffffffffffffffffffffffffffffffffffff16149050919050565b600081830190508281101515156117c357fe5b809050929150505600a165627a7a723058205977cf8fe4ebd69cad313cdda72d253100b0b135ed5345c048d9ab3d921742430029",
  "source": "pragma solidity ^0.4.24;\n\nimport \"../../storage/DaoRewardsStorage.sol\";\n\ncontract MockDaoRewardsStorage is DaoRewardsStorage {\n\n    constructor(address _resolver) public DaoRewardsStorage(_resolver) {}\n\n    function mock_set_last_participated_quarter(address _user, uint256 _quarterIndex)\n        public\n    {\n        lastParticipatedQuarter[_user] = _quarterIndex;\n    }\n\n    function mock_bulk_set_last_participated_quarter(address[] _users, uint256 _quarterIndex)\n        public\n    {\n        uint256 _n = _users.length;\n        for (uint256 i = 0; i < _n; i++) {\n            lastParticipatedQuarter[_users[i]] = _quarterIndex;\n        }\n    }\n\n    function mock_set_last_quarter_that_rewards_was_updated(address _user, uint256 _quarterIndex)\n        public\n    {\n        lastQuarterThatRewardsWasUpdated[_user] = _quarterIndex;\n    }\n\n    function mock_set_dgx_distribution_day(uint256 _quarterIndex, uint256 _dgxDistributionDay)\n        public\n    {\n        allQuartersInfo[_quarterIndex].dgxDistributionDay = _dgxDistributionDay;\n    }\n}\n",
  "sourcePath": "/home/rohit/Develop/dao-contracts/contracts/mock/storage/MockDaoRewardsStorage.sol",
  "compiler": {
    "name": "solc",
    "version": "0.4.24+commit.e67f0147.Emscripten.clang"
  },
  "schemaVersion": "2.0.1",
  "updatedAt": "2018-10-08T06:32:23.390Z"
}