{
  "contractName": "MockWhitelistedContract",
  "abi": [
    {
      "constant": true,
      "inputs": [],
      "name": "name",
      "outputs": [
        {
          "name": "",
          "type": "bytes32"
        }
      ],
      "payable": false,
      "stateMutability": "view",
      "type": "function"
    },
    {
      "constant": false,
      "inputs": [
        {
          "name": "_name",
          "type": "bytes32"
        }
      ],
      "name": "MockInteractiveContract",
      "outputs": [],
      "payable": false,
      "stateMutability": "nonpayable",
      "type": "function"
    },
    {
      "constant": true,
      "inputs": [
        {
          "name": "_daoStorageAddress",
          "type": "address"
        },
        {
          "name": "_proposalId",
          "type": "bytes32"
        },
        {
          "name": "_index",
          "type": "uint256"
        },
        {
          "name": "_allUsers",
          "type": "address[]"
        }
      ],
      "name": "mock_call_readVotingRoundVotes",
      "outputs": [],
      "payable": false,
      "stateMutability": "view",
      "type": "function"
    },
    {
      "constant": true,
      "inputs": [
        {
          "name": "_daoStorageAddress",
          "type": "address"
        },
        {
          "name": "_proposalId",
          "type": "bytes32"
        },
        {
          "name": "_voter",
          "type": "address"
        }
      ],
      "name": "mock_call_readDraftVote",
      "outputs": [],
      "payable": false,
      "stateMutability": "view",
      "type": "function"
    },
    {
      "constant": true,
      "inputs": [
        {
          "name": "_daoStorageAddress",
          "type": "address"
        },
        {
          "name": "_proposalId",
          "type": "bytes32"
        },
        {
          "name": "_index",
          "type": "uint256"
        },
        {
          "name": "_voter",
          "type": "address"
        }
      ],
      "name": "mock_call_readComittedVote",
      "outputs": [],
      "payable": false,
      "stateMutability": "view",
      "type": "function"
    },
    {
      "constant": true,
      "inputs": [
        {
          "name": "_daoStorageAddress",
          "type": "address"
        },
        {
          "name": "_proposalId",
          "type": "bytes32"
        },
        {
          "name": "_index",
          "type": "uint256"
        },
        {
          "name": "_voter",
          "type": "address"
        }
      ],
      "name": "mock_call_readVote",
      "outputs": [],
      "payable": false,
      "stateMutability": "view",
      "type": "function"
    },
    {
      "constant": true,
      "inputs": [
        {
          "name": "_daoSpecialStorageAddress",
          "type": "address"
        },
        {
          "name": "_proposalId",
          "type": "bytes32"
        },
        {
          "name": "_voter",
          "type": "address"
        }
      ],
      "name": "mock_call_special_readVote",
      "outputs": [],
      "payable": false,
      "stateMutability": "view",
      "type": "function"
    },
    {
      "constant": true,
      "inputs": [
        {
          "name": "_daoSpecialStorageAddress",
          "type": "address"
        },
        {
          "name": "_proposalId",
          "type": "bytes32"
        },
        {
          "name": "_voter",
          "type": "address"
        }
      ],
      "name": "mock_call_special_readComittedVote",
      "outputs": [],
      "payable": false,
      "stateMutability": "view",
      "type": "function"
    }
  ],
  "bytecode": "0x608060405234801561001057600080fd5b50610c02806100206000396000f30060806040526004361061008e576000357c0100000000000000000000000000000000000000000000000000000000900463ffffffff16806306fdde03146100935780630c9056b8146100c65780633349566b146101375780634284df1d146101b2578063865ef30c1461022d578063af0099ab146102cb578063c6b1b86f1461033c578063c769381f146103ad575b600080fd5b34801561009f57600080fd5b506100a86103de565b60405180826000191660001916815260200191505060405180910390f35b3480156100d257600080fd5b50610135600480360381019080803573ffffffffffffffffffffffffffffffffffffffff1690602001909291908035600019169060200190929190803573ffffffffffffffffffffffffffffffffffffffff1690602001909291905050506103e4565b005b34801561014357600080fd5b506101b0600480360381019080803573ffffffffffffffffffffffffffffffffffffffff169060200190929190803560001916906020019092919080359060200190929190803573ffffffffffffffffffffffffffffffffffffffff1690602001909291905050506104d4565b005b3480156101be57600080fd5b5061022b600480360381019080803573ffffffffffffffffffffffffffffffffffffffff169060200190929190803560001916906020019092919080359060200190929190803573ffffffffffffffffffffffffffffffffffffffff1690602001909291905050506105cd565b005b34801561023957600080fd5b506102c9600480360381019080803573ffffffffffffffffffffffffffffffffffffffff169060200190929190803560001916906020019092919080359060200190929190803590602001908201803590602001908080602002602001604051908101604052809392919081815260200183836020028082843782019150505050505091929192905050506106d3565b005b3480156102d757600080fd5b5061033a600480360381019080803573ffffffffffffffffffffffffffffffffffffffff1690602001909291908035600019169060200190929190803573ffffffffffffffffffffffffffffffffffffffff1690602001909291905050506109ce565b005b34801561034857600080fd5b506103ab600480360381019080803573ffffffffffffffffffffffffffffffffffffffff1690602001909291908035600019169060200190929190803573ffffffffffffffffffffffffffffffffffffffff169060200190929190505050610acb565b005b3480156103b957600080fd5b506103dc6004803603810190808035600019169060200190929190505050610bc8565b005b60005481565b60008373ffffffffffffffffffffffffffffffffffffffff1663f31a1ba284846040518363ffffffff167c01000000000000000000000000000000000000000000000000000000000281526004018083600019166000191681526020018273ffffffffffffffffffffffffffffffffffffffff1673ffffffffffffffffffffffffffffffffffffffff16815260200192505050602060405180830381600087803b15801561049157600080fd5b505af11580156104a5573d6000803e3d6000fd5b505050506040513d60208110156104bb57600080fd5b8101908080519060200190929190505050905050505050565b60008473ffffffffffffffffffffffffffffffffffffffff1663598f0eaf8585856040518463ffffffff167c01000000000000000000000000000000000000000000000000000000000281526004018084600019166000191681526020018381526020018273ffffffffffffffffffffffffffffffffffffffff1673ffffffffffffffffffffffffffffffffffffffff1681526020019350505050602060405180830381600087803b15801561058957600080fd5b505af115801561059d573d6000803e3d6000fd5b505050506040513d60208110156105b357600080fd5b810190808051906020019092919050505090505050505050565b60008473ffffffffffffffffffffffffffffffffffffffff16631d2103d18585856040518463ffffffff167c01000000000000000000000000000000000000000000000000000000000281526004018084600019166000191681526020018381526020018273ffffffffffffffffffffffffffffffffffffffff1673ffffffffffffffffffffffffffffffffffffffff16815260200193505050506040805180830381600087803b15801561068157600080fd5b505af1158015610695573d6000803e3d6000fd5b505050506040513d60408110156106ab57600080fd5b8101908080519060200190929190805190602001909291905050509050809150505050505050565b60008473ffffffffffffffffffffffffffffffffffffffff1663e81362fe85858560016040518563ffffffff167c01000000000000000000000000000000000000000000000000000000000281526004018085600019166000191681526020018481526020018060200183151515158152602001828103825284818151815260200191508051906020019060200280838360005b83811015610782578082015181840152602081019050610767565b5050505090500195505050505050600060405180830381600087803b1580156107aa57600080fd5b505af11580156107be573d6000803e3d6000fd5b505050506040513d6000823e3d601f19601f8201168201806040525060408110156107e857600080fd5b81019080805164010000000081111561080057600080fd5b8281019050602081018481111561081657600080fd5b815185602082028301116401000000008211171561083357600080fd5b5050929190602001805190602001909291905050509050809150508473ffffffffffffffffffffffffffffffffffffffff1663e81362fe85858560006040518563ffffffff167c01000000000000000000000000000000000000000000000000000000000281526004018085600019166000191681526020018481526020018060200183151515158152602001828103825284818151815260200191508051906020019060200280838360005b838110156108fb5780820151818401526020810190506108e0565b5050505090500195505050505050600060405180830381600087803b15801561092357600080fd5b505af1158015610937573d6000803e3d6000fd5b505050506040513d6000823e3d601f19601f82011682018060405250604081101561096157600080fd5b81019080805164010000000081111561097957600080fd5b8281019050602081018481111561098f57600080fd5b81518560208202830111640100000000821117156109ac57600080fd5b5050929190602001805190602001909291905050509050809150505050505050565b60008373ffffffffffffffffffffffffffffffffffffffff1663e5c2654e84846040518363ffffffff167c01000000000000000000000000000000000000000000000000000000000281526004018083600019166000191681526020018273ffffffffffffffffffffffffffffffffffffffff1673ffffffffffffffffffffffffffffffffffffffff168152602001925050506040805180830381600087803b158015610a7a57600080fd5b505af1158015610a8e573d6000803e3d6000fd5b505050506040513d6040811015610aa457600080fd5b81019080805190602001909291908051906020019092919050505090508091505050505050565b60008373ffffffffffffffffffffffffffffffffffffffff1663e14b2c2684846040518363ffffffff167c01000000000000000000000000000000000000000000000000000000000281526004018083600019166000191681526020018273ffffffffffffffffffffffffffffffffffffffff1673ffffffffffffffffffffffffffffffffffffffff168152602001925050506040805180830381600087803b158015610b7757600080fd5b505af1158015610b8b573d6000803e3d6000fd5b505050506040513d6040811015610ba157600080fd5b81019080805190602001909291908051906020019092919050505090508091505050505050565b8060008160001916905550505600a165627a7a72305820fe75f696f6f0b93f97170a1042037b9f31cfdd7bb2c81c363642c6210f8e4e5f0029",
  "source": "pragma solidity ^0.4.24;\n\nimport \"./interface/DaoStorageInterface.sol\";\nimport \"./interface/DaoSpecialStorageInterface.sol\";\n\ncontract MockWhitelistedContract {\n    bytes32 public name;\n\n    function MockInteractiveContract(bytes32 _name) public {\n        name = _name;\n    }\n\n    function mock_call_readVotingRoundVotes(\n        address _daoStorageAddress,\n        bytes32 _proposalId,\n        uint256 _index,\n        address[] _allUsers\n    )\n        public\n        constant\n    {\n        uint256 _uintValue;\n        (,_uintValue) = DaoStorageInterface(_daoStorageAddress).readVotingRoundVotes(\n            _proposalId,\n            _index,\n            _allUsers,\n            true\n        );\n        (,_uintValue) = DaoStorageInterface(_daoStorageAddress).readVotingRoundVotes(\n            _proposalId,\n            _index,\n            _allUsers,\n            false\n        );\n    }\n\n    function mock_call_readDraftVote(\n        address _daoStorageAddress,\n        bytes32 _proposalId,\n        address _voter\n    )\n        public\n        constant\n    {\n        uint256 _uintValue;\n        (,_uintValue) = DaoStorageInterface(_daoStorageAddress).readDraftVote(\n            _proposalId,\n            _voter\n        );\n    }\n\n    function mock_call_readComittedVote(\n        address _daoStorageAddress,\n        bytes32 _proposalId,\n        uint256 _index,\n        address _voter\n    )\n        public\n        constant\n    {\n        bytes32 _bytesValue;\n        _bytesValue = DaoStorageInterface(_daoStorageAddress).readComittedVote(\n            _proposalId,\n            _index,\n            _voter\n        );\n    }\n\n    function mock_call_readVote(\n        address _daoStorageAddress,\n        bytes32 _proposalId,\n        uint256 _index,\n        address _voter\n    )\n        public\n        constant\n    {\n        uint256 _uintValue;\n        (,_uintValue) = DaoStorageInterface(_daoStorageAddress).readVote(\n            _proposalId,\n            _index,\n            _voter\n        );\n    }\n\n    function mock_call_special_readVote(\n        address _daoSpecialStorageAddress,\n        bytes32 _proposalId,\n        address _voter\n    )\n        public\n        constant\n    {\n        uint256 _uintValue;\n        (,_uintValue) = DaoSpecialStorageInterface(_daoSpecialStorageAddress).readVote(\n            _proposalId,\n            _voter\n        );\n    }\n\n    function mock_call_special_readComittedVote(\n        address _daoSpecialStorageAddress,\n        bytes32 _proposalId,\n        address _voter\n    )\n        public\n        constant\n    {\n        bytes32 _bytesValue;\n        _bytesValue = DaoSpecialStorageInterface(_daoSpecialStorageAddress).readComittedVote(\n            _proposalId,\n            _voter\n        );\n    }\n}\n",
  "sourcePath": "/home/rohit/Develop/dao-contracts/contracts/mock/MockWhitelistedContract.sol",
  "compiler": {
    "name": "solc",
    "version": "0.4.24+commit.e67f0147.Emscripten.clang"
  },
  "schemaVersion": "2.0.1",
  "updatedAt": "2018-10-08T06:32:23.378Z"
}