{
  "contractName": "MockNumberCarbonVoting",
  "abi": [
    {
      "constant": true,
      "inputs": [],
      "name": "name",
      "outputs": [
        {
          "name": "",
          "type": "bytes32"
        }
      ],
      "payable": false,
      "stateMutability": "view",
      "type": "function"
    },
    {
      "constant": true,
      "inputs": [
        {
          "name": "",
          "type": "address"
        }
      ],
      "name": "voted",
      "outputs": [
        {
          "name": "",
          "type": "bool"
        }
      ],
      "payable": false,
      "stateMutability": "view",
      "type": "function"
    },
    {
      "inputs": [
        {
          "name": "_name",
          "type": "bytes32"
        }
      ],
      "payable": false,
      "stateMutability": "nonpayable",
      "type": "constructor"
    },
    {
      "constant": false,
      "inputs": [
        {
          "name": "_user",
          "type": "address"
        }
      ],
      "name": "mock_set_voted",
      "outputs": [],
      "payable": false,
      "stateMutability": "nonpayable",
      "type": "function"
    }
  ],
  "bytecode": "0x608060405234801561001057600080fd5b50604051602080610227833981018060405281019080805190602001909291905050508060008160001916905550506101d98061004e6000396000f300608060405260043610610057576000357c0100000000000000000000000000000000000000000000000000000000900463ffffffff16806306fdde031461005c578063aec2ccae1461008f578063cb86107b146100ea575b600080fd5b34801561006857600080fd5b5061007161012d565b60405180826000191660001916815260200191505060405180910390f35b34801561009b57600080fd5b506100d0600480360381019080803573ffffffffffffffffffffffffffffffffffffffff169060200190929190505050610133565b604051808215151515815260200191505060405180910390f35b3480156100f657600080fd5b5061012b600480360381019080803573ffffffffffffffffffffffffffffffffffffffff169060200190929190505050610153565b005b60005481565b60016020528060005260406000206000915054906101000a900460ff1681565b60018060008373ffffffffffffffffffffffffffffffffffffffff1673ffffffffffffffffffffffffffffffffffffffff16815260200190815260200160002060006101000a81548160ff021916908315150217905550505600a165627a7a723058209e51bd3fc700981c1c8babe4c83f4ca8d0d8842cfbf8b121bc01055c0393af340029",
  "source": "pragma solidity ^0.4.24;\n\ncontract MockNumberCarbonVoting {\n\n    bytes32 public name;\n    mapping(address => bool) public voted;\n\n    constructor(bytes32 _name) public {\n        name = _name;\n    }\n\n    function mock_set_voted(address _user)\n        public\n    {\n        voted[_user] = true;\n    }\n}\n",
  "sourcePath": "/home/rohit/Develop/dao-contracts/contracts/mock/MockNumberCarbonVoting.sol",
  "compiler": {
    "name": "solc",
    "version": "0.4.24+commit.e67f0147.Emscripten.clang"
  },
  "schemaVersion": "2.0.1",
  "updatedAt": "2018-10-08T06:32:23.378Z"
}